{
	"contracts/main.sol": {
		"NakedToken": {
			"abi": [
				{
					"inputs": [
						{
							"internalType": "uint256",
							"name": "initialSupply",
							"type": "uint256"
						}
					],
					"stateMutability": "nonpayable",
					"type": "constructor"
				},
				{
					"inputs": [
						{
							"internalType": "address",
							"name": "",
							"type": "address"
						},
						{
							"internalType": "address",
							"name": "",
							"type": "address"
						}
					],
					"name": "allowance",
					"outputs": [
						{
							"internalType": "uint256",
							"name": "",
							"type": "uint256"
						}
					],
					"stateMutability": "view",
					"type": "function"
				},
				{
					"inputs": [
						{
							"internalType": "address",
							"name": "spender",
							"type": "address"
						},
						{
							"internalType": "uint256",
							"name": "amount",
							"type": "uint256"
						}
					],
					"name": "approve",
					"outputs": [
						{
							"internalType": "bool",
							"name": "",
							"type": "bool"
						}
					],
					"stateMutability": "nonpayable",
					"type": "function"
				},
				{
					"inputs": [
						{
							"internalType": "address",
							"name": "account",
							"type": "address"
						}
					],
					"name": "balanceOf",
					"outputs": [
						{
							"internalType": "uint256",
							"name": "",
							"type": "uint256"
						}
					],
					"stateMutability": "view",
					"type": "function"
				},
				{
					"inputs": [
						{
							"internalType": "address",
							"name": "",
							"type": "address"
						}
					],
					"name": "balances",
					"outputs": [
						{
							"internalType": "uint256",
							"name": "",
							"type": "uint256"
						}
					],
					"stateMutability": "view",
					"type": "function"
				},
				{
					"inputs": [],
					"name": "name",
					"outputs": [
						{
							"internalType": "string",
							"name": "",
							"type": "string"
						}
					],
					"stateMutability": "view",
					"type": "function"
				},
				{
					"inputs": [],
					"name": "symbol",
					"outputs": [
						{
							"internalType": "string",
							"name": "",
							"type": "string"
						}
					],
					"stateMutability": "view",
					"type": "function"
				},
				{
					"inputs": [],
					"name": "totalSupply",
					"outputs": [
						{
							"internalType": "uint256",
							"name": "",
							"type": "uint256"
						}
					],
					"stateMutability": "view",
					"type": "function"
				},
				{
					"inputs": [
						{
							"internalType": "address",
							"name": "recipient",
							"type": "address"
						},
						{
							"internalType": "uint256",
							"name": "amount",
							"type": "uint256"
						}
					],
					"name": "transfer",
					"outputs": [
						{
							"internalType": "bool",
							"name": "",
							"type": "bool"
						}
					],
					"stateMutability": "nonpayable",
					"type": "function"
				},
				{
					"inputs": [
						{
							"internalType": "address",
							"name": "sender",
							"type": "address"
						},
						{
							"internalType": "address",
							"name": "recipient",
							"type": "address"
						},
						{
							"internalType": "uint256",
							"name": "amount",
							"type": "uint256"
						}
					],
					"name": "transferFrom",
					"outputs": [
						{
							"internalType": "bool",
							"name": "",
							"type": "bool"
						}
					],
					"stateMutability": "nonpayable",
					"type": "function"
				}
			],
			"devdoc": {
				"kind": "dev",
				"methods": {},
				"version": 1
			},
			"evm": {
				"assembly": "    /* \"contracts/main.sol\":61:1619  contract NakedToken {... */\n  mstore(0x40, 0x80)\n    /* \"contracts/main.sol\":352:489  constructor(uint256 initialSupply) {... */\n  callvalue\n  dup1\n  iszero\n  tag_1\n  jumpi\n  revert(0x00, 0x00)\ntag_1:\n  pop\n  mload(0x40)\n  sub(codesize, bytecodeSize)\n  dup1\n  bytecodeSize\n  dup4\n  codecopy\n  dup2\n  dup2\n  add\n  0x40\n  mstore\n  dup2\n  add\n  swap1\n  tag_2\n  swap2\n  swap1\n  tag_3\n  jump\t// in\ntag_2:\n    /* \"contracts/main.sol\":429:435  10**18 */\n  0x0de0b6b3a7640000\n    /* \"contracts/main.sol\":413:426  initialSupply */\n  dup2\n    /* \"contracts/main.sol\":413:435  initialSupply * 10**18 */\n  tag_6\n  swap2\n  swap1\n  tag_7\n  jump\t// in\ntag_6:\n    /* \"contracts/main.sol\":398:410  _totalSupply */\n  0x02\n    /* \"contracts/main.sol\":398:435  _totalSupply = initialSupply * 10**18 */\n  dup2\n  swap1\n  sstore\n  pop\n    /* \"contracts/main.sol\":469:481  _totalSupply */\n  sload(0x02)\n    /* \"contracts/main.sol\":446:454  balances */\n  0x00\n    /* \"contracts/main.sol\":446:466  balances[msg.sender] */\n  0x00\n    /* \"contracts/main.sol\":455:465  msg.sender */\n  caller\n    /* \"contracts/main.sol\":446:466  balances[msg.sender] */\n  0xffffffffffffffffffffffffffffffffffffffff\n  and\n  0xffffffffffffffffffffffffffffffffffffffff\n  and\n  dup2\n  mstore\n  0x20\n  add\n  swap1\n  dup2\n  mstore\n  0x20\n  add\n  0x00\n  keccak256\n    /* \"contracts/main.sol\":446:481  balances[msg.sender] = _totalSupply */\n  dup2\n  swap1\n  sstore\n  pop\n    /* \"contracts/main.sol\":352:489  constructor(uint256 initialSupply) {... */\n  pop\n    /* \"contracts/main.sol\":61:1619  contract NakedToken {... */\n  jump(tag_8)\n    /* \"#utility.yul\":88:205   */\ntag_10:\n    /* \"#utility.yul\":197:198   */\n  0x00\n    /* \"#utility.yul\":194:195   */\n  0x00\n    /* \"#utility.yul\":187:199   */\n  revert\n    /* \"#utility.yul\":334:411   */\ntag_12:\n    /* \"#utility.yul\":371:378   */\n  0x00\n    /* \"#utility.yul\":400:405   */\n  dup2\n    /* \"#utility.yul\":389:405   */\n  swap1\n  pop\n    /* \"#utility.yul\":334:411   */\n  swap2\n  swap1\n  pop\n  jump\t// out\n    /* \"#utility.yul\":417:539   */\ntag_13:\n    /* \"#utility.yul\":490:514   */\n  tag_22\n    /* \"#utility.yul\":508:513   */\n  dup2\n    /* \"#utility.yul\":490:514   */\n  tag_12\n  jump\t// in\ntag_22:\n    /* \"#utility.yul\":483:488   */\n  dup2\n    /* \"#utility.yul\":480:515   */\n  eq\n    /* \"#utility.yul\":470:533   */\n  tag_23\n  jumpi\n    /* \"#utility.yul\":529:530   */\n  0x00\n    /* \"#utility.yul\":526:527   */\n  0x00\n    /* \"#utility.yul\":519:531   */\n  revert\n    /* \"#utility.yul\":470:533   */\ntag_23:\n    /* \"#utility.yul\":417:539   */\n  pop\n  jump\t// out\n    /* \"#utility.yul\":545:688   */\ntag_14:\n    /* \"#utility.yul\":602:607   */\n  0x00\n    /* \"#utility.yul\":633:639   */\n  dup2\n    /* \"#utility.yul\":627:640   */\n  mload\n    /* \"#utility.yul\":618:640   */\n  swap1\n  pop\n    /* \"#utility.yul\":649:682   */\n  tag_25\n    /* \"#utility.yul\":676:681   */\n  dup2\n    /* \"#utility.yul\":649:682   */\n  tag_13\n  jump\t// in\ntag_25:\n    /* \"#utility.yul\":545:688   */\n  swap3\n  swap2\n  pop\n  pop\n  jump\t// out\n    /* \"#utility.yul\":694:1045   */\ntag_3:\n    /* \"#utility.yul\":764:770   */\n  0x00\n    /* \"#utility.yul\":813:815   */\n  0x20\n    /* \"#utility.yul\":801:810   */\n  dup3\n    /* \"#utility.yul\":792:799   */\n  dup5\n    /* \"#utility.yul\":788:811   */\n  sub\n    /* \"#utility.yul\":784:816   */\n  slt\n    /* \"#utility.yul\":781:900   */\n  iszero\n  tag_27\n  jumpi\n    /* \"#utility.yul\":819:898   */\n  tag_28\n  tag_10\n  jump\t// in\ntag_28:\n    /* \"#utility.yul\":781:900   */\ntag_27:\n    /* \"#utility.yul\":939:940   */\n  0x00\n    /* \"#utility.yul\":964:1028   */\n  tag_29\n    /* \"#utility.yul\":1020:1027   */\n  dup5\n    /* \"#utility.yul\":1011:1017   */\n  dup3\n    /* \"#utility.yul\":1000:1009   */\n  dup6\n    /* \"#utility.yul\":996:1018   */\n  add\n    /* \"#utility.yul\":964:1028   */\n  tag_14\n  jump\t// in\ntag_29:\n    /* \"#utility.yul\":954:1028   */\n  swap2\n  pop\n    /* \"#utility.yul\":910:1038   */\n  pop\n    /* \"#utility.yul\":694:1045   */\n  swap3\n  swap2\n  pop\n  pop\n  jump\t// out\n    /* \"#utility.yul\":1051:1231   */\ntag_15:\n    /* \"#utility.yul\":1099:1176   */\n  0x4e487b7100000000000000000000000000000000000000000000000000000000\n    /* \"#utility.yul\":1096:1097   */\n  0x00\n    /* \"#utility.yul\":1089:1177   */\n  mstore\n    /* \"#utility.yul\":1196:1200   */\n  0x11\n    /* \"#utility.yul\":1193:1194   */\n  0x04\n    /* \"#utility.yul\":1186:1201   */\n  mstore\n    /* \"#utility.yul\":1220:1224   */\n  0x24\n    /* \"#utility.yul\":1217:1218   */\n  0x00\n    /* \"#utility.yul\":1210:1225   */\n  revert\n    /* \"#utility.yul\":1237:1647   */\ntag_7:\n    /* \"#utility.yul\":1277:1284   */\n  0x00\n    /* \"#utility.yul\":1300:1320   */\n  tag_32\n    /* \"#utility.yul\":1318:1319   */\n  dup3\n    /* \"#utility.yul\":1300:1320   */\n  tag_12\n  jump\t// in\ntag_32:\n    /* \"#utility.yul\":1295:1320   */\n  swap2\n  pop\n    /* \"#utility.yul\":1334:1354   */\n  tag_33\n    /* \"#utility.yul\":1352:1353   */\n  dup4\n    /* \"#utility.yul\":1334:1354   */\n  tag_12\n  jump\t// in\ntag_33:\n    /* \"#utility.yul\":1329:1354   */\n  swap3\n  pop\n    /* \"#utility.yul\":1389:1390   */\n  dup3\n    /* \"#utility.yul\":1386:1387   */\n  dup3\n    /* \"#utility.yul\":1382:1391   */\n  mul\n    /* \"#utility.yul\":1411:1441   */\n  tag_34\n    /* \"#utility.yul\":1429:1440   */\n  dup2\n    /* \"#utility.yul\":1411:1441   */\n  tag_12\n  jump\t// in\ntag_34:\n    /* \"#utility.yul\":1400:1441   */\n  swap2\n  pop\n    /* \"#utility.yul\":1590:1591   */\n  dup3\n    /* \"#utility.yul\":1581:1588   */\n  dup3\n    /* \"#utility.yul\":1577:1592   */\n  div\n    /* \"#utility.yul\":1574:1575   */\n  dup5\n    /* \"#utility.yul\":1571:1593   */\n  eq\n    /* \"#utility.yul\":1551:1552   */\n  dup4\n    /* \"#utility.yul\":1544:1553   */\n  iszero\n    /* \"#utility.yul\":1524:1607   */\n  or\n    /* \"#utility.yul\":1501:1640   */\n  tag_35\n  jumpi\n    /* \"#utility.yul\":1620:1638   */\n  tag_36\n  tag_15\n  jump\t// in\ntag_36:\n    /* \"#utility.yul\":1501:1640   */\ntag_35:\n    /* \"#utility.yul\":1285:1647   */\n  pop\n    /* \"#utility.yul\":1237:1647   */\n  swap3\n  swap2\n  pop\n  pop\n  jump\t// out\n    /* \"contracts/main.sol\":61:1619  contract NakedToken {... */\ntag_8:\n  dataSize(sub_0)\n  dup1\n  dataOffset(sub_0)\n  0x00\n  codecopy\n  0x00\n  return\nstop\n\nsub_0: assembly {\n        /* \"contracts/main.sol\":61:1619  contract NakedToken {... */\n      mstore(0x40, 0x80)\n      callvalue\n      dup1\n      iszero\n      tag_1\n      jumpi\n      revert(0x00, 0x00)\n    tag_1:\n      pop\n      jumpi(tag_2, lt(calldatasize, 0x04))\n      shr(0xe0, calldataload(0x00))\n      dup1\n      0x27e235e3\n      gt\n      tag_12\n      jumpi\n      dup1\n      0x27e235e3\n      eq\n      tag_7\n      jumpi\n      dup1\n      0x70a08231\n      eq\n      tag_8\n      jumpi\n      dup1\n      0x95d89b41\n      eq\n      tag_9\n      jumpi\n      dup1\n      0xa9059cbb\n      eq\n      tag_10\n      jumpi\n      dup1\n      0xdd62ed3e\n      eq\n      tag_11\n      jumpi\n      jump(tag_2)\n    tag_12:\n      dup1\n      0x06fdde03\n      eq\n      tag_3\n      jumpi\n      dup1\n      0x095ea7b3\n      eq\n      tag_4\n      jumpi\n      dup1\n      0x18160ddd\n      eq\n      tag_5\n      jumpi\n      dup1\n      0x23b872dd\n      eq\n      tag_6\n      jumpi\n    tag_2:\n      revert(0x00, 0x00)\n        /* \"contracts/main.sol\":213:259  string public constant name = \"FE Token Basic\" */\n    tag_3:\n      tag_13\n      tag_14\n      jump\t// in\n    tag_13:\n      mload(0x40)\n      tag_15\n      swap2\n      swap1\n      tag_16\n      jump\t// in\n    tag_15:\n      mload(0x40)\n      dup1\n      swap2\n      sub\n      swap1\n      return\n        /* \"contracts/main.sol\":881:1032  function approve(address spender, uint256 amount) public returns (bool){... */\n    tag_4:\n      tag_17\n      0x04\n      dup1\n      calldatasize\n      sub\n      dup2\n      add\n      swap1\n      tag_18\n      swap2\n      swap1\n      tag_19\n      jump\t// in\n    tag_18:\n      tag_20\n      jump\t// in\n    tag_17:\n      mload(0x40)\n      tag_21\n      swap2\n      swap1\n      tag_22\n      jump\t// in\n    tag_21:\n      mload(0x40)\n      dup1\n      swap2\n      sub\n      swap1\n      return\n        /* \"contracts/main.sol\":1523:1614  function totalSupply() public view returns (uint256) {... */\n    tag_5:\n      tag_23\n      tag_24\n      jump\t// in\n    tag_23:\n      mload(0x40)\n      tag_25\n      swap2\n      swap1\n      tag_26\n      jump\t// in\n    tag_25:\n      mload(0x40)\n      dup1\n      swap2\n      sub\n      swap1\n      return\n        /* \"contracts/main.sol\":1040:1515  function transferFrom(address sender, address recipient, uint256 amount) public returns (bool){... */\n    tag_6:\n      tag_27\n      0x04\n      dup1\n      calldatasize\n      sub\n      dup2\n      add\n      swap1\n      tag_28\n      swap2\n      swap1\n      tag_29\n      jump\t// in\n    tag_28:\n      tag_30\n      jump\t// in\n    tag_27:\n      mload(0x40)\n      tag_31\n      swap2\n      swap1\n      tag_22\n      jump\t// in\n    tag_31:\n      mload(0x40)\n      dup1\n      swap2\n      sub\n      swap1\n      return\n        /* \"contracts/main.sol\":88:131  mapping ( address => uint ) public balances */\n    tag_7:\n      tag_32\n      0x04\n      dup1\n      calldatasize\n      sub\n      dup2\n      add\n      swap1\n      tag_33\n      swap2\n      swap1\n      tag_34\n      jump\t// in\n    tag_33:\n      tag_35\n      jump\t// in\n    tag_32:\n      mload(0x40)\n      tag_36\n      swap2\n      swap1\n      tag_26\n      jump\t// in\n    tag_36:\n      mload(0x40)\n      dup1\n      swap2\n      sub\n      swap1\n      return\n        /* \"contracts/main.sol\":497:604  function balanceOf(address account) public view returns(uint256){... */\n    tag_8:\n      tag_37\n      0x04\n      dup1\n      calldatasize\n      sub\n      dup2\n      add\n      swap1\n      tag_38\n      swap2\n      swap1\n      tag_34\n      jump\t// in\n    tag_38:\n      tag_39\n      jump\t// in\n    tag_37:\n      mload(0x40)\n      tag_40\n      swap2\n      swap1\n      tag_26\n      jump\t// in\n    tag_40:\n      mload(0x40)\n      dup1\n      swap2\n      sub\n      swap1\n      return\n        /* \"contracts/main.sol\":266:302  string public constant symbol = \"FE\" */\n    tag_9:\n      tag_41\n      tag_42\n      jump\t// in\n    tag_41:\n      mload(0x40)\n      tag_43\n      swap2\n      swap1\n      tag_16\n      jump\t// in\n    tag_43:\n      mload(0x40)\n      dup1\n      swap2\n      sub\n      swap1\n      return\n        /* \"contracts/main.sol\":612:872  function transfer(address recipient, uint256 amount) public returns (bool){... */\n    tag_10:\n      tag_44\n      0x04\n      dup1\n      calldatasize\n      sub\n      dup2\n      add\n      swap1\n      tag_45\n      swap2\n      swap1\n      tag_19\n      jump\t// in\n    tag_45:\n      tag_46\n      jump\t// in\n    tag_44:\n      mload(0x40)\n      tag_47\n      swap2\n      swap1\n      tag_22\n      jump\t// in\n    tag_47:\n      mload(0x40)\n      dup1\n      swap2\n      sub\n      swap1\n      return\n        /* \"contracts/main.sol\":140:204  mapping(address => mapping(address => uint256)) public allowance */\n    tag_11:\n      tag_48\n      0x04\n      dup1\n      calldatasize\n      sub\n      dup2\n      add\n      swap1\n      tag_49\n      swap2\n      swap1\n      tag_50\n      jump\t// in\n    tag_49:\n      tag_51\n      jump\t// in\n    tag_48:\n      mload(0x40)\n      tag_52\n      swap2\n      swap1\n      tag_26\n      jump\t// in\n    tag_52:\n      mload(0x40)\n      dup1\n      swap2\n      sub\n      swap1\n      return\n        /* \"contracts/main.sol\":213:259  string public constant name = \"FE Token Basic\" */\n    tag_14:\n      mload(0x40)\n      dup1\n      0x40\n      add\n      0x40\n      mstore\n      dup1\n      0x0e\n      dup2\n      mstore\n      0x20\n      add\n      0x464520546f6b656e204261736963000000000000000000000000000000000000\n      dup2\n      mstore\n      pop\n      dup2\n      jump\t// out\n        /* \"contracts/main.sol\":881:1032  function approve(address spender, uint256 amount) public returns (bool){... */\n    tag_20:\n        /* \"contracts/main.sol\":947:951  bool */\n      0x00\n        /* \"contracts/main.sol\":996:1002  amount */\n      dup2\n        /* \"contracts/main.sol\":963:972  allowance */\n      0x01\n        /* \"contracts/main.sol\":963:984  allowance[msg.sender] */\n      0x00\n        /* \"contracts/main.sol\":973:983  msg.sender */\n      caller\n        /* \"contracts/main.sol\":963:984  allowance[msg.sender] */\n      0xffffffffffffffffffffffffffffffffffffffff\n      and\n      0xffffffffffffffffffffffffffffffffffffffff\n      and\n      dup2\n      mstore\n      0x20\n      add\n      swap1\n      dup2\n      mstore\n      0x20\n      add\n      0x00\n      keccak256\n        /* \"contracts/main.sol\":963:993  allowance[msg.sender][spender] */\n      0x00\n        /* \"contracts/main.sol\":985:992  spender */\n      dup6\n        /* \"contracts/main.sol\":963:993  allowance[msg.sender][spender] */\n      0xffffffffffffffffffffffffffffffffffffffff\n      and\n      0xffffffffffffffffffffffffffffffffffffffff\n      and\n      dup2\n      mstore\n      0x20\n      add\n      swap1\n      dup2\n      mstore\n      0x20\n      add\n      0x00\n      keccak256\n        /* \"contracts/main.sol\":963:1002  allowance[msg.sender][spender] = amount */\n      dup2\n      swap1\n      sstore\n      pop\n        /* \"contracts/main.sol\":1020:1024  true */\n      0x01\n        /* \"contracts/main.sol\":1013:1024  return true */\n      swap1\n      pop\n        /* \"contracts/main.sol\":881:1032  function approve(address spender, uint256 amount) public returns (bool){... */\n      swap3\n      swap2\n      pop\n      pop\n      jump\t// out\n        /* \"contracts/main.sol\":1523:1614  function totalSupply() public view returns (uint256) {... */\n    tag_24:\n        /* \"contracts/main.sol\":1567:1574  uint256 */\n      0x00\n        /* \"contracts/main.sol\":1594:1606  _totalSupply */\n      sload(0x02)\n        /* \"contracts/main.sol\":1587:1606  return _totalSupply */\n      swap1\n      pop\n        /* \"contracts/main.sol\":1523:1614  function totalSupply() public view returns (uint256) {... */\n      swap1\n      jump\t// out\n        /* \"contracts/main.sol\":1040:1515  function transferFrom(address sender, address recipient, uint256 amount) public returns (bool){... */\n    tag_30:\n        /* \"contracts/main.sol\":1129:1133  bool */\n      0x00\n        /* \"contracts/main.sol\":1186:1192  amount */\n      dup2\n        /* \"contracts/main.sol\":1153:1162  allowance */\n      0x01\n        /* \"contracts/main.sol\":1153:1170  allowance[sender] */\n      0x00\n        /* \"contracts/main.sol\":1163:1169  sender */\n      dup7\n        /* \"contracts/main.sol\":1153:1170  allowance[sender] */\n      0xffffffffffffffffffffffffffffffffffffffff\n      and\n      0xffffffffffffffffffffffffffffffffffffffff\n      and\n      dup2\n      mstore\n      0x20\n      add\n      swap1\n      dup2\n      mstore\n      0x20\n      add\n      0x00\n      keccak256\n        /* \"contracts/main.sol\":1153:1182  allowance[sender][msg.sender] */\n      0x00\n        /* \"contracts/main.sol\":1171:1181  msg.sender */\n      caller\n        /* \"contracts/main.sol\":1153:1182  allowance[sender][msg.sender] */\n      0xffffffffffffffffffffffffffffffffffffffff\n      and\n      0xffffffffffffffffffffffffffffffffffffffff\n      and\n      dup2\n      mstore\n      0x20\n      add\n      swap1\n      dup2\n      mstore\n      0x20\n      add\n      0x00\n      keccak256\n      sload\n        /* \"contracts/main.sol\":1153:1192  allowance[sender][msg.sender] >= amount */\n      lt\n      iszero\n        /* \"contracts/main.sol\":1145:1225  require(allowance[sender][msg.sender] >= amount, \"Batas pengeluaran terlampaui\") */\n      tag_56\n      jumpi\n      mload(0x40)\n      0x08c379a000000000000000000000000000000000000000000000000000000000\n      dup2\n      mstore\n      0x04\n      add\n      tag_57\n      swap1\n      tag_58\n      jump\t// in\n    tag_57:\n      mload(0x40)\n      dup1\n      swap2\n      sub\n      swap1\n      revert\n    tag_56:\n        /* \"contracts/main.sol\":1264:1270  amount */\n      dup2\n        /* \"contracts/main.sol\":1244:1252  balances */\n      0x00\n        /* \"contracts/main.sol\":1244:1260  balances[sender] */\n      0x00\n        /* \"contracts/main.sol\":1253:1259  sender */\n      dup7\n        /* \"contracts/main.sol\":1244:1260  balances[sender] */\n      0xffffffffffffffffffffffffffffffffffffffff\n      and\n      0xffffffffffffffffffffffffffffffffffffffff\n      and\n      dup2\n      mstore\n      0x20\n      add\n      swap1\n      dup2\n      mstore\n      0x20\n      add\n      0x00\n      keccak256\n      sload\n        /* \"contracts/main.sol\":1244:1270  balances[sender] >= amount */\n      lt\n      iszero\n        /* \"contracts/main.sol\":1236:1305  require(balances[sender] >= amount, \"Saldo pengirim tidak mencukupi\") */\n      tag_59\n      jumpi\n      mload(0x40)\n      0x08c379a000000000000000000000000000000000000000000000000000000000\n      dup2\n      mstore\n      0x04\n      add\n      tag_60\n      swap1\n      tag_61\n      jump\t// in\n    tag_60:\n      mload(0x40)\n      dup1\n      swap2\n      sub\n      swap1\n      revert\n    tag_59:\n        /* \"contracts/main.sol\":1387:1393  amount */\n      dup2\n        /* \"contracts/main.sol\":1367:1375  balances */\n      0x00\n        /* \"contracts/main.sol\":1367:1383  balances[sender] */\n      0x00\n        /* \"contracts/main.sol\":1376:1382  sender */\n      dup7\n        /* \"contracts/main.sol\":1367:1383  balances[sender] */\n      0xffffffffffffffffffffffffffffffffffffffff\n      and\n      0xffffffffffffffffffffffffffffffffffffffff\n      and\n      dup2\n      mstore\n      0x20\n      add\n      swap1\n      dup2\n      mstore\n      0x20\n      add\n      0x00\n      keccak256\n      0x00\n        /* \"contracts/main.sol\":1367:1393  balances[sender] -= amount */\n      dup3\n      dup3\n      sload\n      tag_62\n      swap2\n      swap1\n      tag_63\n      jump\t// in\n    tag_62:\n      swap3\n      pop\n      pop\n      dup2\n      swap1\n      sstore\n      pop\n        /* \"contracts/main.sol\":1427:1433  amount */\n      dup2\n        /* \"contracts/main.sol\":1404:1412  balances */\n      0x00\n        /* \"contracts/main.sol\":1404:1423  balances[recipient] */\n      0x00\n        /* \"contracts/main.sol\":1413:1422  recipient */\n      dup6\n        /* \"contracts/main.sol\":1404:1423  balances[recipient] */\n      0xffffffffffffffffffffffffffffffffffffffff\n      and\n      0xffffffffffffffffffffffffffffffffffffffff\n      and\n      dup2\n      mstore\n      0x20\n      add\n      swap1\n      dup2\n      mstore\n      0x20\n      add\n      0x00\n      keccak256\n      0x00\n        /* \"contracts/main.sol\":1404:1433  balances[recipient] += amount */\n      dup3\n      dup3\n      sload\n      tag_64\n      swap2\n      swap1\n      tag_65\n      jump\t// in\n    tag_64:\n      swap3\n      pop\n      pop\n      dup2\n      swap1\n      sstore\n      pop\n        /* \"contracts/main.sol\":1477:1483  amount */\n      dup2\n        /* \"contracts/main.sol\":1444:1453  allowance */\n      0x01\n        /* \"contracts/main.sol\":1444:1461  allowance[sender] */\n      0x00\n        /* \"contracts/main.sol\":1454:1460  sender */\n      dup7\n        /* \"contracts/main.sol\":1444:1461  allowance[sender] */\n      0xffffffffffffffffffffffffffffffffffffffff\n      and\n      0xffffffffffffffffffffffffffffffffffffffff\n      and\n      dup2\n      mstore\n      0x20\n      add\n      swap1\n      dup2\n      mstore\n      0x20\n      add\n      0x00\n      keccak256\n        /* \"contracts/main.sol\":1444:1473  allowance[sender][msg.sender] */\n      0x00\n        /* \"contracts/main.sol\":1462:1472  msg.sender */\n      caller\n        /* \"contracts/main.sol\":1444:1473  allowance[sender][msg.sender] */\n      0xffffffffffffffffffffffffffffffffffffffff\n      and\n      0xffffffffffffffffffffffffffffffffffffffff\n      and\n      dup2\n      mstore\n      0x20\n      add\n      swap1\n      dup2\n      mstore\n      0x20\n      add\n      0x00\n      keccak256\n      0x00\n        /* \"contracts/main.sol\":1444:1483  allowance[sender][msg.sender] -= amount */\n      dup3\n      dup3\n      sload\n      tag_66\n      swap2\n      swap1\n      tag_63\n      jump\t// in\n    tag_66:\n      swap3\n      pop\n      pop\n      dup2\n      swap1\n      sstore\n      pop\n        /* \"contracts/main.sol\":1503:1507  true */\n      0x01\n        /* \"contracts/main.sol\":1496:1507  return true */\n      swap1\n      pop\n        /* \"contracts/main.sol\":1040:1515  function transferFrom(address sender, address recipient, uint256 amount) public returns (bool){... */\n      swap4\n      swap3\n      pop\n      pop\n      pop\n      jump\t// out\n        /* \"contracts/main.sol\":88:131  mapping ( address => uint ) public balances */\n    tag_35:\n      mstore(0x20, 0x00)\n      dup1\n      0x00\n      mstore\n      keccak256(0x00, 0x40)\n      0x00\n      swap2\n      pop\n      swap1\n      pop\n      sload\n      dup2\n      jump\t// out\n        /* \"contracts/main.sol\":497:604  function balanceOf(address account) public view returns(uint256){... */\n    tag_39:\n        /* \"contracts/main.sol\":553:560  uint256 */\n      0x00\n        /* \"contracts/main.sol\":579:587  balances */\n      0x00\n        /* \"contracts/main.sol\":579:596  balances[account] */\n      0x00\n        /* \"contracts/main.sol\":588:595  account */\n      dup4\n        /* \"contracts/main.sol\":579:596  balances[account] */\n      0xffffffffffffffffffffffffffffffffffffffff\n      and\n      0xffffffffffffffffffffffffffffffffffffffff\n      and\n      dup2\n      mstore\n      0x20\n      add\n      swap1\n      dup2\n      mstore\n      0x20\n      add\n      0x00\n      keccak256\n      sload\n        /* \"contracts/main.sol\":572:596  return balances[account] */\n      swap1\n      pop\n        /* \"contracts/main.sol\":497:604  function balanceOf(address account) public view returns(uint256){... */\n      swap2\n      swap1\n      pop\n      jump\t// out\n        /* \"contracts/main.sol\":266:302  string public constant symbol = \"FE\" */\n    tag_42:\n      mload(0x40)\n      dup1\n      0x40\n      add\n      0x40\n      mstore\n      dup1\n      0x02\n      dup2\n      mstore\n      0x20\n      add\n      0x4645000000000000000000000000000000000000000000000000000000000000\n      dup2\n      mstore\n      pop\n      dup2\n      jump\t// out\n        /* \"contracts/main.sol\":612:872  function transfer(address recipient, uint256 amount) public returns (bool){... */\n    tag_46:\n        /* \"contracts/main.sol\":681:685  bool */\n      0x00\n        /* \"contracts/main.sol\":729:735  amount */\n      dup2\n        /* \"contracts/main.sol\":705:713  balances */\n      0x00\n        /* \"contracts/main.sol\":705:725  balances[msg.sender] */\n      0x00\n        /* \"contracts/main.sol\":714:724  msg.sender */\n      caller\n        /* \"contracts/main.sol\":705:725  balances[msg.sender] */\n      0xffffffffffffffffffffffffffffffffffffffff\n      and\n      0xffffffffffffffffffffffffffffffffffffffff\n      and\n      dup2\n      mstore\n      0x20\n      add\n      swap1\n      dup2\n      mstore\n      0x20\n      add\n      0x00\n      keccak256\n      sload\n        /* \"contracts/main.sol\":705:735  balances[msg.sender] >= amount */\n      lt\n      iszero\n        /* \"contracts/main.sol\":697:761  require(balances[msg.sender] >= amount, \"Insufficient balance.\") */\n      tag_69\n      jumpi\n      mload(0x40)\n      0x08c379a000000000000000000000000000000000000000000000000000000000\n      dup2\n      mstore\n      0x04\n      add\n      tag_70\n      swap1\n      tag_71\n      jump\t// in\n    tag_70:\n      mload(0x40)\n      dup1\n      swap2\n      sub\n      swap1\n      revert\n    tag_69:\n        /* \"contracts/main.sol\":796:802  amount */\n      dup2\n        /* \"contracts/main.sol\":772:780  balances */\n      0x00\n        /* \"contracts/main.sol\":772:792  balances[msg.sender] */\n      0x00\n        /* \"contracts/main.sol\":781:791  msg.sender */\n      caller\n        /* \"contracts/main.sol\":772:792  balances[msg.sender] */\n      0xffffffffffffffffffffffffffffffffffffffff\n      and\n      0xffffffffffffffffffffffffffffffffffffffff\n      and\n      dup2\n      mstore\n      0x20\n      add\n      swap1\n      dup2\n      mstore\n      0x20\n      add\n      0x00\n      keccak256\n      0x00\n        /* \"contracts/main.sol\":772:802  balances[msg.sender] -= amount */\n      dup3\n      dup3\n      sload\n      tag_72\n      swap2\n      swap1\n      tag_63\n      jump\t// in\n    tag_72:\n      swap3\n      pop\n      pop\n      dup2\n      swap1\n      sstore\n      pop\n        /* \"contracts/main.sol\":836:842  amount */\n      dup2\n        /* \"contracts/main.sol\":813:821  balances */\n      0x00\n        /* \"contracts/main.sol\":813:832  balances[recipient] */\n      0x00\n        /* \"contracts/main.sol\":822:831  recipient */\n      dup6\n        /* \"contracts/main.sol\":813:832  balances[recipient] */\n      0xffffffffffffffffffffffffffffffffffffffff\n      and\n      0xffffffffffffffffffffffffffffffffffffffff\n      and\n      dup2\n      mstore\n      0x20\n      add\n      swap1\n      dup2\n      mstore\n      0x20\n      add\n      0x00\n      keccak256\n      0x00\n        /* \"contracts/main.sol\":813:842  balances[recipient] += amount */\n      dup3\n      dup3\n      sload\n      tag_73\n      swap2\n      swap1\n      tag_65\n      jump\t// in\n    tag_73:\n      swap3\n      pop\n      pop\n      dup2\n      swap1\n      sstore\n      pop\n        /* \"contracts/main.sol\":860:864  true */\n      0x01\n        /* \"contracts/main.sol\":853:864  return true */\n      swap1\n      pop\n        /* \"contracts/main.sol\":612:872  function transfer(address recipient, uint256 amount) public returns (bool){... */\n      swap3\n      swap2\n      pop\n      pop\n      jump\t// out\n        /* \"contracts/main.sol\":140:204  mapping(address => mapping(address => uint256)) public allowance */\n    tag_51:\n      mstore(0x20, 0x01)\n      dup2\n      0x00\n      mstore\n      mstore(0x20, keccak256(0x00, 0x40))\n      dup1\n      0x00\n      mstore\n      keccak256(0x00, 0x40)\n      0x00\n      swap2\n      pop\n      swap2\n      pop\n      pop\n      sload\n      dup2\n      jump\t// out\n        /* \"#utility.yul\":7:106   */\n    tag_74:\n        /* \"#utility.yul\":59:65   */\n      0x00\n        /* \"#utility.yul\":93:98   */\n      dup2\n        /* \"#utility.yul\":87:99   */\n      mload\n        /* \"#utility.yul\":77:99   */\n      swap1\n      pop\n        /* \"#utility.yul\":7:106   */\n      swap2\n      swap1\n      pop\n      jump\t// out\n        /* \"#utility.yul\":112:281   */\n    tag_75:\n        /* \"#utility.yul\":196:207   */\n      0x00\n        /* \"#utility.yul\":230:236   */\n      dup3\n        /* \"#utility.yul\":225:228   */\n      dup3\n        /* \"#utility.yul\":218:237   */\n      mstore\n        /* \"#utility.yul\":270:274   */\n      0x20\n        /* \"#utility.yul\":265:268   */\n      dup3\n        /* \"#utility.yul\":261:275   */\n      add\n        /* \"#utility.yul\":246:275   */\n      swap1\n      pop\n        /* \"#utility.yul\":112:281   */\n      swap3\n      swap2\n      pop\n      pop\n      jump\t// out\n        /* \"#utility.yul\":287:426   */\n    tag_76:\n        /* \"#utility.yul\":376:382   */\n      dup3\n        /* \"#utility.yul\":371:374   */\n      dup2\n        /* \"#utility.yul\":366:369   */\n      dup4\n        /* \"#utility.yul\":360:383   */\n      mcopy\n        /* \"#utility.yul\":417:418   */\n      0x00\n        /* \"#utility.yul\":408:414   */\n      dup4\n        /* \"#utility.yul\":403:406   */\n      dup4\n        /* \"#utility.yul\":399:415   */\n      add\n        /* \"#utility.yul\":392:419   */\n      mstore\n        /* \"#utility.yul\":287:426   */\n      pop\n      pop\n      pop\n      jump\t// out\n        /* \"#utility.yul\":432:534   */\n    tag_77:\n        /* \"#utility.yul\":473:479   */\n      0x00\n        /* \"#utility.yul\":524:526   */\n      0x1f\n        /* \"#utility.yul\":520:527   */\n      not\n        /* \"#utility.yul\":515:517   */\n      0x1f\n        /* \"#utility.yul\":508:513   */\n      dup4\n        /* \"#utility.yul\":504:518   */\n      add\n        /* \"#utility.yul\":500:528   */\n      and\n        /* \"#utility.yul\":490:528   */\n      swap1\n      pop\n        /* \"#utility.yul\":432:534   */\n      swap2\n      swap1\n      pop\n      jump\t// out\n        /* \"#utility.yul\":540:917   */\n    tag_78:\n        /* \"#utility.yul\":628:631   */\n      0x00\n        /* \"#utility.yul\":656:695   */\n      tag_105\n        /* \"#utility.yul\":689:694   */\n      dup3\n        /* \"#utility.yul\":656:695   */\n      tag_74\n      jump\t// in\n    tag_105:\n        /* \"#utility.yul\":711:782   */\n      tag_106\n        /* \"#utility.yul\":775:781   */\n      dup2\n        /* \"#utility.yul\":770:773   */\n      dup6\n        /* \"#utility.yul\":711:782   */\n      tag_75\n      jump\t// in\n    tag_106:\n        /* \"#utility.yul\":704:782   */\n      swap4\n      pop\n        /* \"#utility.yul\":791:856   */\n      tag_107\n        /* \"#utility.yul\":849:855   */\n      dup2\n        /* \"#utility.yul\":844:847   */\n      dup6\n        /* \"#utility.yul\":837:841   */\n      0x20\n        /* \"#utility.yul\":830:835   */\n      dup7\n        /* \"#utility.yul\":826:842   */\n      add\n        /* \"#utility.yul\":791:856   */\n      tag_76\n      jump\t// in\n    tag_107:\n        /* \"#utility.yul\":881:910   */\n      tag_108\n        /* \"#utility.yul\":903:909   */\n      dup2\n        /* \"#utility.yul\":881:910   */\n      tag_77\n      jump\t// in\n    tag_108:\n        /* \"#utility.yul\":876:879   */\n      dup5\n        /* \"#utility.yul\":872:911   */\n      add\n        /* \"#utility.yul\":865:911   */\n      swap2\n      pop\n        /* \"#utility.yul\":632:917   */\n      pop\n        /* \"#utility.yul\":540:917   */\n      swap3\n      swap2\n      pop\n      pop\n      jump\t// out\n        /* \"#utility.yul\":923:1236   */\n    tag_16:\n        /* \"#utility.yul\":1036:1040   */\n      0x00\n        /* \"#utility.yul\":1074:1076   */\n      0x20\n        /* \"#utility.yul\":1063:1072   */\n      dup3\n        /* \"#utility.yul\":1059:1077   */\n      add\n        /* \"#utility.yul\":1051:1077   */\n      swap1\n      pop\n        /* \"#utility.yul\":1123:1132   */\n      dup2\n        /* \"#utility.yul\":1117:1121   */\n      dup2\n        /* \"#utility.yul\":1113:1133   */\n      sub\n        /* \"#utility.yul\":1109:1110   */\n      0x00\n        /* \"#utility.yul\":1098:1107   */\n      dup4\n        /* \"#utility.yul\":1094:1111   */\n      add\n        /* \"#utility.yul\":1087:1134   */\n      mstore\n        /* \"#utility.yul\":1151:1229   */\n      tag_110\n        /* \"#utility.yul\":1224:1228   */\n      dup2\n        /* \"#utility.yul\":1215:1221   */\n      dup5\n        /* \"#utility.yul\":1151:1229   */\n      tag_78\n      jump\t// in\n    tag_110:\n        /* \"#utility.yul\":1143:1229   */\n      swap1\n      pop\n        /* \"#utility.yul\":923:1236   */\n      swap3\n      swap2\n      pop\n      pop\n      jump\t// out\n        /* \"#utility.yul\":1323:1440   */\n    tag_80:\n        /* \"#utility.yul\":1432:1433   */\n      0x00\n        /* \"#utility.yul\":1429:1430   */\n      0x00\n        /* \"#utility.yul\":1422:1434   */\n      revert\n        /* \"#utility.yul\":1569:1695   */\n    tag_82:\n        /* \"#utility.yul\":1606:1613   */\n      0x00\n        /* \"#utility.yul\":1646:1688   */\n      0xffffffffffffffffffffffffffffffffffffffff\n        /* \"#utility.yul\":1639:1644   */\n      dup3\n        /* \"#utility.yul\":1635:1689   */\n      and\n        /* \"#utility.yul\":1624:1689   */\n      swap1\n      pop\n        /* \"#utility.yul\":1569:1695   */\n      swap2\n      swap1\n      pop\n      jump\t// out\n        /* \"#utility.yul\":1701:1797   */\n    tag_83:\n        /* \"#utility.yul\":1738:1745   */\n      0x00\n        /* \"#utility.yul\":1767:1791   */\n      tag_116\n        /* \"#utility.yul\":1785:1790   */\n      dup3\n        /* \"#utility.yul\":1767:1791   */\n      tag_82\n      jump\t// in\n    tag_116:\n        /* \"#utility.yul\":1756:1791   */\n      swap1\n      pop\n        /* \"#utility.yul\":1701:1797   */\n      swap2\n      swap1\n      pop\n      jump\t// out\n        /* \"#utility.yul\":1803:1925   */\n    tag_84:\n        /* \"#utility.yul\":1876:1900   */\n      tag_118\n        /* \"#utility.yul\":1894:1899   */\n      dup2\n        /* \"#utility.yul\":1876:1900   */\n      tag_83\n      jump\t// in\n    tag_118:\n        /* \"#utility.yul\":1869:1874   */\n      dup2\n        /* \"#utility.yul\":1866:1901   */\n      eq\n        /* \"#utility.yul\":1856:1919   */\n      tag_119\n      jumpi\n        /* \"#utility.yul\":1915:1916   */\n      0x00\n        /* \"#utility.yul\":1912:1913   */\n      0x00\n        /* \"#utility.yul\":1905:1917   */\n      revert\n        /* \"#utility.yul\":1856:1919   */\n    tag_119:\n        /* \"#utility.yul\":1803:1925   */\n      pop\n      jump\t// out\n        /* \"#utility.yul\":1931:2070   */\n    tag_85:\n        /* \"#utility.yul\":1977:1982   */\n      0x00\n        /* \"#utility.yul\":2015:2021   */\n      dup2\n        /* \"#utility.yul\":2002:2022   */\n      calldataload\n        /* \"#utility.yul\":1993:2022   */\n      swap1\n      pop\n        /* \"#utility.yul\":2031:2064   */\n      tag_121\n        /* \"#utility.yul\":2058:2063   */\n      dup2\n        /* \"#utility.yul\":2031:2064   */\n      tag_84\n      jump\t// in\n    tag_121:\n        /* \"#utility.yul\":1931:2070   */\n      swap3\n      swap2\n      pop\n      pop\n      jump\t// out\n        /* \"#utility.yul\":2076:2153   */\n    tag_86:\n        /* \"#utility.yul\":2113:2120   */\n      0x00\n        /* \"#utility.yul\":2142:2147   */\n      dup2\n        /* \"#utility.yul\":2131:2147   */\n      swap1\n      pop\n        /* \"#utility.yul\":2076:2153   */\n      swap2\n      swap1\n      pop\n      jump\t// out\n        /* \"#utility.yul\":2159:2281   */\n    tag_87:\n        /* \"#utility.yul\":2232:2256   */\n      tag_124\n        /* \"#utility.yul\":2250:2255   */\n      dup2\n        /* \"#utility.yul\":2232:2256   */\n      tag_86\n      jump\t// in\n    tag_124:\n        /* \"#utility.yul\":2225:2230   */\n      dup2\n        /* \"#utility.yul\":2222:2257   */\n      eq\n        /* \"#utility.yul\":2212:2275   */\n      tag_125\n      jumpi\n        /* \"#utility.yul\":2271:2272   */\n      0x00\n        /* \"#utility.yul\":2268:2269   */\n      0x00\n        /* \"#utility.yul\":2261:2273   */\n      revert\n        /* \"#utility.yul\":2212:2275   */\n    tag_125:\n        /* \"#utility.yul\":2159:2281   */\n      pop\n      jump\t// out\n        /* \"#utility.yul\":2287:2426   */\n    tag_88:\n        /* \"#utility.yul\":2333:2338   */\n      0x00\n        /* \"#utility.yul\":2371:2377   */\n      dup2\n        /* \"#utility.yul\":2358:2378   */\n      calldataload\n        /* \"#utility.yul\":2349:2378   */\n      swap1\n      pop\n        /* \"#utility.yul\":2387:2420   */\n      tag_127\n        /* \"#utility.yul\":2414:2419   */\n      dup2\n        /* \"#utility.yul\":2387:2420   */\n      tag_87\n      jump\t// in\n    tag_127:\n        /* \"#utility.yul\":2287:2426   */\n      swap3\n      swap2\n      pop\n      pop\n      jump\t// out\n        /* \"#utility.yul\":2432:2906   */\n    tag_19:\n        /* \"#utility.yul\":2500:2506   */\n      0x00\n        /* \"#utility.yul\":2508:2514   */\n      0x00\n        /* \"#utility.yul\":2557:2559   */\n      0x40\n        /* \"#utility.yul\":2545:2554   */\n      dup4\n        /* \"#utility.yul\":2536:2543   */\n      dup6\n        /* \"#utility.yul\":2532:2555   */\n      sub\n        /* \"#utility.yul\":2528:2560   */\n      slt\n        /* \"#utility.yul\":2525:2644   */\n      iszero\n      tag_129\n      jumpi\n        /* \"#utility.yul\":2563:2642   */\n      tag_130\n      tag_80\n      jump\t// in\n    tag_130:\n        /* \"#utility.yul\":2525:2644   */\n    tag_129:\n        /* \"#utility.yul\":2683:2684   */\n      0x00\n        /* \"#utility.yul\":2708:2761   */\n      tag_131\n        /* \"#utility.yul\":2753:2760   */\n      dup6\n        /* \"#utility.yul\":2744:2750   */\n      dup3\n        /* \"#utility.yul\":2733:2742   */\n      dup7\n        /* \"#utility.yul\":2729:2751   */\n      add\n        /* \"#utility.yul\":2708:2761   */\n      tag_85\n      jump\t// in\n    tag_131:\n        /* \"#utility.yul\":2698:2761   */\n      swap3\n      pop\n        /* \"#utility.yul\":2654:2771   */\n      pop\n        /* \"#utility.yul\":2810:2812   */\n      0x20\n        /* \"#utility.yul\":2836:2889   */\n      tag_132\n        /* \"#utility.yul\":2881:2888   */\n      dup6\n        /* \"#utility.yul\":2872:2878   */\n      dup3\n        /* \"#utility.yul\":2861:2870   */\n      dup7\n        /* \"#utility.yul\":2857:2879   */\n      add\n        /* \"#utility.yul\":2836:2889   */\n      tag_88\n      jump\t// in\n    tag_132:\n        /* \"#utility.yul\":2826:2889   */\n      swap2\n      pop\n        /* \"#utility.yul\":2781:2899   */\n      pop\n        /* \"#utility.yul\":2432:2906   */\n      swap3\n      pop\n      swap3\n      swap1\n      pop\n      jump\t// out\n        /* \"#utility.yul\":2912:3002   */\n    tag_89:\n        /* \"#utility.yul\":2946:2953   */\n      0x00\n        /* \"#utility.yul\":2989:2994   */\n      dup2\n        /* \"#utility.yul\":2982:2995   */\n      iszero\n        /* \"#utility.yul\":2975:2996   */\n      iszero\n        /* \"#utility.yul\":2964:2996   */\n      swap1\n      pop\n        /* \"#utility.yul\":2912:3002   */\n      swap2\n      swap1\n      pop\n      jump\t// out\n        /* \"#utility.yul\":3008:3117   */\n    tag_90:\n        /* \"#utility.yul\":3089:3110   */\n      tag_135\n        /* \"#utility.yul\":3104:3109   */\n      dup2\n        /* \"#utility.yul\":3089:3110   */\n      tag_89\n      jump\t// in\n    tag_135:\n        /* \"#utility.yul\":3084:3087   */\n      dup3\n        /* \"#utility.yul\":3077:3111   */\n      mstore\n        /* \"#utility.yul\":3008:3117   */\n      pop\n      pop\n      jump\t// out\n        /* \"#utility.yul\":3123:3333   */\n    tag_22:\n        /* \"#utility.yul\":3210:3214   */\n      0x00\n        /* \"#utility.yul\":3248:3250   */\n      0x20\n        /* \"#utility.yul\":3237:3246   */\n      dup3\n        /* \"#utility.yul\":3233:3251   */\n      add\n        /* \"#utility.yul\":3225:3251   */\n      swap1\n      pop\n        /* \"#utility.yul\":3261:3326   */\n      tag_137\n        /* \"#utility.yul\":3323:3324   */\n      0x00\n        /* \"#utility.yul\":3312:3321   */\n      dup4\n        /* \"#utility.yul\":3308:3325   */\n      add\n        /* \"#utility.yul\":3299:3305   */\n      dup5\n        /* \"#utility.yul\":3261:3326   */\n      tag_90\n      jump\t// in\n    tag_137:\n        /* \"#utility.yul\":3123:3333   */\n      swap3\n      swap2\n      pop\n      pop\n      jump\t// out\n        /* \"#utility.yul\":3339:3457   */\n    tag_91:\n        /* \"#utility.yul\":3426:3450   */\n      tag_139\n        /* \"#utility.yul\":3444:3449   */\n      dup2\n        /* \"#utility.yul\":3426:3450   */\n      tag_86\n      jump\t// in\n    tag_139:\n        /* \"#utility.yul\":3421:3424   */\n      dup3\n        /* \"#utility.yul\":3414:3451   */\n      mstore\n        /* \"#utility.yul\":3339:3457   */\n      pop\n      pop\n      jump\t// out\n        /* \"#utility.yul\":3463:3685   */\n    tag_26:\n        /* \"#utility.yul\":3556:3560   */\n      0x00\n        /* \"#utility.yul\":3594:3596   */\n      0x20\n        /* \"#utility.yul\":3583:3592   */\n      dup3\n        /* \"#utility.yul\":3579:3597   */\n      add\n        /* \"#utility.yul\":3571:3597   */\n      swap1\n      pop\n        /* \"#utility.yul\":3607:3678   */\n      tag_141\n        /* \"#utility.yul\":3675:3676   */\n      0x00\n        /* \"#utility.yul\":3664:3673   */\n      dup4\n        /* \"#utility.yul\":3660:3677   */\n      add\n        /* \"#utility.yul\":3651:3657   */\n      dup5\n        /* \"#utility.yul\":3607:3678   */\n      tag_91\n      jump\t// in\n    tag_141:\n        /* \"#utility.yul\":3463:3685   */\n      swap3\n      swap2\n      pop\n      pop\n      jump\t// out\n        /* \"#utility.yul\":3691:4310   */\n    tag_29:\n        /* \"#utility.yul\":3768:3774   */\n      0x00\n        /* \"#utility.yul\":3776:3782   */\n      0x00\n        /* \"#utility.yul\":3784:3790   */\n      0x00\n        /* \"#utility.yul\":3833:3835   */\n      0x60\n        /* \"#utility.yul\":3821:3830   */\n      dup5\n        /* \"#utility.yul\":3812:3819   */\n      dup7\n        /* \"#utility.yul\":3808:3831   */\n      sub\n        /* \"#utility.yul\":3804:3836   */\n      slt\n        /* \"#utility.yul\":3801:3920   */\n      iszero\n      tag_143\n      jumpi\n        /* \"#utility.yul\":3839:3918   */\n      tag_144\n      tag_80\n      jump\t// in\n    tag_144:\n        /* \"#utility.yul\":3801:3920   */\n    tag_143:\n        /* \"#utility.yul\":3959:3960   */\n      0x00\n        /* \"#utility.yul\":3984:4037   */\n      tag_145\n        /* \"#utility.yul\":4029:4036   */\n      dup7\n        /* \"#utility.yul\":4020:4026   */\n      dup3\n        /* \"#utility.yul\":4009:4018   */\n      dup8\n        /* \"#utility.yul\":4005:4027   */\n      add\n        /* \"#utility.yul\":3984:4037   */\n      tag_85\n      jump\t// in\n    tag_145:\n        /* \"#utility.yul\":3974:4037   */\n      swap4\n      pop\n        /* \"#utility.yul\":3930:4047   */\n      pop\n        /* \"#utility.yul\":4086:4088   */\n      0x20\n        /* \"#utility.yul\":4112:4165   */\n      tag_146\n        /* \"#utility.yul\":4157:4164   */\n      dup7\n        /* \"#utility.yul\":4148:4154   */\n      dup3\n        /* \"#utility.yul\":4137:4146   */\n      dup8\n        /* \"#utility.yul\":4133:4155   */\n      add\n        /* \"#utility.yul\":4112:4165   */\n      tag_85\n      jump\t// in\n    tag_146:\n        /* \"#utility.yul\":4102:4165   */\n      swap3\n      pop\n        /* \"#utility.yul\":4057:4175   */\n      pop\n        /* \"#utility.yul\":4214:4216   */\n      0x40\n        /* \"#utility.yul\":4240:4293   */\n      tag_147\n        /* \"#utility.yul\":4285:4292   */\n      dup7\n        /* \"#utility.yul\":4276:4282   */\n      dup3\n        /* \"#utility.yul\":4265:4274   */\n      dup8\n        /* \"#utility.yul\":4261:4283   */\n      add\n        /* \"#utility.yul\":4240:4293   */\n      tag_88\n      jump\t// in\n    tag_147:\n        /* \"#utility.yul\":4230:4293   */\n      swap2\n      pop\n        /* \"#utility.yul\":4185:4303   */\n      pop\n        /* \"#utility.yul\":3691:4310   */\n      swap3\n      pop\n      swap3\n      pop\n      swap3\n      jump\t// out\n        /* \"#utility.yul\":4316:4645   */\n    tag_34:\n        /* \"#utility.yul\":4375:4381   */\n      0x00\n        /* \"#utility.yul\":4424:4426   */\n      0x20\n        /* \"#utility.yul\":4412:4421   */\n      dup3\n        /* \"#utility.yul\":4403:4410   */\n      dup5\n        /* \"#utility.yul\":4399:4422   */\n      sub\n        /* \"#utility.yul\":4395:4427   */\n      slt\n        /* \"#utility.yul\":4392:4511   */\n      iszero\n      tag_149\n      jumpi\n        /* \"#utility.yul\":4430:4509   */\n      tag_150\n      tag_80\n      jump\t// in\n    tag_150:\n        /* \"#utility.yul\":4392:4511   */\n    tag_149:\n        /* \"#utility.yul\":4550:4551   */\n      0x00\n        /* \"#utility.yul\":4575:4628   */\n      tag_151\n        /* \"#utility.yul\":4620:4627   */\n      dup5\n        /* \"#utility.yul\":4611:4617   */\n      dup3\n        /* \"#utility.yul\":4600:4609   */\n      dup6\n        /* \"#utility.yul\":4596:4618   */\n      add\n        /* \"#utility.yul\":4575:4628   */\n      tag_85\n      jump\t// in\n    tag_151:\n        /* \"#utility.yul\":4565:4628   */\n      swap2\n      pop\n        /* \"#utility.yul\":4521:4638   */\n      pop\n        /* \"#utility.yul\":4316:4645   */\n      swap3\n      swap2\n      pop\n      pop\n      jump\t// out\n        /* \"#utility.yul\":4651:5125   */\n    tag_50:\n        /* \"#utility.yul\":4719:4725   */\n      0x00\n        /* \"#utility.yul\":4727:4733   */\n      0x00\n        /* \"#utility.yul\":4776:4778   */\n      0x40\n        /* \"#utility.yul\":4764:4773   */\n      dup4\n        /* \"#utility.yul\":4755:4762   */\n      dup6\n        /* \"#utility.yul\":4751:4774   */\n      sub\n        /* \"#utility.yul\":4747:4779   */\n      slt\n        /* \"#utility.yul\":4744:4863   */\n      iszero\n      tag_153\n      jumpi\n        /* \"#utility.yul\":4782:4861   */\n      tag_154\n      tag_80\n      jump\t// in\n    tag_154:\n        /* \"#utility.yul\":4744:4863   */\n    tag_153:\n        /* \"#utility.yul\":4902:4903   */\n      0x00\n        /* \"#utility.yul\":4927:4980   */\n      tag_155\n        /* \"#utility.yul\":4972:4979   */\n      dup6\n        /* \"#utility.yul\":4963:4969   */\n      dup3\n        /* \"#utility.yul\":4952:4961   */\n      dup7\n        /* \"#utility.yul\":4948:4970   */\n      add\n        /* \"#utility.yul\":4927:4980   */\n      tag_85\n      jump\t// in\n    tag_155:\n        /* \"#utility.yul\":4917:4980   */\n      swap3\n      pop\n        /* \"#utility.yul\":4873:4990   */\n      pop\n        /* \"#utility.yul\":5029:5031   */\n      0x20\n        /* \"#utility.yul\":5055:5108   */\n      tag_156\n        /* \"#utility.yul\":5100:5107   */\n      dup6\n        /* \"#utility.yul\":5091:5097   */\n      dup3\n        /* \"#utility.yul\":5080:5089   */\n      dup7\n        /* \"#utility.yul\":5076:5098   */\n      add\n        /* \"#utility.yul\":5055:5108   */\n      tag_85\n      jump\t// in\n    tag_156:\n        /* \"#utility.yul\":5045:5108   */\n      swap2\n      pop\n        /* \"#utility.yul\":5000:5118   */\n      pop\n        /* \"#utility.yul\":4651:5125   */\n      swap3\n      pop\n      swap3\n      swap1\n      pop\n      jump\t// out\n        /* \"#utility.yul\":5131:5309   */\n    tag_92:\n        /* \"#utility.yul\":5271:5301   */\n      0x42617461732070656e67656c756172616e207465726c616d7061756900000000\n        /* \"#utility.yul\":5267:5268   */\n      0x00\n        /* \"#utility.yul\":5259:5265   */\n      dup3\n        /* \"#utility.yul\":5255:5269   */\n      add\n        /* \"#utility.yul\":5248:5302   */\n      mstore\n        /* \"#utility.yul\":5131:5309   */\n      pop\n      jump\t// out\n        /* \"#utility.yul\":5315:5681   */\n    tag_93:\n        /* \"#utility.yul\":5457:5460   */\n      0x00\n        /* \"#utility.yul\":5478:5545   */\n      tag_159\n        /* \"#utility.yul\":5542:5544   */\n      0x1c\n        /* \"#utility.yul\":5537:5540   */\n      dup4\n        /* \"#utility.yul\":5478:5545   */\n      tag_75\n      jump\t// in\n    tag_159:\n        /* \"#utility.yul\":5471:5545   */\n      swap2\n      pop\n        /* \"#utility.yul\":5554:5647   */\n      tag_160\n        /* \"#utility.yul\":5643:5646   */\n      dup3\n        /* \"#utility.yul\":5554:5647   */\n      tag_92\n      jump\t// in\n    tag_160:\n        /* \"#utility.yul\":5672:5674   */\n      0x20\n        /* \"#utility.yul\":5667:5670   */\n      dup3\n        /* \"#utility.yul\":5663:5675   */\n      add\n        /* \"#utility.yul\":5656:5675   */\n      swap1\n      pop\n        /* \"#utility.yul\":5315:5681   */\n      swap2\n      swap1\n      pop\n      jump\t// out\n        /* \"#utility.yul\":5687:6106   */\n    tag_58:\n        /* \"#utility.yul\":5853:5857   */\n      0x00\n        /* \"#utility.yul\":5891:5893   */\n      0x20\n        /* \"#utility.yul\":5880:5889   */\n      dup3\n        /* \"#utility.yul\":5876:5894   */\n      add\n        /* \"#utility.yul\":5868:5894   */\n      swap1\n      pop\n        /* \"#utility.yul\":5940:5949   */\n      dup2\n        /* \"#utility.yul\":5934:5938   */\n      dup2\n        /* \"#utility.yul\":5930:5950   */\n      sub\n        /* \"#utility.yul\":5926:5927   */\n      0x00\n        /* \"#utility.yul\":5915:5924   */\n      dup4\n        /* \"#utility.yul\":5911:5928   */\n      add\n        /* \"#utility.yul\":5904:5951   */\n      mstore\n        /* \"#utility.yul\":5968:6099   */\n      tag_162\n        /* \"#utility.yul\":6094:6098   */\n      dup2\n        /* \"#utility.yul\":5968:6099   */\n      tag_93\n      jump\t// in\n    tag_162:\n        /* \"#utility.yul\":5960:6099   */\n      swap1\n      pop\n        /* \"#utility.yul\":5687:6106   */\n      swap2\n      swap1\n      pop\n      jump\t// out\n        /* \"#utility.yul\":6112:6292   */\n    tag_94:\n        /* \"#utility.yul\":6252:6284   */\n      0x53616c646f2070656e676972696d20746964616b206d656e63756b7570690000\n        /* \"#utility.yul\":6248:6249   */\n      0x00\n        /* \"#utility.yul\":6240:6246   */\n      dup3\n        /* \"#utility.yul\":6236:6250   */\n      add\n        /* \"#utility.yul\":6229:6285   */\n      mstore\n        /* \"#utility.yul\":6112:6292   */\n      pop\n      jump\t// out\n        /* \"#utility.yul\":6298:6664   */\n    tag_95:\n        /* \"#utility.yul\":6440:6443   */\n      0x00\n        /* \"#utility.yul\":6461:6528   */\n      tag_165\n        /* \"#utility.yul\":6525:6527   */\n      0x1e\n        /* \"#utility.yul\":6520:6523   */\n      dup4\n        /* \"#utility.yul\":6461:6528   */\n      tag_75\n      jump\t// in\n    tag_165:\n        /* \"#utility.yul\":6454:6528   */\n      swap2\n      pop\n        /* \"#utility.yul\":6537:6630   */\n      tag_166\n        /* \"#utility.yul\":6626:6629   */\n      dup3\n        /* \"#utility.yul\":6537:6630   */\n      tag_94\n      jump\t// in\n    tag_166:\n        /* \"#utility.yul\":6655:6657   */\n      0x20\n        /* \"#utility.yul\":6650:6653   */\n      dup3\n        /* \"#utility.yul\":6646:6658   */\n      add\n        /* \"#utility.yul\":6639:6658   */\n      swap1\n      pop\n        /* \"#utility.yul\":6298:6664   */\n      swap2\n      swap1\n      pop\n      jump\t// out\n        /* \"#utility.yul\":6670:7089   */\n    tag_61:\n        /* \"#utility.yul\":6836:6840   */\n      0x00\n        /* \"#utility.yul\":6874:6876   */\n      0x20\n        /* \"#utility.yul\":6863:6872   */\n      dup3\n        /* \"#utility.yul\":6859:6877   */\n      add\n        /* \"#utility.yul\":6851:6877   */\n      swap1\n      pop\n        /* \"#utility.yul\":6923:6932   */\n      dup2\n        /* \"#utility.yul\":6917:6921   */\n      dup2\n        /* \"#utility.yul\":6913:6933   */\n      sub\n        /* \"#utility.yul\":6909:6910   */\n      0x00\n        /* \"#utility.yul\":6898:6907   */\n      dup4\n        /* \"#utility.yul\":6894:6911   */\n      add\n        /* \"#utility.yul\":6887:6934   */\n      mstore\n        /* \"#utility.yul\":6951:7082   */\n      tag_168\n        /* \"#utility.yul\":7077:7081   */\n      dup2\n        /* \"#utility.yul\":6951:7082   */\n      tag_95\n      jump\t// in\n    tag_168:\n        /* \"#utility.yul\":6943:7082   */\n      swap1\n      pop\n        /* \"#utility.yul\":6670:7089   */\n      swap2\n      swap1\n      pop\n      jump\t// out\n        /* \"#utility.yul\":7095:7275   */\n    tag_96:\n        /* \"#utility.yul\":7143:7220   */\n      0x4e487b7100000000000000000000000000000000000000000000000000000000\n        /* \"#utility.yul\":7140:7141   */\n      0x00\n        /* \"#utility.yul\":7133:7221   */\n      mstore\n        /* \"#utility.yul\":7240:7244   */\n      0x11\n        /* \"#utility.yul\":7237:7238   */\n      0x04\n        /* \"#utility.yul\":7230:7245   */\n      mstore\n        /* \"#utility.yul\":7264:7268   */\n      0x24\n        /* \"#utility.yul\":7261:7262   */\n      0x00\n        /* \"#utility.yul\":7254:7269   */\n      revert\n        /* \"#utility.yul\":7281:7475   */\n    tag_63:\n        /* \"#utility.yul\":7321:7325   */\n      0x00\n        /* \"#utility.yul\":7341:7361   */\n      tag_171\n        /* \"#utility.yul\":7359:7360   */\n      dup3\n        /* \"#utility.yul\":7341:7361   */\n      tag_86\n      jump\t// in\n    tag_171:\n        /* \"#utility.yul\":7336:7361   */\n      swap2\n      pop\n        /* \"#utility.yul\":7375:7395   */\n      tag_172\n        /* \"#utility.yul\":7393:7394   */\n      dup4\n        /* \"#utility.yul\":7375:7395   */\n      tag_86\n      jump\t// in\n    tag_172:\n        /* \"#utility.yul\":7370:7395   */\n      swap3\n      pop\n        /* \"#utility.yul\":7419:7420   */\n      dup3\n        /* \"#utility.yul\":7416:7417   */\n      dup3\n        /* \"#utility.yul\":7412:7421   */\n      sub\n        /* \"#utility.yul\":7404:7421   */\n      swap1\n      pop\n        /* \"#utility.yul\":7443:7444   */\n      dup2\n        /* \"#utility.yul\":7437:7441   */\n      dup2\n        /* \"#utility.yul\":7434:7445   */\n      gt\n        /* \"#utility.yul\":7431:7468   */\n      iszero\n      tag_173\n      jumpi\n        /* \"#utility.yul\":7448:7466   */\n      tag_174\n      tag_96\n      jump\t// in\n    tag_174:\n        /* \"#utility.yul\":7431:7468   */\n    tag_173:\n        /* \"#utility.yul\":7281:7475   */\n      swap3\n      swap2\n      pop\n      pop\n      jump\t// out\n        /* \"#utility.yul\":7481:7672   */\n    tag_65:\n        /* \"#utility.yul\":7521:7524   */\n      0x00\n        /* \"#utility.yul\":7540:7560   */\n      tag_176\n        /* \"#utility.yul\":7558:7559   */\n      dup3\n        /* \"#utility.yul\":7540:7560   */\n      tag_86\n      jump\t// in\n    tag_176:\n        /* \"#utility.yul\":7535:7560   */\n      swap2\n      pop\n        /* \"#utility.yul\":7574:7594   */\n      tag_177\n        /* \"#utility.yul\":7592:7593   */\n      dup4\n        /* \"#utility.yul\":7574:7594   */\n      tag_86\n      jump\t// in\n    tag_177:\n        /* \"#utility.yul\":7569:7594   */\n      swap3\n      pop\n        /* \"#utility.yul\":7617:7618   */\n      dup3\n        /* \"#utility.yul\":7614:7615   */\n      dup3\n        /* \"#utility.yul\":7610:7619   */\n      add\n        /* \"#utility.yul\":7603:7619   */\n      swap1\n      pop\n        /* \"#utility.yul\":7638:7641   */\n      dup1\n        /* \"#utility.yul\":7635:7636   */\n      dup3\n        /* \"#utility.yul\":7632:7642   */\n      gt\n        /* \"#utility.yul\":7629:7665   */\n      iszero\n      tag_178\n      jumpi\n        /* \"#utility.yul\":7645:7663   */\n      tag_179\n      tag_96\n      jump\t// in\n    tag_179:\n        /* \"#utility.yul\":7629:7665   */\n    tag_178:\n        /* \"#utility.yul\":7481:7672   */\n      swap3\n      swap2\n      pop\n      pop\n      jump\t// out\n        /* \"#utility.yul\":7678:7849   */\n    tag_97:\n        /* \"#utility.yul\":7818:7841   */\n      0x496e73756666696369656e742062616c616e63652e0000000000000000000000\n        /* \"#utility.yul\":7814:7815   */\n      0x00\n        /* \"#utility.yul\":7806:7812   */\n      dup3\n        /* \"#utility.yul\":7802:7816   */\n      add\n        /* \"#utility.yul\":7795:7842   */\n      mstore\n        /* \"#utility.yul\":7678:7849   */\n      pop\n      jump\t// out\n        /* \"#utility.yul\":7855:8221   */\n    tag_98:\n        /* \"#utility.yul\":7997:8000   */\n      0x00\n        /* \"#utility.yul\":8018:8085   */\n      tag_182\n        /* \"#utility.yul\":8082:8084   */\n      0x15\n        /* \"#utility.yul\":8077:8080   */\n      dup4\n        /* \"#utility.yul\":8018:8085   */\n      tag_75\n      jump\t// in\n    tag_182:\n        /* \"#utility.yul\":8011:8085   */\n      swap2\n      pop\n        /* \"#utility.yul\":8094:8187   */\n      tag_183\n        /* \"#utility.yul\":8183:8186   */\n      dup3\n        /* \"#utility.yul\":8094:8187   */\n      tag_97\n      jump\t// in\n    tag_183:\n        /* \"#utility.yul\":8212:8214   */\n      0x20\n        /* \"#utility.yul\":8207:8210   */\n      dup3\n        /* \"#utility.yul\":8203:8215   */\n      add\n        /* \"#utility.yul\":8196:8215   */\n      swap1\n      pop\n        /* \"#utility.yul\":7855:8221   */\n      swap2\n      swap1\n      pop\n      jump\t// out\n        /* \"#utility.yul\":8227:8646   */\n    tag_71:\n        /* \"#utility.yul\":8393:8397   */\n      0x00\n        /* \"#utility.yul\":8431:8433   */\n      0x20\n        /* \"#utility.yul\":8420:8429   */\n      dup3\n        /* \"#utility.yul\":8416:8434   */\n      add\n        /* \"#utility.yul\":8408:8434   */\n      swap1\n      pop\n        /* \"#utility.yul\":8480:8489   */\n      dup2\n        /* \"#utility.yul\":8474:8478   */\n      dup2\n        /* \"#utility.yul\":8470:8490   */\n      sub\n        /* \"#utility.yul\":8466:8467   */\n      0x00\n        /* \"#utility.yul\":8455:8464   */\n      dup4\n        /* \"#utility.yul\":8451:8468   */\n      add\n        /* \"#utility.yul\":8444:8491   */\n      mstore\n        /* \"#utility.yul\":8508:8639   */\n      tag_185\n        /* \"#utility.yul\":8634:8638   */\n      dup2\n        /* \"#utility.yul\":8508:8639   */\n      tag_98\n      jump\t// in\n    tag_185:\n        /* \"#utility.yul\":8500:8639   */\n      swap1\n      pop\n        /* \"#utility.yul\":8227:8646   */\n      swap2\n      swap1\n      pop\n      jump\t// out\n\n    auxdata: 0xa2646970667358221220b55c0f7a454a8ac323b843201acbdc46672157531984403e73c6a77d0ed873a264736f6c634300081e0033\n}\n",
				"bytecode": {
					"linkReferences": {},
					"object": "608060405234801561000f575f5ffd5b50604051610d16380380610d16833981810160405281019061003191906100cb565b670de0b6b3a7640000816100459190610123565b6002819055506002545f5f3373ffffffffffffffffffffffffffffffffffffffff1673ffffffffffffffffffffffffffffffffffffffff1681526020019081526020015f208190555050610164565b5f5ffd5b5f819050919050565b6100aa81610098565b81146100b4575f5ffd5b50565b5f815190506100c5816100a1565b92915050565b5f602082840312156100e0576100df610094565b5b5f6100ed848285016100b7565b91505092915050565b7f4e487b71000000000000000000000000000000000000000000000000000000005f52601160045260245ffd5b5f61012d82610098565b915061013883610098565b925082820261014681610098565b9150828204841483151761015d5761015c6100f6565b5b5092915050565b610ba5806101715f395ff3fe608060405234801561000f575f5ffd5b5060043610610091575f3560e01c806327e235e31161006457806327e235e31461013157806370a082311461016157806395d89b4114610191578063a9059cbb146101af578063dd62ed3e146101df57610091565b806306fdde0314610095578063095ea7b3146100b357806318160ddd146100e357806323b872dd14610101575b5f5ffd5b61009d61020f565b6040516100aa91906107a1565b60405180910390f35b6100cd60048036038101906100c89190610852565b610248565b6040516100da91906108aa565b60405180910390f35b6100eb6102d0565b6040516100f891906108d2565b60405180910390f35b61011b600480360381019061011691906108eb565b6102d9565b60405161012891906108aa565b60405180910390f35b61014b6004803603810190610146919061093b565b610551565b60405161015891906108d2565b60405180910390f35b61017b6004803603810190610176919061093b565b610565565b60405161018891906108d2565b60405180910390f35b6101996105aa565b6040516101a691906107a1565b60405180910390f35b6101c960048036038101906101c49190610852565b6105e3565b6040516101d691906108aa565b60405180910390f35b6101f960048036038101906101f49190610966565b610711565b60405161020691906108d2565b60405180910390f35b6040518060400160405280600e81526020017f464520546f6b656e20426173696300000000000000000000000000000000000081525081565b5f8160015f3373ffffffffffffffffffffffffffffffffffffffff1673ffffffffffffffffffffffffffffffffffffffff1681526020019081526020015f205f8573ffffffffffffffffffffffffffffffffffffffff1673ffffffffffffffffffffffffffffffffffffffff1681526020019081526020015f20819055506001905092915050565b5f600254905090565b5f8160015f8673ffffffffffffffffffffffffffffffffffffffff1673ffffffffffffffffffffffffffffffffffffffff1681526020019081526020015f205f3373ffffffffffffffffffffffffffffffffffffffff1673ffffffffffffffffffffffffffffffffffffffff1681526020019081526020015f20541015610395576040517f08c379a000000000000000000000000000000000000000000000000000000000815260040161038c906109ee565b60405180910390fd5b815f5f8673ffffffffffffffffffffffffffffffffffffffff1673ffffffffffffffffffffffffffffffffffffffff1681526020019081526020015f20541015610414576040517f08c379a000000000000000000000000000000000000000000000000000000000815260040161040b90610a56565b60405180910390fd5b815f5f8673ffffffffffffffffffffffffffffffffffffffff1673ffffffffffffffffffffffffffffffffffffffff1681526020019081526020015f205f82825461045f9190610aa1565b92505081905550815f5f8573ffffffffffffffffffffffffffffffffffffffff1673ffffffffffffffffffffffffffffffffffffffff1681526020019081526020015f205f8282546104b19190610ad4565b925050819055508160015f8673ffffffffffffffffffffffffffffffffffffffff1673ffffffffffffffffffffffffffffffffffffffff1681526020019081526020015f205f3373ffffffffffffffffffffffffffffffffffffffff1673ffffffffffffffffffffffffffffffffffffffff1681526020019081526020015f205f82825461053f9190610aa1565b92505081905550600190509392505050565b5f602052805f5260405f205f915090505481565b5f5f5f8373ffffffffffffffffffffffffffffffffffffffff1673ffffffffffffffffffffffffffffffffffffffff1681526020019081526020015f20549050919050565b6040518060400160405280600281526020017f464500000000000000000000000000000000000000000000000000000000000081525081565b5f815f5f3373ffffffffffffffffffffffffffffffffffffffff1673ffffffffffffffffffffffffffffffffffffffff1681526020019081526020015f20541015610663576040517f08c379a000000000000000000000000000000000000000000000000000000000815260040161065a90610b51565b60405180910390fd5b815f5f3373ffffffffffffffffffffffffffffffffffffffff1673ffffffffffffffffffffffffffffffffffffffff1681526020019081526020015f205f8282546106ae9190610aa1565b92505081905550815f5f8573ffffffffffffffffffffffffffffffffffffffff1673ffffffffffffffffffffffffffffffffffffffff1681526020019081526020015f205f8282546107009190610ad4565b925050819055506001905092915050565b6001602052815f5260405f20602052805f5260405f205f91509150505481565b5f81519050919050565b5f82825260208201905092915050565b8281835e5f83830152505050565b5f601f19601f8301169050919050565b5f61077382610731565b61077d818561073b565b935061078d81856020860161074b565b61079681610759565b840191505092915050565b5f6020820190508181035f8301526107b98184610769565b905092915050565b5f5ffd5b5f73ffffffffffffffffffffffffffffffffffffffff82169050919050565b5f6107ee826107c5565b9050919050565b6107fe816107e4565b8114610808575f5ffd5b50565b5f81359050610819816107f5565b92915050565b5f819050919050565b6108318161081f565b811461083b575f5ffd5b50565b5f8135905061084c81610828565b92915050565b5f5f60408385031215610868576108676107c1565b5b5f6108758582860161080b565b92505060206108868582860161083e565b9150509250929050565b5f8115159050919050565b6108a481610890565b82525050565b5f6020820190506108bd5f83018461089b565b92915050565b6108cc8161081f565b82525050565b5f6020820190506108e55f8301846108c3565b92915050565b5f5f5f60608486031215610902576109016107c1565b5b5f61090f8682870161080b565b93505060206109208682870161080b565b92505060406109318682870161083e565b9150509250925092565b5f602082840312156109505761094f6107c1565b5b5f61095d8482850161080b565b91505092915050565b5f5f6040838503121561097c5761097b6107c1565b5b5f6109898582860161080b565b925050602061099a8582860161080b565b9150509250929050565b7f42617461732070656e67656c756172616e207465726c616d70617569000000005f82015250565b5f6109d8601c8361073b565b91506109e3826109a4565b602082019050919050565b5f6020820190508181035f830152610a05816109cc565b9050919050565b7f53616c646f2070656e676972696d20746964616b206d656e63756b75706900005f82015250565b5f610a40601e8361073b565b9150610a4b82610a0c565b602082019050919050565b5f6020820190508181035f830152610a6d81610a34565b9050919050565b7f4e487b71000000000000000000000000000000000000000000000000000000005f52601160045260245ffd5b5f610aab8261081f565b9150610ab68361081f565b9250828203905081811115610ace57610acd610a74565b5b92915050565b5f610ade8261081f565b9150610ae98361081f565b9250828201905080821115610b0157610b00610a74565b5b92915050565b7f496e73756666696369656e742062616c616e63652e00000000000000000000005f82015250565b5f610b3b60158361073b565b9150610b4682610b07565b602082019050919050565b5f6020820190508181035f830152610b6881610b2f565b905091905056fea2646970667358221220b55c0f7a454a8ac323b843201acbdc46672157531984403e73c6a77d0ed873a264736f6c634300081e0033",
					"opcodes": "PUSH1 0x80 PUSH1 0x40 MSTORE CALLVALUE DUP1 ISZERO PUSH2 0xF JUMPI PUSH0 PUSH0 REVERT JUMPDEST POP PUSH1 0x40 MLOAD PUSH2 0xD16 CODESIZE SUB DUP1 PUSH2 0xD16 DUP4 CODECOPY DUP2 DUP2 ADD PUSH1 0x40 MSTORE DUP2 ADD SWAP1 PUSH2 0x31 SWAP2 SWAP1 PUSH2 0xCB JUMP JUMPDEST PUSH8 0xDE0B6B3A7640000 DUP2 PUSH2 0x45 SWAP2 SWAP1 PUSH2 0x123 JUMP JUMPDEST PUSH1 0x2 DUP2 SWAP1 SSTORE POP PUSH1 0x2 SLOAD PUSH0 PUSH0 CALLER PUSH20 0xFFFFFFFFFFFFFFFFFFFFFFFFFFFFFFFFFFFFFFFF AND PUSH20 0xFFFFFFFFFFFFFFFFFFFFFFFFFFFFFFFFFFFFFFFF AND DUP2 MSTORE PUSH1 0x20 ADD SWAP1 DUP2 MSTORE PUSH1 0x20 ADD PUSH0 KECCAK256 DUP2 SWAP1 SSTORE POP POP PUSH2 0x164 JUMP JUMPDEST PUSH0 PUSH0 REVERT JUMPDEST PUSH0 DUP2 SWAP1 POP SWAP2 SWAP1 POP JUMP JUMPDEST PUSH2 0xAA DUP2 PUSH2 0x98 JUMP JUMPDEST DUP2 EQ PUSH2 0xB4 JUMPI PUSH0 PUSH0 REVERT JUMPDEST POP JUMP JUMPDEST PUSH0 DUP2 MLOAD SWAP1 POP PUSH2 0xC5 DUP2 PUSH2 0xA1 JUMP JUMPDEST SWAP3 SWAP2 POP POP JUMP JUMPDEST PUSH0 PUSH1 0x20 DUP3 DUP5 SUB SLT ISZERO PUSH2 0xE0 JUMPI PUSH2 0xDF PUSH2 0x94 JUMP JUMPDEST JUMPDEST PUSH0 PUSH2 0xED DUP5 DUP3 DUP6 ADD PUSH2 0xB7 JUMP JUMPDEST SWAP2 POP POP SWAP3 SWAP2 POP POP JUMP JUMPDEST PUSH32 0x4E487B7100000000000000000000000000000000000000000000000000000000 PUSH0 MSTORE PUSH1 0x11 PUSH1 0x4 MSTORE PUSH1 0x24 PUSH0 REVERT JUMPDEST PUSH0 PUSH2 0x12D DUP3 PUSH2 0x98 JUMP JUMPDEST SWAP2 POP PUSH2 0x138 DUP4 PUSH2 0x98 JUMP JUMPDEST SWAP3 POP DUP3 DUP3 MUL PUSH2 0x146 DUP2 PUSH2 0x98 JUMP JUMPDEST SWAP2 POP DUP3 DUP3 DIV DUP5 EQ DUP4 ISZERO OR PUSH2 0x15D JUMPI PUSH2 0x15C PUSH2 0xF6 JUMP JUMPDEST JUMPDEST POP SWAP3 SWAP2 POP POP JUMP JUMPDEST PUSH2 0xBA5 DUP1 PUSH2 0x171 PUSH0 CODECOPY PUSH0 RETURN INVALID PUSH1 0x80 PUSH1 0x40 MSTORE CALLVALUE DUP1 ISZERO PUSH2 0xF JUMPI PUSH0 PUSH0 REVERT JUMPDEST POP PUSH1 0x4 CALLDATASIZE LT PUSH2 0x91 JUMPI PUSH0 CALLDATALOAD PUSH1 0xE0 SHR DUP1 PUSH4 0x27E235E3 GT PUSH2 0x64 JUMPI DUP1 PUSH4 0x27E235E3 EQ PUSH2 0x131 JUMPI DUP1 PUSH4 0x70A08231 EQ PUSH2 0x161 JUMPI DUP1 PUSH4 0x95D89B41 EQ PUSH2 0x191 JUMPI DUP1 PUSH4 0xA9059CBB EQ PUSH2 0x1AF JUMPI DUP1 PUSH4 0xDD62ED3E EQ PUSH2 0x1DF JUMPI PUSH2 0x91 JUMP JUMPDEST DUP1 PUSH4 0x6FDDE03 EQ PUSH2 0x95 JUMPI DUP1 PUSH4 0x95EA7B3 EQ PUSH2 0xB3 JUMPI DUP1 PUSH4 0x18160DDD EQ PUSH2 0xE3 JUMPI DUP1 PUSH4 0x23B872DD EQ PUSH2 0x101 JUMPI JUMPDEST PUSH0 PUSH0 REVERT JUMPDEST PUSH2 0x9D PUSH2 0x20F JUMP JUMPDEST PUSH1 0x40 MLOAD PUSH2 0xAA SWAP2 SWAP1 PUSH2 0x7A1 JUMP JUMPDEST PUSH1 0x40 MLOAD DUP1 SWAP2 SUB SWAP1 RETURN JUMPDEST PUSH2 0xCD PUSH1 0x4 DUP1 CALLDATASIZE SUB DUP2 ADD SWAP1 PUSH2 0xC8 SWAP2 SWAP1 PUSH2 0x852 JUMP JUMPDEST PUSH2 0x248 JUMP JUMPDEST PUSH1 0x40 MLOAD PUSH2 0xDA SWAP2 SWAP1 PUSH2 0x8AA JUMP JUMPDEST PUSH1 0x40 MLOAD DUP1 SWAP2 SUB SWAP1 RETURN JUMPDEST PUSH2 0xEB PUSH2 0x2D0 JUMP JUMPDEST PUSH1 0x40 MLOAD PUSH2 0xF8 SWAP2 SWAP1 PUSH2 0x8D2 JUMP JUMPDEST PUSH1 0x40 MLOAD DUP1 SWAP2 SUB SWAP1 RETURN JUMPDEST PUSH2 0x11B PUSH1 0x4 DUP1 CALLDATASIZE SUB DUP2 ADD SWAP1 PUSH2 0x116 SWAP2 SWAP1 PUSH2 0x8EB JUMP JUMPDEST PUSH2 0x2D9 JUMP JUMPDEST PUSH1 0x40 MLOAD PUSH2 0x128 SWAP2 SWAP1 PUSH2 0x8AA JUMP JUMPDEST PUSH1 0x40 MLOAD DUP1 SWAP2 SUB SWAP1 RETURN JUMPDEST PUSH2 0x14B PUSH1 0x4 DUP1 CALLDATASIZE SUB DUP2 ADD SWAP1 PUSH2 0x146 SWAP2 SWAP1 PUSH2 0x93B JUMP JUMPDEST PUSH2 0x551 JUMP JUMPDEST PUSH1 0x40 MLOAD PUSH2 0x158 SWAP2 SWAP1 PUSH2 0x8D2 JUMP JUMPDEST PUSH1 0x40 MLOAD DUP1 SWAP2 SUB SWAP1 RETURN JUMPDEST PUSH2 0x17B PUSH1 0x4 DUP1 CALLDATASIZE SUB DUP2 ADD SWAP1 PUSH2 0x176 SWAP2 SWAP1 PUSH2 0x93B JUMP JUMPDEST PUSH2 0x565 JUMP JUMPDEST PUSH1 0x40 MLOAD PUSH2 0x188 SWAP2 SWAP1 PUSH2 0x8D2 JUMP JUMPDEST PUSH1 0x40 MLOAD DUP1 SWAP2 SUB SWAP1 RETURN JUMPDEST PUSH2 0x199 PUSH2 0x5AA JUMP JUMPDEST PUSH1 0x40 MLOAD PUSH2 0x1A6 SWAP2 SWAP1 PUSH2 0x7A1 JUMP JUMPDEST PUSH1 0x40 MLOAD DUP1 SWAP2 SUB SWAP1 RETURN JUMPDEST PUSH2 0x1C9 PUSH1 0x4 DUP1 CALLDATASIZE SUB DUP2 ADD SWAP1 PUSH2 0x1C4 SWAP2 SWAP1 PUSH2 0x852 JUMP JUMPDEST PUSH2 0x5E3 JUMP JUMPDEST PUSH1 0x40 MLOAD PUSH2 0x1D6 SWAP2 SWAP1 PUSH2 0x8AA JUMP JUMPDEST PUSH1 0x40 MLOAD DUP1 SWAP2 SUB SWAP1 RETURN JUMPDEST PUSH2 0x1F9 PUSH1 0x4 DUP1 CALLDATASIZE SUB DUP2 ADD SWAP1 PUSH2 0x1F4 SWAP2 SWAP1 PUSH2 0x966 JUMP JUMPDEST PUSH2 0x711 JUMP JUMPDEST PUSH1 0x40 MLOAD PUSH2 0x206 SWAP2 SWAP1 PUSH2 0x8D2 JUMP JUMPDEST PUSH1 0x40 MLOAD DUP1 SWAP2 SUB SWAP1 RETURN JUMPDEST PUSH1 0x40 MLOAD DUP1 PUSH1 0x40 ADD PUSH1 0x40 MSTORE DUP1 PUSH1 0xE DUP2 MSTORE PUSH1 0x20 ADD PUSH32 0x464520546F6B656E204261736963000000000000000000000000000000000000 DUP2 MSTORE POP DUP2 JUMP JUMPDEST PUSH0 DUP2 PUSH1 0x1 PUSH0 CALLER PUSH20 0xFFFFFFFFFFFFFFFFFFFFFFFFFFFFFFFFFFFFFFFF AND PUSH20 0xFFFFFFFFFFFFFFFFFFFFFFFFFFFFFFFFFFFFFFFF AND DUP2 MSTORE PUSH1 0x20 ADD SWAP1 DUP2 MSTORE PUSH1 0x20 ADD PUSH0 KECCAK256 PUSH0 DUP6 PUSH20 0xFFFFFFFFFFFFFFFFFFFFFFFFFFFFFFFFFFFFFFFF AND PUSH20 0xFFFFFFFFFFFFFFFFFFFFFFFFFFFFFFFFFFFFFFFF AND DUP2 MSTORE PUSH1 0x20 ADD SWAP1 DUP2 MSTORE PUSH1 0x20 ADD PUSH0 KECCAK256 DUP2 SWAP1 SSTORE POP PUSH1 0x1 SWAP1 POP SWAP3 SWAP2 POP POP JUMP JUMPDEST PUSH0 PUSH1 0x2 SLOAD SWAP1 POP SWAP1 JUMP JUMPDEST PUSH0 DUP2 PUSH1 0x1 PUSH0 DUP7 PUSH20 0xFFFFFFFFFFFFFFFFFFFFFFFFFFFFFFFFFFFFFFFF AND PUSH20 0xFFFFFFFFFFFFFFFFFFFFFFFFFFFFFFFFFFFFFFFF AND DUP2 MSTORE PUSH1 0x20 ADD SWAP1 DUP2 MSTORE PUSH1 0x20 ADD PUSH0 KECCAK256 PUSH0 CALLER PUSH20 0xFFFFFFFFFFFFFFFFFFFFFFFFFFFFFFFFFFFFFFFF AND PUSH20 0xFFFFFFFFFFFFFFFFFFFFFFFFFFFFFFFFFFFFFFFF AND DUP2 MSTORE PUSH1 0x20 ADD SWAP1 DUP2 MSTORE PUSH1 0x20 ADD PUSH0 KECCAK256 SLOAD LT ISZERO PUSH2 0x395 JUMPI PUSH1 0x40 MLOAD PUSH32 0x8C379A000000000000000000000000000000000000000000000000000000000 DUP2 MSTORE PUSH1 0x4 ADD PUSH2 0x38C SWAP1 PUSH2 0x9EE JUMP JUMPDEST PUSH1 0x40 MLOAD DUP1 SWAP2 SUB SWAP1 REVERT JUMPDEST DUP2 PUSH0 PUSH0 DUP7 PUSH20 0xFFFFFFFFFFFFFFFFFFFFFFFFFFFFFFFFFFFFFFFF AND PUSH20 0xFFFFFFFFFFFFFFFFFFFFFFFFFFFFFFFFFFFFFFFF AND DUP2 MSTORE PUSH1 0x20 ADD SWAP1 DUP2 MSTORE PUSH1 0x20 ADD PUSH0 KECCAK256 SLOAD LT ISZERO PUSH2 0x414 JUMPI PUSH1 0x40 MLOAD PUSH32 0x8C379A000000000000000000000000000000000000000000000000000000000 DUP2 MSTORE PUSH1 0x4 ADD PUSH2 0x40B SWAP1 PUSH2 0xA56 JUMP JUMPDEST PUSH1 0x40 MLOAD DUP1 SWAP2 SUB SWAP1 REVERT JUMPDEST DUP2 PUSH0 PUSH0 DUP7 PUSH20 0xFFFFFFFFFFFFFFFFFFFFFFFFFFFFFFFFFFFFFFFF AND PUSH20 0xFFFFFFFFFFFFFFFFFFFFFFFFFFFFFFFFFFFFFFFF AND DUP2 MSTORE PUSH1 0x20 ADD SWAP1 DUP2 MSTORE PUSH1 0x20 ADD PUSH0 KECCAK256 PUSH0 DUP3 DUP3 SLOAD PUSH2 0x45F SWAP2 SWAP1 PUSH2 0xAA1 JUMP JUMPDEST SWAP3 POP POP DUP2 SWAP1 SSTORE POP DUP2 PUSH0 PUSH0 DUP6 PUSH20 0xFFFFFFFFFFFFFFFFFFFFFFFFFFFFFFFFFFFFFFFF AND PUSH20 0xFFFFFFFFFFFFFFFFFFFFFFFFFFFFFFFFFFFFFFFF AND DUP2 MSTORE PUSH1 0x20 ADD SWAP1 DUP2 MSTORE PUSH1 0x20 ADD PUSH0 KECCAK256 PUSH0 DUP3 DUP3 SLOAD PUSH2 0x4B1 SWAP2 SWAP1 PUSH2 0xAD4 JUMP JUMPDEST SWAP3 POP POP DUP2 SWAP1 SSTORE POP DUP2 PUSH1 0x1 PUSH0 DUP7 PUSH20 0xFFFFFFFFFFFFFFFFFFFFFFFFFFFFFFFFFFFFFFFF AND PUSH20 0xFFFFFFFFFFFFFFFFFFFFFFFFFFFFFFFFFFFFFFFF AND DUP2 MSTORE PUSH1 0x20 ADD SWAP1 DUP2 MSTORE PUSH1 0x20 ADD PUSH0 KECCAK256 PUSH0 CALLER PUSH20 0xFFFFFFFFFFFFFFFFFFFFFFFFFFFFFFFFFFFFFFFF AND PUSH20 0xFFFFFFFFFFFFFFFFFFFFFFFFFFFFFFFFFFFFFFFF AND DUP2 MSTORE PUSH1 0x20 ADD SWAP1 DUP2 MSTORE PUSH1 0x20 ADD PUSH0 KECCAK256 PUSH0 DUP3 DUP3 SLOAD PUSH2 0x53F SWAP2 SWAP1 PUSH2 0xAA1 JUMP JUMPDEST SWAP3 POP POP DUP2 SWAP1 SSTORE POP PUSH1 0x1 SWAP1 POP SWAP4 SWAP3 POP POP POP JUMP JUMPDEST PUSH0 PUSH1 0x20 MSTORE DUP1 PUSH0 MSTORE PUSH1 0x40 PUSH0 KECCAK256 PUSH0 SWAP2 POP SWAP1 POP SLOAD DUP2 JUMP JUMPDEST PUSH0 PUSH0 PUSH0 DUP4 PUSH20 0xFFFFFFFFFFFFFFFFFFFFFFFFFFFFFFFFFFFFFFFF AND PUSH20 0xFFFFFFFFFFFFFFFFFFFFFFFFFFFFFFFFFFFFFFFF AND DUP2 MSTORE PUSH1 0x20 ADD SWAP1 DUP2 MSTORE PUSH1 0x20 ADD PUSH0 KECCAK256 SLOAD SWAP1 POP SWAP2 SWAP1 POP JUMP JUMPDEST PUSH1 0x40 MLOAD DUP1 PUSH1 0x40 ADD PUSH1 0x40 MSTORE DUP1 PUSH1 0x2 DUP2 MSTORE PUSH1 0x20 ADD PUSH32 0x4645000000000000000000000000000000000000000000000000000000000000 DUP2 MSTORE POP DUP2 JUMP JUMPDEST PUSH0 DUP2 PUSH0 PUSH0 CALLER PUSH20 0xFFFFFFFFFFFFFFFFFFFFFFFFFFFFFFFFFFFFFFFF AND PUSH20 0xFFFFFFFFFFFFFFFFFFFFFFFFFFFFFFFFFFFFFFFF AND DUP2 MSTORE PUSH1 0x20 ADD SWAP1 DUP2 MSTORE PUSH1 0x20 ADD PUSH0 KECCAK256 SLOAD LT ISZERO PUSH2 0x663 JUMPI PUSH1 0x40 MLOAD PUSH32 0x8C379A000000000000000000000000000000000000000000000000000000000 DUP2 MSTORE PUSH1 0x4 ADD PUSH2 0x65A SWAP1 PUSH2 0xB51 JUMP JUMPDEST PUSH1 0x40 MLOAD DUP1 SWAP2 SUB SWAP1 REVERT JUMPDEST DUP2 PUSH0 PUSH0 CALLER PUSH20 0xFFFFFFFFFFFFFFFFFFFFFFFFFFFFFFFFFFFFFFFF AND PUSH20 0xFFFFFFFFFFFFFFFFFFFFFFFFFFFFFFFFFFFFFFFF AND DUP2 MSTORE PUSH1 0x20 ADD SWAP1 DUP2 MSTORE PUSH1 0x20 ADD PUSH0 KECCAK256 PUSH0 DUP3 DUP3 SLOAD PUSH2 0x6AE SWAP2 SWAP1 PUSH2 0xAA1 JUMP JUMPDEST SWAP3 POP POP DUP2 SWAP1 SSTORE POP DUP2 PUSH0 PUSH0 DUP6 PUSH20 0xFFFFFFFFFFFFFFFFFFFFFFFFFFFFFFFFFFFFFFFF AND PUSH20 0xFFFFFFFFFFFFFFFFFFFFFFFFFFFFFFFFFFFFFFFF AND DUP2 MSTORE PUSH1 0x20 ADD SWAP1 DUP2 MSTORE PUSH1 0x20 ADD PUSH0 KECCAK256 PUSH0 DUP3 DUP3 SLOAD PUSH2 0x700 SWAP2 SWAP1 PUSH2 0xAD4 JUMP JUMPDEST SWAP3 POP POP DUP2 SWAP1 SSTORE POP PUSH1 0x1 SWAP1 POP SWAP3 SWAP2 POP POP JUMP JUMPDEST PUSH1 0x1 PUSH1 0x20 MSTORE DUP2 PUSH0 MSTORE PUSH1 0x40 PUSH0 KECCAK256 PUSH1 0x20 MSTORE DUP1 PUSH0 MSTORE PUSH1 0x40 PUSH0 KECCAK256 PUSH0 SWAP2 POP SWAP2 POP POP SLOAD DUP2 JUMP JUMPDEST PUSH0 DUP2 MLOAD SWAP1 POP SWAP2 SWAP1 POP JUMP JUMPDEST PUSH0 DUP3 DUP3 MSTORE PUSH1 0x20 DUP3 ADD SWAP1 POP SWAP3 SWAP2 POP POP JUMP JUMPDEST DUP3 DUP2 DUP4 MCOPY PUSH0 DUP4 DUP4 ADD MSTORE POP POP POP JUMP JUMPDEST PUSH0 PUSH1 0x1F NOT PUSH1 0x1F DUP4 ADD AND SWAP1 POP SWAP2 SWAP1 POP JUMP JUMPDEST PUSH0 PUSH2 0x773 DUP3 PUSH2 0x731 JUMP JUMPDEST PUSH2 0x77D DUP2 DUP6 PUSH2 0x73B JUMP JUMPDEST SWAP4 POP PUSH2 0x78D DUP2 DUP6 PUSH1 0x20 DUP7 ADD PUSH2 0x74B JUMP JUMPDEST PUSH2 0x796 DUP2 PUSH2 0x759 JUMP JUMPDEST DUP5 ADD SWAP2 POP POP SWAP3 SWAP2 POP POP JUMP JUMPDEST PUSH0 PUSH1 0x20 DUP3 ADD SWAP1 POP DUP2 DUP2 SUB PUSH0 DUP4 ADD MSTORE PUSH2 0x7B9 DUP2 DUP5 PUSH2 0x769 JUMP JUMPDEST SWAP1 POP SWAP3 SWAP2 POP POP JUMP JUMPDEST PUSH0 PUSH0 REVERT JUMPDEST PUSH0 PUSH20 0xFFFFFFFFFFFFFFFFFFFFFFFFFFFFFFFFFFFFFFFF DUP3 AND SWAP1 POP SWAP2 SWAP1 POP JUMP JUMPDEST PUSH0 PUSH2 0x7EE DUP3 PUSH2 0x7C5 JUMP JUMPDEST SWAP1 POP SWAP2 SWAP1 POP JUMP JUMPDEST PUSH2 0x7FE DUP2 PUSH2 0x7E4 JUMP JUMPDEST DUP2 EQ PUSH2 0x808 JUMPI PUSH0 PUSH0 REVERT JUMPDEST POP JUMP JUMPDEST PUSH0 DUP2 CALLDATALOAD SWAP1 POP PUSH2 0x819 DUP2 PUSH2 0x7F5 JUMP JUMPDEST SWAP3 SWAP2 POP POP JUMP JUMPDEST PUSH0 DUP2 SWAP1 POP SWAP2 SWAP1 POP JUMP JUMPDEST PUSH2 0x831 DUP2 PUSH2 0x81F JUMP JUMPDEST DUP2 EQ PUSH2 0x83B JUMPI PUSH0 PUSH0 REVERT JUMPDEST POP JUMP JUMPDEST PUSH0 DUP2 CALLDATALOAD SWAP1 POP PUSH2 0x84C DUP2 PUSH2 0x828 JUMP JUMPDEST SWAP3 SWAP2 POP POP JUMP JUMPDEST PUSH0 PUSH0 PUSH1 0x40 DUP4 DUP6 SUB SLT ISZERO PUSH2 0x868 JUMPI PUSH2 0x867 PUSH2 0x7C1 JUMP JUMPDEST JUMPDEST PUSH0 PUSH2 0x875 DUP6 DUP3 DUP7 ADD PUSH2 0x80B JUMP JUMPDEST SWAP3 POP POP PUSH1 0x20 PUSH2 0x886 DUP6 DUP3 DUP7 ADD PUSH2 0x83E JUMP JUMPDEST SWAP2 POP POP SWAP3 POP SWAP3 SWAP1 POP JUMP JUMPDEST PUSH0 DUP2 ISZERO ISZERO SWAP1 POP SWAP2 SWAP1 POP JUMP JUMPDEST PUSH2 0x8A4 DUP2 PUSH2 0x890 JUMP JUMPDEST DUP3 MSTORE POP POP JUMP JUMPDEST PUSH0 PUSH1 0x20 DUP3 ADD SWAP1 POP PUSH2 0x8BD PUSH0 DUP4 ADD DUP5 PUSH2 0x89B JUMP JUMPDEST SWAP3 SWAP2 POP POP JUMP JUMPDEST PUSH2 0x8CC DUP2 PUSH2 0x81F JUMP JUMPDEST DUP3 MSTORE POP POP JUMP JUMPDEST PUSH0 PUSH1 0x20 DUP3 ADD SWAP1 POP PUSH2 0x8E5 PUSH0 DUP4 ADD DUP5 PUSH2 0x8C3 JUMP JUMPDEST SWAP3 SWAP2 POP POP JUMP JUMPDEST PUSH0 PUSH0 PUSH0 PUSH1 0x60 DUP5 DUP7 SUB SLT ISZERO PUSH2 0x902 JUMPI PUSH2 0x901 PUSH2 0x7C1 JUMP JUMPDEST JUMPDEST PUSH0 PUSH2 0x90F DUP7 DUP3 DUP8 ADD PUSH2 0x80B JUMP JUMPDEST SWAP4 POP POP PUSH1 0x20 PUSH2 0x920 DUP7 DUP3 DUP8 ADD PUSH2 0x80B JUMP JUMPDEST SWAP3 POP POP PUSH1 0x40 PUSH2 0x931 DUP7 DUP3 DUP8 ADD PUSH2 0x83E JUMP JUMPDEST SWAP2 POP POP SWAP3 POP SWAP3 POP SWAP3 JUMP JUMPDEST PUSH0 PUSH1 0x20 DUP3 DUP5 SUB SLT ISZERO PUSH2 0x950 JUMPI PUSH2 0x94F PUSH2 0x7C1 JUMP JUMPDEST JUMPDEST PUSH0 PUSH2 0x95D DUP5 DUP3 DUP6 ADD PUSH2 0x80B JUMP JUMPDEST SWAP2 POP POP SWAP3 SWAP2 POP POP JUMP JUMPDEST PUSH0 PUSH0 PUSH1 0x40 DUP4 DUP6 SUB SLT ISZERO PUSH2 0x97C JUMPI PUSH2 0x97B PUSH2 0x7C1 JUMP JUMPDEST JUMPDEST PUSH0 PUSH2 0x989 DUP6 DUP3 DUP7 ADD PUSH2 0x80B JUMP JUMPDEST SWAP3 POP POP PUSH1 0x20 PUSH2 0x99A DUP6 DUP3 DUP7 ADD PUSH2 0x80B JUMP JUMPDEST SWAP2 POP POP SWAP3 POP SWAP3 SWAP1 POP JUMP JUMPDEST PUSH32 0x42617461732070656E67656C756172616E207465726C616D7061756900000000 PUSH0 DUP3 ADD MSTORE POP JUMP JUMPDEST PUSH0 PUSH2 0x9D8 PUSH1 0x1C DUP4 PUSH2 0x73B JUMP JUMPDEST SWAP2 POP PUSH2 0x9E3 DUP3 PUSH2 0x9A4 JUMP JUMPDEST PUSH1 0x20 DUP3 ADD SWAP1 POP SWAP2 SWAP1 POP JUMP JUMPDEST PUSH0 PUSH1 0x20 DUP3 ADD SWAP1 POP DUP2 DUP2 SUB PUSH0 DUP4 ADD MSTORE PUSH2 0xA05 DUP2 PUSH2 0x9CC JUMP JUMPDEST SWAP1 POP SWAP2 SWAP1 POP JUMP JUMPDEST PUSH32 0x53616C646F2070656E676972696D20746964616B206D656E63756B7570690000 PUSH0 DUP3 ADD MSTORE POP JUMP JUMPDEST PUSH0 PUSH2 0xA40 PUSH1 0x1E DUP4 PUSH2 0x73B JUMP JUMPDEST SWAP2 POP PUSH2 0xA4B DUP3 PUSH2 0xA0C JUMP JUMPDEST PUSH1 0x20 DUP3 ADD SWAP1 POP SWAP2 SWAP1 POP JUMP JUMPDEST PUSH0 PUSH1 0x20 DUP3 ADD SWAP1 POP DUP2 DUP2 SUB PUSH0 DUP4 ADD MSTORE PUSH2 0xA6D DUP2 PUSH2 0xA34 JUMP JUMPDEST SWAP1 POP SWAP2 SWAP1 POP JUMP JUMPDEST PUSH32 0x4E487B7100000000000000000000000000000000000000000000000000000000 PUSH0 MSTORE PUSH1 0x11 PUSH1 0x4 MSTORE PUSH1 0x24 PUSH0 REVERT JUMPDEST PUSH0 PUSH2 0xAAB DUP3 PUSH2 0x81F JUMP JUMPDEST SWAP2 POP PUSH2 0xAB6 DUP4 PUSH2 0x81F JUMP JUMPDEST SWAP3 POP DUP3 DUP3 SUB SWAP1 POP DUP2 DUP2 GT ISZERO PUSH2 0xACE JUMPI PUSH2 0xACD PUSH2 0xA74 JUMP JUMPDEST JUMPDEST SWAP3 SWAP2 POP POP JUMP JUMPDEST PUSH0 PUSH2 0xADE DUP3 PUSH2 0x81F JUMP JUMPDEST SWAP2 POP PUSH2 0xAE9 DUP4 PUSH2 0x81F JUMP JUMPDEST SWAP3 POP DUP3 DUP3 ADD SWAP1 POP DUP1 DUP3 GT ISZERO PUSH2 0xB01 JUMPI PUSH2 0xB00 PUSH2 0xA74 JUMP JUMPDEST JUMPDEST SWAP3 SWAP2 POP POP JUMP JUMPDEST PUSH32 0x496E73756666696369656E742062616C616E63652E0000000000000000000000 PUSH0 DUP3 ADD MSTORE POP JUMP JUMPDEST PUSH0 PUSH2 0xB3B PUSH1 0x15 DUP4 PUSH2 0x73B JUMP JUMPDEST SWAP2 POP PUSH2 0xB46 DUP3 PUSH2 0xB07 JUMP JUMPDEST PUSH1 0x20 DUP3 ADD SWAP1 POP SWAP2 SWAP1 POP JUMP JUMPDEST PUSH0 PUSH1 0x20 DUP3 ADD SWAP1 POP DUP2 DUP2 SUB PUSH0 DUP4 ADD MSTORE PUSH2 0xB68 DUP2 PUSH2 0xB2F JUMP JUMPDEST SWAP1 POP SWAP2 SWAP1 POP JUMP INVALID LOG2 PUSH5 0x6970667358 0x22 SLT KECCAK256 0xB5 TLOAD 0xF PUSH27 0x454A8AC323B843201ACBDC46672157531984403E73C6A77D0ED873 LOG2 PUSH5 0x736F6C6343 STOP ADDMOD 0x1E STOP CALLER "
				},
				"gasEstimates": {
					"creation": {
						"codeDepositCost": "596200",
						"executionCost": "infinite",
						"totalCost": "infinite"
					},
					"external": {
						"allowance(address,address)": "infinite",
						"approve(address,uint256)": "23129",
						"balanceOf(address)": "2850",
						"balances(address)": "2801",
						"name()": "infinite",
						"symbol()": "infinite",
						"totalSupply()": "2477",
						"transfer(address,uint256)": "infinite",
						"transferFrom(address,address,uint256)": "infinite"
					}
				},
				"methodIdentifiers": {
					"allowance(address,address)": "dd62ed3e",
					"approve(address,uint256)": "095ea7b3",
					"balanceOf(address)": "70a08231",
					"balances(address)": "27e235e3",
					"name()": "06fdde03",
					"symbol()": "95d89b41",
					"totalSupply()": "18160ddd",
					"transfer(address,uint256)": "a9059cbb",
					"transferFrom(address,address,uint256)": "23b872dd"
				}
			},
			"storageLayout": {
				"storage": [
					{
						"astId": 5,
						"contract": "contracts/main.sol:NakedToken",
						"label": "balances",
						"offset": 0,
						"slot": "0",
						"type": "t_mapping(t_address,t_uint256)"
					},
					{
						"astId": 11,
						"contract": "contracts/main.sol:NakedToken",
						"label": "allowance",
						"offset": 0,
						"slot": "1",
						"type": "t_mapping(t_address,t_mapping(t_address,t_uint256))"
					},
					{
						"astId": 19,
						"contract": "contracts/main.sol:NakedToken",
						"label": "_totalSupply",
						"offset": 0,
						"slot": "2",
						"type": "t_uint256"
					}
				],
				"types": {
					"t_address": {
						"encoding": "inplace",
						"label": "address",
						"numberOfBytes": "20"
					},
					"t_mapping(t_address,t_mapping(t_address,t_uint256))": {
						"encoding": "mapping",
						"key": "t_address",
						"label": "mapping(address => mapping(address => uint256))",
						"numberOfBytes": "32",
						"value": "t_mapping(t_address,t_uint256)"
					},
					"t_mapping(t_address,t_uint256)": {
						"encoding": "mapping",
						"key": "t_address",
						"label": "mapping(address => uint256)",
						"numberOfBytes": "32",
						"value": "t_uint256"
					},
					"t_uint256": {
						"encoding": "inplace",
						"label": "uint256",
						"numberOfBytes": "32"
					}
				}
			},
			"userdoc": {
				"kind": "user",
				"methods": {},
				"version": 1
			}
		}
	}
}