{
	"contracts/reward.sol": {
		"RewardToken": {
			"abi": [
				{
					"inputs": [
						{
							"internalType": "address",
							"name": "trustedForwarder",
							"type": "address"
						},
						{
							"internalType": "address",
							"name": "initialOwner",
							"type": "address"
						},
						{
							"internalType": "uint256",
							"name": "initialSupply",
							"type": "uint256"
						}
					],
					"stateMutability": "nonpayable",
					"type": "constructor"
				},
				{
					"inputs": [
						{
							"internalType": "address",
							"name": "spender",
							"type": "address"
						},
						{
							"internalType": "uint256",
							"name": "allowance",
							"type": "uint256"
						},
						{
							"internalType": "uint256",
							"name": "needed",
							"type": "uint256"
						}
					],
					"name": "ERC20InsufficientAllowance",
					"type": "error"
				},
				{
					"inputs": [
						{
							"internalType": "address",
							"name": "sender",
							"type": "address"
						},
						{
							"internalType": "uint256",
							"name": "balance",
							"type": "uint256"
						},
						{
							"internalType": "uint256",
							"name": "needed",
							"type": "uint256"
						}
					],
					"name": "ERC20InsufficientBalance",
					"type": "error"
				},
				{
					"inputs": [
						{
							"internalType": "address",
							"name": "approver",
							"type": "address"
						}
					],
					"name": "ERC20InvalidApprover",
					"type": "error"
				},
				{
					"inputs": [
						{
							"internalType": "address",
							"name": "receiver",
							"type": "address"
						}
					],
					"name": "ERC20InvalidReceiver",
					"type": "error"
				},
				{
					"inputs": [
						{
							"internalType": "address",
							"name": "sender",
							"type": "address"
						}
					],
					"name": "ERC20InvalidSender",
					"type": "error"
				},
				{
					"inputs": [
						{
							"internalType": "address",
							"name": "spender",
							"type": "address"
						}
					],
					"name": "ERC20InvalidSpender",
					"type": "error"
				},
				{
					"inputs": [
						{
							"internalType": "address",
							"name": "owner",
							"type": "address"
						}
					],
					"name": "OwnableInvalidOwner",
					"type": "error"
				},
				{
					"inputs": [
						{
							"internalType": "address",
							"name": "account",
							"type": "address"
						}
					],
					"name": "OwnableUnauthorizedAccount",
					"type": "error"
				},
				{
					"anonymous": false,
					"inputs": [
						{
							"indexed": true,
							"internalType": "address",
							"name": "owner",
							"type": "address"
						},
						{
							"indexed": true,
							"internalType": "address",
							"name": "spender",
							"type": "address"
						},
						{
							"indexed": false,
							"internalType": "uint256",
							"name": "value",
							"type": "uint256"
						}
					],
					"name": "Approval",
					"type": "event"
				},
				{
					"anonymous": false,
					"inputs": [
						{
							"indexed": true,
							"internalType": "address",
							"name": "previousOwner",
							"type": "address"
						},
						{
							"indexed": true,
							"internalType": "address",
							"name": "newOwner",
							"type": "address"
						}
					],
					"name": "OwnershipTransferred",
					"type": "event"
				},
				{
					"anonymous": false,
					"inputs": [
						{
							"indexed": true,
							"internalType": "address",
							"name": "from",
							"type": "address"
						},
						{
							"indexed": true,
							"internalType": "address",
							"name": "to",
							"type": "address"
						},
						{
							"indexed": false,
							"internalType": "uint256",
							"name": "value",
							"type": "uint256"
						}
					],
					"name": "Transfer",
					"type": "event"
				},
				{
					"inputs": [
						{
							"internalType": "address",
							"name": "owner",
							"type": "address"
						},
						{
							"internalType": "address",
							"name": "spender",
							"type": "address"
						}
					],
					"name": "allowance",
					"outputs": [
						{
							"internalType": "uint256",
							"name": "",
							"type": "uint256"
						}
					],
					"stateMutability": "view",
					"type": "function"
				},
				{
					"inputs": [
						{
							"internalType": "address",
							"name": "spender",
							"type": "address"
						},
						{
							"internalType": "uint256",
							"name": "value",
							"type": "uint256"
						}
					],
					"name": "approve",
					"outputs": [
						{
							"internalType": "bool",
							"name": "",
							"type": "bool"
						}
					],
					"stateMutability": "nonpayable",
					"type": "function"
				},
				{
					"inputs": [
						{
							"internalType": "address",
							"name": "account",
							"type": "address"
						}
					],
					"name": "balanceOf",
					"outputs": [
						{
							"internalType": "uint256",
							"name": "",
							"type": "uint256"
						}
					],
					"stateMutability": "view",
					"type": "function"
				},
				{
					"inputs": [
						{
							"internalType": "uint256",
							"name": "amount",
							"type": "uint256"
						}
					],
					"name": "claimReward",
					"outputs": [],
					"stateMutability": "nonpayable",
					"type": "function"
				},
				{
					"inputs": [
						{
							"internalType": "address",
							"name": "user_address",
							"type": "address"
						},
						{
							"internalType": "uint256",
							"name": "amount",
							"type": "uint256"
						}
					],
					"name": "claimRewardPublic",
					"outputs": [],
					"stateMutability": "nonpayable",
					"type": "function"
				},
				{
					"inputs": [],
					"name": "decimals",
					"outputs": [
						{
							"internalType": "uint8",
							"name": "",
							"type": "uint8"
						}
					],
					"stateMutability": "view",
					"type": "function"
				},
				{
					"inputs": [
						{
							"internalType": "uint256",
							"name": "amount",
							"type": "uint256"
						}
					],
					"name": "decreaseMyToken",
					"outputs": [],
					"stateMutability": "nonpayable",
					"type": "function"
				},
				{
					"inputs": [
						{
							"internalType": "address",
							"name": "user_address",
							"type": "address"
						},
						{
							"internalType": "uint256",
							"name": "amount",
							"type": "uint256"
						}
					],
					"name": "decreaseMyTokenPublic",
					"outputs": [],
					"stateMutability": "nonpayable",
					"type": "function"
				},
				{
					"inputs": [
						{
							"internalType": "uint256",
							"name": "amount",
							"type": "uint256"
						}
					],
					"name": "increaseSupply",
					"outputs": [],
					"stateMutability": "nonpayable",
					"type": "function"
				},
				{
					"inputs": [
						{
							"internalType": "address",
							"name": "forwarder",
							"type": "address"
						}
					],
					"name": "isTrustedForwarder",
					"outputs": [
						{
							"internalType": "bool",
							"name": "",
							"type": "bool"
						}
					],
					"stateMutability": "view",
					"type": "function"
				},
				{
					"inputs": [],
					"name": "name",
					"outputs": [
						{
							"internalType": "string",
							"name": "",
							"type": "string"
						}
					],
					"stateMutability": "view",
					"type": "function"
				},
				{
					"inputs": [],
					"name": "owner",
					"outputs": [
						{
							"internalType": "address",
							"name": "",
							"type": "address"
						}
					],
					"stateMutability": "view",
					"type": "function"
				},
				{
					"inputs": [],
					"name": "renounceOwnership",
					"outputs": [],
					"stateMutability": "nonpayable",
					"type": "function"
				},
				{
					"inputs": [],
					"name": "symbol",
					"outputs": [
						{
							"internalType": "string",
							"name": "",
							"type": "string"
						}
					],
					"stateMutability": "view",
					"type": "function"
				},
				{
					"inputs": [],
					"name": "totalSupply",
					"outputs": [
						{
							"internalType": "uint256",
							"name": "",
							"type": "uint256"
						}
					],
					"stateMutability": "view",
					"type": "function"
				},
				{
					"inputs": [
						{
							"internalType": "address",
							"name": "to",
							"type": "address"
						},
						{
							"internalType": "uint256",
							"name": "value",
							"type": "uint256"
						}
					],
					"name": "transfer",
					"outputs": [
						{
							"internalType": "bool",
							"name": "",
							"type": "bool"
						}
					],
					"stateMutability": "nonpayable",
					"type": "function"
				},
				{
					"inputs": [
						{
							"internalType": "address",
							"name": "from",
							"type": "address"
						},
						{
							"internalType": "address",
							"name": "to",
							"type": "address"
						},
						{
							"internalType": "uint256",
							"name": "value",
							"type": "uint256"
						}
					],
					"name": "transferFrom",
					"outputs": [
						{
							"internalType": "bool",
							"name": "",
							"type": "bool"
						}
					],
					"stateMutability": "nonpayable",
					"type": "function"
				},
				{
					"inputs": [
						{
							"internalType": "address",
							"name": "newOwner",
							"type": "address"
						}
					],
					"name": "transferOwnership",
					"outputs": [],
					"stateMutability": "nonpayable",
					"type": "function"
				},
				{
					"inputs": [],
					"name": "trustedForwarder",
					"outputs": [
						{
							"internalType": "address",
							"name": "",
							"type": "address"
						}
					],
					"stateMutability": "view",
					"type": "function"
				}
			],
			"devdoc": {
				"errors": {
					"ERC20InsufficientAllowance(address,uint256,uint256)": [
						{
							"details": "Indicates a failure with the `spender`’s `allowance`. Used in transfers.",
							"params": {
								"allowance": "Amount of tokens a `spender` is allowed to operate with.",
								"needed": "Minimum amount required to perform a transfer.",
								"spender": "Address that may be allowed to operate on tokens without being their owner."
							}
						}
					],
					"ERC20InsufficientBalance(address,uint256,uint256)": [
						{
							"details": "Indicates an error related to the current `balance` of a `sender`. Used in transfers.",
							"params": {
								"balance": "Current balance for the interacting account.",
								"needed": "Minimum amount required to perform a transfer.",
								"sender": "Address whose tokens are being transferred."
							}
						}
					],
					"ERC20InvalidApprover(address)": [
						{
							"details": "Indicates a failure with the `approver` of a token to be approved. Used in approvals.",
							"params": {
								"approver": "Address initiating an approval operation."
							}
						}
					],
					"ERC20InvalidReceiver(address)": [
						{
							"details": "Indicates a failure with the token `receiver`. Used in transfers.",
							"params": {
								"receiver": "Address to which tokens are being transferred."
							}
						}
					],
					"ERC20InvalidSender(address)": [
						{
							"details": "Indicates a failure with the token `sender`. Used in transfers.",
							"params": {
								"sender": "Address whose tokens are being transferred."
							}
						}
					],
					"ERC20InvalidSpender(address)": [
						{
							"details": "Indicates a failure with the `spender` to be approved. Used in approvals.",
							"params": {
								"spender": "Address that may be allowed to operate on tokens without being their owner."
							}
						}
					],
					"OwnableInvalidOwner(address)": [
						{
							"details": "The owner is not a valid owner account. (eg. `address(0)`)"
						}
					],
					"OwnableUnauthorizedAccount(address)": [
						{
							"details": "The caller account is not authorized to perform an operation."
						}
					]
				},
				"events": {
					"Approval(address,address,uint256)": {
						"details": "Emitted when the allowance of a `spender` for an `owner` is set by a call to {approve}. `value` is the new allowance."
					},
					"Transfer(address,address,uint256)": {
						"details": "Emitted when `value` tokens are moved from one account (`from`) to another (`to`). Note that `value` may be zero."
					}
				},
				"kind": "dev",
				"methods": {
					"allowance(address,address)": {
						"details": "Returns the remaining number of tokens that `spender` will be allowed to spend on behalf of `owner` through {transferFrom}. This is zero by default. This value changes when {approve} or {transferFrom} are called."
					},
					"approve(address,uint256)": {
						"details": "See {IERC20-approve}. NOTE: If `value` is the maximum `uint256`, the allowance is not updated on `transferFrom`. This is semantically equivalent to an infinite approval. Requirements: - `spender` cannot be the zero address."
					},
					"balanceOf(address)": {
						"details": "Returns the value of tokens owned by `account`."
					},
					"decimals()": {
						"details": "Returns the number of decimals used to get its user representation. For example, if `decimals` equals `2`, a balance of `505` tokens should be displayed to a user as `5.05` (`505 / 10 ** 2`). Tokens usually opt for a value of 18, imitating the relationship between Ether and Wei. This is the default value returned by this function, unless it's overridden. NOTE: This information is only used for _display_ purposes: it in no way affects any of the arithmetic of the contract, including {IERC20-balanceOf} and {IERC20-transfer}."
					},
					"isTrustedForwarder(address)": {
						"details": "Indicates whether any particular address is the trusted forwarder."
					},
					"name()": {
						"details": "Returns the name of the token."
					},
					"owner()": {
						"details": "Returns the address of the current owner."
					},
					"renounceOwnership()": {
						"details": "Leaves the contract without owner. It will not be possible to call `onlyOwner` functions. Can only be called by the current owner. NOTE: Renouncing ownership will leave the contract without an owner, thereby disabling any functionality that is only available to the owner."
					},
					"symbol()": {
						"details": "Returns the symbol of the token, usually a shorter version of the name."
					},
					"totalSupply()": {
						"details": "Returns the value of tokens in existence."
					},
					"transfer(address,uint256)": {
						"details": "See {IERC20-transfer}. Requirements: - `to` cannot be the zero address. - the caller must have a balance of at least `value`."
					},
					"transferFrom(address,address,uint256)": {
						"details": "See {IERC20-transferFrom}. Skips emitting an {Approval} event indicating an allowance update. This is not required by the ERC. See {xref-ERC20-_approve-address-address-uint256-bool-}[_approve]. NOTE: Does not update the allowance if the current allowance is the maximum `uint256`. Requirements: - `from` and `to` cannot be the zero address. - `from` must have a balance of at least `value`. - the caller must have allowance for ``from``'s tokens of at least `value`."
					},
					"transferOwnership(address)": {
						"details": "Transfers ownership of the contract to a new account (`newOwner`). Can only be called by the current owner."
					},
					"trustedForwarder()": {
						"details": "Returns the address of the trusted forwarder."
					}
				},
				"version": 1
			},
			"evm": {
				"assembly": "    /* \"contracts/reward.sol\":235:3548  contract RewardToken is ERC20, ERC2771Context, Ownable {... */\n  mstore(0x40, 0xc0)\n    /* \"contracts/reward.sol\":349:698  constructor(address trustedForwarder, address initialOwner, uint256 initialSupply)... */\n  callvalue\n  dup1\n  iszero\n  tag_1\n  jumpi\n  revert(0x00, 0x00)\ntag_1:\n  pop\n  mload(0x40)\n  sub(codesize, bytecodeSize)\n  dup1\n  bytecodeSize\n  dup4\n  codecopy\n  dup2\n  dup2\n  add\n  0x40\n  mstore\n  dup2\n  add\n  swap1\n  tag_2\n  swap2\n  swap1\n  tag_3\n  jump\t// in\ntag_2:\n    /* \"contracts/reward.sol\":533:545  initialOwner */\n  dup2\n    /* \"contracts/reward.sol\":498:514  trustedForwarder */\n  dup4\n    /* \"@openzeppelin/contracts/token/ERC20/ERC20.sol\":1582:1695  constructor(string memory name_, string memory symbol_) {... */\n  mload(0x40)\n  dup1\n  0x40\n  add\n  0x40\n  mstore\n  dup1\n  0x0e\n  dup2\n  mstore\n  0x20\n  add\n  0x526577617264203120546f6b656e000000000000000000000000000000000000\n  dup2\n  mstore\n  pop\n  mload(0x40)\n  dup1\n  0x40\n  add\n  0x40\n  mstore\n  dup1\n  0x05\n  dup2\n  mstore\n  0x20\n  add\n  0x5257442031000000000000000000000000000000000000000000000000000000\n  dup2\n  mstore\n  pop\n    /* \"@openzeppelin/contracts/token/ERC20/ERC20.sol\":1656:1661  name_ */\n  dup2\n    /* \"@openzeppelin/contracts/token/ERC20/ERC20.sol\":1648:1653  _name */\n  0x03\n    /* \"@openzeppelin/contracts/token/ERC20/ERC20.sol\":1648:1661  _name = name_ */\n  swap1\n  dup2\n  tag_9\n  swap2\n  swap1\n  tag_10\n  jump\t// in\ntag_9:\n  pop\n    /* \"@openzeppelin/contracts/token/ERC20/ERC20.sol\":1681:1688  symbol_ */\n  dup1\n    /* \"@openzeppelin/contracts/token/ERC20/ERC20.sol\":1671:1678  _symbol */\n  0x04\n    /* \"@openzeppelin/contracts/token/ERC20/ERC20.sol\":1671:1688  _symbol = symbol_ */\n  swap1\n  dup2\n  tag_11\n  swap2\n  swap1\n  tag_10\n  jump\t// in\ntag_11:\n  pop\n    /* \"@openzeppelin/contracts/token/ERC20/ERC20.sol\":1582:1695  constructor(string memory name_, string memory symbol_) {... */\n  pop\n  pop\n    /* \"@openzeppelin/contracts/metatx/ERC2771Context.sol\":1520:1537  trustedForwarder_ */\n  dup1\n    /* \"@openzeppelin/contracts/metatx/ERC2771Context.sol\":1500:1537  _trustedForwarder = trustedForwarder_ */\n  0xffffffffffffffffffffffffffffffffffffffff\n  and\n  0x80\n  dup2\n  0xffffffffffffffffffffffffffffffffffffffff\n  and\n  dup2\n  mstore\n  pop\n  pop\n    /* \"@openzeppelin/contracts/metatx/ERC2771Context.sol\":1451:1544  constructor(address trustedForwarder_) {... */\n  pop\n    /* \"@openzeppelin/contracts/access/Ownable.sol\":1297:1298  0 */\n  0x00\n    /* \"@openzeppelin/contracts/access/Ownable.sol\":1273:1299  initialOwner == address(0) */\n  0xffffffffffffffffffffffffffffffffffffffff\n  and\n    /* \"@openzeppelin/contracts/access/Ownable.sol\":1273:1285  initialOwner */\n  dup2\n    /* \"@openzeppelin/contracts/access/Ownable.sol\":1273:1299  initialOwner == address(0) */\n  0xffffffffffffffffffffffffffffffffffffffff\n  and\n  sub\n    /* \"@openzeppelin/contracts/access/Ownable.sol\":1269:1364  if (initialOwner == address(0)) {... */\n  tag_14\n  jumpi\n    /* \"@openzeppelin/contracts/access/Ownable.sol\":1350:1351  0 */\n  0x00\n    /* \"@openzeppelin/contracts/access/Ownable.sol\":1322:1353  OwnableInvalidOwner(address(0)) */\n  mload(0x40)\n  0x1e4fbdf700000000000000000000000000000000000000000000000000000000\n  dup2\n  mstore\n  0x04\n  add\n  tag_15\n  swap2\n  swap1\n  tag_16\n  jump\t// in\ntag_15:\n  mload(0x40)\n  dup1\n  swap2\n  sub\n  swap1\n  revert\n    /* \"@openzeppelin/contracts/access/Ownable.sol\":1269:1364  if (initialOwner == address(0)) {... */\ntag_14:\n    /* \"@openzeppelin/contracts/access/Ownable.sol\":1373:1405  _transferOwnership(initialOwner) */\n  tag_17\n    /* \"@openzeppelin/contracts/access/Ownable.sol\":1392:1404  initialOwner */\n  dup2\n    /* \"@openzeppelin/contracts/access/Ownable.sol\":1373:1391  _transferOwnership */\n  shl(0x20, tag_18)\n    /* \"@openzeppelin/contracts/access/Ownable.sol\":1373:1405  _transferOwnership(initialOwner) */\n  0x20\n  shr\n  jump\t// in\ntag_17:\n    /* \"@openzeppelin/contracts/access/Ownable.sol\":1225:1412  constructor(address initialOwner) {... */\n  pop\n    /* \"contracts/reward.sol\":563:577  uint256 supply */\n  0x00\n    /* \"contracts/reward.sol\":600:610  decimals() */\n  tag_20\n    /* \"contracts/reward.sol\":600:608  decimals */\n  shl(0x20, tag_21)\n    /* \"contracts/reward.sol\":600:610  decimals() */\n  0x20\n  shr\n  jump\t// in\ntag_20:\n    /* \"contracts/reward.sol\":596:598  10 */\n  0x0a\n    /* \"contracts/reward.sol\":596:610  10**decimals() */\n  tag_22\n  swap2\n  swap1\n  tag_23\n  jump\t// in\ntag_22:\n    /* \"contracts/reward.sol\":580:593  initialSupply */\n  dup3\n    /* \"contracts/reward.sol\":580:610  initialSupply * 10**decimals() */\n  tag_24\n  swap2\n  swap1\n  tag_25\n  jump\t// in\ntag_24:\n    /* \"contracts/reward.sol\":563:610  uint256 supply = initialSupply * 10**decimals() */\n  swap1\n  pop\n    /* \"contracts/reward.sol\":641:657  trustedForwarder */\n  dup4\n    /* \"contracts/reward.sol\":621:657  FORWARDER_ADDRESS = trustedForwarder */\n  0xffffffffffffffffffffffffffffffffffffffff\n  and\n  0xa0\n  dup2\n  0xffffffffffffffffffffffffffffffffffffffff\n  and\n  dup2\n  mstore\n  pop\n  pop\n    /* \"contracts/reward.sol\":668:690  _mint(owner(), supply) */\n  tag_26\n    /* \"contracts/reward.sol\":674:681  owner() */\n  tag_27\n    /* \"contracts/reward.sol\":674:679  owner */\n  shl(0x20, tag_28)\n    /* \"contracts/reward.sol\":674:681  owner() */\n  0x20\n  shr\n  jump\t// in\ntag_27:\n    /* \"contracts/reward.sol\":683:689  supply */\n  dup3\n    /* \"contracts/reward.sol\":668:673  _mint */\n  shl(0x20, tag_29)\n    /* \"contracts/reward.sol\":668:690  _mint(owner(), supply) */\n  0x20\n  shr\n  jump\t// in\ntag_26:\n    /* \"contracts/reward.sol\":552:698  {... */\n  pop\n    /* \"contracts/reward.sol\":349:698  constructor(address trustedForwarder, address initialOwner, uint256 initialSupply)... */\n  pop\n  pop\n  pop\n    /* \"contracts/reward.sol\":235:3548  contract RewardToken is ERC20, ERC2771Context, Ownable {... */\n  jump(tag_30)\n    /* \"@openzeppelin/contracts/access/Ownable.sol\":2912:3099  function _transferOwnership(address newOwner) internal virtual {... */\ntag_18:\n    /* \"@openzeppelin/contracts/access/Ownable.sol\":2985:3001  address oldOwner */\n  0x00\n    /* \"@openzeppelin/contracts/access/Ownable.sol\":3004:3010  _owner */\n  0x05\n  0x00\n  swap1\n  sload\n  swap1\n  0x0100\n  exp\n  swap1\n  div\n  0xffffffffffffffffffffffffffffffffffffffff\n  and\n    /* \"@openzeppelin/contracts/access/Ownable.sol\":2985:3010  address oldOwner = _owner */\n  swap1\n  pop\n    /* \"@openzeppelin/contracts/access/Ownable.sol\":3029:3037  newOwner */\n  dup2\n    /* \"@openzeppelin/contracts/access/Ownable.sol\":3020:3026  _owner */\n  0x05\n  0x00\n    /* \"@openzeppelin/contracts/access/Ownable.sol\":3020:3037  _owner = newOwner */\n  0x0100\n  exp\n  dup2\n  sload\n  dup2\n  0xffffffffffffffffffffffffffffffffffffffff\n  mul\n  not\n  and\n  swap1\n  dup4\n  0xffffffffffffffffffffffffffffffffffffffff\n  and\n  mul\n  or\n  swap1\n  sstore\n  pop\n    /* \"@openzeppelin/contracts/access/Ownable.sol\":3083:3091  newOwner */\n  dup2\n    /* \"@openzeppelin/contracts/access/Ownable.sol\":3052:3092  OwnershipTransferred(oldOwner, newOwner) */\n  0xffffffffffffffffffffffffffffffffffffffff\n  and\n    /* \"@openzeppelin/contracts/access/Ownable.sol\":3073:3081  oldOwner */\n  dup2\n    /* \"@openzeppelin/contracts/access/Ownable.sol\":3052:3092  OwnershipTransferred(oldOwner, newOwner) */\n  0xffffffffffffffffffffffffffffffffffffffff\n  and\n  0x8be0079c531659141344cd1fd0a4f28419497f9722a3daafe3b4186f6b6457e0\n  mload(0x40)\n  mload(0x40)\n  dup1\n  swap2\n  sub\n  swap1\n  log3\n    /* \"@openzeppelin/contracts/access/Ownable.sol\":2975:3099  {... */\n  pop\n    /* \"@openzeppelin/contracts/access/Ownable.sol\":2912:3099  function _transferOwnership(address newOwner) internal virtual {... */\n  pop\n  jump\t// out\n    /* \"@openzeppelin/contracts/token/ERC20/ERC20.sol\":2688:2770  function decimals() public view virtual returns (uint8) {... */\ntag_21:\n    /* \"@openzeppelin/contracts/token/ERC20/ERC20.sol\":2737:2742  uint8 */\n  0x00\n    /* \"@openzeppelin/contracts/token/ERC20/ERC20.sol\":2761:2763  18 */\n  0x12\n    /* \"@openzeppelin/contracts/token/ERC20/ERC20.sol\":2754:2763  return 18 */\n  swap1\n  pop\n    /* \"@openzeppelin/contracts/token/ERC20/ERC20.sol\":2688:2770  function decimals() public view virtual returns (uint8) {... */\n  swap1\n  jump\t// out\n    /* \"@openzeppelin/contracts/access/Ownable.sol\":1638:1723  function owner() public view virtual returns (address) {... */\ntag_28:\n    /* \"@openzeppelin/contracts/access/Ownable.sol\":1684:1691  address */\n  0x00\n    /* \"@openzeppelin/contracts/access/Ownable.sol\":1710:1716  _owner */\n  0x05\n  0x00\n  swap1\n  sload\n  swap1\n  0x0100\n  exp\n  swap1\n  div\n  0xffffffffffffffffffffffffffffffffffffffff\n  and\n    /* \"@openzeppelin/contracts/access/Ownable.sol\":1703:1716  return _owner */\n  swap1\n  pop\n    /* \"@openzeppelin/contracts/access/Ownable.sol\":1638:1723  function owner() public view virtual returns (address) {... */\n  swap1\n  jump\t// out\n    /* \"@openzeppelin/contracts/token/ERC20/ERC20.sol\":7362:7570  function _mint(address account, uint256 value) internal {... */\ntag_29:\n    /* \"@openzeppelin/contracts/token/ERC20/ERC20.sol\":7451:7452  0 */\n  0x00\n    /* \"@openzeppelin/contracts/token/ERC20/ERC20.sol\":7432:7453  account == address(0) */\n  0xffffffffffffffffffffffffffffffffffffffff\n  and\n    /* \"@openzeppelin/contracts/token/ERC20/ERC20.sol\":7432:7439  account */\n  dup3\n    /* \"@openzeppelin/contracts/token/ERC20/ERC20.sol\":7432:7453  account == address(0) */\n  0xffffffffffffffffffffffffffffffffffffffff\n  and\n  sub\n    /* \"@openzeppelin/contracts/token/ERC20/ERC20.sol\":7428:7519  if (account == address(0)) {... */\n  tag_35\n  jumpi\n    /* \"@openzeppelin/contracts/token/ERC20/ERC20.sol\":7505:7506  0 */\n  0x00\n    /* \"@openzeppelin/contracts/token/ERC20/ERC20.sol\":7476:7508  ERC20InvalidReceiver(address(0)) */\n  mload(0x40)\n  0xec442f0500000000000000000000000000000000000000000000000000000000\n  dup2\n  mstore\n  0x04\n  add\n  tag_36\n  swap2\n  swap1\n  tag_16\n  jump\t// in\ntag_36:\n  mload(0x40)\n  dup1\n  swap2\n  sub\n  swap1\n  revert\n    /* \"@openzeppelin/contracts/token/ERC20/ERC20.sol\":7428:7519  if (account == address(0)) {... */\ntag_35:\n    /* \"@openzeppelin/contracts/token/ERC20/ERC20.sol\":7528:7563  _update(address(0), account, value) */\n  tag_37\n    /* \"@openzeppelin/contracts/token/ERC20/ERC20.sol\":7544:7545  0 */\n  0x00\n    /* \"@openzeppelin/contracts/token/ERC20/ERC20.sol\":7548:7555  account */\n  dup4\n    /* \"@openzeppelin/contracts/token/ERC20/ERC20.sol\":7557:7562  value */\n  dup4\n    /* \"@openzeppelin/contracts/token/ERC20/ERC20.sol\":7528:7535  _update */\n  shl(0x20, tag_38)\n    /* \"@openzeppelin/contracts/token/ERC20/ERC20.sol\":7528:7563  _update(address(0), account, value) */\n  0x20\n  shr\n  jump\t// in\ntag_37:\n    /* \"@openzeppelin/contracts/token/ERC20/ERC20.sol\":7362:7570  function _mint(address account, uint256 value) internal {... */\n  pop\n  pop\n  jump\t// out\n    /* \"@openzeppelin/contracts/token/ERC20/ERC20.sol\":5912:7019  function _update(address from, address to, uint256 value) internal virtual {... */\ntag_38:\n    /* \"@openzeppelin/contracts/token/ERC20/ERC20.sol\":6017:6018  0 */\n  0x00\n    /* \"@openzeppelin/contracts/token/ERC20/ERC20.sol\":6001:6019  from == address(0) */\n  0xffffffffffffffffffffffffffffffffffffffff\n  and\n    /* \"@openzeppelin/contracts/token/ERC20/ERC20.sol\":6001:6005  from */\n  dup4\n    /* \"@openzeppelin/contracts/token/ERC20/ERC20.sol\":6001:6019  from == address(0) */\n  0xffffffffffffffffffffffffffffffffffffffff\n  and\n  sub\n    /* \"@openzeppelin/contracts/token/ERC20/ERC20.sol\":5997:6537  if (from == address(0)) {... */\n  tag_40\n  jumpi\n    /* \"@openzeppelin/contracts/token/ERC20/ERC20.sol\":6153:6158  value */\n  dup1\n    /* \"@openzeppelin/contracts/token/ERC20/ERC20.sol\":6137:6149  _totalSupply */\n  0x02\n  0x00\n    /* \"@openzeppelin/contracts/token/ERC20/ERC20.sol\":6137:6158  _totalSupply += value */\n  dup3\n  dup3\n  sload\n  tag_41\n  swap2\n  swap1\n  tag_42\n  jump\t// in\ntag_41:\n  swap3\n  pop\n  pop\n  dup2\n  swap1\n  sstore\n  pop\n    /* \"@openzeppelin/contracts/token/ERC20/ERC20.sol\":5997:6537  if (from == address(0)) {... */\n  jump(tag_43)\ntag_40:\n    /* \"@openzeppelin/contracts/token/ERC20/ERC20.sol\":6189:6208  uint256 fromBalance */\n  0x00\n    /* \"@openzeppelin/contracts/token/ERC20/ERC20.sol\":6211:6220  _balances */\n  0x00\n    /* \"@openzeppelin/contracts/token/ERC20/ERC20.sol\":6211:6226  _balances[from] */\n  0x00\n    /* \"@openzeppelin/contracts/token/ERC20/ERC20.sol\":6221:6225  from */\n  dup6\n    /* \"@openzeppelin/contracts/token/ERC20/ERC20.sol\":6211:6226  _balances[from] */\n  0xffffffffffffffffffffffffffffffffffffffff\n  and\n  0xffffffffffffffffffffffffffffffffffffffff\n  and\n  dup2\n  mstore\n  0x20\n  add\n  swap1\n  dup2\n  mstore\n  0x20\n  add\n  0x00\n  keccak256\n  sload\n    /* \"@openzeppelin/contracts/token/ERC20/ERC20.sol\":6189:6226  uint256 fromBalance = _balances[from] */\n  swap1\n  pop\n    /* \"@openzeppelin/contracts/token/ERC20/ERC20.sol\":6258:6263  value */\n  dup2\n    /* \"@openzeppelin/contracts/token/ERC20/ERC20.sol\":6244:6255  fromBalance */\n  dup2\n    /* \"@openzeppelin/contracts/token/ERC20/ERC20.sol\":6244:6263  fromBalance < value */\n  lt\n    /* \"@openzeppelin/contracts/token/ERC20/ERC20.sol\":6240:6355  if (fromBalance < value) {... */\n  iszero\n  tag_44\n  jumpi\n    /* \"@openzeppelin/contracts/token/ERC20/ERC20.sol\":6315:6319  from */\n  dup4\n    /* \"@openzeppelin/contracts/token/ERC20/ERC20.sol\":6321:6332  fromBalance */\n  dup2\n    /* \"@openzeppelin/contracts/token/ERC20/ERC20.sol\":6334:6339  value */\n  dup4\n    /* \"@openzeppelin/contracts/token/ERC20/ERC20.sol\":6290:6340  ERC20InsufficientBalance(from, fromBalance, value) */\n  mload(0x40)\n  0xe450d38c00000000000000000000000000000000000000000000000000000000\n  dup2\n  mstore\n  0x04\n  add\n  tag_45\n  swap4\n  swap3\n  swap2\n  swap1\n  tag_46\n  jump\t// in\ntag_45:\n  mload(0x40)\n  dup1\n  swap2\n  sub\n  swap1\n  revert\n    /* \"@openzeppelin/contracts/token/ERC20/ERC20.sol\":6240:6355  if (fromBalance < value) {... */\ntag_44:\n    /* \"@openzeppelin/contracts/token/ERC20/ERC20.sol\":6507:6512  value */\n  dup2\n    /* \"@openzeppelin/contracts/token/ERC20/ERC20.sol\":6493:6504  fromBalance */\n  dup2\n    /* \"@openzeppelin/contracts/token/ERC20/ERC20.sol\":6493:6512  fromBalance - value */\n  sub\n    /* \"@openzeppelin/contracts/token/ERC20/ERC20.sol\":6475:6484  _balances */\n  0x00\n    /* \"@openzeppelin/contracts/token/ERC20/ERC20.sol\":6475:6490  _balances[from] */\n  0x00\n    /* \"@openzeppelin/contracts/token/ERC20/ERC20.sol\":6485:6489  from */\n  dup7\n    /* \"@openzeppelin/contracts/token/ERC20/ERC20.sol\":6475:6490  _balances[from] */\n  0xffffffffffffffffffffffffffffffffffffffff\n  and\n  0xffffffffffffffffffffffffffffffffffffffff\n  and\n  dup2\n  mstore\n  0x20\n  add\n  swap1\n  dup2\n  mstore\n  0x20\n  add\n  0x00\n  keccak256\n    /* \"@openzeppelin/contracts/token/ERC20/ERC20.sol\":6475:6512  _balances[from] = fromBalance - value */\n  dup2\n  swap1\n  sstore\n  pop\n    /* \"@openzeppelin/contracts/token/ERC20/ERC20.sol\":6175:6537  {... */\n  pop\n    /* \"@openzeppelin/contracts/token/ERC20/ERC20.sol\":5997:6537  if (from == address(0)) {... */\ntag_43:\n    /* \"@openzeppelin/contracts/token/ERC20/ERC20.sol\":6565:6566  0 */\n  0x00\n    /* \"@openzeppelin/contracts/token/ERC20/ERC20.sol\":6551:6567  to == address(0) */\n  0xffffffffffffffffffffffffffffffffffffffff\n  and\n    /* \"@openzeppelin/contracts/token/ERC20/ERC20.sol\":6551:6553  to */\n  dup3\n    /* \"@openzeppelin/contracts/token/ERC20/ERC20.sol\":6551:6567  to == address(0) */\n  0xffffffffffffffffffffffffffffffffffffffff\n  and\n  sub\n    /* \"@openzeppelin/contracts/token/ERC20/ERC20.sol\":6547:6972  if (to == address(0)) {... */\n  tag_47\n  jumpi\n    /* \"@openzeppelin/contracts/token/ERC20/ERC20.sol\":6730:6735  value */\n  dup1\n    /* \"@openzeppelin/contracts/token/ERC20/ERC20.sol\":6714:6726  _totalSupply */\n  0x02\n  0x00\n    /* \"@openzeppelin/contracts/token/ERC20/ERC20.sol\":6714:6735  _totalSupply -= value */\n  dup3\n  dup3\n  sload\n  sub\n  swap3\n  pop\n  pop\n  dup2\n  swap1\n  sstore\n  pop\n    /* \"@openzeppelin/contracts/token/ERC20/ERC20.sol\":6547:6972  if (to == address(0)) {... */\n  jump(tag_48)\ntag_47:\n    /* \"@openzeppelin/contracts/token/ERC20/ERC20.sol\":6942:6947  value */\n  dup1\n    /* \"@openzeppelin/contracts/token/ERC20/ERC20.sol\":6925:6934  _balances */\n  0x00\n    /* \"@openzeppelin/contracts/token/ERC20/ERC20.sol\":6925:6938  _balances[to] */\n  0x00\n    /* \"@openzeppelin/contracts/token/ERC20/ERC20.sol\":6935:6937  to */\n  dup5\n    /* \"@openzeppelin/contracts/token/ERC20/ERC20.sol\":6925:6938  _balances[to] */\n  0xffffffffffffffffffffffffffffffffffffffff\n  and\n  0xffffffffffffffffffffffffffffffffffffffff\n  and\n  dup2\n  mstore\n  0x20\n  add\n  swap1\n  dup2\n  mstore\n  0x20\n  add\n  0x00\n  keccak256\n  0x00\n    /* \"@openzeppelin/contracts/token/ERC20/ERC20.sol\":6925:6947  _balances[to] += value */\n  dup3\n  dup3\n  sload\n  add\n  swap3\n  pop\n  pop\n  dup2\n  swap1\n  sstore\n  pop\n    /* \"@openzeppelin/contracts/token/ERC20/ERC20.sol\":6547:6972  if (to == address(0)) {... */\ntag_48:\n    /* \"@openzeppelin/contracts/token/ERC20/ERC20.sol\":7002:7004  to */\n  dup2\n    /* \"@openzeppelin/contracts/token/ERC20/ERC20.sol\":6987:7012  Transfer(from, to, value) */\n  0xffffffffffffffffffffffffffffffffffffffff\n  and\n    /* \"@openzeppelin/contracts/token/ERC20/ERC20.sol\":6996:7000  from */\n  dup4\n    /* \"@openzeppelin/contracts/token/ERC20/ERC20.sol\":6987:7012  Transfer(from, to, value) */\n  0xffffffffffffffffffffffffffffffffffffffff\n  and\n  0xddf252ad1be2c89b69c2b068fc378daa952ba7f163c4a11628f55a4df523b3ef\n    /* \"@openzeppelin/contracts/token/ERC20/ERC20.sol\":7006:7011  value */\n  dup4\n    /* \"@openzeppelin/contracts/token/ERC20/ERC20.sol\":6987:7012  Transfer(from, to, value) */\n  mload(0x40)\n  tag_49\n  swap2\n  swap1\n  tag_50\n  jump\t// in\ntag_49:\n  mload(0x40)\n  dup1\n  swap2\n  sub\n  swap1\n  log3\n    /* \"@openzeppelin/contracts/token/ERC20/ERC20.sol\":5912:7019  function _update(address from, address to, uint256 value) internal virtual {... */\n  pop\n  pop\n  pop\n  jump\t// out\n    /* \"#utility.yul\":88:205   */\ntag_52:\n    /* \"#utility.yul\":197:198   */\n  0x00\n    /* \"#utility.yul\":194:195   */\n  0x00\n    /* \"#utility.yul\":187:199   */\n  revert\n    /* \"#utility.yul\":334:460   */\ntag_54:\n    /* \"#utility.yul\":371:378   */\n  0x00\n    /* \"#utility.yul\":411:453   */\n  0xffffffffffffffffffffffffffffffffffffffff\n    /* \"#utility.yul\":404:409   */\n  dup3\n    /* \"#utility.yul\":400:454   */\n  and\n    /* \"#utility.yul\":389:454   */\n  swap1\n  pop\n    /* \"#utility.yul\":334:460   */\n  swap2\n  swap1\n  pop\n  jump\t// out\n    /* \"#utility.yul\":466:562   */\ntag_55:\n    /* \"#utility.yul\":503:510   */\n  0x00\n    /* \"#utility.yul\":532:556   */\n  tag_93\n    /* \"#utility.yul\":550:555   */\n  dup3\n    /* \"#utility.yul\":532:556   */\n  tag_54\n  jump\t// in\ntag_93:\n    /* \"#utility.yul\":521:556   */\n  swap1\n  pop\n    /* \"#utility.yul\":466:562   */\n  swap2\n  swap1\n  pop\n  jump\t// out\n    /* \"#utility.yul\":568:690   */\ntag_56:\n    /* \"#utility.yul\":641:665   */\n  tag_95\n    /* \"#utility.yul\":659:664   */\n  dup2\n    /* \"#utility.yul\":641:665   */\n  tag_55\n  jump\t// in\ntag_95:\n    /* \"#utility.yul\":634:639   */\n  dup2\n    /* \"#utility.yul\":631:666   */\n  eq\n    /* \"#utility.yul\":621:684   */\n  tag_96\n  jumpi\n    /* \"#utility.yul\":680:681   */\n  0x00\n    /* \"#utility.yul\":677:678   */\n  0x00\n    /* \"#utility.yul\":670:682   */\n  revert\n    /* \"#utility.yul\":621:684   */\ntag_96:\n    /* \"#utility.yul\":568:690   */\n  pop\n  jump\t// out\n    /* \"#utility.yul\":696:839   */\ntag_57:\n    /* \"#utility.yul\":753:758   */\n  0x00\n    /* \"#utility.yul\":784:790   */\n  dup2\n    /* \"#utility.yul\":778:791   */\n  mload\n    /* \"#utility.yul\":769:791   */\n  swap1\n  pop\n    /* \"#utility.yul\":800:833   */\n  tag_98\n    /* \"#utility.yul\":827:832   */\n  dup2\n    /* \"#utility.yul\":800:833   */\n  tag_56\n  jump\t// in\ntag_98:\n    /* \"#utility.yul\":696:839   */\n  swap3\n  swap2\n  pop\n  pop\n  jump\t// out\n    /* \"#utility.yul\":845:922   */\ntag_58:\n    /* \"#utility.yul\":882:889   */\n  0x00\n    /* \"#utility.yul\":911:916   */\n  dup2\n    /* \"#utility.yul\":900:916   */\n  swap1\n  pop\n    /* \"#utility.yul\":845:922   */\n  swap2\n  swap1\n  pop\n  jump\t// out\n    /* \"#utility.yul\":928:1050   */\ntag_59:\n    /* \"#utility.yul\":1001:1025   */\n  tag_101\n    /* \"#utility.yul\":1019:1024   */\n  dup2\n    /* \"#utility.yul\":1001:1025   */\n  tag_58\n  jump\t// in\ntag_101:\n    /* \"#utility.yul\":994:999   */\n  dup2\n    /* \"#utility.yul\":991:1026   */\n  eq\n    /* \"#utility.yul\":981:1044   */\n  tag_102\n  jumpi\n    /* \"#utility.yul\":1040:1041   */\n  0x00\n    /* \"#utility.yul\":1037:1038   */\n  0x00\n    /* \"#utility.yul\":1030:1042   */\n  revert\n    /* \"#utility.yul\":981:1044   */\ntag_102:\n    /* \"#utility.yul\":928:1050   */\n  pop\n  jump\t// out\n    /* \"#utility.yul\":1056:1199   */\ntag_60:\n    /* \"#utility.yul\":1113:1118   */\n  0x00\n    /* \"#utility.yul\":1144:1150   */\n  dup2\n    /* \"#utility.yul\":1138:1151   */\n  mload\n    /* \"#utility.yul\":1129:1151   */\n  swap1\n  pop\n    /* \"#utility.yul\":1160:1193   */\n  tag_104\n    /* \"#utility.yul\":1187:1192   */\n  dup2\n    /* \"#utility.yul\":1160:1193   */\n  tag_59\n  jump\t// in\ntag_104:\n    /* \"#utility.yul\":1056:1199   */\n  swap3\n  swap2\n  pop\n  pop\n  jump\t// out\n    /* \"#utility.yul\":1205:1868   */\ntag_3:\n    /* \"#utility.yul\":1293:1299   */\n  0x00\n    /* \"#utility.yul\":1301:1307   */\n  0x00\n    /* \"#utility.yul\":1309:1315   */\n  0x00\n    /* \"#utility.yul\":1358:1360   */\n  0x60\n    /* \"#utility.yul\":1346:1355   */\n  dup5\n    /* \"#utility.yul\":1337:1344   */\n  dup7\n    /* \"#utility.yul\":1333:1356   */\n  sub\n    /* \"#utility.yul\":1329:1361   */\n  slt\n    /* \"#utility.yul\":1326:1445   */\n  iszero\n  tag_106\n  jumpi\n    /* \"#utility.yul\":1364:1443   */\n  tag_107\n  tag_52\n  jump\t// in\ntag_107:\n    /* \"#utility.yul\":1326:1445   */\ntag_106:\n    /* \"#utility.yul\":1484:1485   */\n  0x00\n    /* \"#utility.yul\":1509:1573   */\n  tag_108\n    /* \"#utility.yul\":1565:1572   */\n  dup7\n    /* \"#utility.yul\":1556:1562   */\n  dup3\n    /* \"#utility.yul\":1545:1554   */\n  dup8\n    /* \"#utility.yul\":1541:1563   */\n  add\n    /* \"#utility.yul\":1509:1573   */\n  tag_57\n  jump\t// in\ntag_108:\n    /* \"#utility.yul\":1499:1573   */\n  swap4\n  pop\n    /* \"#utility.yul\":1455:1583   */\n  pop\n    /* \"#utility.yul\":1622:1624   */\n  0x20\n    /* \"#utility.yul\":1648:1712   */\n  tag_109\n    /* \"#utility.yul\":1704:1711   */\n  dup7\n    /* \"#utility.yul\":1695:1701   */\n  dup3\n    /* \"#utility.yul\":1684:1693   */\n  dup8\n    /* \"#utility.yul\":1680:1702   */\n  add\n    /* \"#utility.yul\":1648:1712   */\n  tag_57\n  jump\t// in\ntag_109:\n    /* \"#utility.yul\":1638:1712   */\n  swap3\n  pop\n    /* \"#utility.yul\":1593:1722   */\n  pop\n    /* \"#utility.yul\":1761:1763   */\n  0x40\n    /* \"#utility.yul\":1787:1851   */\n  tag_110\n    /* \"#utility.yul\":1843:1850   */\n  dup7\n    /* \"#utility.yul\":1834:1840   */\n  dup3\n    /* \"#utility.yul\":1823:1832   */\n  dup8\n    /* \"#utility.yul\":1819:1841   */\n  add\n    /* \"#utility.yul\":1787:1851   */\n  tag_60\n  jump\t// in\ntag_110:\n    /* \"#utility.yul\":1777:1851   */\n  swap2\n  pop\n    /* \"#utility.yul\":1732:1861   */\n  pop\n    /* \"#utility.yul\":1205:1868   */\n  swap3\n  pop\n  swap3\n  pop\n  swap3\n  jump\t// out\n    /* \"#utility.yul\":1874:1973   */\ntag_61:\n    /* \"#utility.yul\":1926:1932   */\n  0x00\n    /* \"#utility.yul\":1960:1965   */\n  dup2\n    /* \"#utility.yul\":1954:1966   */\n  mload\n    /* \"#utility.yul\":1944:1966   */\n  swap1\n  pop\n    /* \"#utility.yul\":1874:1973   */\n  swap2\n  swap1\n  pop\n  jump\t// out\n    /* \"#utility.yul\":1979:2159   */\ntag_62:\n    /* \"#utility.yul\":2027:2104   */\n  0x4e487b7100000000000000000000000000000000000000000000000000000000\n    /* \"#utility.yul\":2024:2025   */\n  0x00\n    /* \"#utility.yul\":2017:2105   */\n  mstore\n    /* \"#utility.yul\":2124:2128   */\n  0x41\n    /* \"#utility.yul\":2121:2122   */\n  0x04\n    /* \"#utility.yul\":2114:2129   */\n  mstore\n    /* \"#utility.yul\":2148:2152   */\n  0x24\n    /* \"#utility.yul\":2145:2146   */\n  0x00\n    /* \"#utility.yul\":2138:2153   */\n  revert\n    /* \"#utility.yul\":2165:2345   */\ntag_63:\n    /* \"#utility.yul\":2213:2290   */\n  0x4e487b7100000000000000000000000000000000000000000000000000000000\n    /* \"#utility.yul\":2210:2211   */\n  0x00\n    /* \"#utility.yul\":2203:2291   */\n  mstore\n    /* \"#utility.yul\":2310:2314   */\n  0x22\n    /* \"#utility.yul\":2307:2308   */\n  0x04\n    /* \"#utility.yul\":2300:2315   */\n  mstore\n    /* \"#utility.yul\":2334:2338   */\n  0x24\n    /* \"#utility.yul\":2331:2332   */\n  0x00\n    /* \"#utility.yul\":2324:2339   */\n  revert\n    /* \"#utility.yul\":2351:2671   */\ntag_64:\n    /* \"#utility.yul\":2395:2401   */\n  0x00\n    /* \"#utility.yul\":2432:2433   */\n  0x02\n    /* \"#utility.yul\":2426:2430   */\n  dup3\n    /* \"#utility.yul\":2422:2434   */\n  div\n    /* \"#utility.yul\":2412:2434   */\n  swap1\n  pop\n    /* \"#utility.yul\":2479:2480   */\n  0x01\n    /* \"#utility.yul\":2473:2477   */\n  dup3\n    /* \"#utility.yul\":2469:2481   */\n  and\n    /* \"#utility.yul\":2500:2518   */\n  dup1\n    /* \"#utility.yul\":2490:2571   */\n  tag_115\n  jumpi\n    /* \"#utility.yul\":2556:2560   */\n  0x7f\n    /* \"#utility.yul\":2548:2554   */\n  dup3\n    /* \"#utility.yul\":2544:2561   */\n  and\n    /* \"#utility.yul\":2534:2561   */\n  swap2\n  pop\n    /* \"#utility.yul\":2490:2571   */\ntag_115:\n    /* \"#utility.yul\":2618:2620   */\n  0x20\n    /* \"#utility.yul\":2610:2616   */\n  dup3\n    /* \"#utility.yul\":2607:2621   */\n  lt\n    /* \"#utility.yul\":2587:2605   */\n  dup2\n    /* \"#utility.yul\":2584:2622   */\n  sub\n    /* \"#utility.yul\":2581:2665   */\n  tag_116\n  jumpi\n    /* \"#utility.yul\":2637:2655   */\n  tag_117\n  tag_63\n  jump\t// in\ntag_117:\n    /* \"#utility.yul\":2581:2665   */\ntag_116:\n    /* \"#utility.yul\":2402:2671   */\n  pop\n    /* \"#utility.yul\":2351:2671   */\n  swap2\n  swap1\n  pop\n  jump\t// out\n    /* \"#utility.yul\":2677:2818   */\ntag_65:\n    /* \"#utility.yul\":2726:2730   */\n  0x00\n    /* \"#utility.yul\":2749:2752   */\n  dup2\n    /* \"#utility.yul\":2741:2752   */\n  swap1\n  pop\n    /* \"#utility.yul\":2772:2775   */\n  dup2\n    /* \"#utility.yul\":2769:2770   */\n  0x00\n    /* \"#utility.yul\":2762:2776   */\n  mstore\n    /* \"#utility.yul\":2806:2810   */\n  0x20\n    /* \"#utility.yul\":2803:2804   */\n  0x00\n    /* \"#utility.yul\":2793:2811   */\n  keccak256\n    /* \"#utility.yul\":2785:2811   */\n  swap1\n  pop\n    /* \"#utility.yul\":2677:2818   */\n  swap2\n  swap1\n  pop\n  jump\t// out\n    /* \"#utility.yul\":2824:2917   */\ntag_66:\n    /* \"#utility.yul\":2861:2867   */\n  0x00\n    /* \"#utility.yul\":2908:2910   */\n  0x20\n    /* \"#utility.yul\":2903:2905   */\n  0x1f\n    /* \"#utility.yul\":2896:2901   */\n  dup4\n    /* \"#utility.yul\":2892:2906   */\n  add\n    /* \"#utility.yul\":2888:2911   */\n  div\n    /* \"#utility.yul\":2878:2911   */\n  swap1\n  pop\n    /* \"#utility.yul\":2824:2917   */\n  swap2\n  swap1\n  pop\n  jump\t// out\n    /* \"#utility.yul\":2923:3030   */\ntag_67:\n    /* \"#utility.yul\":2967:2975   */\n  0x00\n    /* \"#utility.yul\":3017:3022   */\n  dup3\n    /* \"#utility.yul\":3011:3015   */\n  dup3\n    /* \"#utility.yul\":3007:3023   */\n  shl\n    /* \"#utility.yul\":2986:3023   */\n  swap1\n  pop\n    /* \"#utility.yul\":2923:3030   */\n  swap3\n  swap2\n  pop\n  pop\n  jump\t// out\n    /* \"#utility.yul\":3036:3429   */\ntag_68:\n    /* \"#utility.yul\":3105:3111   */\n  0x00\n    /* \"#utility.yul\":3155:3156   */\n  0x08\n    /* \"#utility.yul\":3143:3153   */\n  dup4\n    /* \"#utility.yul\":3139:3157   */\n  mul\n    /* \"#utility.yul\":3178:3275   */\n  tag_122\n    /* \"#utility.yul\":3208:3274   */\n  0xffffffffffffffffffffffffffffffffffffffffffffffffffffffffffffffff\n    /* \"#utility.yul\":3197:3206   */\n  dup3\n    /* \"#utility.yul\":3178:3275   */\n  tag_67\n  jump\t// in\ntag_122:\n    /* \"#utility.yul\":3296:3335   */\n  tag_123\n    /* \"#utility.yul\":3326:3334   */\n  dup7\n    /* \"#utility.yul\":3315:3324   */\n  dup4\n    /* \"#utility.yul\":3296:3335   */\n  tag_67\n  jump\t// in\ntag_123:\n    /* \"#utility.yul\":3284:3335   */\n  swap6\n  pop\n    /* \"#utility.yul\":3368:3372   */\n  dup1\n    /* \"#utility.yul\":3364:3373   */\n  not\n    /* \"#utility.yul\":3357:3362   */\n  dup5\n    /* \"#utility.yul\":3353:3374   */\n  and\n    /* \"#utility.yul\":3344:3374   */\n  swap4\n  pop\n    /* \"#utility.yul\":3417:3421   */\n  dup1\n    /* \"#utility.yul\":3407:3415   */\n  dup7\n    /* \"#utility.yul\":3403:3422   */\n  and\n    /* \"#utility.yul\":3396:3401   */\n  dup5\n    /* \"#utility.yul\":3393:3423   */\n  or\n    /* \"#utility.yul\":3383:3423   */\n  swap3\n  pop\n    /* \"#utility.yul\":3112:3429   */\n  pop\n  pop\n    /* \"#utility.yul\":3036:3429   */\n  swap4\n  swap3\n  pop\n  pop\n  pop\n  jump\t// out\n    /* \"#utility.yul\":3435:3495   */\ntag_69:\n    /* \"#utility.yul\":3463:3466   */\n  0x00\n    /* \"#utility.yul\":3484:3489   */\n  dup2\n    /* \"#utility.yul\":3477:3489   */\n  swap1\n  pop\n    /* \"#utility.yul\":3435:3495   */\n  swap2\n  swap1\n  pop\n  jump\t// out\n    /* \"#utility.yul\":3501:3643   */\ntag_70:\n    /* \"#utility.yul\":3551:3560   */\n  0x00\n    /* \"#utility.yul\":3584:3637   */\n  tag_126\n    /* \"#utility.yul\":3602:3636   */\n  tag_127\n    /* \"#utility.yul\":3611:3635   */\n  tag_128\n    /* \"#utility.yul\":3629:3634   */\n  dup5\n    /* \"#utility.yul\":3611:3635   */\n  tag_58\n  jump\t// in\ntag_128:\n    /* \"#utility.yul\":3602:3636   */\n  tag_69\n  jump\t// in\ntag_127:\n    /* \"#utility.yul\":3584:3637   */\n  tag_58\n  jump\t// in\ntag_126:\n    /* \"#utility.yul\":3571:3637   */\n  swap1\n  pop\n    /* \"#utility.yul\":3501:3643   */\n  swap2\n  swap1\n  pop\n  jump\t// out\n    /* \"#utility.yul\":3649:3724   */\ntag_71:\n    /* \"#utility.yul\":3692:3695   */\n  0x00\n    /* \"#utility.yul\":3713:3718   */\n  dup2\n    /* \"#utility.yul\":3706:3718   */\n  swap1\n  pop\n    /* \"#utility.yul\":3649:3724   */\n  swap2\n  swap1\n  pop\n  jump\t// out\n    /* \"#utility.yul\":3730:3999   */\ntag_72:\n    /* \"#utility.yul\":3840:3879   */\n  tag_131\n    /* \"#utility.yul\":3871:3878   */\n  dup4\n    /* \"#utility.yul\":3840:3879   */\n  tag_70\n  jump\t// in\ntag_131:\n    /* \"#utility.yul\":3901:3992   */\n  tag_132\n    /* \"#utility.yul\":3950:3991   */\n  tag_133\n    /* \"#utility.yul\":3974:3990   */\n  dup3\n    /* \"#utility.yul\":3950:3991   */\n  tag_71\n  jump\t// in\ntag_133:\n    /* \"#utility.yul\":3942:3948   */\n  dup5\n    /* \"#utility.yul\":3935:3939   */\n  dup5\n    /* \"#utility.yul\":3929:3940   */\n  sload\n    /* \"#utility.yul\":3901:3992   */\n  tag_68\n  jump\t// in\ntag_132:\n    /* \"#utility.yul\":3895:3899   */\n  dup3\n    /* \"#utility.yul\":3888:3993   */\n  sstore\n    /* \"#utility.yul\":3806:3999   */\n  pop\n    /* \"#utility.yul\":3730:3999   */\n  pop\n  pop\n  pop\n  jump\t// out\n    /* \"#utility.yul\":4005:4078   */\ntag_73:\n    /* \"#utility.yul\":4050:4053   */\n  0x00\n    /* \"#utility.yul\":4071:4072   */\n  0x00\n    /* \"#utility.yul\":4064:4072   */\n  swap1\n  pop\n    /* \"#utility.yul\":4005:4078   */\n  swap1\n  jump\t// out\n    /* \"#utility.yul\":4084:4273   */\ntag_74:\n    /* \"#utility.yul\":4161:4193   */\n  tag_136\n  tag_73\n  jump\t// in\ntag_136:\n    /* \"#utility.yul\":4202:4267   */\n  tag_137\n    /* \"#utility.yul\":4260:4266   */\n  dup2\n    /* \"#utility.yul\":4252:4258   */\n  dup5\n    /* \"#utility.yul\":4246:4250   */\n  dup5\n    /* \"#utility.yul\":4202:4267   */\n  tag_72\n  jump\t// in\ntag_137:\n    /* \"#utility.yul\":4137:4273   */\n  pop\n    /* \"#utility.yul\":4084:4273   */\n  pop\n  pop\n  jump\t// out\n    /* \"#utility.yul\":4279:4465   */\ntag_75:\n    /* \"#utility.yul\":4339:4459   */\ntag_139:\n    /* \"#utility.yul\":4356:4359   */\n  dup2\n    /* \"#utility.yul\":4349:4354   */\n  dup2\n    /* \"#utility.yul\":4346:4360   */\n  lt\n    /* \"#utility.yul\":4339:4459   */\n  iszero\n  tag_141\n  jumpi\n    /* \"#utility.yul\":4410:4449   */\n  tag_142\n    /* \"#utility.yul\":4447:4448   */\n  0x00\n    /* \"#utility.yul\":4440:4445   */\n  dup3\n    /* \"#utility.yul\":4410:4449   */\n  tag_74\n  jump\t// in\ntag_142:\n    /* \"#utility.yul\":4383:4384   */\n  0x01\n    /* \"#utility.yul\":4376:4381   */\n  dup2\n    /* \"#utility.yul\":4372:4385   */\n  add\n    /* \"#utility.yul\":4363:4385   */\n  swap1\n  pop\n    /* \"#utility.yul\":4339:4459   */\n  jump(tag_139)\ntag_141:\n    /* \"#utility.yul\":4279:4465   */\n  pop\n  pop\n  jump\t// out\n    /* \"#utility.yul\":4471:5014   */\ntag_76:\n    /* \"#utility.yul\":4572:4574   */\n  0x1f\n    /* \"#utility.yul\":4567:4570   */\n  dup3\n    /* \"#utility.yul\":4564:4575   */\n  gt\n    /* \"#utility.yul\":4561:5007   */\n  iszero\n  tag_144\n  jumpi\n    /* \"#utility.yul\":4606:4644   */\n  tag_145\n    /* \"#utility.yul\":4638:4643   */\n  dup2\n    /* \"#utility.yul\":4606:4644   */\n  tag_65\n  jump\t// in\ntag_145:\n    /* \"#utility.yul\":4690:4719   */\n  tag_146\n    /* \"#utility.yul\":4708:4718   */\n  dup5\n    /* \"#utility.yul\":4690:4719   */\n  tag_66\n  jump\t// in\ntag_146:\n    /* \"#utility.yul\":4680:4688   */\n  dup2\n    /* \"#utility.yul\":4676:4720   */\n  add\n    /* \"#utility.yul\":4873:4875   */\n  0x20\n    /* \"#utility.yul\":4861:4871   */\n  dup6\n    /* \"#utility.yul\":4858:4876   */\n  lt\n    /* \"#utility.yul\":4855:4904   */\n  iszero\n  tag_147\n  jumpi\n    /* \"#utility.yul\":4894:4902   */\n  dup2\n    /* \"#utility.yul\":4879:4902   */\n  swap1\n  pop\n    /* \"#utility.yul\":4855:4904   */\ntag_147:\n    /* \"#utility.yul\":4917:4997   */\n  tag_148\n    /* \"#utility.yul\":4973:4995   */\n  tag_149\n    /* \"#utility.yul\":4991:4994   */\n  dup6\n    /* \"#utility.yul\":4973:4995   */\n  tag_66\n  jump\t// in\ntag_149:\n    /* \"#utility.yul\":4963:4971   */\n  dup4\n    /* \"#utility.yul\":4959:4996   */\n  add\n    /* \"#utility.yul\":4946:4957   */\n  dup3\n    /* \"#utility.yul\":4917:4997   */\n  tag_75\n  jump\t// in\ntag_148:\n    /* \"#utility.yul\":4576:5007   */\n  pop\n  pop\n    /* \"#utility.yul\":4561:5007   */\ntag_144:\n    /* \"#utility.yul\":4471:5014   */\n  pop\n  pop\n  pop\n  jump\t// out\n    /* \"#utility.yul\":5020:5137   */\ntag_77:\n    /* \"#utility.yul\":5074:5082   */\n  0x00\n    /* \"#utility.yul\":5124:5129   */\n  dup3\n    /* \"#utility.yul\":5118:5122   */\n  dup3\n    /* \"#utility.yul\":5114:5130   */\n  shr\n    /* \"#utility.yul\":5093:5130   */\n  swap1\n  pop\n    /* \"#utility.yul\":5020:5137   */\n  swap3\n  swap2\n  pop\n  pop\n  jump\t// out\n    /* \"#utility.yul\":5143:5312   */\ntag_78:\n    /* \"#utility.yul\":5187:5193   */\n  0x00\n    /* \"#utility.yul\":5220:5271   */\n  tag_152\n    /* \"#utility.yul\":5268:5269   */\n  0x00\n    /* \"#utility.yul\":5264:5270   */\n  not\n    /* \"#utility.yul\":5256:5261   */\n  dup5\n    /* \"#utility.yul\":5253:5254   */\n  0x08\n    /* \"#utility.yul\":5249:5262   */\n  mul\n    /* \"#utility.yul\":5220:5271   */\n  tag_77\n  jump\t// in\ntag_152:\n    /* \"#utility.yul\":5216:5272   */\n  not\n    /* \"#utility.yul\":5301:5305   */\n  dup1\n    /* \"#utility.yul\":5295:5299   */\n  dup4\n    /* \"#utility.yul\":5291:5306   */\n  and\n    /* \"#utility.yul\":5281:5306   */\n  swap2\n  pop\n    /* \"#utility.yul\":5194:5312   */\n  pop\n    /* \"#utility.yul\":5143:5312   */\n  swap3\n  swap2\n  pop\n  pop\n  jump\t// out\n    /* \"#utility.yul\":5317:5612   */\ntag_79:\n    /* \"#utility.yul\":5393:5397   */\n  0x00\n    /* \"#utility.yul\":5539:5568   */\n  tag_154\n    /* \"#utility.yul\":5564:5567   */\n  dup4\n    /* \"#utility.yul\":5558:5562   */\n  dup4\n    /* \"#utility.yul\":5539:5568   */\n  tag_78\n  jump\t// in\ntag_154:\n    /* \"#utility.yul\":5531:5568   */\n  swap2\n  pop\n    /* \"#utility.yul\":5601:5604   */\n  dup3\n    /* \"#utility.yul\":5598:5599   */\n  0x02\n    /* \"#utility.yul\":5594:5605   */\n  mul\n    /* \"#utility.yul\":5588:5592   */\n  dup3\n    /* \"#utility.yul\":5585:5606   */\n  or\n    /* \"#utility.yul\":5577:5606   */\n  swap1\n  pop\n    /* \"#utility.yul\":5317:5612   */\n  swap3\n  swap2\n  pop\n  pop\n  jump\t// out\n    /* \"#utility.yul\":5617:7012   */\ntag_10:\n    /* \"#utility.yul\":5734:5771   */\n  tag_156\n    /* \"#utility.yul\":5767:5770   */\n  dup3\n    /* \"#utility.yul\":5734:5771   */\n  tag_61\n  jump\t// in\ntag_156:\n    /* \"#utility.yul\":5836:5854   */\n  0xffffffffffffffff\n    /* \"#utility.yul\":5828:5834   */\n  dup2\n    /* \"#utility.yul\":5825:5855   */\n  gt\n    /* \"#utility.yul\":5822:5878   */\n  iszero\n  tag_157\n  jumpi\n    /* \"#utility.yul\":5858:5876   */\n  tag_158\n  tag_62\n  jump\t// in\ntag_158:\n    /* \"#utility.yul\":5822:5878   */\ntag_157:\n    /* \"#utility.yul\":5902:5940   */\n  tag_159\n    /* \"#utility.yul\":5934:5938   */\n  dup3\n    /* \"#utility.yul\":5928:5939   */\n  sload\n    /* \"#utility.yul\":5902:5940   */\n  tag_64\n  jump\t// in\ntag_159:\n    /* \"#utility.yul\":5987:6054   */\n  tag_160\n    /* \"#utility.yul\":6047:6053   */\n  dup3\n    /* \"#utility.yul\":6039:6045   */\n  dup3\n    /* \"#utility.yul\":6033:6037   */\n  dup6\n    /* \"#utility.yul\":5987:6054   */\n  tag_76\n  jump\t// in\ntag_160:\n    /* \"#utility.yul\":6081:6082   */\n  0x00\n    /* \"#utility.yul\":6105:6109   */\n  0x20\n    /* \"#utility.yul\":6092:6109   */\n  swap1\n  pop\n    /* \"#utility.yul\":6137:6139   */\n  0x1f\n    /* \"#utility.yul\":6129:6135   */\n  dup4\n    /* \"#utility.yul\":6126:6140   */\n  gt\n    /* \"#utility.yul\":6154:6155   */\n  0x01\n    /* \"#utility.yul\":6149:6767   */\n  dup2\n  eq\n  tag_162\n  jumpi\n    /* \"#utility.yul\":6811:6812   */\n  0x00\n    /* \"#utility.yul\":6828:6834   */\n  dup5\n    /* \"#utility.yul\":6825:6902   */\n  iszero\n  tag_163\n  jumpi\n    /* \"#utility.yul\":6877:6886   */\n  dup3\n    /* \"#utility.yul\":6872:6875   */\n  dup8\n    /* \"#utility.yul\":6868:6887   */\n  add\n    /* \"#utility.yul\":6862:6888   */\n  mload\n    /* \"#utility.yul\":6853:6888   */\n  swap1\n  pop\n    /* \"#utility.yul\":6825:6902   */\ntag_163:\n    /* \"#utility.yul\":6928:6995   */\n  tag_164\n    /* \"#utility.yul\":6988:6994   */\n  dup6\n    /* \"#utility.yul\":6981:6986   */\n  dup3\n    /* \"#utility.yul\":6928:6995   */\n  tag_79\n  jump\t// in\ntag_164:\n    /* \"#utility.yul\":6922:6926   */\n  dup7\n    /* \"#utility.yul\":6915:6996   */\n  sstore\n    /* \"#utility.yul\":6784:7006   */\n  pop\n    /* \"#utility.yul\":6119:7006   */\n  jump(tag_161)\n    /* \"#utility.yul\":6149:6767   */\ntag_162:\n    /* \"#utility.yul\":6201:6205   */\n  0x1f\n    /* \"#utility.yul\":6197:6206   */\n  not\n    /* \"#utility.yul\":6189:6195   */\n  dup5\n    /* \"#utility.yul\":6185:6207   */\n  and\n    /* \"#utility.yul\":6235:6272   */\n  tag_165\n    /* \"#utility.yul\":6267:6271   */\n  dup7\n    /* \"#utility.yul\":6235:6272   */\n  tag_65\n  jump\t// in\ntag_165:\n    /* \"#utility.yul\":6294:6295   */\n  0x00\n    /* \"#utility.yul\":6308:6516   */\ntag_166:\n    /* \"#utility.yul\":6322:6329   */\n  dup3\n    /* \"#utility.yul\":6319:6320   */\n  dup2\n    /* \"#utility.yul\":6316:6330   */\n  lt\n    /* \"#utility.yul\":6308:6516   */\n  iszero\n  tag_168\n  jumpi\n    /* \"#utility.yul\":6401:6410   */\n  dup5\n    /* \"#utility.yul\":6396:6399   */\n  dup10\n    /* \"#utility.yul\":6392:6411   */\n  add\n    /* \"#utility.yul\":6386:6412   */\n  mload\n    /* \"#utility.yul\":6378:6384   */\n  dup3\n    /* \"#utility.yul\":6371:6413   */\n  sstore\n    /* \"#utility.yul\":6452:6453   */\n  0x01\n    /* \"#utility.yul\":6444:6450   */\n  dup3\n    /* \"#utility.yul\":6440:6454   */\n  add\n    /* \"#utility.yul\":6430:6454   */\n  swap2\n  pop\n    /* \"#utility.yul\":6499:6501   */\n  0x20\n    /* \"#utility.yul\":6488:6497   */\n  dup6\n    /* \"#utility.yul\":6484:6502   */\n  add\n    /* \"#utility.yul\":6471:6502   */\n  swap5\n  pop\n    /* \"#utility.yul\":6345:6349   */\n  0x20\n    /* \"#utility.yul\":6342:6343   */\n  dup2\n    /* \"#utility.yul\":6338:6350   */\n  add\n    /* \"#utility.yul\":6333:6350   */\n  swap1\n  pop\n    /* \"#utility.yul\":6308:6516   */\n  jump(tag_166)\ntag_168:\n    /* \"#utility.yul\":6544:6550   */\n  dup7\n    /* \"#utility.yul\":6535:6542   */\n  dup4\n    /* \"#utility.yul\":6532:6551   */\n  lt\n    /* \"#utility.yul\":6529:6708   */\n  iszero\n  tag_169\n  jumpi\n    /* \"#utility.yul\":6602:6611   */\n  dup5\n    /* \"#utility.yul\":6597:6600   */\n  dup10\n    /* \"#utility.yul\":6593:6612   */\n  add\n    /* \"#utility.yul\":6587:6613   */\n  mload\n    /* \"#utility.yul\":6645:6693   */\n  tag_170\n    /* \"#utility.yul\":6687:6691   */\n  0x1f\n    /* \"#utility.yul\":6679:6685   */\n  dup10\n    /* \"#utility.yul\":6675:6692   */\n  and\n    /* \"#utility.yul\":6664:6673   */\n  dup3\n    /* \"#utility.yul\":6645:6693   */\n  tag_78\n  jump\t// in\ntag_170:\n    /* \"#utility.yul\":6637:6643   */\n  dup4\n    /* \"#utility.yul\":6630:6694   */\n  sstore\n    /* \"#utility.yul\":6552:6708   */\n  pop\n    /* \"#utility.yul\":6529:6708   */\ntag_169:\n    /* \"#utility.yul\":6754:6755   */\n  0x01\n    /* \"#utility.yul\":6750:6751   */\n  0x02\n    /* \"#utility.yul\":6742:6748   */\n  dup9\n    /* \"#utility.yul\":6738:6752   */\n  mul\n    /* \"#utility.yul\":6734:6756   */\n  add\n    /* \"#utility.yul\":6728:6732   */\n  dup9\n    /* \"#utility.yul\":6721:6757   */\n  sstore\n    /* \"#utility.yul\":6156:6767   */\n  pop\n  pop\n  pop\n    /* \"#utility.yul\":6119:7006   */\ntag_161:\n  pop\n    /* \"#utility.yul\":5709:7012   */\n  pop\n  pop\n  pop\n    /* \"#utility.yul\":5617:7012   */\n  pop\n  pop\n  jump\t// out\n    /* \"#utility.yul\":7018:7136   */\ntag_80:\n    /* \"#utility.yul\":7105:7129   */\n  tag_172\n    /* \"#utility.yul\":7123:7128   */\n  dup2\n    /* \"#utility.yul\":7105:7129   */\n  tag_55\n  jump\t// in\ntag_172:\n    /* \"#utility.yul\":7100:7103   */\n  dup3\n    /* \"#utility.yul\":7093:7130   */\n  mstore\n    /* \"#utility.yul\":7018:7136   */\n  pop\n  pop\n  jump\t// out\n    /* \"#utility.yul\":7142:7364   */\ntag_16:\n    /* \"#utility.yul\":7235:7239   */\n  0x00\n    /* \"#utility.yul\":7273:7275   */\n  0x20\n    /* \"#utility.yul\":7262:7271   */\n  dup3\n    /* \"#utility.yul\":7258:7276   */\n  add\n    /* \"#utility.yul\":7250:7276   */\n  swap1\n  pop\n    /* \"#utility.yul\":7286:7357   */\n  tag_174\n    /* \"#utility.yul\":7354:7355   */\n  0x00\n    /* \"#utility.yul\":7343:7352   */\n  dup4\n    /* \"#utility.yul\":7339:7356   */\n  add\n    /* \"#utility.yul\":7330:7336   */\n  dup5\n    /* \"#utility.yul\":7286:7357   */\n  tag_80\n  jump\t// in\ntag_174:\n    /* \"#utility.yul\":7142:7364   */\n  swap3\n  swap2\n  pop\n  pop\n  jump\t// out\n    /* \"#utility.yul\":7370:7550   */\ntag_81:\n    /* \"#utility.yul\":7418:7495   */\n  0x4e487b7100000000000000000000000000000000000000000000000000000000\n    /* \"#utility.yul\":7415:7416   */\n  0x00\n    /* \"#utility.yul\":7408:7496   */\n  mstore\n    /* \"#utility.yul\":7515:7519   */\n  0x11\n    /* \"#utility.yul\":7512:7513   */\n  0x04\n    /* \"#utility.yul\":7505:7520   */\n  mstore\n    /* \"#utility.yul\":7539:7543   */\n  0x24\n    /* \"#utility.yul\":7536:7537   */\n  0x00\n    /* \"#utility.yul\":7529:7544   */\n  revert\n    /* \"#utility.yul\":7556:7658   */\ntag_82:\n    /* \"#utility.yul\":7598:7606   */\n  0x00\n    /* \"#utility.yul\":7645:7650   */\n  dup2\n    /* \"#utility.yul\":7642:7643   */\n  0x01\n    /* \"#utility.yul\":7638:7651   */\n  shr\n    /* \"#utility.yul\":7617:7651   */\n  swap1\n  pop\n    /* \"#utility.yul\":7556:7658   */\n  swap2\n  swap1\n  pop\n  jump\t// out\n    /* \"#utility.yul\":7664:8512   */\ntag_83:\n    /* \"#utility.yul\":7725:7730   */\n  0x00\n    /* \"#utility.yul\":7732:7736   */\n  0x00\n    /* \"#utility.yul\":7756:7762   */\n  dup3\n    /* \"#utility.yul\":7747:7762   */\n  swap2\n  pop\n    /* \"#utility.yul\":7780:7785   */\n  dup4\n    /* \"#utility.yul\":7771:7785   */\n  swap1\n  pop\n    /* \"#utility.yul\":7794:8506   */\ntag_178:\n    /* \"#utility.yul\":7815:7816   */\n  0x01\n    /* \"#utility.yul\":7805:7813   */\n  dup6\n    /* \"#utility.yul\":7802:7817   */\n  gt\n    /* \"#utility.yul\":7794:8506   */\n  iszero\n  tag_180\n  jumpi\n    /* \"#utility.yul\":7910:7914   */\n  dup1\n    /* \"#utility.yul\":7905:7908   */\n  dup7\n    /* \"#utility.yul\":7901:7915   */\n  div\n    /* \"#utility.yul\":7895:7899   */\n  dup2\n    /* \"#utility.yul\":7892:7916   */\n  gt\n    /* \"#utility.yul\":7889:7939   */\n  iszero\n  tag_181\n  jumpi\n    /* \"#utility.yul\":7919:7937   */\n  tag_182\n  tag_81\n  jump\t// in\ntag_182:\n    /* \"#utility.yul\":7889:7939   */\ntag_181:\n    /* \"#utility.yul\":7969:7970   */\n  0x01\n    /* \"#utility.yul\":7959:7967   */\n  dup6\n    /* \"#utility.yul\":7955:7971   */\n  and\n    /* \"#utility.yul\":7952:8403   */\n  iszero\n  tag_183\n  jumpi\n    /* \"#utility.yul\":8384:8388   */\n  dup1\n    /* \"#utility.yul\":8377:8382   */\n  dup3\n    /* \"#utility.yul\":8373:8389   */\n  mul\n    /* \"#utility.yul\":8364:8389   */\n  swap2\n  pop\n    /* \"#utility.yul\":7952:8403   */\ntag_183:\n    /* \"#utility.yul\":8434:8438   */\n  dup1\n    /* \"#utility.yul\":8428:8432   */\n  dup2\n    /* \"#utility.yul\":8424:8439   */\n  mul\n    /* \"#utility.yul\":8416:8439   */\n  swap1\n  pop\n    /* \"#utility.yul\":8464:8496   */\n  tag_184\n    /* \"#utility.yul\":8487:8495   */\n  dup6\n    /* \"#utility.yul\":8464:8496   */\n  tag_82\n  jump\t// in\ntag_184:\n    /* \"#utility.yul\":8452:8496   */\n  swap5\n  pop\n    /* \"#utility.yul\":7794:8506   */\n  jump(tag_178)\ntag_180:\n    /* \"#utility.yul\":7664:8512   */\n  swap5\n  pop\n  swap5\n  swap3\n  pop\n  pop\n  pop\n  jump\t// out\n    /* \"#utility.yul\":8518:9591   */\ntag_84:\n    /* \"#utility.yul\":8572:8577   */\n  0x00\n    /* \"#utility.yul\":8763:8771   */\n  dup3\n    /* \"#utility.yul\":8753:8793   */\n  tag_186\n  jumpi\n    /* \"#utility.yul\":8784:8785   */\n  0x01\n    /* \"#utility.yul\":8775:8785   */\n  swap1\n  pop\n    /* \"#utility.yul\":8786:8791   */\n  jump(tag_185)\n    /* \"#utility.yul\":8753:8793   */\ntag_186:\n    /* \"#utility.yul\":8812:8816   */\n  dup2\n    /* \"#utility.yul\":8802:8838   */\n  tag_187\n  jumpi\n    /* \"#utility.yul\":8829:8830   */\n  0x00\n    /* \"#utility.yul\":8820:8830   */\n  swap1\n  pop\n    /* \"#utility.yul\":8831:8836   */\n  jump(tag_185)\n    /* \"#utility.yul\":8802:8838   */\ntag_187:\n    /* \"#utility.yul\":8898:8902   */\n  dup2\n    /* \"#utility.yul\":8946:8947   */\n  0x01\n    /* \"#utility.yul\":8941:8968   */\n  dup2\n  eq\n  tag_189\n  jumpi\n    /* \"#utility.yul\":8982:8983   */\n  0x02\n    /* \"#utility.yul\":8977:9168   */\n  dup2\n  eq\n  tag_190\n  jumpi\n    /* \"#utility.yul\":8891:9168   */\n  jump(tag_188)\n    /* \"#utility.yul\":8941:8968   */\ntag_189:\n    /* \"#utility.yul\":8959:8960   */\n  0x01\n    /* \"#utility.yul\":8950:8960   */\n  swap2\n  pop\n    /* \"#utility.yul\":8961:8966   */\n  pop\n  jump(tag_185)\n    /* \"#utility.yul\":8977:9168   */\ntag_190:\n    /* \"#utility.yul\":9022:9025   */\n  0xff\n    /* \"#utility.yul\":9012:9020   */\n  dup5\n    /* \"#utility.yul\":9009:9026   */\n  gt\n    /* \"#utility.yul\":9006:9049   */\n  iszero\n  tag_191\n  jumpi\n    /* \"#utility.yul\":9029:9047   */\n  tag_192\n  tag_81\n  jump\t// in\ntag_192:\n    /* \"#utility.yul\":9006:9049   */\ntag_191:\n    /* \"#utility.yul\":9078:9086   */\n  dup4\n    /* \"#utility.yul\":9075:9076   */\n  0x02\n    /* \"#utility.yul\":9071:9087   */\n  exp\n    /* \"#utility.yul\":9062:9087   */\n  swap2\n  pop\n    /* \"#utility.yul\":9113:9116   */\n  dup5\n    /* \"#utility.yul\":9106:9111   */\n  dup3\n    /* \"#utility.yul\":9103:9117   */\n  gt\n    /* \"#utility.yul\":9100:9140   */\n  iszero\n  tag_193\n  jumpi\n    /* \"#utility.yul\":9120:9138   */\n  tag_194\n  tag_81\n  jump\t// in\ntag_194:\n    /* \"#utility.yul\":9100:9140   */\ntag_193:\n    /* \"#utility.yul\":9153:9158   */\n  pop\n  jump(tag_185)\n    /* \"#utility.yul\":8891:9168   */\ntag_188:\n  pop\n    /* \"#utility.yul\":9277:9279   */\n  0x20\n    /* \"#utility.yul\":9267:9275   */\n  dup4\n    /* \"#utility.yul\":9264:9280   */\n  lt\n    /* \"#utility.yul\":9258:9261   */\n  0x0133\n    /* \"#utility.yul\":9252:9256   */\n  dup4\n    /* \"#utility.yul\":9249:9262   */\n  lt\n    /* \"#utility.yul\":9245:9281   */\n  and\n    /* \"#utility.yul\":9227:9229   */\n  0x4e\n    /* \"#utility.yul\":9217:9225   */\n  dup5\n    /* \"#utility.yul\":9214:9230   */\n  lt\n    /* \"#utility.yul\":9209:9211   */\n  0x0b\n    /* \"#utility.yul\":9203:9207   */\n  dup5\n    /* \"#utility.yul\":9200:9212   */\n  lt\n    /* \"#utility.yul\":9196:9231   */\n  and\n    /* \"#utility.yul\":9180:9291   */\n  or\n    /* \"#utility.yul\":9177:9423   */\n  iszero\n  tag_195\n  jumpi\n    /* \"#utility.yul\":9333:9341   */\n  dup3\n    /* \"#utility.yul\":9327:9331   */\n  dup3\n    /* \"#utility.yul\":9323:9342   */\n  exp\n    /* \"#utility.yul\":9314:9342   */\n  swap1\n  pop\n    /* \"#utility.yul\":9368:9371   */\n  dup4\n    /* \"#utility.yul\":9361:9366   */\n  dup2\n    /* \"#utility.yul\":9358:9372   */\n  gt\n    /* \"#utility.yul\":9355:9395   */\n  iszero\n  tag_196\n  jumpi\n    /* \"#utility.yul\":9375:9393   */\n  tag_197\n  tag_81\n  jump\t// in\ntag_197:\n    /* \"#utility.yul\":9355:9395   */\ntag_196:\n    /* \"#utility.yul\":9408:9413   */\n  jump(tag_185)\n    /* \"#utility.yul\":9177:9423   */\ntag_195:\n    /* \"#utility.yul\":9448:9490   */\n  tag_198\n    /* \"#utility.yul\":9486:9489   */\n  dup5\n    /* \"#utility.yul\":9476:9484   */\n  dup5\n    /* \"#utility.yul\":9470:9474   */\n  dup5\n    /* \"#utility.yul\":9467:9468   */\n  0x01\n    /* \"#utility.yul\":9448:9490   */\n  tag_83\n  jump\t// in\ntag_198:\n    /* \"#utility.yul\":9433:9490   */\n  swap3\n  pop\n  swap1\n  pop\n    /* \"#utility.yul\":9522:9526   */\n  dup2\n    /* \"#utility.yul\":9517:9520   */\n  dup5\n    /* \"#utility.yul\":9513:9527   */\n  div\n    /* \"#utility.yul\":9506:9511   */\n  dup2\n    /* \"#utility.yul\":9503:9528   */\n  gt\n    /* \"#utility.yul\":9500:9551   */\n  iszero\n  tag_199\n  jumpi\n    /* \"#utility.yul\":9531:9549   */\n  tag_200\n  tag_81\n  jump\t// in\ntag_200:\n    /* \"#utility.yul\":9500:9551   */\ntag_199:\n    /* \"#utility.yul\":9580:9584   */\n  dup2\n    /* \"#utility.yul\":9573:9578   */\n  dup2\n    /* \"#utility.yul\":9569:9585   */\n  mul\n    /* \"#utility.yul\":9560:9585   */\n  swap1\n  pop\n    /* \"#utility.yul\":8518:9591   */\ntag_185:\n  swap4\n  swap3\n  pop\n  pop\n  pop\n  jump\t// out\n    /* \"#utility.yul\":9597:9683   */\ntag_85:\n    /* \"#utility.yul\":9632:9639   */\n  0x00\n    /* \"#utility.yul\":9672:9676   */\n  0xff\n    /* \"#utility.yul\":9665:9670   */\n  dup3\n    /* \"#utility.yul\":9661:9677   */\n  and\n    /* \"#utility.yul\":9650:9677   */\n  swap1\n  pop\n    /* \"#utility.yul\":9597:9683   */\n  swap2\n  swap1\n  pop\n  jump\t// out\n    /* \"#utility.yul\":9689:9970   */\ntag_23:\n    /* \"#utility.yul\":9747:9752   */\n  0x00\n    /* \"#utility.yul\":9771:9794   */\n  tag_203\n    /* \"#utility.yul\":9789:9793   */\n  dup3\n    /* \"#utility.yul\":9771:9794   */\n  tag_58\n  jump\t// in\ntag_203:\n    /* \"#utility.yul\":9763:9794   */\n  swap2\n  pop\n    /* \"#utility.yul\":9815:9840   */\n  tag_204\n    /* \"#utility.yul\":9831:9839   */\n  dup4\n    /* \"#utility.yul\":9815:9840   */\n  tag_85\n  jump\t// in\ntag_204:\n    /* \"#utility.yul\":9803:9840   */\n  swap3\n  pop\n    /* \"#utility.yul\":9859:9963   */\n  tag_205\n    /* \"#utility.yul\":9896:9962   */\n  0xffffffffffffffffffffffffffffffffffffffffffffffffffffffffffffffff\n    /* \"#utility.yul\":9886:9894   */\n  dup5\n    /* \"#utility.yul\":9880:9884   */\n  dup5\n    /* \"#utility.yul\":9859:9963   */\n  tag_84\n  jump\t// in\ntag_205:\n    /* \"#utility.yul\":9850:9963   */\n  swap1\n  pop\n    /* \"#utility.yul\":9689:9970   */\n  swap3\n  swap2\n  pop\n  pop\n  jump\t// out\n    /* \"#utility.yul\":9976:10386   */\ntag_25:\n    /* \"#utility.yul\":10016:10023   */\n  0x00\n    /* \"#utility.yul\":10039:10059   */\n  tag_207\n    /* \"#utility.yul\":10057:10058   */\n  dup3\n    /* \"#utility.yul\":10039:10059   */\n  tag_58\n  jump\t// in\ntag_207:\n    /* \"#utility.yul\":10034:10059   */\n  swap2\n  pop\n    /* \"#utility.yul\":10073:10093   */\n  tag_208\n    /* \"#utility.yul\":10091:10092   */\n  dup4\n    /* \"#utility.yul\":10073:10093   */\n  tag_58\n  jump\t// in\ntag_208:\n    /* \"#utility.yul\":10068:10093   */\n  swap3\n  pop\n    /* \"#utility.yul\":10128:10129   */\n  dup3\n    /* \"#utility.yul\":10125:10126   */\n  dup3\n    /* \"#utility.yul\":10121:10130   */\n  mul\n    /* \"#utility.yul\":10150:10180   */\n  tag_209\n    /* \"#utility.yul\":10168:10179   */\n  dup2\n    /* \"#utility.yul\":10150:10180   */\n  tag_58\n  jump\t// in\ntag_209:\n    /* \"#utility.yul\":10139:10180   */\n  swap2\n  pop\n    /* \"#utility.yul\":10329:10330   */\n  dup3\n    /* \"#utility.yul\":10320:10327   */\n  dup3\n    /* \"#utility.yul\":10316:10331   */\n  div\n    /* \"#utility.yul\":10313:10314   */\n  dup5\n    /* \"#utility.yul\":10310:10332   */\n  eq\n    /* \"#utility.yul\":10290:10291   */\n  dup4\n    /* \"#utility.yul\":10283:10292   */\n  iszero\n    /* \"#utility.yul\":10263:10346   */\n  or\n    /* \"#utility.yul\":10240:10379   */\n  tag_210\n  jumpi\n    /* \"#utility.yul\":10359:10377   */\n  tag_211\n  tag_81\n  jump\t// in\ntag_211:\n    /* \"#utility.yul\":10240:10379   */\ntag_210:\n    /* \"#utility.yul\":10024:10386   */\n  pop\n    /* \"#utility.yul\":9976:10386   */\n  swap3\n  swap2\n  pop\n  pop\n  jump\t// out\n    /* \"#utility.yul\":10392:10583   */\ntag_42:\n    /* \"#utility.yul\":10432:10435   */\n  0x00\n    /* \"#utility.yul\":10451:10471   */\n  tag_213\n    /* \"#utility.yul\":10469:10470   */\n  dup3\n    /* \"#utility.yul\":10451:10471   */\n  tag_58\n  jump\t// in\ntag_213:\n    /* \"#utility.yul\":10446:10471   */\n  swap2\n  pop\n    /* \"#utility.yul\":10485:10505   */\n  tag_214\n    /* \"#utility.yul\":10503:10504   */\n  dup4\n    /* \"#utility.yul\":10485:10505   */\n  tag_58\n  jump\t// in\ntag_214:\n    /* \"#utility.yul\":10480:10505   */\n  swap3\n  pop\n    /* \"#utility.yul\":10528:10529   */\n  dup3\n    /* \"#utility.yul\":10525:10526   */\n  dup3\n    /* \"#utility.yul\":10521:10530   */\n  add\n    /* \"#utility.yul\":10514:10530   */\n  swap1\n  pop\n    /* \"#utility.yul\":10549:10552   */\n  dup1\n    /* \"#utility.yul\":10546:10547   */\n  dup3\n    /* \"#utility.yul\":10543:10553   */\n  gt\n    /* \"#utility.yul\":10540:10576   */\n  iszero\n  tag_215\n  jumpi\n    /* \"#utility.yul\":10556:10574   */\n  tag_216\n  tag_81\n  jump\t// in\ntag_216:\n    /* \"#utility.yul\":10540:10576   */\ntag_215:\n    /* \"#utility.yul\":10392:10583   */\n  swap3\n  swap2\n  pop\n  pop\n  jump\t// out\n    /* \"#utility.yul\":10589:10707   */\ntag_86:\n    /* \"#utility.yul\":10676:10700   */\n  tag_218\n    /* \"#utility.yul\":10694:10699   */\n  dup2\n    /* \"#utility.yul\":10676:10700   */\n  tag_58\n  jump\t// in\ntag_218:\n    /* \"#utility.yul\":10671:10674   */\n  dup3\n    /* \"#utility.yul\":10664:10701   */\n  mstore\n    /* \"#utility.yul\":10589:10707   */\n  pop\n  pop\n  jump\t// out\n    /* \"#utility.yul\":10713:11155   */\ntag_46:\n    /* \"#utility.yul\":10862:10866   */\n  0x00\n    /* \"#utility.yul\":10900:10902   */\n  0x60\n    /* \"#utility.yul\":10889:10898   */\n  dup3\n    /* \"#utility.yul\":10885:10903   */\n  add\n    /* \"#utility.yul\":10877:10903   */\n  swap1\n  pop\n    /* \"#utility.yul\":10913:10984   */\n  tag_220\n    /* \"#utility.yul\":10981:10982   */\n  0x00\n    /* \"#utility.yul\":10970:10979   */\n  dup4\n    /* \"#utility.yul\":10966:10983   */\n  add\n    /* \"#utility.yul\":10957:10963   */\n  dup7\n    /* \"#utility.yul\":10913:10984   */\n  tag_80\n  jump\t// in\ntag_220:\n    /* \"#utility.yul\":10994:11066   */\n  tag_221\n    /* \"#utility.yul\":11062:11064   */\n  0x20\n    /* \"#utility.yul\":11051:11060   */\n  dup4\n    /* \"#utility.yul\":11047:11065   */\n  add\n    /* \"#utility.yul\":11038:11044   */\n  dup6\n    /* \"#utility.yul\":10994:11066   */\n  tag_86\n  jump\t// in\ntag_221:\n    /* \"#utility.yul\":11076:11148   */\n  tag_222\n    /* \"#utility.yul\":11144:11146   */\n  0x40\n    /* \"#utility.yul\":11133:11142   */\n  dup4\n    /* \"#utility.yul\":11129:11147   */\n  add\n    /* \"#utility.yul\":11120:11126   */\n  dup5\n    /* \"#utility.yul\":11076:11148   */\n  tag_86\n  jump\t// in\ntag_222:\n    /* \"#utility.yul\":10713:11155   */\n  swap5\n  swap4\n  pop\n  pop\n  pop\n  pop\n  jump\t// out\n    /* \"#utility.yul\":11161:11383   */\ntag_50:\n    /* \"#utility.yul\":11254:11258   */\n  0x00\n    /* \"#utility.yul\":11292:11294   */\n  0x20\n    /* \"#utility.yul\":11281:11290   */\n  dup3\n    /* \"#utility.yul\":11277:11295   */\n  add\n    /* \"#utility.yul\":11269:11295   */\n  swap1\n  pop\n    /* \"#utility.yul\":11305:11376   */\n  tag_224\n    /* \"#utility.yul\":11373:11374   */\n  0x00\n    /* \"#utility.yul\":11362:11371   */\n  dup4\n    /* \"#utility.yul\":11358:11375   */\n  add\n    /* \"#utility.yul\":11349:11355   */\n  dup5\n    /* \"#utility.yul\":11305:11376   */\n  tag_86\n  jump\t// in\ntag_224:\n    /* \"#utility.yul\":11161:11383   */\n  swap3\n  swap2\n  pop\n  pop\n  jump\t// out\n    /* \"contracts/reward.sol\":235:3548  contract RewardToken is ERC20, ERC2771Context, Ownable {... */\ntag_30:\n  mload(0x80)\n  mload(0xa0)\n  codecopy(0x00, dataOffset(sub_0), dataSize(sub_0))\n  0x00\n  assignImmutable(\"0xcc1cf32daa775edd624f71ddb0d100d39c31c65becb67e6d2e7789fa58c10fe0\")\n  0x00\n  assignImmutable(\"0x676d59fa2ffd6582a027f46129ae51e30d87ee3393d1d463bdc959072b6c2109\")\n  return(0x00, dataSize(sub_0))\nstop\n\nsub_0: assembly {\n        /* \"contracts/reward.sol\":235:3548  contract RewardToken is ERC20, ERC2771Context, Ownable {... */\n      mstore(0x40, 0x80)\n      callvalue\n      dup1\n      iszero\n      tag_1\n      jumpi\n      revert(0x00, 0x00)\n    tag_1:\n      pop\n      jumpi(tag_2, lt(calldatasize, 0x04))\n      shr(0xe0, calldataload(0x00))\n      dup1\n      0x715018a6\n      gt\n      tag_22\n      jumpi\n      dup1\n      0xae169a50\n      gt\n      tag_23\n      jumpi\n      dup1\n      0xae169a50\n      eq\n      tag_17\n      jumpi\n      dup1\n      0xb921e163\n      eq\n      tag_18\n      jumpi\n      dup1\n      0xdd62ed3e\n      eq\n      tag_19\n      jumpi\n      dup1\n      0xf2fde38b\n      eq\n      tag_20\n      jumpi\n      dup1\n      0xff010f5b\n      eq\n      tag_21\n      jumpi\n      jump(tag_2)\n    tag_23:\n      dup1\n      0x715018a6\n      eq\n      tag_12\n      jumpi\n      dup1\n      0x7da0a877\n      eq\n      tag_13\n      jumpi\n      dup1\n      0x8da5cb5b\n      eq\n      tag_14\n      jumpi\n      dup1\n      0x95d89b41\n      eq\n      tag_15\n      jumpi\n      dup1\n      0xa9059cbb\n      eq\n      tag_16\n      jumpi\n      jump(tag_2)\n    tag_22:\n      dup1\n      0x23b872dd\n      gt\n      tag_24\n      jumpi\n      dup1\n      0x23b872dd\n      eq\n      tag_7\n      jumpi\n      dup1\n      0x301aecb9\n      eq\n      tag_8\n      jumpi\n      dup1\n      0x313ce567\n      eq\n      tag_9\n      jumpi\n      dup1\n      0x572b6c05\n      eq\n      tag_10\n      jumpi\n      dup1\n      0x70a08231\n      eq\n      tag_11\n      jumpi\n      jump(tag_2)\n    tag_24:\n      dup1\n      0x06fdde03\n      eq\n      tag_3\n      jumpi\n      dup1\n      0x095ea7b3\n      eq\n      tag_4\n      jumpi\n      dup1\n      0x18160ddd\n      eq\n      tag_5\n      jumpi\n      dup1\n      0x1bfdcd9d\n      eq\n      tag_6\n      jumpi\n    tag_2:\n      revert(0x00, 0x00)\n        /* \"@openzeppelin/contracts/token/ERC20/ERC20.sol\":1760:1849  function name() public view virtual returns (string memory) {... */\n    tag_3:\n      tag_25\n      tag_26\n      jump\t// in\n    tag_25:\n      mload(0x40)\n      tag_27\n      swap2\n      swap1\n      tag_28\n      jump\t// in\n    tag_27:\n      mload(0x40)\n      dup1\n      swap2\n      sub\n      swap1\n      return\n        /* \"@openzeppelin/contracts/token/ERC20/ERC20.sol\":3902:4088  function approve(address spender, uint256 value) public virtual returns (bool) {... */\n    tag_4:\n      tag_29\n      0x04\n      dup1\n      calldatasize\n      sub\n      dup2\n      add\n      swap1\n      tag_30\n      swap2\n      swap1\n      tag_31\n      jump\t// in\n    tag_30:\n      tag_32\n      jump\t// in\n    tag_29:\n      mload(0x40)\n      tag_33\n      swap2\n      swap1\n      tag_34\n      jump\t// in\n    tag_33:\n      mload(0x40)\n      dup1\n      swap2\n      sub\n      swap1\n      return\n        /* \"@openzeppelin/contracts/token/ERC20/ERC20.sol\":2803:2900  function totalSupply() public view virtual returns (uint256) {... */\n    tag_5:\n      tag_35\n      tag_36\n      jump\t// in\n    tag_35:\n      mload(0x40)\n      tag_37\n      swap2\n      swap1\n      tag_38\n      jump\t// in\n    tag_37:\n      mload(0x40)\n      dup1\n      swap2\n      sub\n      swap1\n      return\n        /* \"contracts/reward.sol\":3123:3545  function decreaseMyTokenPublic(address user_address, uint256 amount) public {... */\n    tag_6:\n      tag_39\n      0x04\n      dup1\n      calldatasize\n      sub\n      dup2\n      add\n      swap1\n      tag_40\n      swap2\n      swap1\n      tag_31\n      jump\t// in\n    tag_40:\n      tag_41\n      jump\t// in\n    tag_39:\n      stop\n        /* \"@openzeppelin/contracts/token/ERC20/ERC20.sol\":4680:4924  function transferFrom(address from, address to, uint256 value) public virtual returns (bool) {... */\n    tag_7:\n      tag_42\n      0x04\n      dup1\n      calldatasize\n      sub\n      dup2\n      add\n      swap1\n      tag_43\n      swap2\n      swap1\n      tag_44\n      jump\t// in\n    tag_43:\n      tag_45\n      jump\t// in\n    tag_42:\n      mload(0x40)\n      tag_46\n      swap2\n      swap1\n      tag_34\n      jump\t// in\n    tag_46:\n      mload(0x40)\n      dup1\n      swap2\n      sub\n      swap1\n      return\n        /* \"contracts/reward.sol\":2668:3115  function decreaseMyToken(uint256 amount) public {... */\n    tag_8:\n      tag_47\n      0x04\n      dup1\n      calldatasize\n      sub\n      dup2\n      add\n      swap1\n      tag_48\n      swap2\n      swap1\n      tag_49\n      jump\t// in\n    tag_48:\n      tag_50\n      jump\t// in\n    tag_47:\n      stop\n        /* \"@openzeppelin/contracts/token/ERC20/ERC20.sol\":2688:2770  function decimals() public view virtual returns (uint8) {... */\n    tag_9:\n      tag_51\n      tag_52\n      jump\t// in\n    tag_51:\n      mload(0x40)\n      tag_53\n      swap2\n      swap1\n      tag_54\n      jump\t// in\n    tag_53:\n      mload(0x40)\n      dup1\n      swap2\n      sub\n      swap1\n      return\n        /* \"contracts/reward.sol\":1325:1529  function isTrustedForwarder(address forwarder)... */\n    tag_10:\n      tag_55\n      0x04\n      dup1\n      calldatasize\n      sub\n      dup2\n      add\n      swap1\n      tag_56\n      swap2\n      swap1\n      tag_57\n      jump\t// in\n    tag_56:\n      tag_58\n      jump\t// in\n    tag_55:\n      mload(0x40)\n      tag_59\n      swap2\n      swap1\n      tag_34\n      jump\t// in\n    tag_59:\n      mload(0x40)\n      dup1\n      swap2\n      sub\n      swap1\n      return\n        /* \"@openzeppelin/contracts/token/ERC20/ERC20.sol\":2933:3049  function balanceOf(address account) public view virtual returns (uint256) {... */\n    tag_11:\n      tag_60\n      0x04\n      dup1\n      calldatasize\n      sub\n      dup2\n      add\n      swap1\n      tag_61\n      swap2\n      swap1\n      tag_57\n      jump\t// in\n    tag_61:\n      tag_62\n      jump\t// in\n    tag_60:\n      mload(0x40)\n      tag_63\n      swap2\n      swap1\n      tag_38\n      jump\t// in\n    tag_63:\n      mload(0x40)\n      dup1\n      swap2\n      sub\n      swap1\n      return\n        /* \"@openzeppelin/contracts/access/Ownable.sol\":2293:2394  function renounceOwnership() public virtual onlyOwner {... */\n    tag_12:\n      tag_64\n      tag_65\n      jump\t// in\n    tag_64:\n      stop\n        /* \"@openzeppelin/contracts/metatx/ERC2771Context.sol\":1624:1731  function trustedForwarder() public view virtual returns (address) {... */\n    tag_13:\n      tag_66\n      tag_67\n      jump\t// in\n    tag_66:\n      mload(0x40)\n      tag_68\n      swap2\n      swap1\n      tag_69\n      jump\t// in\n    tag_68:\n      mload(0x40)\n      dup1\n      swap2\n      sub\n      swap1\n      return\n        /* \"@openzeppelin/contracts/access/Ownable.sol\":1638:1723  function owner() public view virtual returns (address) {... */\n    tag_14:\n      tag_70\n      tag_71\n      jump\t// in\n    tag_70:\n      mload(0x40)\n      tag_72\n      swap2\n      swap1\n      tag_69\n      jump\t// in\n    tag_72:\n      mload(0x40)\n      dup1\n      swap2\n      sub\n      swap1\n      return\n        /* \"@openzeppelin/contracts/token/ERC20/ERC20.sol\":1962:2055  function symbol() public view virtual returns (string memory) {... */\n    tag_15:\n      tag_73\n      tag_74\n      jump\t// in\n    tag_73:\n      mload(0x40)\n      tag_75\n      swap2\n      swap1\n      tag_28\n      jump\t// in\n    tag_75:\n      mload(0x40)\n      dup1\n      swap2\n      sub\n      swap1\n      return\n        /* \"@openzeppelin/contracts/token/ERC20/ERC20.sol\":3244:3422  function transfer(address to, uint256 value) public virtual returns (bool) {... */\n    tag_16:\n      tag_76\n      0x04\n      dup1\n      calldatasize\n      sub\n      dup2\n      add\n      swap1\n      tag_77\n      swap2\n      swap1\n      tag_31\n      jump\t// in\n    tag_77:\n      tag_78\n      jump\t// in\n    tag_76:\n      mload(0x40)\n      tag_79\n      swap2\n      swap1\n      tag_34\n      jump\t// in\n    tag_79:\n      mload(0x40)\n      dup1\n      swap2\n      sub\n      swap1\n      return\n        /* \"contracts/reward.sol\":1847:2256  function claimReward(uint256 amount) public {... */\n    tag_17:\n      tag_80\n      0x04\n      dup1\n      calldatasize\n      sub\n      dup2\n      add\n      swap1\n      tag_81\n      swap2\n      swap1\n      tag_49\n      jump\t// in\n    tag_81:\n      tag_82\n      jump\t// in\n    tag_80:\n      stop\n        /* \"contracts/reward.sol\":1664:1839  function increaseSupply(uint256 amount) public onlyOwner {... */\n    tag_18:\n      tag_83\n      0x04\n      dup1\n      calldatasize\n      sub\n      dup2\n      add\n      swap1\n      tag_84\n      swap2\n      swap1\n      tag_49\n      jump\t// in\n    tag_84:\n      tag_85\n      jump\t// in\n    tag_83:\n      stop\n        /* \"@openzeppelin/contracts/token/ERC20/ERC20.sol\":3455:3595  function allowance(address owner, address spender) public view virtual returns (uint256) {... */\n    tag_19:\n      tag_86\n      0x04\n      dup1\n      calldatasize\n      sub\n      dup2\n      add\n      swap1\n      tag_87\n      swap2\n      swap1\n      tag_88\n      jump\t// in\n    tag_87:\n      tag_89\n      jump\t// in\n    tag_86:\n      mload(0x40)\n      tag_90\n      swap2\n      swap1\n      tag_38\n      jump\t// in\n    tag_90:\n      mload(0x40)\n      dup1\n      swap2\n      sub\n      swap1\n      return\n        /* \"@openzeppelin/contracts/access/Ownable.sol\":2543:2758  function transferOwnership(address newOwner) public virtual onlyOwner {... */\n    tag_20:\n      tag_91\n      0x04\n      dup1\n      calldatasize\n      sub\n      dup2\n      add\n      swap1\n      tag_92\n      swap2\n      swap1\n      tag_57\n      jump\t// in\n    tag_92:\n      tag_93\n      jump\t// in\n    tag_91:\n      stop\n        /* \"contracts/reward.sol\":2264:2660  function claimRewardPublic(address user_address, uint256 amount) public onlyOwner {... */\n    tag_21:\n      tag_94\n      0x04\n      dup1\n      calldatasize\n      sub\n      dup2\n      add\n      swap1\n      tag_95\n      swap2\n      swap1\n      tag_31\n      jump\t// in\n    tag_95:\n      tag_96\n      jump\t// in\n    tag_94:\n      stop\n        /* \"@openzeppelin/contracts/token/ERC20/ERC20.sol\":1760:1849  function name() public view virtual returns (string memory) {... */\n    tag_26:\n        /* \"@openzeppelin/contracts/token/ERC20/ERC20.sol\":1805:1818  string memory */\n      0x60\n        /* \"@openzeppelin/contracts/token/ERC20/ERC20.sol\":1837:1842  _name */\n      0x03\n        /* \"@openzeppelin/contracts/token/ERC20/ERC20.sol\":1830:1842  return _name */\n      dup1\n      sload\n      tag_98\n      swap1\n      tag_99\n      jump\t// in\n    tag_98:\n      dup1\n      0x1f\n      add\n      0x20\n      dup1\n      swap2\n      div\n      mul\n      0x20\n      add\n      mload(0x40)\n      swap1\n      dup2\n      add\n      0x40\n      mstore\n      dup1\n      swap3\n      swap2\n      swap1\n      dup2\n      dup2\n      mstore\n      0x20\n      add\n      dup3\n      dup1\n      sload\n      tag_100\n      swap1\n      tag_99\n      jump\t// in\n    tag_100:\n      dup1\n      iszero\n      tag_101\n      jumpi\n      dup1\n      0x1f\n      lt\n      tag_102\n      jumpi\n      0x0100\n      dup1\n      dup4\n      sload\n      div\n      mul\n      dup4\n      mstore\n      swap2\n      0x20\n      add\n      swap2\n      jump(tag_101)\n    tag_102:\n      dup3\n      add\n      swap2\n      swap1\n      0x00\n      mstore\n      keccak256(0x00, 0x20)\n      swap1\n    tag_103:\n      dup2\n      sload\n      dup2\n      mstore\n      swap1\n      0x01\n      add\n      swap1\n      0x20\n      add\n      dup1\n      dup4\n      gt\n      tag_103\n      jumpi\n      dup3\n      swap1\n      sub\n      0x1f\n      and\n      dup3\n      add\n      swap2\n    tag_101:\n      pop\n      pop\n      pop\n      pop\n      pop\n      swap1\n      pop\n        /* \"@openzeppelin/contracts/token/ERC20/ERC20.sol\":1760:1849  function name() public view virtual returns (string memory) {... */\n      swap1\n      jump\t// out\n        /* \"@openzeppelin/contracts/token/ERC20/ERC20.sol\":3902:4088  function approve(address spender, uint256 value) public virtual returns (bool) {... */\n    tag_32:\n        /* \"@openzeppelin/contracts/token/ERC20/ERC20.sol\":3975:3979  bool */\n      0x00\n        /* \"@openzeppelin/contracts/token/ERC20/ERC20.sol\":3991:4004  address owner */\n      0x00\n        /* \"@openzeppelin/contracts/token/ERC20/ERC20.sol\":4007:4019  _msgSender() */\n      tag_105\n        /* \"@openzeppelin/contracts/token/ERC20/ERC20.sol\":4007:4017  _msgSender */\n      tag_106\n        /* \"@openzeppelin/contracts/token/ERC20/ERC20.sol\":4007:4019  _msgSender() */\n      jump\t// in\n    tag_105:\n        /* \"@openzeppelin/contracts/token/ERC20/ERC20.sol\":3991:4019  address owner = _msgSender() */\n      swap1\n      pop\n        /* \"@openzeppelin/contracts/token/ERC20/ERC20.sol\":4029:4060  _approve(owner, spender, value) */\n      tag_107\n        /* \"@openzeppelin/contracts/token/ERC20/ERC20.sol\":4038:4043  owner */\n      dup2\n        /* \"@openzeppelin/contracts/token/ERC20/ERC20.sol\":4045:4052  spender */\n      dup6\n        /* \"@openzeppelin/contracts/token/ERC20/ERC20.sol\":4054:4059  value */\n      dup6\n        /* \"@openzeppelin/contracts/token/ERC20/ERC20.sol\":4029:4037  _approve */\n      tag_108\n        /* \"@openzeppelin/contracts/token/ERC20/ERC20.sol\":4029:4060  _approve(owner, spender, value) */\n      jump\t// in\n    tag_107:\n        /* \"@openzeppelin/contracts/token/ERC20/ERC20.sol\":4077:4081  true */\n      0x01\n        /* \"@openzeppelin/contracts/token/ERC20/ERC20.sol\":4070:4081  return true */\n      swap2\n      pop\n      pop\n        /* \"@openzeppelin/contracts/token/ERC20/ERC20.sol\":3902:4088  function approve(address spender, uint256 value) public virtual returns (bool) {... */\n      swap3\n      swap2\n      pop\n      pop\n      jump\t// out\n        /* \"@openzeppelin/contracts/token/ERC20/ERC20.sol\":2803:2900  function totalSupply() public view virtual returns (uint256) {... */\n    tag_36:\n        /* \"@openzeppelin/contracts/token/ERC20/ERC20.sol\":2855:2862  uint256 */\n      0x00\n        /* \"@openzeppelin/contracts/token/ERC20/ERC20.sol\":2881:2893  _totalSupply */\n      sload(0x02)\n        /* \"@openzeppelin/contracts/token/ERC20/ERC20.sol\":2874:2893  return _totalSupply */\n      swap1\n      pop\n        /* \"@openzeppelin/contracts/token/ERC20/ERC20.sol\":2803:2900  function totalSupply() public view virtual returns (uint256) {... */\n      swap1\n      jump\t// out\n        /* \"contracts/reward.sol\":3123:3545  function decreaseMyTokenPublic(address user_address, uint256 amount) public {... */\n    tag_41:\n        /* \"contracts/reward.sol\":3242:3243  0 */\n      0x00\n        /* \"contracts/reward.sol\":3218:3244  user_address != address(0) */\n      0xffffffffffffffffffffffffffffffffffffffff\n      and\n        /* \"contracts/reward.sol\":3218:3230  user_address */\n      dup3\n        /* \"contracts/reward.sol\":3218:3244  user_address != address(0) */\n      0xffffffffffffffffffffffffffffffffffffffff\n      and\n      sub\n        /* \"contracts/reward.sol\":3210:3286  require(user_address != address(0), \"New wallet cannot be the zero address\") */\n      tag_111\n      jumpi\n      mload(0x40)\n      0x08c379a000000000000000000000000000000000000000000000000000000000\n      dup2\n      mstore\n      0x04\n      add\n      tag_112\n      swap1\n      tag_113\n      jump\t// in\n    tag_112:\n      mload(0x40)\n      dup1\n      swap2\n      sub\n      swap1\n      revert\n    tag_111:\n        /* \"contracts/reward.sol\":3332:3338  amount */\n      dup1\n        /* \"contracts/reward.sol\":3305:3328  balanceOf(user_address) */\n      tag_114\n        /* \"contracts/reward.sol\":3315:3327  user_address */\n      dup4\n        /* \"contracts/reward.sol\":3305:3314  balanceOf */\n      tag_62\n        /* \"contracts/reward.sol\":3305:3328  balanceOf(user_address) */\n      jump\t// in\n    tag_114:\n        /* \"contracts/reward.sol\":3305:3338  balanceOf(user_address) >= amount */\n      lt\n      iszero\n        /* \"contracts/reward.sol\":3297:3386  require(balanceOf(user_address) >= amount, \"User has insufficient balance for transfer.\") */\n      tag_115\n      jumpi\n      mload(0x40)\n      0x08c379a000000000000000000000000000000000000000000000000000000000\n      dup2\n      mstore\n      0x04\n      add\n      tag_116\n      swap1\n      tag_117\n      jump\t// in\n    tag_116:\n      mload(0x40)\n      dup1\n      swap2\n      sub\n      swap1\n      revert\n    tag_115:\n        /* \"contracts/reward.sol\":3397:3411  address sender */\n      0x00\n        /* \"contracts/reward.sol\":3414:3424  msg.sender */\n      caller\n        /* \"contracts/reward.sol\":3397:3424  address sender = msg.sender */\n      swap1\n      pop\n        /* \"contracts/reward.sol\":3437:3457  uint256 rewardAmount */\n      0x00\n        /* \"contracts/reward.sol\":3460:3481  convertAmount(amount) */\n      tag_118\n        /* \"contracts/reward.sol\":3474:3480  amount */\n      dup4\n        /* \"contracts/reward.sol\":3460:3473  convertAmount */\n      tag_119\n        /* \"contracts/reward.sol\":3460:3481  convertAmount(amount) */\n      jump\t// in\n    tag_118:\n        /* \"contracts/reward.sol\":3437:3481  uint256 rewardAmount = convertAmount(amount) */\n      swap1\n      pop\n        /* \"contracts/reward.sol\":3492:3537  _transfer(user_address, sender, rewardAmount) */\n      tag_120\n        /* \"contracts/reward.sol\":3502:3514  user_address */\n      dup5\n        /* \"contracts/reward.sol\":3516:3522  sender */\n      dup4\n        /* \"contracts/reward.sol\":3524:3536  rewardAmount */\n      dup4\n        /* \"contracts/reward.sol\":3492:3501  _transfer */\n      tag_121\n        /* \"contracts/reward.sol\":3492:3537  _transfer(user_address, sender, rewardAmount) */\n      jump\t// in\n    tag_120:\n        /* \"contracts/reward.sol\":3199:3545  {... */\n      pop\n      pop\n        /* \"contracts/reward.sol\":3123:3545  function decreaseMyTokenPublic(address user_address, uint256 amount) public {... */\n      pop\n      pop\n      jump\t// out\n        /* \"@openzeppelin/contracts/token/ERC20/ERC20.sol\":4680:4924  function transferFrom(address from, address to, uint256 value) public virtual returns (bool) {... */\n    tag_45:\n        /* \"@openzeppelin/contracts/token/ERC20/ERC20.sol\":4767:4771  bool */\n      0x00\n        /* \"@openzeppelin/contracts/token/ERC20/ERC20.sol\":4783:4798  address spender */\n      0x00\n        /* \"@openzeppelin/contracts/token/ERC20/ERC20.sol\":4801:4813  _msgSender() */\n      tag_123\n        /* \"@openzeppelin/contracts/token/ERC20/ERC20.sol\":4801:4811  _msgSender */\n      tag_106\n        /* \"@openzeppelin/contracts/token/ERC20/ERC20.sol\":4801:4813  _msgSender() */\n      jump\t// in\n    tag_123:\n        /* \"@openzeppelin/contracts/token/ERC20/ERC20.sol\":4783:4813  address spender = _msgSender() */\n      swap1\n      pop\n        /* \"@openzeppelin/contracts/token/ERC20/ERC20.sol\":4823:4860  _spendAllowance(from, spender, value) */\n      tag_124\n        /* \"@openzeppelin/contracts/token/ERC20/ERC20.sol\":4839:4843  from */\n      dup6\n        /* \"@openzeppelin/contracts/token/ERC20/ERC20.sol\":4845:4852  spender */\n      dup3\n        /* \"@openzeppelin/contracts/token/ERC20/ERC20.sol\":4854:4859  value */\n      dup6\n        /* \"@openzeppelin/contracts/token/ERC20/ERC20.sol\":4823:4838  _spendAllowance */\n      tag_125\n        /* \"@openzeppelin/contracts/token/ERC20/ERC20.sol\":4823:4860  _spendAllowance(from, spender, value) */\n      jump\t// in\n    tag_124:\n        /* \"@openzeppelin/contracts/token/ERC20/ERC20.sol\":4870:4896  _transfer(from, to, value) */\n      tag_126\n        /* \"@openzeppelin/contracts/token/ERC20/ERC20.sol\":4880:4884  from */\n      dup6\n        /* \"@openzeppelin/contracts/token/ERC20/ERC20.sol\":4886:4888  to */\n      dup6\n        /* \"@openzeppelin/contracts/token/ERC20/ERC20.sol\":4890:4895  value */\n      dup6\n        /* \"@openzeppelin/contracts/token/ERC20/ERC20.sol\":4870:4879  _transfer */\n      tag_121\n        /* \"@openzeppelin/contracts/token/ERC20/ERC20.sol\":4870:4896  _transfer(from, to, value) */\n      jump\t// in\n    tag_126:\n        /* \"@openzeppelin/contracts/token/ERC20/ERC20.sol\":4913:4917  true */\n      0x01\n        /* \"@openzeppelin/contracts/token/ERC20/ERC20.sol\":4906:4917  return true */\n      swap2\n      pop\n      pop\n        /* \"@openzeppelin/contracts/token/ERC20/ERC20.sol\":4680:4924  function transferFrom(address from, address to, uint256 value) public virtual returns (bool) {... */\n      swap4\n      swap3\n      pop\n      pop\n      pop\n      jump\t// out\n        /* \"contracts/reward.sol\":2668:3115  function decreaseMyToken(uint256 amount) public {... */\n    tag_50:\n        /* \"contracts/reward.sol\":2749:2779  isTrustedForwarder(msg.sender) */\n      tag_128\n        /* \"contracts/reward.sol\":2768:2778  msg.sender */\n      caller\n        /* \"contracts/reward.sol\":2749:2767  isTrustedForwarder */\n      tag_58\n        /* \"contracts/reward.sol\":2749:2779  isTrustedForwarder(msg.sender) */\n      jump\t// in\n    tag_128:\n        /* \"contracts/reward.sol\":2749:2806  isTrustedForwarder(msg.sender) || _msgSender() == owner() */\n      dup1\n      tag_129\n      jumpi\n      pop\n        /* \"contracts/reward.sol\":2799:2806  owner() */\n      tag_130\n        /* \"contracts/reward.sol\":2799:2804  owner */\n      tag_71\n        /* \"contracts/reward.sol\":2799:2806  owner() */\n      jump\t// in\n    tag_130:\n        /* \"contracts/reward.sol\":2783:2806  _msgSender() == owner() */\n      0xffffffffffffffffffffffffffffffffffffffff\n      and\n        /* \"contracts/reward.sol\":2783:2795  _msgSender() */\n      tag_131\n        /* \"contracts/reward.sol\":2783:2793  _msgSender */\n      tag_106\n        /* \"contracts/reward.sol\":2783:2795  _msgSender() */\n      jump\t// in\n    tag_131:\n        /* \"contracts/reward.sol\":2783:2806  _msgSender() == owner() */\n      0xffffffffffffffffffffffffffffffffffffffff\n      and\n      eq\n        /* \"contracts/reward.sol\":2749:2806  isTrustedForwarder(msg.sender) || _msgSender() == owner() */\n    tag_129:\n        /* \"contracts/reward.sol\":2727:2893  require(... */\n      tag_132\n      jumpi\n      mload(0x40)\n      0x08c379a000000000000000000000000000000000000000000000000000000000\n      dup2\n      mstore\n      0x04\n      add\n      tag_133\n      swap1\n      tag_134\n      jump\t// in\n    tag_133:\n      mload(0x40)\n      dup1\n      swap2\n      sub\n      swap1\n      revert\n    tag_132:\n        /* \"contracts/reward.sol\":2939:2945  amount */\n      dup1\n        /* \"contracts/reward.sol\":2912:2935  balanceOf(_msgSender()) */\n      tag_135\n        /* \"contracts/reward.sol\":2922:2934  _msgSender() */\n      tag_136\n        /* \"contracts/reward.sol\":2922:2932  _msgSender */\n      tag_106\n        /* \"contracts/reward.sol\":2922:2934  _msgSender() */\n      jump\t// in\n    tag_136:\n        /* \"contracts/reward.sol\":2912:2921  balanceOf */\n      tag_62\n        /* \"contracts/reward.sol\":2912:2935  balanceOf(_msgSender()) */\n      jump\t// in\n    tag_135:\n        /* \"contracts/reward.sol\":2912:2945  balanceOf(_msgSender()) >= amount */\n      lt\n      iszero\n        /* \"contracts/reward.sol\":2904:2993  require(balanceOf(_msgSender()) >= amount, \"User has insufficient balance for transfer.\") */\n      tag_137\n      jumpi\n      mload(0x40)\n      0x08c379a000000000000000000000000000000000000000000000000000000000\n      dup2\n      mstore\n      0x04\n      add\n      tag_138\n      swap1\n      tag_117\n      jump\t// in\n    tag_138:\n      mload(0x40)\n      dup1\n      swap2\n      sub\n      swap1\n      revert\n    tag_137:\n        /* \"contracts/reward.sol\":3006:3026  uint256 rewardAmount */\n      0x00\n        /* \"contracts/reward.sol\":3029:3050  convertAmount(amount) */\n      tag_139\n        /* \"contracts/reward.sol\":3043:3049  amount */\n      dup3\n        /* \"contracts/reward.sol\":3029:3042  convertAmount */\n      tag_119\n        /* \"contracts/reward.sol\":3029:3050  convertAmount(amount) */\n      jump\t// in\n    tag_139:\n        /* \"contracts/reward.sol\":3006:3050  uint256 rewardAmount = convertAmount(amount) */\n      swap1\n      pop\n        /* \"contracts/reward.sol\":3061:3107  _transfer(_msgSender(), owner(), rewardAmount) */\n      tag_140\n        /* \"contracts/reward.sol\":3071:3083  _msgSender() */\n      tag_141\n        /* \"contracts/reward.sol\":3071:3081  _msgSender */\n      tag_106\n        /* \"contracts/reward.sol\":3071:3083  _msgSender() */\n      jump\t// in\n    tag_141:\n        /* \"contracts/reward.sol\":3085:3092  owner() */\n      tag_142\n        /* \"contracts/reward.sol\":3085:3090  owner */\n      tag_71\n        /* \"contracts/reward.sol\":3085:3092  owner() */\n      jump\t// in\n    tag_142:\n        /* \"contracts/reward.sol\":3094:3106  rewardAmount */\n      dup4\n        /* \"contracts/reward.sol\":3061:3070  _transfer */\n      tag_121\n        /* \"contracts/reward.sol\":3061:3107  _transfer(_msgSender(), owner(), rewardAmount) */\n      jump\t// in\n    tag_140:\n        /* \"contracts/reward.sol\":2716:3115  {... */\n      pop\n        /* \"contracts/reward.sol\":2668:3115  function decreaseMyToken(uint256 amount) public {... */\n      pop\n      jump\t// out\n        /* \"@openzeppelin/contracts/token/ERC20/ERC20.sol\":2688:2770  function decimals() public view virtual returns (uint8) {... */\n    tag_52:\n        /* \"@openzeppelin/contracts/token/ERC20/ERC20.sol\":2737:2742  uint8 */\n      0x00\n        /* \"@openzeppelin/contracts/token/ERC20/ERC20.sol\":2761:2763  18 */\n      0x12\n        /* \"@openzeppelin/contracts/token/ERC20/ERC20.sol\":2754:2763  return 18 */\n      swap1\n      pop\n        /* \"@openzeppelin/contracts/token/ERC20/ERC20.sol\":2688:2770  function decimals() public view virtual returns (uint8) {... */\n      swap1\n      jump\t// out\n        /* \"contracts/reward.sol\":1325:1529  function isTrustedForwarder(address forwarder)... */\n    tag_58:\n        /* \"contracts/reward.sol\":1456:1460  bool */\n      0x00\n        /* \"contracts/reward.sol\":1486:1521  super.isTrustedForwarder(forwarder) */\n      tag_145\n        /* \"contracts/reward.sol\":1511:1520  forwarder */\n      dup3\n        /* \"contracts/reward.sol\":1486:1510  super.isTrustedForwarder */\n      tag_146\n        /* \"contracts/reward.sol\":1486:1521  super.isTrustedForwarder(forwarder) */\n      jump\t// in\n    tag_145:\n        /* \"contracts/reward.sol\":1479:1521  return super.isTrustedForwarder(forwarder) */\n      swap1\n      pop\n        /* \"contracts/reward.sol\":1325:1529  function isTrustedForwarder(address forwarder)... */\n      swap2\n      swap1\n      pop\n      jump\t// out\n        /* \"@openzeppelin/contracts/token/ERC20/ERC20.sol\":2933:3049  function balanceOf(address account) public view virtual returns (uint256) {... */\n    tag_62:\n        /* \"@openzeppelin/contracts/token/ERC20/ERC20.sol\":2998:3005  uint256 */\n      0x00\n        /* \"@openzeppelin/contracts/token/ERC20/ERC20.sol\":3024:3033  _balances */\n      0x00\n        /* \"@openzeppelin/contracts/token/ERC20/ERC20.sol\":3024:3042  _balances[account] */\n      0x00\n        /* \"@openzeppelin/contracts/token/ERC20/ERC20.sol\":3034:3041  account */\n      dup4\n        /* \"@openzeppelin/contracts/token/ERC20/ERC20.sol\":3024:3042  _balances[account] */\n      0xffffffffffffffffffffffffffffffffffffffff\n      and\n      0xffffffffffffffffffffffffffffffffffffffff\n      and\n      dup2\n      mstore\n      0x20\n      add\n      swap1\n      dup2\n      mstore\n      0x20\n      add\n      0x00\n      keccak256\n      sload\n        /* \"@openzeppelin/contracts/token/ERC20/ERC20.sol\":3017:3042  return _balances[account] */\n      swap1\n      pop\n        /* \"@openzeppelin/contracts/token/ERC20/ERC20.sol\":2933:3049  function balanceOf(address account) public view virtual returns (uint256) {... */\n      swap2\n      swap1\n      pop\n      jump\t// out\n        /* \"@openzeppelin/contracts/access/Ownable.sol\":2293:2394  function renounceOwnership() public virtual onlyOwner {... */\n    tag_65:\n        /* \"@openzeppelin/contracts/access/Ownable.sol\":1531:1544  _checkOwner() */\n      tag_149\n        /* \"@openzeppelin/contracts/access/Ownable.sol\":1531:1542  _checkOwner */\n      tag_150\n        /* \"@openzeppelin/contracts/access/Ownable.sol\":1531:1544  _checkOwner() */\n      jump\t// in\n    tag_149:\n        /* \"@openzeppelin/contracts/access/Ownable.sol\":2357:2387  _transferOwnership(address(0)) */\n      tag_152\n        /* \"@openzeppelin/contracts/access/Ownable.sol\":2384:2385  0 */\n      0x00\n        /* \"@openzeppelin/contracts/access/Ownable.sol\":2357:2375  _transferOwnership */\n      tag_153\n        /* \"@openzeppelin/contracts/access/Ownable.sol\":2357:2387  _transferOwnership(address(0)) */\n      jump\t// in\n    tag_152:\n        /* \"@openzeppelin/contracts/access/Ownable.sol\":2293:2394  function renounceOwnership() public virtual onlyOwner {... */\n      jump\t// out\n        /* \"@openzeppelin/contracts/metatx/ERC2771Context.sol\":1624:1731  function trustedForwarder() public view virtual returns (address) {... */\n    tag_67:\n        /* \"@openzeppelin/contracts/metatx/ERC2771Context.sol\":1681:1688  address */\n      0x00\n        /* \"@openzeppelin/contracts/metatx/ERC2771Context.sol\":1707:1724  _trustedForwarder */\n      immutable(\"0x676d59fa2ffd6582a027f46129ae51e30d87ee3393d1d463bdc959072b6c2109\")\n        /* \"@openzeppelin/contracts/metatx/ERC2771Context.sol\":1700:1724  return _trustedForwarder */\n      swap1\n      pop\n        /* \"@openzeppelin/contracts/metatx/ERC2771Context.sol\":1624:1731  function trustedForwarder() public view virtual returns (address) {... */\n      swap1\n      jump\t// out\n        /* \"@openzeppelin/contracts/access/Ownable.sol\":1638:1723  function owner() public view virtual returns (address) {... */\n    tag_71:\n        /* \"@openzeppelin/contracts/access/Ownable.sol\":1684:1691  address */\n      0x00\n        /* \"@openzeppelin/contracts/access/Ownable.sol\":1710:1716  _owner */\n      0x05\n      0x00\n      swap1\n      sload\n      swap1\n      0x0100\n      exp\n      swap1\n      div\n      0xffffffffffffffffffffffffffffffffffffffff\n      and\n        /* \"@openzeppelin/contracts/access/Ownable.sol\":1703:1716  return _owner */\n      swap1\n      pop\n        /* \"@openzeppelin/contracts/access/Ownable.sol\":1638:1723  function owner() public view virtual returns (address) {... */\n      swap1\n      jump\t// out\n        /* \"@openzeppelin/contracts/token/ERC20/ERC20.sol\":1962:2055  function symbol() public view virtual returns (string memory) {... */\n    tag_74:\n        /* \"@openzeppelin/contracts/token/ERC20/ERC20.sol\":2009:2022  string memory */\n      0x60\n        /* \"@openzeppelin/contracts/token/ERC20/ERC20.sol\":2041:2048  _symbol */\n      0x04\n        /* \"@openzeppelin/contracts/token/ERC20/ERC20.sol\":2034:2048  return _symbol */\n      dup1\n      sload\n      tag_157\n      swap1\n      tag_99\n      jump\t// in\n    tag_157:\n      dup1\n      0x1f\n      add\n      0x20\n      dup1\n      swap2\n      div\n      mul\n      0x20\n      add\n      mload(0x40)\n      swap1\n      dup2\n      add\n      0x40\n      mstore\n      dup1\n      swap3\n      swap2\n      swap1\n      dup2\n      dup2\n      mstore\n      0x20\n      add\n      dup3\n      dup1\n      sload\n      tag_158\n      swap1\n      tag_99\n      jump\t// in\n    tag_158:\n      dup1\n      iszero\n      tag_159\n      jumpi\n      dup1\n      0x1f\n      lt\n      tag_160\n      jumpi\n      0x0100\n      dup1\n      dup4\n      sload\n      div\n      mul\n      dup4\n      mstore\n      swap2\n      0x20\n      add\n      swap2\n      jump(tag_159)\n    tag_160:\n      dup3\n      add\n      swap2\n      swap1\n      0x00\n      mstore\n      keccak256(0x00, 0x20)\n      swap1\n    tag_161:\n      dup2\n      sload\n      dup2\n      mstore\n      swap1\n      0x01\n      add\n      swap1\n      0x20\n      add\n      dup1\n      dup4\n      gt\n      tag_161\n      jumpi\n      dup3\n      swap1\n      sub\n      0x1f\n      and\n      dup3\n      add\n      swap2\n    tag_159:\n      pop\n      pop\n      pop\n      pop\n      pop\n      swap1\n      pop\n        /* \"@openzeppelin/contracts/token/ERC20/ERC20.sol\":1962:2055  function symbol() public view virtual returns (string memory) {... */\n      swap1\n      jump\t// out\n        /* \"@openzeppelin/contracts/token/ERC20/ERC20.sol\":3244:3422  function transfer(address to, uint256 value) public virtual returns (bool) {... */\n    tag_78:\n        /* \"@openzeppelin/contracts/token/ERC20/ERC20.sol\":3313:3317  bool */\n      0x00\n        /* \"@openzeppelin/contracts/token/ERC20/ERC20.sol\":3329:3342  address owner */\n      0x00\n        /* \"@openzeppelin/contracts/token/ERC20/ERC20.sol\":3345:3357  _msgSender() */\n      tag_163\n        /* \"@openzeppelin/contracts/token/ERC20/ERC20.sol\":3345:3355  _msgSender */\n      tag_106\n        /* \"@openzeppelin/contracts/token/ERC20/ERC20.sol\":3345:3357  _msgSender() */\n      jump\t// in\n    tag_163:\n        /* \"@openzeppelin/contracts/token/ERC20/ERC20.sol\":3329:3357  address owner = _msgSender() */\n      swap1\n      pop\n        /* \"@openzeppelin/contracts/token/ERC20/ERC20.sol\":3367:3394  _transfer(owner, to, value) */\n      tag_164\n        /* \"@openzeppelin/contracts/token/ERC20/ERC20.sol\":3377:3382  owner */\n      dup2\n        /* \"@openzeppelin/contracts/token/ERC20/ERC20.sol\":3384:3386  to */\n      dup6\n        /* \"@openzeppelin/contracts/token/ERC20/ERC20.sol\":3388:3393  value */\n      dup6\n        /* \"@openzeppelin/contracts/token/ERC20/ERC20.sol\":3367:3376  _transfer */\n      tag_121\n        /* \"@openzeppelin/contracts/token/ERC20/ERC20.sol\":3367:3394  _transfer(owner, to, value) */\n      jump\t// in\n    tag_164:\n        /* \"@openzeppelin/contracts/token/ERC20/ERC20.sol\":3411:3415  true */\n      0x01\n        /* \"@openzeppelin/contracts/token/ERC20/ERC20.sol\":3404:3415  return true */\n      swap2\n      pop\n      pop\n        /* \"@openzeppelin/contracts/token/ERC20/ERC20.sol\":3244:3422  function transfer(address to, uint256 value) public virtual returns (bool) {... */\n      swap3\n      swap2\n      pop\n      pop\n      jump\t// out\n        /* \"contracts/reward.sol\":1847:2256  function claimReward(uint256 amount) public {... */\n    tag_82:\n        /* \"contracts/reward.sol\":1924:1954  isTrustedForwarder(msg.sender) */\n      tag_166\n        /* \"contracts/reward.sol\":1943:1953  msg.sender */\n      caller\n        /* \"contracts/reward.sol\":1924:1942  isTrustedForwarder */\n      tag_58\n        /* \"contracts/reward.sol\":1924:1954  isTrustedForwarder(msg.sender) */\n      jump\t// in\n    tag_166:\n        /* \"contracts/reward.sol\":1924:1981  isTrustedForwarder(msg.sender) || _msgSender() == owner() */\n      dup1\n      tag_167\n      jumpi\n      pop\n        /* \"contracts/reward.sol\":1974:1981  owner() */\n      tag_168\n        /* \"contracts/reward.sol\":1974:1979  owner */\n      tag_71\n        /* \"contracts/reward.sol\":1974:1981  owner() */\n      jump\t// in\n    tag_168:\n        /* \"contracts/reward.sol\":1958:1981  _msgSender() == owner() */\n      0xffffffffffffffffffffffffffffffffffffffff\n      and\n        /* \"contracts/reward.sol\":1958:1970  _msgSender() */\n      tag_169\n        /* \"contracts/reward.sol\":1958:1968  _msgSender */\n      tag_106\n        /* \"contracts/reward.sol\":1958:1970  _msgSender() */\n      jump\t// in\n    tag_169:\n        /* \"contracts/reward.sol\":1958:1981  _msgSender() == owner() */\n      0xffffffffffffffffffffffffffffffffffffffff\n      and\n      eq\n        /* \"contracts/reward.sol\":1924:1981  isTrustedForwarder(msg.sender) || _msgSender() == owner() */\n    tag_167:\n        /* \"contracts/reward.sol\":1902:2068  require(... */\n      tag_170\n      jumpi\n      mload(0x40)\n      0x08c379a000000000000000000000000000000000000000000000000000000000\n      dup2\n      mstore\n      0x04\n      add\n      tag_171\n      swap1\n      tag_134\n      jump\t// in\n    tag_171:\n      mload(0x40)\n      dup1\n      swap2\n      sub\n      swap1\n      revert\n    tag_170:\n        /* \"contracts/reward.sol\":2109:2115  amount */\n      dup1\n        /* \"contracts/reward.sol\":2087:2105  balanceOf(owner()) */\n      tag_172\n        /* \"contracts/reward.sol\":2097:2104  owner() */\n      tag_173\n        /* \"contracts/reward.sol\":2097:2102  owner */\n      tag_71\n        /* \"contracts/reward.sol\":2097:2104  owner() */\n      jump\t// in\n    tag_173:\n        /* \"contracts/reward.sol\":2087:2096  balanceOf */\n      tag_62\n        /* \"contracts/reward.sol\":2087:2105  balanceOf(owner()) */\n      jump\t// in\n    tag_172:\n        /* \"contracts/reward.sol\":2087:2115  balanceOf(owner()) >= amount */\n      lt\n      iszero\n        /* \"contracts/reward.sol\":2079:2134  require(balanceOf(owner()) >= amount, \"Tokens run out\") */\n      tag_174\n      jumpi\n      mload(0x40)\n      0x08c379a000000000000000000000000000000000000000000000000000000000\n      dup2\n      mstore\n      0x04\n      add\n      tag_175\n      swap1\n      tag_176\n      jump\t// in\n    tag_175:\n      mload(0x40)\n      dup1\n      swap2\n      sub\n      swap1\n      revert\n    tag_174:\n        /* \"contracts/reward.sol\":2147:2167  uint256 rewardAmount */\n      0x00\n        /* \"contracts/reward.sol\":2170:2191  convertAmount(amount) */\n      tag_177\n        /* \"contracts/reward.sol\":2184:2190  amount */\n      dup3\n        /* \"contracts/reward.sol\":2170:2183  convertAmount */\n      tag_119\n        /* \"contracts/reward.sol\":2170:2191  convertAmount(amount) */\n      jump\t// in\n    tag_177:\n        /* \"contracts/reward.sol\":2147:2191  uint256 rewardAmount = convertAmount(amount) */\n      swap1\n      pop\n        /* \"contracts/reward.sol\":2202:2248  _transfer(owner(), _msgSender(), rewardAmount) */\n      tag_178\n        /* \"contracts/reward.sol\":2212:2219  owner() */\n      tag_179\n        /* \"contracts/reward.sol\":2212:2217  owner */\n      tag_71\n        /* \"contracts/reward.sol\":2212:2219  owner() */\n      jump\t// in\n    tag_179:\n        /* \"contracts/reward.sol\":2221:2233  _msgSender() */\n      tag_180\n        /* \"contracts/reward.sol\":2221:2231  _msgSender */\n      tag_106\n        /* \"contracts/reward.sol\":2221:2233  _msgSender() */\n      jump\t// in\n    tag_180:\n        /* \"contracts/reward.sol\":2235:2247  rewardAmount */\n      dup4\n        /* \"contracts/reward.sol\":2202:2211  _transfer */\n      tag_121\n        /* \"contracts/reward.sol\":2202:2248  _transfer(owner(), _msgSender(), rewardAmount) */\n      jump\t// in\n    tag_178:\n        /* \"contracts/reward.sol\":1891:2256  {... */\n      pop\n        /* \"contracts/reward.sol\":1847:2256  function claimReward(uint256 amount) public {... */\n      pop\n      jump\t// out\n        /* \"contracts/reward.sol\":1664:1839  function increaseSupply(uint256 amount) public onlyOwner {... */\n    tag_85:\n        /* \"@openzeppelin/contracts/access/Ownable.sol\":1531:1544  _checkOwner() */\n      tag_182\n        /* \"@openzeppelin/contracts/access/Ownable.sol\":1531:1542  _checkOwner */\n      tag_150\n        /* \"@openzeppelin/contracts/access/Ownable.sol\":1531:1544  _checkOwner() */\n      jump\t// in\n    tag_182:\n        /* \"contracts/reward.sol\":1732:1760  uint256 amountInSmallestUnit */\n      0x00\n        /* \"contracts/reward.sol\":1763:1784  convertAmount(amount) */\n      tag_184\n        /* \"contracts/reward.sol\":1777:1783  amount */\n      dup3\n        /* \"contracts/reward.sol\":1763:1776  convertAmount */\n      tag_119\n        /* \"contracts/reward.sol\":1763:1784  convertAmount(amount) */\n      jump\t// in\n    tag_184:\n        /* \"contracts/reward.sol\":1732:1784  uint256 amountInSmallestUnit = convertAmount(amount) */\n      swap1\n      pop\n        /* \"contracts/reward.sol\":1795:1831  _mint(owner(), amountInSmallestUnit) */\n      tag_185\n        /* \"contracts/reward.sol\":1801:1808  owner() */\n      tag_186\n        /* \"contracts/reward.sol\":1801:1806  owner */\n      tag_71\n        /* \"contracts/reward.sol\":1801:1808  owner() */\n      jump\t// in\n    tag_186:\n        /* \"contracts/reward.sol\":1810:1830  amountInSmallestUnit */\n      dup3\n        /* \"contracts/reward.sol\":1795:1800  _mint */\n      tag_187\n        /* \"contracts/reward.sol\":1795:1831  _mint(owner(), amountInSmallestUnit) */\n      jump\t// in\n    tag_185:\n        /* \"contracts/reward.sol\":1721:1839  {... */\n      pop\n        /* \"contracts/reward.sol\":1664:1839  function increaseSupply(uint256 amount) public onlyOwner {... */\n      pop\n      jump\t// out\n        /* \"@openzeppelin/contracts/token/ERC20/ERC20.sol\":3455:3595  function allowance(address owner, address spender) public view virtual returns (uint256) {... */\n    tag_89:\n        /* \"@openzeppelin/contracts/token/ERC20/ERC20.sol\":3535:3542  uint256 */\n      0x00\n        /* \"@openzeppelin/contracts/token/ERC20/ERC20.sol\":3561:3572  _allowances */\n      0x01\n        /* \"@openzeppelin/contracts/token/ERC20/ERC20.sol\":3561:3579  _allowances[owner] */\n      0x00\n        /* \"@openzeppelin/contracts/token/ERC20/ERC20.sol\":3573:3578  owner */\n      dup5\n        /* \"@openzeppelin/contracts/token/ERC20/ERC20.sol\":3561:3579  _allowances[owner] */\n      0xffffffffffffffffffffffffffffffffffffffff\n      and\n      0xffffffffffffffffffffffffffffffffffffffff\n      and\n      dup2\n      mstore\n      0x20\n      add\n      swap1\n      dup2\n      mstore\n      0x20\n      add\n      0x00\n      keccak256\n        /* \"@openzeppelin/contracts/token/ERC20/ERC20.sol\":3561:3588  _allowances[owner][spender] */\n      0x00\n        /* \"@openzeppelin/contracts/token/ERC20/ERC20.sol\":3580:3587  spender */\n      dup4\n        /* \"@openzeppelin/contracts/token/ERC20/ERC20.sol\":3561:3588  _allowances[owner][spender] */\n      0xffffffffffffffffffffffffffffffffffffffff\n      and\n      0xffffffffffffffffffffffffffffffffffffffff\n      and\n      dup2\n      mstore\n      0x20\n      add\n      swap1\n      dup2\n      mstore\n      0x20\n      add\n      0x00\n      keccak256\n      sload\n        /* \"@openzeppelin/contracts/token/ERC20/ERC20.sol\":3554:3588  return _allowances[owner][spender] */\n      swap1\n      pop\n        /* \"@openzeppelin/contracts/token/ERC20/ERC20.sol\":3455:3595  function allowance(address owner, address spender) public view virtual returns (uint256) {... */\n      swap3\n      swap2\n      pop\n      pop\n      jump\t// out\n        /* \"@openzeppelin/contracts/access/Ownable.sol\":2543:2758  function transferOwnership(address newOwner) public virtual onlyOwner {... */\n    tag_93:\n        /* \"@openzeppelin/contracts/access/Ownable.sol\":1531:1544  _checkOwner() */\n      tag_190\n        /* \"@openzeppelin/contracts/access/Ownable.sol\":1531:1542  _checkOwner */\n      tag_150\n        /* \"@openzeppelin/contracts/access/Ownable.sol\":1531:1544  _checkOwner() */\n      jump\t// in\n    tag_190:\n        /* \"@openzeppelin/contracts/access/Ownable.sol\":2647:2648  0 */\n      0x00\n        /* \"@openzeppelin/contracts/access/Ownable.sol\":2627:2649  newOwner == address(0) */\n      0xffffffffffffffffffffffffffffffffffffffff\n      and\n        /* \"@openzeppelin/contracts/access/Ownable.sol\":2627:2635  newOwner */\n      dup2\n        /* \"@openzeppelin/contracts/access/Ownable.sol\":2627:2649  newOwner == address(0) */\n      0xffffffffffffffffffffffffffffffffffffffff\n      and\n      sub\n        /* \"@openzeppelin/contracts/access/Ownable.sol\":2623:2714  if (newOwner == address(0)) {... */\n      tag_192\n      jumpi\n        /* \"@openzeppelin/contracts/access/Ownable.sol\":2700:2701  0 */\n      0x00\n        /* \"@openzeppelin/contracts/access/Ownable.sol\":2672:2703  OwnableInvalidOwner(address(0)) */\n      mload(0x40)\n      0x1e4fbdf700000000000000000000000000000000000000000000000000000000\n      dup2\n      mstore\n      0x04\n      add\n      tag_193\n      swap2\n      swap1\n      tag_69\n      jump\t// in\n    tag_193:\n      mload(0x40)\n      dup1\n      swap2\n      sub\n      swap1\n      revert\n        /* \"@openzeppelin/contracts/access/Ownable.sol\":2623:2714  if (newOwner == address(0)) {... */\n    tag_192:\n        /* \"@openzeppelin/contracts/access/Ownable.sol\":2723:2751  _transferOwnership(newOwner) */\n      tag_194\n        /* \"@openzeppelin/contracts/access/Ownable.sol\":2742:2750  newOwner */\n      dup2\n        /* \"@openzeppelin/contracts/access/Ownable.sol\":2723:2741  _transferOwnership */\n      tag_153\n        /* \"@openzeppelin/contracts/access/Ownable.sol\":2723:2751  _transferOwnership(newOwner) */\n      jump\t// in\n    tag_194:\n        /* \"@openzeppelin/contracts/access/Ownable.sol\":2543:2758  function transferOwnership(address newOwner) public virtual onlyOwner {... */\n      pop\n      jump\t// out\n        /* \"contracts/reward.sol\":2264:2660  function claimRewardPublic(address user_address, uint256 amount) public onlyOwner {... */\n    tag_96:\n        /* \"@openzeppelin/contracts/access/Ownable.sol\":1531:1544  _checkOwner() */\n      tag_196\n        /* \"@openzeppelin/contracts/access/Ownable.sol\":1531:1542  _checkOwner */\n      tag_150\n        /* \"@openzeppelin/contracts/access/Ownable.sol\":1531:1544  _checkOwner() */\n      jump\t// in\n    tag_196:\n        /* \"contracts/reward.sol\":2389:2390  0 */\n      0x00\n        /* \"contracts/reward.sol\":2365:2391  user_address != address(0) */\n      0xffffffffffffffffffffffffffffffffffffffff\n      and\n        /* \"contracts/reward.sol\":2365:2377  user_address */\n      dup3\n        /* \"contracts/reward.sol\":2365:2391  user_address != address(0) */\n      0xffffffffffffffffffffffffffffffffffffffff\n      and\n      sub\n        /* \"contracts/reward.sol\":2357:2433  require(user_address != address(0), \"New wallet cannot be the zero address\") */\n      tag_198\n      jumpi\n      mload(0x40)\n      0x08c379a000000000000000000000000000000000000000000000000000000000\n      dup2\n      mstore\n      0x04\n      add\n      tag_199\n      swap1\n      tag_113\n      jump\t// in\n    tag_199:\n      mload(0x40)\n      dup1\n      swap2\n      sub\n      swap1\n      revert\n    tag_198:\n        /* \"contracts/reward.sol\":2474:2480  amount */\n      dup1\n        /* \"contracts/reward.sol\":2452:2470  balanceOf(owner()) */\n      tag_200\n        /* \"contracts/reward.sol\":2462:2469  owner() */\n      tag_201\n        /* \"contracts/reward.sol\":2462:2467  owner */\n      tag_71\n        /* \"contracts/reward.sol\":2462:2469  owner() */\n      jump\t// in\n    tag_201:\n        /* \"contracts/reward.sol\":2452:2461  balanceOf */\n      tag_62\n        /* \"contracts/reward.sol\":2452:2470  balanceOf(owner()) */\n      jump\t// in\n    tag_200:\n        /* \"contracts/reward.sol\":2452:2480  balanceOf(owner()) >= amount */\n      lt\n      iszero\n        /* \"contracts/reward.sol\":2444:2499  require(balanceOf(owner()) >= amount, \"Tokens run out\") */\n      tag_202\n      jumpi\n      mload(0x40)\n      0x08c379a000000000000000000000000000000000000000000000000000000000\n      dup2\n      mstore\n      0x04\n      add\n      tag_203\n      swap1\n      tag_176\n      jump\t// in\n    tag_203:\n      mload(0x40)\n      dup1\n      swap2\n      sub\n      swap1\n      revert\n    tag_202:\n        /* \"contracts/reward.sol\":2510:2524  address sender */\n      0x00\n        /* \"contracts/reward.sol\":2527:2537  msg.sender */\n      caller\n        /* \"contracts/reward.sol\":2510:2537  address sender = msg.sender */\n      swap1\n      pop\n        /* \"contracts/reward.sol\":2550:2570  uint256 rewardAmount */\n      0x00\n        /* \"contracts/reward.sol\":2573:2594  convertAmount(amount) */\n      tag_204\n        /* \"contracts/reward.sol\":2587:2593  amount */\n      dup4\n        /* \"contracts/reward.sol\":2573:2586  convertAmount */\n      tag_119\n        /* \"contracts/reward.sol\":2573:2594  convertAmount(amount) */\n      jump\t// in\n    tag_204:\n        /* \"contracts/reward.sol\":2550:2594  uint256 rewardAmount = convertAmount(amount) */\n      swap1\n      pop\n        /* \"contracts/reward.sol\":2607:2652  _transfer(sender, user_address, rewardAmount) */\n      tag_205\n        /* \"contracts/reward.sol\":2617:2623  sender */\n      dup3\n        /* \"contracts/reward.sol\":2625:2637  user_address */\n      dup6\n        /* \"contracts/reward.sol\":2639:2651  rewardAmount */\n      dup4\n        /* \"contracts/reward.sol\":2607:2616  _transfer */\n      tag_121\n        /* \"contracts/reward.sol\":2607:2652  _transfer(sender, user_address, rewardAmount) */\n      jump\t// in\n    tag_205:\n        /* \"contracts/reward.sol\":2346:2660  {... */\n      pop\n      pop\n        /* \"contracts/reward.sol\":2264:2660  function claimRewardPublic(address user_address, uint256 amount) public onlyOwner {... */\n      pop\n      pop\n      jump\t// out\n        /* \"contracts/reward.sol\":950:1128  function _msgSender() ... */\n    tag_106:\n        /* \"contracts/reward.sol\":1069:1076  address */\n      0x00\n        /* \"contracts/reward.sol\":1102:1120  super._msgSender() */\n      tag_207\n        /* \"contracts/reward.sol\":1102:1118  super._msgSender */\n      tag_208\n        /* \"contracts/reward.sol\":1102:1120  super._msgSender() */\n      jump\t// in\n    tag_207:\n        /* \"contracts/reward.sol\":1095:1120  return super._msgSender() */\n      swap1\n      pop\n        /* \"contracts/reward.sol\":950:1128  function _msgSender() ... */\n      swap1\n      jump\t// out\n        /* \"@openzeppelin/contracts/token/ERC20/ERC20.sol\":8630:8758  function _approve(address owner, address spender, uint256 value) internal {... */\n    tag_108:\n        /* \"@openzeppelin/contracts/token/ERC20/ERC20.sol\":8714:8751  _approve(owner, spender, value, true) */\n      tag_210\n        /* \"@openzeppelin/contracts/token/ERC20/ERC20.sol\":8723:8728  owner */\n      dup4\n        /* \"@openzeppelin/contracts/token/ERC20/ERC20.sol\":8730:8737  spender */\n      dup4\n        /* \"@openzeppelin/contracts/token/ERC20/ERC20.sol\":8739:8744  value */\n      dup4\n        /* \"@openzeppelin/contracts/token/ERC20/ERC20.sol\":8746:8750  true */\n      0x01\n        /* \"@openzeppelin/contracts/token/ERC20/ERC20.sol\":8714:8722  _approve */\n      tag_211\n        /* \"@openzeppelin/contracts/token/ERC20/ERC20.sol\":8714:8751  _approve(owner, spender, value, true) */\n      jump\t// in\n    tag_210:\n        /* \"@openzeppelin/contracts/token/ERC20/ERC20.sol\":8630:8758  function _approve(address owner, address spender, uint256 value) internal {... */\n      pop\n      pop\n      pop\n      jump\t// out\n        /* \"contracts/reward.sol\":1537:1656  function convertAmount(uint256 amount) private view returns (uint256) {... */\n    tag_119:\n        /* \"contracts/reward.sol\":1598:1605  uint256 */\n      0x00\n        /* \"contracts/reward.sol\":1638:1648  decimals() */\n      tag_213\n        /* \"contracts/reward.sol\":1638:1646  decimals */\n      tag_52\n        /* \"contracts/reward.sol\":1638:1648  decimals() */\n      jump\t// in\n    tag_213:\n        /* \"contracts/reward.sol\":1634:1636  10 */\n      0x0a\n        /* \"contracts/reward.sol\":1634:1648  10**decimals() */\n      tag_214\n      swap2\n      swap1\n      tag_215\n      jump\t// in\n    tag_214:\n        /* \"contracts/reward.sol\":1625:1631  amount */\n      dup3\n        /* \"contracts/reward.sol\":1625:1648  amount * 10**decimals() */\n      tag_216\n      swap2\n      swap1\n      tag_217\n      jump\t// in\n    tag_216:\n        /* \"contracts/reward.sol\":1618:1648  return amount * 10**decimals() */\n      swap1\n      pop\n        /* \"contracts/reward.sol\":1537:1656  function convertAmount(uint256 amount) private view returns (uint256) {... */\n      swap2\n      swap1\n      pop\n      jump\t// out\n        /* \"@openzeppelin/contracts/token/ERC20/ERC20.sol\":5297:5597  function _transfer(address from, address to, uint256 value) internal {... */\n    tag_121:\n        /* \"@openzeppelin/contracts/token/ERC20/ERC20.sol\":5396:5397  0 */\n      0x00\n        /* \"@openzeppelin/contracts/token/ERC20/ERC20.sol\":5380:5398  from == address(0) */\n      0xffffffffffffffffffffffffffffffffffffffff\n      and\n        /* \"@openzeppelin/contracts/token/ERC20/ERC20.sol\":5380:5384  from */\n      dup4\n        /* \"@openzeppelin/contracts/token/ERC20/ERC20.sol\":5380:5398  from == address(0) */\n      0xffffffffffffffffffffffffffffffffffffffff\n      and\n      sub\n        /* \"@openzeppelin/contracts/token/ERC20/ERC20.sol\":5376:5462  if (from == address(0)) {... */\n      tag_219\n      jumpi\n        /* \"@openzeppelin/contracts/token/ERC20/ERC20.sol\":5448:5449  0 */\n      0x00\n        /* \"@openzeppelin/contracts/token/ERC20/ERC20.sol\":5421:5451  ERC20InvalidSender(address(0)) */\n      mload(0x40)\n      0x96c6fd1e00000000000000000000000000000000000000000000000000000000\n      dup2\n      mstore\n      0x04\n      add\n      tag_220\n      swap2\n      swap1\n      tag_69\n      jump\t// in\n    tag_220:\n      mload(0x40)\n      dup1\n      swap2\n      sub\n      swap1\n      revert\n        /* \"@openzeppelin/contracts/token/ERC20/ERC20.sol\":5376:5462  if (from == address(0)) {... */\n    tag_219:\n        /* \"@openzeppelin/contracts/token/ERC20/ERC20.sol\":5489:5490  0 */\n      0x00\n        /* \"@openzeppelin/contracts/token/ERC20/ERC20.sol\":5475:5491  to == address(0) */\n      0xffffffffffffffffffffffffffffffffffffffff\n      and\n        /* \"@openzeppelin/contracts/token/ERC20/ERC20.sol\":5475:5477  to */\n      dup3\n        /* \"@openzeppelin/contracts/token/ERC20/ERC20.sol\":5475:5491  to == address(0) */\n      0xffffffffffffffffffffffffffffffffffffffff\n      and\n      sub\n        /* \"@openzeppelin/contracts/token/ERC20/ERC20.sol\":5471:5557  if (to == address(0)) {... */\n      tag_221\n      jumpi\n        /* \"@openzeppelin/contracts/token/ERC20/ERC20.sol\":5543:5544  0 */\n      0x00\n        /* \"@openzeppelin/contracts/token/ERC20/ERC20.sol\":5514:5546  ERC20InvalidReceiver(address(0)) */\n      mload(0x40)\n      0xec442f0500000000000000000000000000000000000000000000000000000000\n      dup2\n      mstore\n      0x04\n      add\n      tag_222\n      swap2\n      swap1\n      tag_69\n      jump\t// in\n    tag_222:\n      mload(0x40)\n      dup1\n      swap2\n      sub\n      swap1\n      revert\n        /* \"@openzeppelin/contracts/token/ERC20/ERC20.sol\":5471:5557  if (to == address(0)) {... */\n    tag_221:\n        /* \"@openzeppelin/contracts/token/ERC20/ERC20.sol\":5566:5590  _update(from, to, value) */\n      tag_223\n        /* \"@openzeppelin/contracts/token/ERC20/ERC20.sol\":5574:5578  from */\n      dup4\n        /* \"@openzeppelin/contracts/token/ERC20/ERC20.sol\":5580:5582  to */\n      dup4\n        /* \"@openzeppelin/contracts/token/ERC20/ERC20.sol\":5584:5589  value */\n      dup4\n        /* \"@openzeppelin/contracts/token/ERC20/ERC20.sol\":5566:5573  _update */\n      tag_224\n        /* \"@openzeppelin/contracts/token/ERC20/ERC20.sol\":5566:5590  _update(from, to, value) */\n      jump\t// in\n    tag_223:\n        /* \"@openzeppelin/contracts/token/ERC20/ERC20.sol\":5297:5597  function _transfer(address from, address to, uint256 value) internal {... */\n      pop\n      pop\n      pop\n      jump\t// out\n        /* \"@openzeppelin/contracts/token/ERC20/ERC20.sol\":10319:10795  function _spendAllowance(address owner, address spender, uint256 value) internal virtual {... */\n    tag_125:\n        /* \"@openzeppelin/contracts/token/ERC20/ERC20.sol\":10418:10442  uint256 currentAllowance */\n      0x00\n        /* \"@openzeppelin/contracts/token/ERC20/ERC20.sol\":10445:10470  allowance(owner, spender) */\n      tag_226\n        /* \"@openzeppelin/contracts/token/ERC20/ERC20.sol\":10455:10460  owner */\n      dup5\n        /* \"@openzeppelin/contracts/token/ERC20/ERC20.sol\":10462:10469  spender */\n      dup5\n        /* \"@openzeppelin/contracts/token/ERC20/ERC20.sol\":10445:10454  allowance */\n      tag_89\n        /* \"@openzeppelin/contracts/token/ERC20/ERC20.sol\":10445:10470  allowance(owner, spender) */\n      jump\t// in\n    tag_226:\n        /* \"@openzeppelin/contracts/token/ERC20/ERC20.sol\":10418:10470  uint256 currentAllowance = allowance(owner, spender) */\n      swap1\n      pop\n        /* \"@openzeppelin/contracts/token/ERC20/ERC20.sol\":10503:10520  type(uint256).max */\n      0xffffffffffffffffffffffffffffffffffffffffffffffffffffffffffffffff\n        /* \"@openzeppelin/contracts/token/ERC20/ERC20.sol\":10484:10500  currentAllowance */\n      dup2\n        /* \"@openzeppelin/contracts/token/ERC20/ERC20.sol\":10484:10520  currentAllowance < type(uint256).max */\n      lt\n        /* \"@openzeppelin/contracts/token/ERC20/ERC20.sol\":10480:10789  if (currentAllowance < type(uint256).max) {... */\n      iszero\n      tag_227\n      jumpi\n        /* \"@openzeppelin/contracts/token/ERC20/ERC20.sol\":10559:10564  value */\n      dup2\n        /* \"@openzeppelin/contracts/token/ERC20/ERC20.sol\":10540:10556  currentAllowance */\n      dup2\n        /* \"@openzeppelin/contracts/token/ERC20/ERC20.sol\":10540:10564  currentAllowance < value */\n      lt\n        /* \"@openzeppelin/contracts/token/ERC20/ERC20.sol\":10536:10666  if (currentAllowance < value) {... */\n      iszero\n      tag_228\n      jumpi\n        /* \"@openzeppelin/contracts/token/ERC20/ERC20.sol\":10618:10625  spender */\n      dup3\n        /* \"@openzeppelin/contracts/token/ERC20/ERC20.sol\":10627:10643  currentAllowance */\n      dup2\n        /* \"@openzeppelin/contracts/token/ERC20/ERC20.sol\":10645:10650  value */\n      dup4\n        /* \"@openzeppelin/contracts/token/ERC20/ERC20.sol\":10591:10651  ERC20InsufficientAllowance(spender, currentAllowance, value) */\n      mload(0x40)\n      0xfb8f41b200000000000000000000000000000000000000000000000000000000\n      dup2\n      mstore\n      0x04\n      add\n      tag_229\n      swap4\n      swap3\n      swap2\n      swap1\n      tag_230\n      jump\t// in\n    tag_229:\n      mload(0x40)\n      dup1\n      swap2\n      sub\n      swap1\n      revert\n        /* \"@openzeppelin/contracts/token/ERC20/ERC20.sol\":10536:10666  if (currentAllowance < value) {... */\n    tag_228:\n        /* \"@openzeppelin/contracts/token/ERC20/ERC20.sol\":10707:10764  _approve(owner, spender, currentAllowance - value, false) */\n      tag_231\n        /* \"@openzeppelin/contracts/token/ERC20/ERC20.sol\":10716:10721  owner */\n      dup5\n        /* \"@openzeppelin/contracts/token/ERC20/ERC20.sol\":10723:10730  spender */\n      dup5\n        /* \"@openzeppelin/contracts/token/ERC20/ERC20.sol\":10751:10756  value */\n      dup5\n        /* \"@openzeppelin/contracts/token/ERC20/ERC20.sol\":10732:10748  currentAllowance */\n      dup5\n        /* \"@openzeppelin/contracts/token/ERC20/ERC20.sol\":10732:10756  currentAllowance - value */\n      sub\n        /* \"@openzeppelin/contracts/token/ERC20/ERC20.sol\":10758:10763  false */\n      0x00\n        /* \"@openzeppelin/contracts/token/ERC20/ERC20.sol\":10707:10715  _approve */\n      tag_211\n        /* \"@openzeppelin/contracts/token/ERC20/ERC20.sol\":10707:10764  _approve(owner, spender, currentAllowance - value, false) */\n      jump\t// in\n    tag_231:\n        /* \"@openzeppelin/contracts/token/ERC20/ERC20.sol\":10480:10789  if (currentAllowance < type(uint256).max) {... */\n    tag_227:\n        /* \"@openzeppelin/contracts/token/ERC20/ERC20.sol\":10408:10795  {... */\n      pop\n        /* \"@openzeppelin/contracts/token/ERC20/ERC20.sol\":10319:10795  function _spendAllowance(address owner, address spender, uint256 value) internal virtual {... */\n      pop\n      pop\n      pop\n      jump\t// out\n        /* \"@openzeppelin/contracts/metatx/ERC2771Context.sol\":1832:1969  function isTrustedForwarder(address forwarder) public view virtual returns (bool) {... */\n    tag_146:\n        /* \"@openzeppelin/contracts/metatx/ERC2771Context.sol\":1908:1912  bool */\n      0x00\n        /* \"@openzeppelin/contracts/metatx/ERC2771Context.sol\":1944:1962  trustedForwarder() */\n      tag_233\n        /* \"@openzeppelin/contracts/metatx/ERC2771Context.sol\":1944:1960  trustedForwarder */\n      tag_67\n        /* \"@openzeppelin/contracts/metatx/ERC2771Context.sol\":1944:1962  trustedForwarder() */\n      jump\t// in\n    tag_233:\n        /* \"@openzeppelin/contracts/metatx/ERC2771Context.sol\":1931:1962  forwarder == trustedForwarder() */\n      0xffffffffffffffffffffffffffffffffffffffff\n      and\n        /* \"@openzeppelin/contracts/metatx/ERC2771Context.sol\":1931:1940  forwarder */\n      dup3\n        /* \"@openzeppelin/contracts/metatx/ERC2771Context.sol\":1931:1962  forwarder == trustedForwarder() */\n      0xffffffffffffffffffffffffffffffffffffffff\n      and\n      eq\n        /* \"@openzeppelin/contracts/metatx/ERC2771Context.sol\":1924:1962  return forwarder == trustedForwarder() */\n      swap1\n      pop\n        /* \"@openzeppelin/contracts/metatx/ERC2771Context.sol\":1832:1969  function isTrustedForwarder(address forwarder) public view virtual returns (bool) {... */\n      swap2\n      swap1\n      pop\n      jump\t// out\n        /* \"@openzeppelin/contracts/access/Ownable.sol\":1796:1958  function _checkOwner() internal view virtual {... */\n    tag_150:\n        /* \"@openzeppelin/contracts/access/Ownable.sol\":1866:1878  _msgSender() */\n      tag_235\n        /* \"@openzeppelin/contracts/access/Ownable.sol\":1866:1876  _msgSender */\n      tag_106\n        /* \"@openzeppelin/contracts/access/Ownable.sol\":1866:1878  _msgSender() */\n      jump\t// in\n    tag_235:\n        /* \"@openzeppelin/contracts/access/Ownable.sol\":1855:1878  owner() != _msgSender() */\n      0xffffffffffffffffffffffffffffffffffffffff\n      and\n        /* \"@openzeppelin/contracts/access/Ownable.sol\":1855:1862  owner() */\n      tag_236\n        /* \"@openzeppelin/contracts/access/Ownable.sol\":1855:1860  owner */\n      tag_71\n        /* \"@openzeppelin/contracts/access/Ownable.sol\":1855:1862  owner() */\n      jump\t// in\n    tag_236:\n        /* \"@openzeppelin/contracts/access/Ownable.sol\":1855:1878  owner() != _msgSender() */\n      0xffffffffffffffffffffffffffffffffffffffff\n      and\n      eq\n        /* \"@openzeppelin/contracts/access/Ownable.sol\":1851:1952  if (owner() != _msgSender()) {... */\n      tag_237\n      jumpi\n        /* \"@openzeppelin/contracts/access/Ownable.sol\":1928:1940  _msgSender() */\n      tag_238\n        /* \"@openzeppelin/contracts/access/Ownable.sol\":1928:1938  _msgSender */\n      tag_106\n        /* \"@openzeppelin/contracts/access/Ownable.sol\":1928:1940  _msgSender() */\n      jump\t// in\n    tag_238:\n        /* \"@openzeppelin/contracts/access/Ownable.sol\":1901:1941  OwnableUnauthorizedAccount(_msgSender()) */\n      mload(0x40)\n      0x118cdaa700000000000000000000000000000000000000000000000000000000\n      dup2\n      mstore\n      0x04\n      add\n      tag_239\n      swap2\n      swap1\n      tag_69\n      jump\t// in\n    tag_239:\n      mload(0x40)\n      dup1\n      swap2\n      sub\n      swap1\n      revert\n        /* \"@openzeppelin/contracts/access/Ownable.sol\":1851:1952  if (owner() != _msgSender()) {... */\n    tag_237:\n        /* \"@openzeppelin/contracts/access/Ownable.sol\":1796:1958  function _checkOwner() internal view virtual {... */\n      jump\t// out\n        /* \"@openzeppelin/contracts/access/Ownable.sol\":2912:3099  function _transferOwnership(address newOwner) internal virtual {... */\n    tag_153:\n        /* \"@openzeppelin/contracts/access/Ownable.sol\":2985:3001  address oldOwner */\n      0x00\n        /* \"@openzeppelin/contracts/access/Ownable.sol\":3004:3010  _owner */\n      0x05\n      0x00\n      swap1\n      sload\n      swap1\n      0x0100\n      exp\n      swap1\n      div\n      0xffffffffffffffffffffffffffffffffffffffff\n      and\n        /* \"@openzeppelin/contracts/access/Ownable.sol\":2985:3010  address oldOwner = _owner */\n      swap1\n      pop\n        /* \"@openzeppelin/contracts/access/Ownable.sol\":3029:3037  newOwner */\n      dup2\n        /* \"@openzeppelin/contracts/access/Ownable.sol\":3020:3026  _owner */\n      0x05\n      0x00\n        /* \"@openzeppelin/contracts/access/Ownable.sol\":3020:3037  _owner = newOwner */\n      0x0100\n      exp\n      dup2\n      sload\n      dup2\n      0xffffffffffffffffffffffffffffffffffffffff\n      mul\n      not\n      and\n      swap1\n      dup4\n      0xffffffffffffffffffffffffffffffffffffffff\n      and\n      mul\n      or\n      swap1\n      sstore\n      pop\n        /* \"@openzeppelin/contracts/access/Ownable.sol\":3083:3091  newOwner */\n      dup2\n        /* \"@openzeppelin/contracts/access/Ownable.sol\":3052:3092  OwnershipTransferred(oldOwner, newOwner) */\n      0xffffffffffffffffffffffffffffffffffffffff\n      and\n        /* \"@openzeppelin/contracts/access/Ownable.sol\":3073:3081  oldOwner */\n      dup2\n        /* \"@openzeppelin/contracts/access/Ownable.sol\":3052:3092  OwnershipTransferred(oldOwner, newOwner) */\n      0xffffffffffffffffffffffffffffffffffffffff\n      and\n      0x8be0079c531659141344cd1fd0a4f28419497f9722a3daafe3b4186f6b6457e0\n      mload(0x40)\n      mload(0x40)\n      dup1\n      swap2\n      sub\n      swap1\n      log3\n        /* \"@openzeppelin/contracts/access/Ownable.sol\":2975:3099  {... */\n      pop\n        /* \"@openzeppelin/contracts/access/Ownable.sol\":2912:3099  function _transferOwnership(address newOwner) internal virtual {... */\n      pop\n      jump\t// out\n        /* \"@openzeppelin/contracts/token/ERC20/ERC20.sol\":7362:7570  function _mint(address account, uint256 value) internal {... */\n    tag_187:\n        /* \"@openzeppelin/contracts/token/ERC20/ERC20.sol\":7451:7452  0 */\n      0x00\n        /* \"@openzeppelin/contracts/token/ERC20/ERC20.sol\":7432:7453  account == address(0) */\n      0xffffffffffffffffffffffffffffffffffffffff\n      and\n        /* \"@openzeppelin/contracts/token/ERC20/ERC20.sol\":7432:7439  account */\n      dup3\n        /* \"@openzeppelin/contracts/token/ERC20/ERC20.sol\":7432:7453  account == address(0) */\n      0xffffffffffffffffffffffffffffffffffffffff\n      and\n      sub\n        /* \"@openzeppelin/contracts/token/ERC20/ERC20.sol\":7428:7519  if (account == address(0)) {... */\n      tag_242\n      jumpi\n        /* \"@openzeppelin/contracts/token/ERC20/ERC20.sol\":7505:7506  0 */\n      0x00\n        /* \"@openzeppelin/contracts/token/ERC20/ERC20.sol\":7476:7508  ERC20InvalidReceiver(address(0)) */\n      mload(0x40)\n      0xec442f0500000000000000000000000000000000000000000000000000000000\n      dup2\n      mstore\n      0x04\n      add\n      tag_243\n      swap2\n      swap1\n      tag_69\n      jump\t// in\n    tag_243:\n      mload(0x40)\n      dup1\n      swap2\n      sub\n      swap1\n      revert\n        /* \"@openzeppelin/contracts/token/ERC20/ERC20.sol\":7428:7519  if (account == address(0)) {... */\n    tag_242:\n        /* \"@openzeppelin/contracts/token/ERC20/ERC20.sol\":7528:7563  _update(address(0), account, value) */\n      tag_244\n        /* \"@openzeppelin/contracts/token/ERC20/ERC20.sol\":7544:7545  0 */\n      0x00\n        /* \"@openzeppelin/contracts/token/ERC20/ERC20.sol\":7548:7555  account */\n      dup4\n        /* \"@openzeppelin/contracts/token/ERC20/ERC20.sol\":7557:7562  value */\n      dup4\n        /* \"@openzeppelin/contracts/token/ERC20/ERC20.sol\":7528:7535  _update */\n      tag_224\n        /* \"@openzeppelin/contracts/token/ERC20/ERC20.sol\":7528:7563  _update(address(0), account, value) */\n      jump\t// in\n    tag_244:\n        /* \"@openzeppelin/contracts/token/ERC20/ERC20.sol\":7362:7570  function _mint(address account, uint256 value) internal {... */\n      pop\n      pop\n      jump\t// out\n        /* \"@openzeppelin/contracts/metatx/ERC2771Context.sol\":2206:2677  function _msgSender() internal view virtual override returns (address) {... */\n    tag_208:\n        /* \"@openzeppelin/contracts/metatx/ERC2771Context.sol\":2268:2275  address */\n      0x00\n        /* \"@openzeppelin/contracts/metatx/ERC2771Context.sol\":2287:2309  uint256 calldataLength */\n      0x00\n        /* \"@openzeppelin/contracts/metatx/ERC2771Context.sol\":2312:2320  msg.data */\n      0x00\n      calldatasize\n        /* \"@openzeppelin/contracts/metatx/ERC2771Context.sol\":2312:2327  msg.data.length */\n      swap1\n      pop\n        /* \"@openzeppelin/contracts/metatx/ERC2771Context.sol\":2287:2327  uint256 calldataLength = msg.data.length */\n      swap1\n      pop\n        /* \"@openzeppelin/contracts/metatx/ERC2771Context.sol\":2337:2364  uint256 contextSuffixLength */\n      0x00\n        /* \"@openzeppelin/contracts/metatx/ERC2771Context.sol\":2367:2389  _contextSuffixLength() */\n      tag_246\n        /* \"@openzeppelin/contracts/metatx/ERC2771Context.sol\":2367:2387  _contextSuffixLength */\n      tag_247\n        /* \"@openzeppelin/contracts/metatx/ERC2771Context.sol\":2367:2389  _contextSuffixLength() */\n      jump\t// in\n    tag_246:\n        /* \"@openzeppelin/contracts/metatx/ERC2771Context.sol\":2337:2389  uint256 contextSuffixLength = _contextSuffixLength() */\n      swap1\n      pop\n        /* \"@openzeppelin/contracts/metatx/ERC2771Context.sol\":2421:2440  contextSuffixLength */\n      dup1\n        /* \"@openzeppelin/contracts/metatx/ERC2771Context.sol\":2403:2417  calldataLength */\n      dup3\n        /* \"@openzeppelin/contracts/metatx/ERC2771Context.sol\":2403:2440  calldataLength >= contextSuffixLength */\n      lt\n      iszero\n        /* \"@openzeppelin/contracts/metatx/ERC2771Context.sol\":2403:2474  calldataLength >= contextSuffixLength && isTrustedForwarder(msg.sender) */\n      dup1\n      iszero\n      tag_248\n      jumpi\n      pop\n        /* \"@openzeppelin/contracts/metatx/ERC2771Context.sol\":2444:2474  isTrustedForwarder(msg.sender) */\n      tag_249\n        /* \"@openzeppelin/contracts/metatx/ERC2771Context.sol\":2463:2473  msg.sender */\n      caller\n        /* \"@openzeppelin/contracts/metatx/ERC2771Context.sol\":2444:2462  isTrustedForwarder */\n      tag_58\n        /* \"@openzeppelin/contracts/metatx/ERC2771Context.sol\":2444:2474  isTrustedForwarder(msg.sender) */\n      jump\t// in\n    tag_249:\n        /* \"@openzeppelin/contracts/metatx/ERC2771Context.sol\":2403:2474  calldataLength >= contextSuffixLength && isTrustedForwarder(msg.sender) */\n    tag_248:\n        /* \"@openzeppelin/contracts/metatx/ERC2771Context.sol\":2399:2671  if (calldataLength >= contextSuffixLength && isTrustedForwarder(msg.sender)) {... */\n      iszero\n      tag_250\n      jumpi\n        /* \"@openzeppelin/contracts/metatx/ERC2771Context.sol\":2541:2549  msg.data */\n      0x00\n      calldatasize\n        /* \"@openzeppelin/contracts/metatx/ERC2771Context.sol\":2567:2586  contextSuffixLength */\n      dup3\n        /* \"@openzeppelin/contracts/metatx/ERC2771Context.sol\":2550:2564  calldataLength */\n      dup5\n        /* \"@openzeppelin/contracts/metatx/ERC2771Context.sol\":2550:2586  calldataLength - contextSuffixLength */\n      sub\n        /* \"@openzeppelin/contracts/metatx/ERC2771Context.sol\":2541:2588  msg.data[calldataLength - contextSuffixLength:] */\n      swap1\n      dup1\n      swap3\n      tag_251\n      swap4\n      swap3\n      swap2\n      swap1\n      tag_252\n      jump\t// in\n    tag_251:\n        /* \"@openzeppelin/contracts/metatx/ERC2771Context.sol\":2533:2589  bytes20(msg.data[calldataLength - contextSuffixLength:]) */\n      swap1\n      tag_253\n      swap2\n      swap1\n      tag_254\n      jump\t// in\n    tag_253:\n        /* \"@openzeppelin/contracts/metatx/ERC2771Context.sol\":2525:2590  address(bytes20(msg.data[calldataLength - contextSuffixLength:])) */\n      0x60\n      shr\n        /* \"@openzeppelin/contracts/metatx/ERC2771Context.sol\":2518:2590  return address(bytes20(msg.data[calldataLength - contextSuffixLength:])) */\n      swap3\n      pop\n      pop\n      pop\n      jump(tag_245)\n        /* \"@openzeppelin/contracts/metatx/ERC2771Context.sol\":2399:2671  if (calldataLength >= contextSuffixLength && isTrustedForwarder(msg.sender)) {... */\n    tag_250:\n        /* \"@openzeppelin/contracts/metatx/ERC2771Context.sol\":2642:2660  super._msgSender() */\n      tag_256\n        /* \"@openzeppelin/contracts/metatx/ERC2771Context.sol\":2642:2658  super._msgSender */\n      tag_257\n        /* \"@openzeppelin/contracts/metatx/ERC2771Context.sol\":2642:2660  super._msgSender() */\n      jump\t// in\n    tag_256:\n        /* \"@openzeppelin/contracts/metatx/ERC2771Context.sol\":2635:2660  return super._msgSender() */\n      swap3\n      pop\n      pop\n      pop\n        /* \"@openzeppelin/contracts/metatx/ERC2771Context.sol\":2206:2677  function _msgSender() internal view virtual override returns (address) {... */\n    tag_245:\n      swap1\n      jump\t// out\n        /* \"@openzeppelin/contracts/token/ERC20/ERC20.sol\":9605:10037  function _approve(address owner, address spender, uint256 value, bool emitEvent) internal virtual {... */\n    tag_211:\n        /* \"@openzeppelin/contracts/token/ERC20/ERC20.sol\":9734:9735  0 */\n      0x00\n        /* \"@openzeppelin/contracts/token/ERC20/ERC20.sol\":9717:9736  owner == address(0) */\n      0xffffffffffffffffffffffffffffffffffffffff\n      and\n        /* \"@openzeppelin/contracts/token/ERC20/ERC20.sol\":9717:9722  owner */\n      dup5\n        /* \"@openzeppelin/contracts/token/ERC20/ERC20.sol\":9717:9736  owner == address(0) */\n      0xffffffffffffffffffffffffffffffffffffffff\n      and\n      sub\n        /* \"@openzeppelin/contracts/token/ERC20/ERC20.sol\":9713:9802  if (owner == address(0)) {... */\n      tag_259\n      jumpi\n        /* \"@openzeppelin/contracts/token/ERC20/ERC20.sol\":9788:9789  0 */\n      0x00\n        /* \"@openzeppelin/contracts/token/ERC20/ERC20.sol\":9759:9791  ERC20InvalidApprover(address(0)) */\n      mload(0x40)\n      0xe602df0500000000000000000000000000000000000000000000000000000000\n      dup2\n      mstore\n      0x04\n      add\n      tag_260\n      swap2\n      swap1\n      tag_69\n      jump\t// in\n    tag_260:\n      mload(0x40)\n      dup1\n      swap2\n      sub\n      swap1\n      revert\n        /* \"@openzeppelin/contracts/token/ERC20/ERC20.sol\":9713:9802  if (owner == address(0)) {... */\n    tag_259:\n        /* \"@openzeppelin/contracts/token/ERC20/ERC20.sol\":9834:9835  0 */\n      0x00\n        /* \"@openzeppelin/contracts/token/ERC20/ERC20.sol\":9815:9836  spender == address(0) */\n      0xffffffffffffffffffffffffffffffffffffffff\n      and\n        /* \"@openzeppelin/contracts/token/ERC20/ERC20.sol\":9815:9822  spender */\n      dup4\n        /* \"@openzeppelin/contracts/token/ERC20/ERC20.sol\":9815:9836  spender == address(0) */\n      0xffffffffffffffffffffffffffffffffffffffff\n      and\n      sub\n        /* \"@openzeppelin/contracts/token/ERC20/ERC20.sol\":9811:9901  if (spender == address(0)) {... */\n      tag_261\n      jumpi\n        /* \"@openzeppelin/contracts/token/ERC20/ERC20.sol\":9887:9888  0 */\n      0x00\n        /* \"@openzeppelin/contracts/token/ERC20/ERC20.sol\":9859:9890  ERC20InvalidSpender(address(0)) */\n      mload(0x40)\n      0x94280d6200000000000000000000000000000000000000000000000000000000\n      dup2\n      mstore\n      0x04\n      add\n      tag_262\n      swap2\n      swap1\n      tag_69\n      jump\t// in\n    tag_262:\n      mload(0x40)\n      dup1\n      swap2\n      sub\n      swap1\n      revert\n        /* \"@openzeppelin/contracts/token/ERC20/ERC20.sol\":9811:9901  if (spender == address(0)) {... */\n    tag_261:\n        /* \"@openzeppelin/contracts/token/ERC20/ERC20.sol\":9940:9945  value */\n      dup2\n        /* \"@openzeppelin/contracts/token/ERC20/ERC20.sol\":9910:9921  _allowances */\n      0x01\n        /* \"@openzeppelin/contracts/token/ERC20/ERC20.sol\":9910:9928  _allowances[owner] */\n      0x00\n        /* \"@openzeppelin/contracts/token/ERC20/ERC20.sol\":9922:9927  owner */\n      dup7\n        /* \"@openzeppelin/contracts/token/ERC20/ERC20.sol\":9910:9928  _allowances[owner] */\n      0xffffffffffffffffffffffffffffffffffffffff\n      and\n      0xffffffffffffffffffffffffffffffffffffffff\n      and\n      dup2\n      mstore\n      0x20\n      add\n      swap1\n      dup2\n      mstore\n      0x20\n      add\n      0x00\n      keccak256\n        /* \"@openzeppelin/contracts/token/ERC20/ERC20.sol\":9910:9937  _allowances[owner][spender] */\n      0x00\n        /* \"@openzeppelin/contracts/token/ERC20/ERC20.sol\":9929:9936  spender */\n      dup6\n        /* \"@openzeppelin/contracts/token/ERC20/ERC20.sol\":9910:9937  _allowances[owner][spender] */\n      0xffffffffffffffffffffffffffffffffffffffff\n      and\n      0xffffffffffffffffffffffffffffffffffffffff\n      and\n      dup2\n      mstore\n      0x20\n      add\n      swap1\n      dup2\n      mstore\n      0x20\n      add\n      0x00\n      keccak256\n        /* \"@openzeppelin/contracts/token/ERC20/ERC20.sol\":9910:9945  _allowances[owner][spender] = value */\n      dup2\n      swap1\n      sstore\n      pop\n        /* \"@openzeppelin/contracts/token/ERC20/ERC20.sol\":9959:9968  emitEvent */\n      dup1\n        /* \"@openzeppelin/contracts/token/ERC20/ERC20.sol\":9955:10031  if (emitEvent) {... */\n      iszero\n      tag_263\n      jumpi\n        /* \"@openzeppelin/contracts/token/ERC20/ERC20.sol\":10005:10012  spender */\n      dup3\n        /* \"@openzeppelin/contracts/token/ERC20/ERC20.sol\":9989:10020  Approval(owner, spender, value) */\n      0xffffffffffffffffffffffffffffffffffffffff\n      and\n        /* \"@openzeppelin/contracts/token/ERC20/ERC20.sol\":9998:10003  owner */\n      dup5\n        /* \"@openzeppelin/contracts/token/ERC20/ERC20.sol\":9989:10020  Approval(owner, spender, value) */\n      0xffffffffffffffffffffffffffffffffffffffff\n      and\n      0x8c5be1e5ebec7d5bd14f71427d1e84f3dd0314c0f7b2291e5b200ac8c7c3b925\n        /* \"@openzeppelin/contracts/token/ERC20/ERC20.sol\":10014:10019  value */\n      dup5\n        /* \"@openzeppelin/contracts/token/ERC20/ERC20.sol\":9989:10020  Approval(owner, spender, value) */\n      mload(0x40)\n      tag_264\n      swap2\n      swap1\n      tag_38\n      jump\t// in\n    tag_264:\n      mload(0x40)\n      dup1\n      swap2\n      sub\n      swap1\n      log3\n        /* \"@openzeppelin/contracts/token/ERC20/ERC20.sol\":9955:10031  if (emitEvent) {... */\n    tag_263:\n        /* \"@openzeppelin/contracts/token/ERC20/ERC20.sol\":9605:10037  function _approve(address owner, address spender, uint256 value, bool emitEvent) internal virtual {... */\n      pop\n      pop\n      pop\n      pop\n      jump\t// out\n        /* \"@openzeppelin/contracts/token/ERC20/ERC20.sol\":5912:7019  function _update(address from, address to, uint256 value) internal virtual {... */\n    tag_224:\n        /* \"@openzeppelin/contracts/token/ERC20/ERC20.sol\":6017:6018  0 */\n      0x00\n        /* \"@openzeppelin/contracts/token/ERC20/ERC20.sol\":6001:6019  from == address(0) */\n      0xffffffffffffffffffffffffffffffffffffffff\n      and\n        /* \"@openzeppelin/contracts/token/ERC20/ERC20.sol\":6001:6005  from */\n      dup4\n        /* \"@openzeppelin/contracts/token/ERC20/ERC20.sol\":6001:6019  from == address(0) */\n      0xffffffffffffffffffffffffffffffffffffffff\n      and\n      sub\n        /* \"@openzeppelin/contracts/token/ERC20/ERC20.sol\":5997:6537  if (from == address(0)) {... */\n      tag_266\n      jumpi\n        /* \"@openzeppelin/contracts/token/ERC20/ERC20.sol\":6153:6158  value */\n      dup1\n        /* \"@openzeppelin/contracts/token/ERC20/ERC20.sol\":6137:6149  _totalSupply */\n      0x02\n      0x00\n        /* \"@openzeppelin/contracts/token/ERC20/ERC20.sol\":6137:6158  _totalSupply += value */\n      dup3\n      dup3\n      sload\n      tag_267\n      swap2\n      swap1\n      tag_268\n      jump\t// in\n    tag_267:\n      swap3\n      pop\n      pop\n      dup2\n      swap1\n      sstore\n      pop\n        /* \"@openzeppelin/contracts/token/ERC20/ERC20.sol\":5997:6537  if (from == address(0)) {... */\n      jump(tag_269)\n    tag_266:\n        /* \"@openzeppelin/contracts/token/ERC20/ERC20.sol\":6189:6208  uint256 fromBalance */\n      0x00\n        /* \"@openzeppelin/contracts/token/ERC20/ERC20.sol\":6211:6220  _balances */\n      0x00\n        /* \"@openzeppelin/contracts/token/ERC20/ERC20.sol\":6211:6226  _balances[from] */\n      0x00\n        /* \"@openzeppelin/contracts/token/ERC20/ERC20.sol\":6221:6225  from */\n      dup6\n        /* \"@openzeppelin/contracts/token/ERC20/ERC20.sol\":6211:6226  _balances[from] */\n      0xffffffffffffffffffffffffffffffffffffffff\n      and\n      0xffffffffffffffffffffffffffffffffffffffff\n      and\n      dup2\n      mstore\n      0x20\n      add\n      swap1\n      dup2\n      mstore\n      0x20\n      add\n      0x00\n      keccak256\n      sload\n        /* \"@openzeppelin/contracts/token/ERC20/ERC20.sol\":6189:6226  uint256 fromBalance = _balances[from] */\n      swap1\n      pop\n        /* \"@openzeppelin/contracts/token/ERC20/ERC20.sol\":6258:6263  value */\n      dup2\n        /* \"@openzeppelin/contracts/token/ERC20/ERC20.sol\":6244:6255  fromBalance */\n      dup2\n        /* \"@openzeppelin/contracts/token/ERC20/ERC20.sol\":6244:6263  fromBalance < value */\n      lt\n        /* \"@openzeppelin/contracts/token/ERC20/ERC20.sol\":6240:6355  if (fromBalance < value) {... */\n      iszero\n      tag_270\n      jumpi\n        /* \"@openzeppelin/contracts/token/ERC20/ERC20.sol\":6315:6319  from */\n      dup4\n        /* \"@openzeppelin/contracts/token/ERC20/ERC20.sol\":6321:6332  fromBalance */\n      dup2\n        /* \"@openzeppelin/contracts/token/ERC20/ERC20.sol\":6334:6339  value */\n      dup4\n        /* \"@openzeppelin/contracts/token/ERC20/ERC20.sol\":6290:6340  ERC20InsufficientBalance(from, fromBalance, value) */\n      mload(0x40)\n      0xe450d38c00000000000000000000000000000000000000000000000000000000\n      dup2\n      mstore\n      0x04\n      add\n      tag_271\n      swap4\n      swap3\n      swap2\n      swap1\n      tag_230\n      jump\t// in\n    tag_271:\n      mload(0x40)\n      dup1\n      swap2\n      sub\n      swap1\n      revert\n        /* \"@openzeppelin/contracts/token/ERC20/ERC20.sol\":6240:6355  if (fromBalance < value) {... */\n    tag_270:\n        /* \"@openzeppelin/contracts/token/ERC20/ERC20.sol\":6507:6512  value */\n      dup2\n        /* \"@openzeppelin/contracts/token/ERC20/ERC20.sol\":6493:6504  fromBalance */\n      dup2\n        /* \"@openzeppelin/contracts/token/ERC20/ERC20.sol\":6493:6512  fromBalance - value */\n      sub\n        /* \"@openzeppelin/contracts/token/ERC20/ERC20.sol\":6475:6484  _balances */\n      0x00\n        /* \"@openzeppelin/contracts/token/ERC20/ERC20.sol\":6475:6490  _balances[from] */\n      0x00\n        /* \"@openzeppelin/contracts/token/ERC20/ERC20.sol\":6485:6489  from */\n      dup7\n        /* \"@openzeppelin/contracts/token/ERC20/ERC20.sol\":6475:6490  _balances[from] */\n      0xffffffffffffffffffffffffffffffffffffffff\n      and\n      0xffffffffffffffffffffffffffffffffffffffff\n      and\n      dup2\n      mstore\n      0x20\n      add\n      swap1\n      dup2\n      mstore\n      0x20\n      add\n      0x00\n      keccak256\n        /* \"@openzeppelin/contracts/token/ERC20/ERC20.sol\":6475:6512  _balances[from] = fromBalance - value */\n      dup2\n      swap1\n      sstore\n      pop\n        /* \"@openzeppelin/contracts/token/ERC20/ERC20.sol\":6175:6537  {... */\n      pop\n        /* \"@openzeppelin/contracts/token/ERC20/ERC20.sol\":5997:6537  if (from == address(0)) {... */\n    tag_269:\n        /* \"@openzeppelin/contracts/token/ERC20/ERC20.sol\":6565:6566  0 */\n      0x00\n        /* \"@openzeppelin/contracts/token/ERC20/ERC20.sol\":6551:6567  to == address(0) */\n      0xffffffffffffffffffffffffffffffffffffffff\n      and\n        /* \"@openzeppelin/contracts/token/ERC20/ERC20.sol\":6551:6553  to */\n      dup3\n        /* \"@openzeppelin/contracts/token/ERC20/ERC20.sol\":6551:6567  to == address(0) */\n      0xffffffffffffffffffffffffffffffffffffffff\n      and\n      sub\n        /* \"@openzeppelin/contracts/token/ERC20/ERC20.sol\":6547:6972  if (to == address(0)) {... */\n      tag_272\n      jumpi\n        /* \"@openzeppelin/contracts/token/ERC20/ERC20.sol\":6730:6735  value */\n      dup1\n        /* \"@openzeppelin/contracts/token/ERC20/ERC20.sol\":6714:6726  _totalSupply */\n      0x02\n      0x00\n        /* \"@openzeppelin/contracts/token/ERC20/ERC20.sol\":6714:6735  _totalSupply -= value */\n      dup3\n      dup3\n      sload\n      sub\n      swap3\n      pop\n      pop\n      dup2\n      swap1\n      sstore\n      pop\n        /* \"@openzeppelin/contracts/token/ERC20/ERC20.sol\":6547:6972  if (to == address(0)) {... */\n      jump(tag_273)\n    tag_272:\n        /* \"@openzeppelin/contracts/token/ERC20/ERC20.sol\":6942:6947  value */\n      dup1\n        /* \"@openzeppelin/contracts/token/ERC20/ERC20.sol\":6925:6934  _balances */\n      0x00\n        /* \"@openzeppelin/contracts/token/ERC20/ERC20.sol\":6925:6938  _balances[to] */\n      0x00\n        /* \"@openzeppelin/contracts/token/ERC20/ERC20.sol\":6935:6937  to */\n      dup5\n        /* \"@openzeppelin/contracts/token/ERC20/ERC20.sol\":6925:6938  _balances[to] */\n      0xffffffffffffffffffffffffffffffffffffffff\n      and\n      0xffffffffffffffffffffffffffffffffffffffff\n      and\n      dup2\n      mstore\n      0x20\n      add\n      swap1\n      dup2\n      mstore\n      0x20\n      add\n      0x00\n      keccak256\n      0x00\n        /* \"@openzeppelin/contracts/token/ERC20/ERC20.sol\":6925:6947  _balances[to] += value */\n      dup3\n      dup3\n      sload\n      add\n      swap3\n      pop\n      pop\n      dup2\n      swap1\n      sstore\n      pop\n        /* \"@openzeppelin/contracts/token/ERC20/ERC20.sol\":6547:6972  if (to == address(0)) {... */\n    tag_273:\n        /* \"@openzeppelin/contracts/token/ERC20/ERC20.sol\":7002:7004  to */\n      dup2\n        /* \"@openzeppelin/contracts/token/ERC20/ERC20.sol\":6987:7012  Transfer(from, to, value) */\n      0xffffffffffffffffffffffffffffffffffffffff\n      and\n        /* \"@openzeppelin/contracts/token/ERC20/ERC20.sol\":6996:7000  from */\n      dup4\n        /* \"@openzeppelin/contracts/token/ERC20/ERC20.sol\":6987:7012  Transfer(from, to, value) */\n      0xffffffffffffffffffffffffffffffffffffffff\n      and\n      0xddf252ad1be2c89b69c2b068fc378daa952ba7f163c4a11628f55a4df523b3ef\n        /* \"@openzeppelin/contracts/token/ERC20/ERC20.sol\":7006:7011  value */\n      dup4\n        /* \"@openzeppelin/contracts/token/ERC20/ERC20.sol\":6987:7012  Transfer(from, to, value) */\n      mload(0x40)\n      tag_274\n      swap2\n      swap1\n      tag_38\n      jump\t// in\n    tag_274:\n      mload(0x40)\n      dup1\n      swap2\n      sub\n      swap1\n      log3\n        /* \"@openzeppelin/contracts/token/ERC20/ERC20.sol\":5912:7019  function _update(address from, address to, uint256 value) internal virtual {... */\n      pop\n      pop\n      pop\n      jump\t// out\n        /* \"contracts/reward.sol\":744:942  function _contextSuffixLength() ... */\n    tag_247:\n        /* \"contracts/reward.sol\":873:880  uint256 */\n      0x00\n        /* \"contracts/reward.sol\":906:934  super._contextSuffixLength() */\n      tag_276\n        /* \"contracts/reward.sol\":906:932  super._contextSuffixLength */\n      tag_277\n        /* \"contracts/reward.sol\":906:934  super._contextSuffixLength() */\n      jump\t// in\n    tag_276:\n        /* \"contracts/reward.sol\":899:934  return super._contextSuffixLength() */\n      swap1\n      pop\n        /* \"contracts/reward.sol\":744:942  function _contextSuffixLength() ... */\n      swap1\n      jump\t// out\n        /* \"@openzeppelin/contracts/utils/Context.sol\":656:752  function _msgSender() internal view virtual returns (address) {... */\n    tag_257:\n        /* \"@openzeppelin/contracts/utils/Context.sol\":709:716  address */\n      0x00\n        /* \"@openzeppelin/contracts/utils/Context.sol\":735:745  msg.sender */\n      caller\n        /* \"@openzeppelin/contracts/utils/Context.sol\":728:745  return msg.sender */\n      swap1\n      pop\n        /* \"@openzeppelin/contracts/utils/Context.sol\":656:752  function _msgSender() internal view virtual returns (address) {... */\n      swap1\n      jump\t// out\n        /* \"@openzeppelin/contracts/metatx/ERC2771Context.sol\":3469:3576  function _contextSuffixLength() internal view virtual override returns (uint256) {... */\n    tag_277:\n        /* \"@openzeppelin/contracts/metatx/ERC2771Context.sol\":3541:3548  uint256 */\n      0x00\n        /* \"@openzeppelin/contracts/metatx/ERC2771Context.sol\":3567:3569  20 */\n      0x14\n        /* \"@openzeppelin/contracts/metatx/ERC2771Context.sol\":3560:3569  return 20 */\n      swap1\n      pop\n        /* \"@openzeppelin/contracts/metatx/ERC2771Context.sol\":3469:3576  function _contextSuffixLength() internal view virtual override returns (uint256) {... */\n      swap1\n      jump\t// out\n        /* \"#utility.yul\":7:106   */\n    tag_280:\n        /* \"#utility.yul\":59:65   */\n      0x00\n        /* \"#utility.yul\":93:98   */\n      dup2\n        /* \"#utility.yul\":87:99   */\n      mload\n        /* \"#utility.yul\":77:99   */\n      swap1\n      pop\n        /* \"#utility.yul\":7:106   */\n      swap2\n      swap1\n      pop\n      jump\t// out\n        /* \"#utility.yul\":112:281   */\n    tag_281:\n        /* \"#utility.yul\":196:207   */\n      0x00\n        /* \"#utility.yul\":230:236   */\n      dup3\n        /* \"#utility.yul\":225:228   */\n      dup3\n        /* \"#utility.yul\":218:237   */\n      mstore\n        /* \"#utility.yul\":270:274   */\n      0x20\n        /* \"#utility.yul\":265:268   */\n      dup3\n        /* \"#utility.yul\":261:275   */\n      add\n        /* \"#utility.yul\":246:275   */\n      swap1\n      pop\n        /* \"#utility.yul\":112:281   */\n      swap3\n      swap2\n      pop\n      pop\n      jump\t// out\n        /* \"#utility.yul\":287:426   */\n    tag_282:\n        /* \"#utility.yul\":376:382   */\n      dup3\n        /* \"#utility.yul\":371:374   */\n      dup2\n        /* \"#utility.yul\":366:369   */\n      dup4\n        /* \"#utility.yul\":360:383   */\n      mcopy\n        /* \"#utility.yul\":417:418   */\n      0x00\n        /* \"#utility.yul\":408:414   */\n      dup4\n        /* \"#utility.yul\":403:406   */\n      dup4\n        /* \"#utility.yul\":399:415   */\n      add\n        /* \"#utility.yul\":392:419   */\n      mstore\n        /* \"#utility.yul\":287:426   */\n      pop\n      pop\n      pop\n      jump\t// out\n        /* \"#utility.yul\":432:534   */\n    tag_283:\n        /* \"#utility.yul\":473:479   */\n      0x00\n        /* \"#utility.yul\":524:526   */\n      0x1f\n        /* \"#utility.yul\":520:527   */\n      not\n        /* \"#utility.yul\":515:517   */\n      0x1f\n        /* \"#utility.yul\":508:513   */\n      dup4\n        /* \"#utility.yul\":504:518   */\n      add\n        /* \"#utility.yul\":500:528   */\n      and\n        /* \"#utility.yul\":490:528   */\n      swap1\n      pop\n        /* \"#utility.yul\":432:534   */\n      swap2\n      swap1\n      pop\n      jump\t// out\n        /* \"#utility.yul\":540:917   */\n    tag_284:\n        /* \"#utility.yul\":628:631   */\n      0x00\n        /* \"#utility.yul\":656:695   */\n      tag_326\n        /* \"#utility.yul\":689:694   */\n      dup3\n        /* \"#utility.yul\":656:695   */\n      tag_280\n      jump\t// in\n    tag_326:\n        /* \"#utility.yul\":711:782   */\n      tag_327\n        /* \"#utility.yul\":775:781   */\n      dup2\n        /* \"#utility.yul\":770:773   */\n      dup6\n        /* \"#utility.yul\":711:782   */\n      tag_281\n      jump\t// in\n    tag_327:\n        /* \"#utility.yul\":704:782   */\n      swap4\n      pop\n        /* \"#utility.yul\":791:856   */\n      tag_328\n        /* \"#utility.yul\":849:855   */\n      dup2\n        /* \"#utility.yul\":844:847   */\n      dup6\n        /* \"#utility.yul\":837:841   */\n      0x20\n        /* \"#utility.yul\":830:835   */\n      dup7\n        /* \"#utility.yul\":826:842   */\n      add\n        /* \"#utility.yul\":791:856   */\n      tag_282\n      jump\t// in\n    tag_328:\n        /* \"#utility.yul\":881:910   */\n      tag_329\n        /* \"#utility.yul\":903:909   */\n      dup2\n        /* \"#utility.yul\":881:910   */\n      tag_283\n      jump\t// in\n    tag_329:\n        /* \"#utility.yul\":876:879   */\n      dup5\n        /* \"#utility.yul\":872:911   */\n      add\n        /* \"#utility.yul\":865:911   */\n      swap2\n      pop\n        /* \"#utility.yul\":632:917   */\n      pop\n        /* \"#utility.yul\":540:917   */\n      swap3\n      swap2\n      pop\n      pop\n      jump\t// out\n        /* \"#utility.yul\":923:1236   */\n    tag_28:\n        /* \"#utility.yul\":1036:1040   */\n      0x00\n        /* \"#utility.yul\":1074:1076   */\n      0x20\n        /* \"#utility.yul\":1063:1072   */\n      dup3\n        /* \"#utility.yul\":1059:1077   */\n      add\n        /* \"#utility.yul\":1051:1077   */\n      swap1\n      pop\n        /* \"#utility.yul\":1123:1132   */\n      dup2\n        /* \"#utility.yul\":1117:1121   */\n      dup2\n        /* \"#utility.yul\":1113:1133   */\n      sub\n        /* \"#utility.yul\":1109:1110   */\n      0x00\n        /* \"#utility.yul\":1098:1107   */\n      dup4\n        /* \"#utility.yul\":1094:1111   */\n      add\n        /* \"#utility.yul\":1087:1134   */\n      mstore\n        /* \"#utility.yul\":1151:1229   */\n      tag_331\n        /* \"#utility.yul\":1224:1228   */\n      dup2\n        /* \"#utility.yul\":1215:1221   */\n      dup5\n        /* \"#utility.yul\":1151:1229   */\n      tag_284\n      jump\t// in\n    tag_331:\n        /* \"#utility.yul\":1143:1229   */\n      swap1\n      pop\n        /* \"#utility.yul\":923:1236   */\n      swap3\n      swap2\n      pop\n      pop\n      jump\t// out\n        /* \"#utility.yul\":1323:1440   */\n    tag_286:\n        /* \"#utility.yul\":1432:1433   */\n      0x00\n        /* \"#utility.yul\":1429:1430   */\n      0x00\n        /* \"#utility.yul\":1422:1434   */\n      revert\n        /* \"#utility.yul\":1569:1695   */\n    tag_288:\n        /* \"#utility.yul\":1606:1613   */\n      0x00\n        /* \"#utility.yul\":1646:1688   */\n      0xffffffffffffffffffffffffffffffffffffffff\n        /* \"#utility.yul\":1639:1644   */\n      dup3\n        /* \"#utility.yul\":1635:1689   */\n      and\n        /* \"#utility.yul\":1624:1689   */\n      swap1\n      pop\n        /* \"#utility.yul\":1569:1695   */\n      swap2\n      swap1\n      pop\n      jump\t// out\n        /* \"#utility.yul\":1701:1797   */\n    tag_289:\n        /* \"#utility.yul\":1738:1745   */\n      0x00\n        /* \"#utility.yul\":1767:1791   */\n      tag_337\n        /* \"#utility.yul\":1785:1790   */\n      dup3\n        /* \"#utility.yul\":1767:1791   */\n      tag_288\n      jump\t// in\n    tag_337:\n        /* \"#utility.yul\":1756:1791   */\n      swap1\n      pop\n        /* \"#utility.yul\":1701:1797   */\n      swap2\n      swap1\n      pop\n      jump\t// out\n        /* \"#utility.yul\":1803:1925   */\n    tag_290:\n        /* \"#utility.yul\":1876:1900   */\n      tag_339\n        /* \"#utility.yul\":1894:1899   */\n      dup2\n        /* \"#utility.yul\":1876:1900   */\n      tag_289\n      jump\t// in\n    tag_339:\n        /* \"#utility.yul\":1869:1874   */\n      dup2\n        /* \"#utility.yul\":1866:1901   */\n      eq\n        /* \"#utility.yul\":1856:1919   */\n      tag_340\n      jumpi\n        /* \"#utility.yul\":1915:1916   */\n      0x00\n        /* \"#utility.yul\":1912:1913   */\n      0x00\n        /* \"#utility.yul\":1905:1917   */\n      revert\n        /* \"#utility.yul\":1856:1919   */\n    tag_340:\n        /* \"#utility.yul\":1803:1925   */\n      pop\n      jump\t// out\n        /* \"#utility.yul\":1931:2070   */\n    tag_291:\n        /* \"#utility.yul\":1977:1982   */\n      0x00\n        /* \"#utility.yul\":2015:2021   */\n      dup2\n        /* \"#utility.yul\":2002:2022   */\n      calldataload\n        /* \"#utility.yul\":1993:2022   */\n      swap1\n      pop\n        /* \"#utility.yul\":2031:2064   */\n      tag_342\n        /* \"#utility.yul\":2058:2063   */\n      dup2\n        /* \"#utility.yul\":2031:2064   */\n      tag_290\n      jump\t// in\n    tag_342:\n        /* \"#utility.yul\":1931:2070   */\n      swap3\n      swap2\n      pop\n      pop\n      jump\t// out\n        /* \"#utility.yul\":2076:2153   */\n    tag_292:\n        /* \"#utility.yul\":2113:2120   */\n      0x00\n        /* \"#utility.yul\":2142:2147   */\n      dup2\n        /* \"#utility.yul\":2131:2147   */\n      swap1\n      pop\n        /* \"#utility.yul\":2076:2153   */\n      swap2\n      swap1\n      pop\n      jump\t// out\n        /* \"#utility.yul\":2159:2281   */\n    tag_293:\n        /* \"#utility.yul\":2232:2256   */\n      tag_345\n        /* \"#utility.yul\":2250:2255   */\n      dup2\n        /* \"#utility.yul\":2232:2256   */\n      tag_292\n      jump\t// in\n    tag_345:\n        /* \"#utility.yul\":2225:2230   */\n      dup2\n        /* \"#utility.yul\":2222:2257   */\n      eq\n        /* \"#utility.yul\":2212:2275   */\n      tag_346\n      jumpi\n        /* \"#utility.yul\":2271:2272   */\n      0x00\n        /* \"#utility.yul\":2268:2269   */\n      0x00\n        /* \"#utility.yul\":2261:2273   */\n      revert\n        /* \"#utility.yul\":2212:2275   */\n    tag_346:\n        /* \"#utility.yul\":2159:2281   */\n      pop\n      jump\t// out\n        /* \"#utility.yul\":2287:2426   */\n    tag_294:\n        /* \"#utility.yul\":2333:2338   */\n      0x00\n        /* \"#utility.yul\":2371:2377   */\n      dup2\n        /* \"#utility.yul\":2358:2378   */\n      calldataload\n        /* \"#utility.yul\":2349:2378   */\n      swap1\n      pop\n        /* \"#utility.yul\":2387:2420   */\n      tag_348\n        /* \"#utility.yul\":2414:2419   */\n      dup2\n        /* \"#utility.yul\":2387:2420   */\n      tag_293\n      jump\t// in\n    tag_348:\n        /* \"#utility.yul\":2287:2426   */\n      swap3\n      swap2\n      pop\n      pop\n      jump\t// out\n        /* \"#utility.yul\":2432:2906   */\n    tag_31:\n        /* \"#utility.yul\":2500:2506   */\n      0x00\n        /* \"#utility.yul\":2508:2514   */\n      0x00\n        /* \"#utility.yul\":2557:2559   */\n      0x40\n        /* \"#utility.yul\":2545:2554   */\n      dup4\n        /* \"#utility.yul\":2536:2543   */\n      dup6\n        /* \"#utility.yul\":2532:2555   */\n      sub\n        /* \"#utility.yul\":2528:2560   */\n      slt\n        /* \"#utility.yul\":2525:2644   */\n      iszero\n      tag_350\n      jumpi\n        /* \"#utility.yul\":2563:2642   */\n      tag_351\n      tag_286\n      jump\t// in\n    tag_351:\n        /* \"#utility.yul\":2525:2644   */\n    tag_350:\n        /* \"#utility.yul\":2683:2684   */\n      0x00\n        /* \"#utility.yul\":2708:2761   */\n      tag_352\n        /* \"#utility.yul\":2753:2760   */\n      dup6\n        /* \"#utility.yul\":2744:2750   */\n      dup3\n        /* \"#utility.yul\":2733:2742   */\n      dup7\n        /* \"#utility.yul\":2729:2751   */\n      add\n        /* \"#utility.yul\":2708:2761   */\n      tag_291\n      jump\t// in\n    tag_352:\n        /* \"#utility.yul\":2698:2761   */\n      swap3\n      pop\n        /* \"#utility.yul\":2654:2771   */\n      pop\n        /* \"#utility.yul\":2810:2812   */\n      0x20\n        /* \"#utility.yul\":2836:2889   */\n      tag_353\n        /* \"#utility.yul\":2881:2888   */\n      dup6\n        /* \"#utility.yul\":2872:2878   */\n      dup3\n        /* \"#utility.yul\":2861:2870   */\n      dup7\n        /* \"#utility.yul\":2857:2879   */\n      add\n        /* \"#utility.yul\":2836:2889   */\n      tag_294\n      jump\t// in\n    tag_353:\n        /* \"#utility.yul\":2826:2889   */\n      swap2\n      pop\n        /* \"#utility.yul\":2781:2899   */\n      pop\n        /* \"#utility.yul\":2432:2906   */\n      swap3\n      pop\n      swap3\n      swap1\n      pop\n      jump\t// out\n        /* \"#utility.yul\":2912:3002   */\n    tag_295:\n        /* \"#utility.yul\":2946:2953   */\n      0x00\n        /* \"#utility.yul\":2989:2994   */\n      dup2\n        /* \"#utility.yul\":2982:2995   */\n      iszero\n        /* \"#utility.yul\":2975:2996   */\n      iszero\n        /* \"#utility.yul\":2964:2996   */\n      swap1\n      pop\n        /* \"#utility.yul\":2912:3002   */\n      swap2\n      swap1\n      pop\n      jump\t// out\n        /* \"#utility.yul\":3008:3117   */\n    tag_296:\n        /* \"#utility.yul\":3089:3110   */\n      tag_356\n        /* \"#utility.yul\":3104:3109   */\n      dup2\n        /* \"#utility.yul\":3089:3110   */\n      tag_295\n      jump\t// in\n    tag_356:\n        /* \"#utility.yul\":3084:3087   */\n      dup3\n        /* \"#utility.yul\":3077:3111   */\n      mstore\n        /* \"#utility.yul\":3008:3117   */\n      pop\n      pop\n      jump\t// out\n        /* \"#utility.yul\":3123:3333   */\n    tag_34:\n        /* \"#utility.yul\":3210:3214   */\n      0x00\n        /* \"#utility.yul\":3248:3250   */\n      0x20\n        /* \"#utility.yul\":3237:3246   */\n      dup3\n        /* \"#utility.yul\":3233:3251   */\n      add\n        /* \"#utility.yul\":3225:3251   */\n      swap1\n      pop\n        /* \"#utility.yul\":3261:3326   */\n      tag_358\n        /* \"#utility.yul\":3323:3324   */\n      0x00\n        /* \"#utility.yul\":3312:3321   */\n      dup4\n        /* \"#utility.yul\":3308:3325   */\n      add\n        /* \"#utility.yul\":3299:3305   */\n      dup5\n        /* \"#utility.yul\":3261:3326   */\n      tag_296\n      jump\t// in\n    tag_358:\n        /* \"#utility.yul\":3123:3333   */\n      swap3\n      swap2\n      pop\n      pop\n      jump\t// out\n        /* \"#utility.yul\":3339:3457   */\n    tag_297:\n        /* \"#utility.yul\":3426:3450   */\n      tag_360\n        /* \"#utility.yul\":3444:3449   */\n      dup2\n        /* \"#utility.yul\":3426:3450   */\n      tag_292\n      jump\t// in\n    tag_360:\n        /* \"#utility.yul\":3421:3424   */\n      dup3\n        /* \"#utility.yul\":3414:3451   */\n      mstore\n        /* \"#utility.yul\":3339:3457   */\n      pop\n      pop\n      jump\t// out\n        /* \"#utility.yul\":3463:3685   */\n    tag_38:\n        /* \"#utility.yul\":3556:3560   */\n      0x00\n        /* \"#utility.yul\":3594:3596   */\n      0x20\n        /* \"#utility.yul\":3583:3592   */\n      dup3\n        /* \"#utility.yul\":3579:3597   */\n      add\n        /* \"#utility.yul\":3571:3597   */\n      swap1\n      pop\n        /* \"#utility.yul\":3607:3678   */\n      tag_362\n        /* \"#utility.yul\":3675:3676   */\n      0x00\n        /* \"#utility.yul\":3664:3673   */\n      dup4\n        /* \"#utility.yul\":3660:3677   */\n      add\n        /* \"#utility.yul\":3651:3657   */\n      dup5\n        /* \"#utility.yul\":3607:3678   */\n      tag_297\n      jump\t// in\n    tag_362:\n        /* \"#utility.yul\":3463:3685   */\n      swap3\n      swap2\n      pop\n      pop\n      jump\t// out\n        /* \"#utility.yul\":3691:4310   */\n    tag_44:\n        /* \"#utility.yul\":3768:3774   */\n      0x00\n        /* \"#utility.yul\":3776:3782   */\n      0x00\n        /* \"#utility.yul\":3784:3790   */\n      0x00\n        /* \"#utility.yul\":3833:3835   */\n      0x60\n        /* \"#utility.yul\":3821:3830   */\n      dup5\n        /* \"#utility.yul\":3812:3819   */\n      dup7\n        /* \"#utility.yul\":3808:3831   */\n      sub\n        /* \"#utility.yul\":3804:3836   */\n      slt\n        /* \"#utility.yul\":3801:3920   */\n      iszero\n      tag_364\n      jumpi\n        /* \"#utility.yul\":3839:3918   */\n      tag_365\n      tag_286\n      jump\t// in\n    tag_365:\n        /* \"#utility.yul\":3801:3920   */\n    tag_364:\n        /* \"#utility.yul\":3959:3960   */\n      0x00\n        /* \"#utility.yul\":3984:4037   */\n      tag_366\n        /* \"#utility.yul\":4029:4036   */\n      dup7\n        /* \"#utility.yul\":4020:4026   */\n      dup3\n        /* \"#utility.yul\":4009:4018   */\n      dup8\n        /* \"#utility.yul\":4005:4027   */\n      add\n        /* \"#utility.yul\":3984:4037   */\n      tag_291\n      jump\t// in\n    tag_366:\n        /* \"#utility.yul\":3974:4037   */\n      swap4\n      pop\n        /* \"#utility.yul\":3930:4047   */\n      pop\n        /* \"#utility.yul\":4086:4088   */\n      0x20\n        /* \"#utility.yul\":4112:4165   */\n      tag_367\n        /* \"#utility.yul\":4157:4164   */\n      dup7\n        /* \"#utility.yul\":4148:4154   */\n      dup3\n        /* \"#utility.yul\":4137:4146   */\n      dup8\n        /* \"#utility.yul\":4133:4155   */\n      add\n        /* \"#utility.yul\":4112:4165   */\n      tag_291\n      jump\t// in\n    tag_367:\n        /* \"#utility.yul\":4102:4165   */\n      swap3\n      pop\n        /* \"#utility.yul\":4057:4175   */\n      pop\n        /* \"#utility.yul\":4214:4216   */\n      0x40\n        /* \"#utility.yul\":4240:4293   */\n      tag_368\n        /* \"#utility.yul\":4285:4292   */\n      dup7\n        /* \"#utility.yul\":4276:4282   */\n      dup3\n        /* \"#utility.yul\":4265:4274   */\n      dup8\n        /* \"#utility.yul\":4261:4283   */\n      add\n        /* \"#utility.yul\":4240:4293   */\n      tag_294\n      jump\t// in\n    tag_368:\n        /* \"#utility.yul\":4230:4293   */\n      swap2\n      pop\n        /* \"#utility.yul\":4185:4303   */\n      pop\n        /* \"#utility.yul\":3691:4310   */\n      swap3\n      pop\n      swap3\n      pop\n      swap3\n      jump\t// out\n        /* \"#utility.yul\":4316:4645   */\n    tag_49:\n        /* \"#utility.yul\":4375:4381   */\n      0x00\n        /* \"#utility.yul\":4424:4426   */\n      0x20\n        /* \"#utility.yul\":4412:4421   */\n      dup3\n        /* \"#utility.yul\":4403:4410   */\n      dup5\n        /* \"#utility.yul\":4399:4422   */\n      sub\n        /* \"#utility.yul\":4395:4427   */\n      slt\n        /* \"#utility.yul\":4392:4511   */\n      iszero\n      tag_370\n      jumpi\n        /* \"#utility.yul\":4430:4509   */\n      tag_371\n      tag_286\n      jump\t// in\n    tag_371:\n        /* \"#utility.yul\":4392:4511   */\n    tag_370:\n        /* \"#utility.yul\":4550:4551   */\n      0x00\n        /* \"#utility.yul\":4575:4628   */\n      tag_372\n        /* \"#utility.yul\":4620:4627   */\n      dup5\n        /* \"#utility.yul\":4611:4617   */\n      dup3\n        /* \"#utility.yul\":4600:4609   */\n      dup6\n        /* \"#utility.yul\":4596:4618   */\n      add\n        /* \"#utility.yul\":4575:4628   */\n      tag_294\n      jump\t// in\n    tag_372:\n        /* \"#utility.yul\":4565:4628   */\n      swap2\n      pop\n        /* \"#utility.yul\":4521:4638   */\n      pop\n        /* \"#utility.yul\":4316:4645   */\n      swap3\n      swap2\n      pop\n      pop\n      jump\t// out\n        /* \"#utility.yul\":4651:4737   */\n    tag_298:\n        /* \"#utility.yul\":4686:4693   */\n      0x00\n        /* \"#utility.yul\":4726:4730   */\n      0xff\n        /* \"#utility.yul\":4719:4724   */\n      dup3\n        /* \"#utility.yul\":4715:4731   */\n      and\n        /* \"#utility.yul\":4704:4731   */\n      swap1\n      pop\n        /* \"#utility.yul\":4651:4737   */\n      swap2\n      swap1\n      pop\n      jump\t// out\n        /* \"#utility.yul\":4743:4855   */\n    tag_299:\n        /* \"#utility.yul\":4826:4848   */\n      tag_375\n        /* \"#utility.yul\":4842:4847   */\n      dup2\n        /* \"#utility.yul\":4826:4848   */\n      tag_298\n      jump\t// in\n    tag_375:\n        /* \"#utility.yul\":4821:4824   */\n      dup3\n        /* \"#utility.yul\":4814:4849   */\n      mstore\n        /* \"#utility.yul\":4743:4855   */\n      pop\n      pop\n      jump\t// out\n        /* \"#utility.yul\":4861:5075   */\n    tag_54:\n        /* \"#utility.yul\":4950:4954   */\n      0x00\n        /* \"#utility.yul\":4988:4990   */\n      0x20\n        /* \"#utility.yul\":4977:4986   */\n      dup3\n        /* \"#utility.yul\":4973:4991   */\n      add\n        /* \"#utility.yul\":4965:4991   */\n      swap1\n      pop\n        /* \"#utility.yul\":5001:5068   */\n      tag_377\n        /* \"#utility.yul\":5065:5066   */\n      0x00\n        /* \"#utility.yul\":5054:5063   */\n      dup4\n        /* \"#utility.yul\":5050:5067   */\n      add\n        /* \"#utility.yul\":5041:5047   */\n      dup5\n        /* \"#utility.yul\":5001:5068   */\n      tag_299\n      jump\t// in\n    tag_377:\n        /* \"#utility.yul\":4861:5075   */\n      swap3\n      swap2\n      pop\n      pop\n      jump\t// out\n        /* \"#utility.yul\":5081:5410   */\n    tag_57:\n        /* \"#utility.yul\":5140:5146   */\n      0x00\n        /* \"#utility.yul\":5189:5191   */\n      0x20\n        /* \"#utility.yul\":5177:5186   */\n      dup3\n        /* \"#utility.yul\":5168:5175   */\n      dup5\n        /* \"#utility.yul\":5164:5187   */\n      sub\n        /* \"#utility.yul\":5160:5192   */\n      slt\n        /* \"#utility.yul\":5157:5276   */\n      iszero\n      tag_379\n      jumpi\n        /* \"#utility.yul\":5195:5274   */\n      tag_380\n      tag_286\n      jump\t// in\n    tag_380:\n        /* \"#utility.yul\":5157:5276   */\n    tag_379:\n        /* \"#utility.yul\":5315:5316   */\n      0x00\n        /* \"#utility.yul\":5340:5393   */\n      tag_381\n        /* \"#utility.yul\":5385:5392   */\n      dup5\n        /* \"#utility.yul\":5376:5382   */\n      dup3\n        /* \"#utility.yul\":5365:5374   */\n      dup6\n        /* \"#utility.yul\":5361:5383   */\n      add\n        /* \"#utility.yul\":5340:5393   */\n      tag_291\n      jump\t// in\n    tag_381:\n        /* \"#utility.yul\":5330:5393   */\n      swap2\n      pop\n        /* \"#utility.yul\":5286:5403   */\n      pop\n        /* \"#utility.yul\":5081:5410   */\n      swap3\n      swap2\n      pop\n      pop\n      jump\t// out\n        /* \"#utility.yul\":5416:5534   */\n    tag_300:\n        /* \"#utility.yul\":5503:5527   */\n      tag_383\n        /* \"#utility.yul\":5521:5526   */\n      dup2\n        /* \"#utility.yul\":5503:5527   */\n      tag_289\n      jump\t// in\n    tag_383:\n        /* \"#utility.yul\":5498:5501   */\n      dup3\n        /* \"#utility.yul\":5491:5528   */\n      mstore\n        /* \"#utility.yul\":5416:5534   */\n      pop\n      pop\n      jump\t// out\n        /* \"#utility.yul\":5540:5762   */\n    tag_69:\n        /* \"#utility.yul\":5633:5637   */\n      0x00\n        /* \"#utility.yul\":5671:5673   */\n      0x20\n        /* \"#utility.yul\":5660:5669   */\n      dup3\n        /* \"#utility.yul\":5656:5674   */\n      add\n        /* \"#utility.yul\":5648:5674   */\n      swap1\n      pop\n        /* \"#utility.yul\":5684:5755   */\n      tag_385\n        /* \"#utility.yul\":5752:5753   */\n      0x00\n        /* \"#utility.yul\":5741:5750   */\n      dup4\n        /* \"#utility.yul\":5737:5754   */\n      add\n        /* \"#utility.yul\":5728:5734   */\n      dup5\n        /* \"#utility.yul\":5684:5755   */\n      tag_300\n      jump\t// in\n    tag_385:\n        /* \"#utility.yul\":5540:5762   */\n      swap3\n      swap2\n      pop\n      pop\n      jump\t// out\n        /* \"#utility.yul\":5768:6242   */\n    tag_88:\n        /* \"#utility.yul\":5836:5842   */\n      0x00\n        /* \"#utility.yul\":5844:5850   */\n      0x00\n        /* \"#utility.yul\":5893:5895   */\n      0x40\n        /* \"#utility.yul\":5881:5890   */\n      dup4\n        /* \"#utility.yul\":5872:5879   */\n      dup6\n        /* \"#utility.yul\":5868:5891   */\n      sub\n        /* \"#utility.yul\":5864:5896   */\n      slt\n        /* \"#utility.yul\":5861:5980   */\n      iszero\n      tag_387\n      jumpi\n        /* \"#utility.yul\":5899:5978   */\n      tag_388\n      tag_286\n      jump\t// in\n    tag_388:\n        /* \"#utility.yul\":5861:5980   */\n    tag_387:\n        /* \"#utility.yul\":6019:6020   */\n      0x00\n        /* \"#utility.yul\":6044:6097   */\n      tag_389\n        /* \"#utility.yul\":6089:6096   */\n      dup6\n        /* \"#utility.yul\":6080:6086   */\n      dup3\n        /* \"#utility.yul\":6069:6078   */\n      dup7\n        /* \"#utility.yul\":6065:6087   */\n      add\n        /* \"#utility.yul\":6044:6097   */\n      tag_291\n      jump\t// in\n    tag_389:\n        /* \"#utility.yul\":6034:6097   */\n      swap3\n      pop\n        /* \"#utility.yul\":5990:6107   */\n      pop\n        /* \"#utility.yul\":6146:6148   */\n      0x20\n        /* \"#utility.yul\":6172:6225   */\n      tag_390\n        /* \"#utility.yul\":6217:6224   */\n      dup6\n        /* \"#utility.yul\":6208:6214   */\n      dup3\n        /* \"#utility.yul\":6197:6206   */\n      dup7\n        /* \"#utility.yul\":6193:6215   */\n      add\n        /* \"#utility.yul\":6172:6225   */\n      tag_291\n      jump\t// in\n    tag_390:\n        /* \"#utility.yul\":6162:6225   */\n      swap2\n      pop\n        /* \"#utility.yul\":6117:6235   */\n      pop\n        /* \"#utility.yul\":5768:6242   */\n      swap3\n      pop\n      swap3\n      swap1\n      pop\n      jump\t// out\n        /* \"#utility.yul\":6248:6428   */\n    tag_301:\n        /* \"#utility.yul\":6296:6373   */\n      0x4e487b7100000000000000000000000000000000000000000000000000000000\n        /* \"#utility.yul\":6293:6294   */\n      0x00\n        /* \"#utility.yul\":6286:6374   */\n      mstore\n        /* \"#utility.yul\":6393:6397   */\n      0x22\n        /* \"#utility.yul\":6390:6391   */\n      0x04\n        /* \"#utility.yul\":6383:6398   */\n      mstore\n        /* \"#utility.yul\":6417:6421   */\n      0x24\n        /* \"#utility.yul\":6414:6415   */\n      0x00\n        /* \"#utility.yul\":6407:6422   */\n      revert\n        /* \"#utility.yul\":6434:6754   */\n    tag_99:\n        /* \"#utility.yul\":6478:6484   */\n      0x00\n        /* \"#utility.yul\":6515:6516   */\n      0x02\n        /* \"#utility.yul\":6509:6513   */\n      dup3\n        /* \"#utility.yul\":6505:6517   */\n      div\n        /* \"#utility.yul\":6495:6517   */\n      swap1\n      pop\n        /* \"#utility.yul\":6562:6563   */\n      0x01\n        /* \"#utility.yul\":6556:6560   */\n      dup3\n        /* \"#utility.yul\":6552:6564   */\n      and\n        /* \"#utility.yul\":6583:6601   */\n      dup1\n        /* \"#utility.yul\":6573:6654   */\n      tag_393\n      jumpi\n        /* \"#utility.yul\":6639:6643   */\n      0x7f\n        /* \"#utility.yul\":6631:6637   */\n      dup3\n        /* \"#utility.yul\":6627:6644   */\n      and\n        /* \"#utility.yul\":6617:6644   */\n      swap2\n      pop\n        /* \"#utility.yul\":6573:6654   */\n    tag_393:\n        /* \"#utility.yul\":6701:6703   */\n      0x20\n        /* \"#utility.yul\":6693:6699   */\n      dup3\n        /* \"#utility.yul\":6690:6704   */\n      lt\n        /* \"#utility.yul\":6670:6688   */\n      dup2\n        /* \"#utility.yul\":6667:6705   */\n      sub\n        /* \"#utility.yul\":6664:6748   */\n      tag_394\n      jumpi\n        /* \"#utility.yul\":6720:6738   */\n      tag_395\n      tag_301\n      jump\t// in\n    tag_395:\n        /* \"#utility.yul\":6664:6748   */\n    tag_394:\n        /* \"#utility.yul\":6485:6754   */\n      pop\n        /* \"#utility.yul\":6434:6754   */\n      swap2\n      swap1\n      pop\n      jump\t// out\n        /* \"#utility.yul\":6760:6984   */\n    tag_302:\n        /* \"#utility.yul\":6900:6934   */\n      0x4e65772077616c6c65742063616e6e6f7420626520746865207a65726f206164\n        /* \"#utility.yul\":6896:6897   */\n      0x00\n        /* \"#utility.yul\":6888:6894   */\n      dup3\n        /* \"#utility.yul\":6884:6898   */\n      add\n        /* \"#utility.yul\":6877:6935   */\n      mstore\n        /* \"#utility.yul\":6969:6976   */\n      0x6472657373000000000000000000000000000000000000000000000000000000\n        /* \"#utility.yul\":6964:6966   */\n      0x20\n        /* \"#utility.yul\":6956:6962   */\n      dup3\n        /* \"#utility.yul\":6952:6967   */\n      add\n        /* \"#utility.yul\":6945:6977   */\n      mstore\n        /* \"#utility.yul\":6760:6984   */\n      pop\n      jump\t// out\n        /* \"#utility.yul\":6990:7356   */\n    tag_303:\n        /* \"#utility.yul\":7132:7135   */\n      0x00\n        /* \"#utility.yul\":7153:7220   */\n      tag_398\n        /* \"#utility.yul\":7217:7219   */\n      0x25\n        /* \"#utility.yul\":7212:7215   */\n      dup4\n        /* \"#utility.yul\":7153:7220   */\n      tag_281\n      jump\t// in\n    tag_398:\n        /* \"#utility.yul\":7146:7220   */\n      swap2\n      pop\n        /* \"#utility.yul\":7229:7322   */\n      tag_399\n        /* \"#utility.yul\":7318:7321   */\n      dup3\n        /* \"#utility.yul\":7229:7322   */\n      tag_302\n      jump\t// in\n    tag_399:\n        /* \"#utility.yul\":7347:7349   */\n      0x40\n        /* \"#utility.yul\":7342:7345   */\n      dup3\n        /* \"#utility.yul\":7338:7350   */\n      add\n        /* \"#utility.yul\":7331:7350   */\n      swap1\n      pop\n        /* \"#utility.yul\":6990:7356   */\n      swap2\n      swap1\n      pop\n      jump\t// out\n        /* \"#utility.yul\":7362:7781   */\n    tag_113:\n        /* \"#utility.yul\":7528:7532   */\n      0x00\n        /* \"#utility.yul\":7566:7568   */\n      0x20\n        /* \"#utility.yul\":7555:7564   */\n      dup3\n        /* \"#utility.yul\":7551:7569   */\n      add\n        /* \"#utility.yul\":7543:7569   */\n      swap1\n      pop\n        /* \"#utility.yul\":7615:7624   */\n      dup2\n        /* \"#utility.yul\":7609:7613   */\n      dup2\n        /* \"#utility.yul\":7605:7625   */\n      sub\n        /* \"#utility.yul\":7601:7602   */\n      0x00\n        /* \"#utility.yul\":7590:7599   */\n      dup4\n        /* \"#utility.yul\":7586:7603   */\n      add\n        /* \"#utility.yul\":7579:7626   */\n      mstore\n        /* \"#utility.yul\":7643:7774   */\n      tag_401\n        /* \"#utility.yul\":7769:7773   */\n      dup2\n        /* \"#utility.yul\":7643:7774   */\n      tag_303\n      jump\t// in\n    tag_401:\n        /* \"#utility.yul\":7635:7774   */\n      swap1\n      pop\n        /* \"#utility.yul\":7362:7781   */\n      swap2\n      swap1\n      pop\n      jump\t// out\n        /* \"#utility.yul\":7787:8017   */\n    tag_304:\n        /* \"#utility.yul\":7927:7961   */\n      0x557365722068617320696e73756666696369656e742062616c616e636520666f\n        /* \"#utility.yul\":7923:7924   */\n      0x00\n        /* \"#utility.yul\":7915:7921   */\n      dup3\n        /* \"#utility.yul\":7911:7925   */\n      add\n        /* \"#utility.yul\":7904:7962   */\n      mstore\n        /* \"#utility.yul\":7996:8009   */\n      0x72207472616e736665722e000000000000000000000000000000000000000000\n        /* \"#utility.yul\":7991:7993   */\n      0x20\n        /* \"#utility.yul\":7983:7989   */\n      dup3\n        /* \"#utility.yul\":7979:7994   */\n      add\n        /* \"#utility.yul\":7972:8010   */\n      mstore\n        /* \"#utility.yul\":7787:8017   */\n      pop\n      jump\t// out\n        /* \"#utility.yul\":8023:8389   */\n    tag_305:\n        /* \"#utility.yul\":8165:8168   */\n      0x00\n        /* \"#utility.yul\":8186:8253   */\n      tag_404\n        /* \"#utility.yul\":8250:8252   */\n      0x2b\n        /* \"#utility.yul\":8245:8248   */\n      dup4\n        /* \"#utility.yul\":8186:8253   */\n      tag_281\n      jump\t// in\n    tag_404:\n        /* \"#utility.yul\":8179:8253   */\n      swap2\n      pop\n        /* \"#utility.yul\":8262:8355   */\n      tag_405\n        /* \"#utility.yul\":8351:8354   */\n      dup3\n        /* \"#utility.yul\":8262:8355   */\n      tag_304\n      jump\t// in\n    tag_405:\n        /* \"#utility.yul\":8380:8382   */\n      0x40\n        /* \"#utility.yul\":8375:8378   */\n      dup3\n        /* \"#utility.yul\":8371:8383   */\n      add\n        /* \"#utility.yul\":8364:8383   */\n      swap1\n      pop\n        /* \"#utility.yul\":8023:8389   */\n      swap2\n      swap1\n      pop\n      jump\t// out\n        /* \"#utility.yul\":8395:8814   */\n    tag_117:\n        /* \"#utility.yul\":8561:8565   */\n      0x00\n        /* \"#utility.yul\":8599:8601   */\n      0x20\n        /* \"#utility.yul\":8588:8597   */\n      dup3\n        /* \"#utility.yul\":8584:8602   */\n      add\n        /* \"#utility.yul\":8576:8602   */\n      swap1\n      pop\n        /* \"#utility.yul\":8648:8657   */\n      dup2\n        /* \"#utility.yul\":8642:8646   */\n      dup2\n        /* \"#utility.yul\":8638:8658   */\n      sub\n        /* \"#utility.yul\":8634:8635   */\n      0x00\n        /* \"#utility.yul\":8623:8632   */\n      dup4\n        /* \"#utility.yul\":8619:8636   */\n      add\n        /* \"#utility.yul\":8612:8659   */\n      mstore\n        /* \"#utility.yul\":8676:8807   */\n      tag_407\n        /* \"#utility.yul\":8802:8806   */\n      dup2\n        /* \"#utility.yul\":8676:8807   */\n      tag_305\n      jump\t// in\n    tag_407:\n        /* \"#utility.yul\":8668:8807   */\n      swap1\n      pop\n        /* \"#utility.yul\":8395:8814   */\n      swap2\n      swap1\n      pop\n      jump\t// out\n        /* \"#utility.yul\":8820:9065   */\n    tag_306:\n        /* \"#utility.yul\":8960:8994   */\n      0x526577617264546f6b656e3a204d757374207573652061205472757374656420\n        /* \"#utility.yul\":8956:8957   */\n      0x00\n        /* \"#utility.yul\":8948:8954   */\n      dup3\n        /* \"#utility.yul\":8944:8958   */\n      add\n        /* \"#utility.yul\":8937:8995   */\n      mstore\n        /* \"#utility.yul\":9029:9057   */\n      0x466f72776172646572206f7220626520746865204f776e65722e000000000000\n        /* \"#utility.yul\":9024:9026   */\n      0x20\n        /* \"#utility.yul\":9016:9022   */\n      dup3\n        /* \"#utility.yul\":9012:9027   */\n      add\n        /* \"#utility.yul\":9005:9058   */\n      mstore\n        /* \"#utility.yul\":8820:9065   */\n      pop\n      jump\t// out\n        /* \"#utility.yul\":9071:9437   */\n    tag_307:\n        /* \"#utility.yul\":9213:9216   */\n      0x00\n        /* \"#utility.yul\":9234:9301   */\n      tag_410\n        /* \"#utility.yul\":9298:9300   */\n      0x3a\n        /* \"#utility.yul\":9293:9296   */\n      dup4\n        /* \"#utility.yul\":9234:9301   */\n      tag_281\n      jump\t// in\n    tag_410:\n        /* \"#utility.yul\":9227:9301   */\n      swap2\n      pop\n        /* \"#utility.yul\":9310:9403   */\n      tag_411\n        /* \"#utility.yul\":9399:9402   */\n      dup3\n        /* \"#utility.yul\":9310:9403   */\n      tag_306\n      jump\t// in\n    tag_411:\n        /* \"#utility.yul\":9428:9430   */\n      0x40\n        /* \"#utility.yul\":9423:9426   */\n      dup3\n        /* \"#utility.yul\":9419:9431   */\n      add\n        /* \"#utility.yul\":9412:9431   */\n      swap1\n      pop\n        /* \"#utility.yul\":9071:9437   */\n      swap2\n      swap1\n      pop\n      jump\t// out\n        /* \"#utility.yul\":9443:9862   */\n    tag_134:\n        /* \"#utility.yul\":9609:9613   */\n      0x00\n        /* \"#utility.yul\":9647:9649   */\n      0x20\n        /* \"#utility.yul\":9636:9645   */\n      dup3\n        /* \"#utility.yul\":9632:9650   */\n      add\n        /* \"#utility.yul\":9624:9650   */\n      swap1\n      pop\n        /* \"#utility.yul\":9696:9705   */\n      dup2\n        /* \"#utility.yul\":9690:9694   */\n      dup2\n        /* \"#utility.yul\":9686:9706   */\n      sub\n        /* \"#utility.yul\":9682:9683   */\n      0x00\n        /* \"#utility.yul\":9671:9680   */\n      dup4\n        /* \"#utility.yul\":9667:9684   */\n      add\n        /* \"#utility.yul\":9660:9707   */\n      mstore\n        /* \"#utility.yul\":9724:9855   */\n      tag_413\n        /* \"#utility.yul\":9850:9854   */\n      dup2\n        /* \"#utility.yul\":9724:9855   */\n      tag_307\n      jump\t// in\n    tag_413:\n        /* \"#utility.yul\":9716:9855   */\n      swap1\n      pop\n        /* \"#utility.yul\":9443:9862   */\n      swap2\n      swap1\n      pop\n      jump\t// out\n        /* \"#utility.yul\":9868:10032   */\n    tag_308:\n        /* \"#utility.yul\":10008:10024   */\n      0x546f6b656e732072756e206f7574000000000000000000000000000000000000\n        /* \"#utility.yul\":10004:10005   */\n      0x00\n        /* \"#utility.yul\":9996:10002   */\n      dup3\n        /* \"#utility.yul\":9992:10006   */\n      add\n        /* \"#utility.yul\":9985:10025   */\n      mstore\n        /* \"#utility.yul\":9868:10032   */\n      pop\n      jump\t// out\n        /* \"#utility.yul\":10038:10404   */\n    tag_309:\n        /* \"#utility.yul\":10180:10183   */\n      0x00\n        /* \"#utility.yul\":10201:10268   */\n      tag_416\n        /* \"#utility.yul\":10265:10267   */\n      0x0e\n        /* \"#utility.yul\":10260:10263   */\n      dup4\n        /* \"#utility.yul\":10201:10268   */\n      tag_281\n      jump\t// in\n    tag_416:\n        /* \"#utility.yul\":10194:10268   */\n      swap2\n      pop\n        /* \"#utility.yul\":10277:10370   */\n      tag_417\n        /* \"#utility.yul\":10366:10369   */\n      dup3\n        /* \"#utility.yul\":10277:10370   */\n      tag_308\n      jump\t// in\n    tag_417:\n        /* \"#utility.yul\":10395:10397   */\n      0x20\n        /* \"#utility.yul\":10390:10393   */\n      dup3\n        /* \"#utility.yul\":10386:10398   */\n      add\n        /* \"#utility.yul\":10379:10398   */\n      swap1\n      pop\n        /* \"#utility.yul\":10038:10404   */\n      swap2\n      swap1\n      pop\n      jump\t// out\n        /* \"#utility.yul\":10410:10829   */\n    tag_176:\n        /* \"#utility.yul\":10576:10580   */\n      0x00\n        /* \"#utility.yul\":10614:10616   */\n      0x20\n        /* \"#utility.yul\":10603:10612   */\n      dup3\n        /* \"#utility.yul\":10599:10617   */\n      add\n        /* \"#utility.yul\":10591:10617   */\n      swap1\n      pop\n        /* \"#utility.yul\":10663:10672   */\n      dup2\n        /* \"#utility.yul\":10657:10661   */\n      dup2\n        /* \"#utility.yul\":10653:10673   */\n      sub\n        /* \"#utility.yul\":10649:10650   */\n      0x00\n        /* \"#utility.yul\":10638:10647   */\n      dup4\n        /* \"#utility.yul\":10634:10651   */\n      add\n        /* \"#utility.yul\":10627:10674   */\n      mstore\n        /* \"#utility.yul\":10691:10822   */\n      tag_419\n        /* \"#utility.yul\":10817:10821   */\n      dup2\n        /* \"#utility.yul\":10691:10822   */\n      tag_309\n      jump\t// in\n    tag_419:\n        /* \"#utility.yul\":10683:10822   */\n      swap1\n      pop\n        /* \"#utility.yul\":10410:10829   */\n      swap2\n      swap1\n      pop\n      jump\t// out\n        /* \"#utility.yul\":10835:11015   */\n    tag_310:\n        /* \"#utility.yul\":10883:10960   */\n      0x4e487b7100000000000000000000000000000000000000000000000000000000\n        /* \"#utility.yul\":10880:10881   */\n      0x00\n        /* \"#utility.yul\":10873:10961   */\n      mstore\n        /* \"#utility.yul\":10980:10984   */\n      0x11\n        /* \"#utility.yul\":10977:10978   */\n      0x04\n        /* \"#utility.yul\":10970:10985   */\n      mstore\n        /* \"#utility.yul\":11004:11008   */\n      0x24\n        /* \"#utility.yul\":11001:11002   */\n      0x00\n        /* \"#utility.yul\":10994:11009   */\n      revert\n        /* \"#utility.yul\":11021:11123   */\n    tag_311:\n        /* \"#utility.yul\":11063:11071   */\n      0x00\n        /* \"#utility.yul\":11110:11115   */\n      dup2\n        /* \"#utility.yul\":11107:11108   */\n      0x01\n        /* \"#utility.yul\":11103:11116   */\n      shr\n        /* \"#utility.yul\":11082:11116   */\n      swap1\n      pop\n        /* \"#utility.yul\":11021:11123   */\n      swap2\n      swap1\n      pop\n      jump\t// out\n        /* \"#utility.yul\":11129:11977   */\n    tag_312:\n        /* \"#utility.yul\":11190:11195   */\n      0x00\n        /* \"#utility.yul\":11197:11201   */\n      0x00\n        /* \"#utility.yul\":11221:11227   */\n      dup3\n        /* \"#utility.yul\":11212:11227   */\n      swap2\n      pop\n        /* \"#utility.yul\":11245:11250   */\n      dup4\n        /* \"#utility.yul\":11236:11250   */\n      swap1\n      pop\n        /* \"#utility.yul\":11259:11971   */\n    tag_423:\n        /* \"#utility.yul\":11280:11281   */\n      0x01\n        /* \"#utility.yul\":11270:11278   */\n      dup6\n        /* \"#utility.yul\":11267:11282   */\n      gt\n        /* \"#utility.yul\":11259:11971   */\n      iszero\n      tag_425\n      jumpi\n        /* \"#utility.yul\":11375:11379   */\n      dup1\n        /* \"#utility.yul\":11370:11373   */\n      dup7\n        /* \"#utility.yul\":11366:11380   */\n      div\n        /* \"#utility.yul\":11360:11364   */\n      dup2\n        /* \"#utility.yul\":11357:11381   */\n      gt\n        /* \"#utility.yul\":11354:11404   */\n      iszero\n      tag_426\n      jumpi\n        /* \"#utility.yul\":11384:11402   */\n      tag_427\n      tag_310\n      jump\t// in\n    tag_427:\n        /* \"#utility.yul\":11354:11404   */\n    tag_426:\n        /* \"#utility.yul\":11434:11435   */\n      0x01\n        /* \"#utility.yul\":11424:11432   */\n      dup6\n        /* \"#utility.yul\":11420:11436   */\n      and\n        /* \"#utility.yul\":11417:11868   */\n      iszero\n      tag_428\n      jumpi\n        /* \"#utility.yul\":11849:11853   */\n      dup1\n        /* \"#utility.yul\":11842:11847   */\n      dup3\n        /* \"#utility.yul\":11838:11854   */\n      mul\n        /* \"#utility.yul\":11829:11854   */\n      swap2\n      pop\n        /* \"#utility.yul\":11417:11868   */\n    tag_428:\n        /* \"#utility.yul\":11899:11903   */\n      dup1\n        /* \"#utility.yul\":11893:11897   */\n      dup2\n        /* \"#utility.yul\":11889:11904   */\n      mul\n        /* \"#utility.yul\":11881:11904   */\n      swap1\n      pop\n        /* \"#utility.yul\":11929:11961   */\n      tag_429\n        /* \"#utility.yul\":11952:11960   */\n      dup6\n        /* \"#utility.yul\":11929:11961   */\n      tag_311\n      jump\t// in\n    tag_429:\n        /* \"#utility.yul\":11917:11961   */\n      swap5\n      pop\n        /* \"#utility.yul\":11259:11971   */\n      jump(tag_423)\n    tag_425:\n        /* \"#utility.yul\":11129:11977   */\n      swap5\n      pop\n      swap5\n      swap3\n      pop\n      pop\n      pop\n      jump\t// out\n        /* \"#utility.yul\":11983:13056   */\n    tag_313:\n        /* \"#utility.yul\":12037:12042   */\n      0x00\n        /* \"#utility.yul\":12228:12236   */\n      dup3\n        /* \"#utility.yul\":12218:12258   */\n      tag_431\n      jumpi\n        /* \"#utility.yul\":12249:12250   */\n      0x01\n        /* \"#utility.yul\":12240:12250   */\n      swap1\n      pop\n        /* \"#utility.yul\":12251:12256   */\n      jump(tag_430)\n        /* \"#utility.yul\":12218:12258   */\n    tag_431:\n        /* \"#utility.yul\":12277:12281   */\n      dup2\n        /* \"#utility.yul\":12267:12303   */\n      tag_432\n      jumpi\n        /* \"#utility.yul\":12294:12295   */\n      0x00\n        /* \"#utility.yul\":12285:12295   */\n      swap1\n      pop\n        /* \"#utility.yul\":12296:12301   */\n      jump(tag_430)\n        /* \"#utility.yul\":12267:12303   */\n    tag_432:\n        /* \"#utility.yul\":12363:12367   */\n      dup2\n        /* \"#utility.yul\":12411:12412   */\n      0x01\n        /* \"#utility.yul\":12406:12433   */\n      dup2\n      eq\n      tag_434\n      jumpi\n        /* \"#utility.yul\":12447:12448   */\n      0x02\n        /* \"#utility.yul\":12442:12633   */\n      dup2\n      eq\n      tag_435\n      jumpi\n        /* \"#utility.yul\":12356:12633   */\n      jump(tag_433)\n        /* \"#utility.yul\":12406:12433   */\n    tag_434:\n        /* \"#utility.yul\":12424:12425   */\n      0x01\n        /* \"#utility.yul\":12415:12425   */\n      swap2\n      pop\n        /* \"#utility.yul\":12426:12431   */\n      pop\n      jump(tag_430)\n        /* \"#utility.yul\":12442:12633   */\n    tag_435:\n        /* \"#utility.yul\":12487:12490   */\n      0xff\n        /* \"#utility.yul\":12477:12485   */\n      dup5\n        /* \"#utility.yul\":12474:12491   */\n      gt\n        /* \"#utility.yul\":12471:12514   */\n      iszero\n      tag_436\n      jumpi\n        /* \"#utility.yul\":12494:12512   */\n      tag_437\n      tag_310\n      jump\t// in\n    tag_437:\n        /* \"#utility.yul\":12471:12514   */\n    tag_436:\n        /* \"#utility.yul\":12543:12551   */\n      dup4\n        /* \"#utility.yul\":12540:12541   */\n      0x02\n        /* \"#utility.yul\":12536:12552   */\n      exp\n        /* \"#utility.yul\":12527:12552   */\n      swap2\n      pop\n        /* \"#utility.yul\":12578:12581   */\n      dup5\n        /* \"#utility.yul\":12571:12576   */\n      dup3\n        /* \"#utility.yul\":12568:12582   */\n      gt\n        /* \"#utility.yul\":12565:12605   */\n      iszero\n      tag_438\n      jumpi\n        /* \"#utility.yul\":12585:12603   */\n      tag_439\n      tag_310\n      jump\t// in\n    tag_439:\n        /* \"#utility.yul\":12565:12605   */\n    tag_438:\n        /* \"#utility.yul\":12618:12623   */\n      pop\n      jump(tag_430)\n        /* \"#utility.yul\":12356:12633   */\n    tag_433:\n      pop\n        /* \"#utility.yul\":12742:12744   */\n      0x20\n        /* \"#utility.yul\":12732:12740   */\n      dup4\n        /* \"#utility.yul\":12729:12745   */\n      lt\n        /* \"#utility.yul\":12723:12726   */\n      0x0133\n        /* \"#utility.yul\":12717:12721   */\n      dup4\n        /* \"#utility.yul\":12714:12727   */\n      lt\n        /* \"#utility.yul\":12710:12746   */\n      and\n        /* \"#utility.yul\":12692:12694   */\n      0x4e\n        /* \"#utility.yul\":12682:12690   */\n      dup5\n        /* \"#utility.yul\":12679:12695   */\n      lt\n        /* \"#utility.yul\":12674:12676   */\n      0x0b\n        /* \"#utility.yul\":12668:12672   */\n      dup5\n        /* \"#utility.yul\":12665:12677   */\n      lt\n        /* \"#utility.yul\":12661:12696   */\n      and\n        /* \"#utility.yul\":12645:12756   */\n      or\n        /* \"#utility.yul\":12642:12888   */\n      iszero\n      tag_440\n      jumpi\n        /* \"#utility.yul\":12798:12806   */\n      dup3\n        /* \"#utility.yul\":12792:12796   */\n      dup3\n        /* \"#utility.yul\":12788:12807   */\n      exp\n        /* \"#utility.yul\":12779:12807   */\n      swap1\n      pop\n        /* \"#utility.yul\":12833:12836   */\n      dup4\n        /* \"#utility.yul\":12826:12831   */\n      dup2\n        /* \"#utility.yul\":12823:12837   */\n      gt\n        /* \"#utility.yul\":12820:12860   */\n      iszero\n      tag_441\n      jumpi\n        /* \"#utility.yul\":12840:12858   */\n      tag_442\n      tag_310\n      jump\t// in\n    tag_442:\n        /* \"#utility.yul\":12820:12860   */\n    tag_441:\n        /* \"#utility.yul\":12873:12878   */\n      jump(tag_430)\n        /* \"#utility.yul\":12642:12888   */\n    tag_440:\n        /* \"#utility.yul\":12913:12955   */\n      tag_443\n        /* \"#utility.yul\":12951:12954   */\n      dup5\n        /* \"#utility.yul\":12941:12949   */\n      dup5\n        /* \"#utility.yul\":12935:12939   */\n      dup5\n        /* \"#utility.yul\":12932:12933   */\n      0x01\n        /* \"#utility.yul\":12913:12955   */\n      tag_312\n      jump\t// in\n    tag_443:\n        /* \"#utility.yul\":12898:12955   */\n      swap3\n      pop\n      swap1\n      pop\n        /* \"#utility.yul\":12987:12991   */\n      dup2\n        /* \"#utility.yul\":12982:12985   */\n      dup5\n        /* \"#utility.yul\":12978:12992   */\n      div\n        /* \"#utility.yul\":12971:12976   */\n      dup2\n        /* \"#utility.yul\":12968:12993   */\n      gt\n        /* \"#utility.yul\":12965:13016   */\n      iszero\n      tag_444\n      jumpi\n        /* \"#utility.yul\":12996:13014   */\n      tag_445\n      tag_310\n      jump\t// in\n    tag_445:\n        /* \"#utility.yul\":12965:13016   */\n    tag_444:\n        /* \"#utility.yul\":13045:13049   */\n      dup2\n        /* \"#utility.yul\":13038:13043   */\n      dup2\n        /* \"#utility.yul\":13034:13050   */\n      mul\n        /* \"#utility.yul\":13025:13050   */\n      swap1\n      pop\n        /* \"#utility.yul\":11983:13056   */\n    tag_430:\n      swap4\n      swap3\n      pop\n      pop\n      pop\n      jump\t// out\n        /* \"#utility.yul\":13062:13343   */\n    tag_215:\n        /* \"#utility.yul\":13120:13125   */\n      0x00\n        /* \"#utility.yul\":13144:13167   */\n      tag_447\n        /* \"#utility.yul\":13162:13166   */\n      dup3\n        /* \"#utility.yul\":13144:13167   */\n      tag_292\n      jump\t// in\n    tag_447:\n        /* \"#utility.yul\":13136:13167   */\n      swap2\n      pop\n        /* \"#utility.yul\":13188:13213   */\n      tag_448\n        /* \"#utility.yul\":13204:13212   */\n      dup4\n        /* \"#utility.yul\":13188:13213   */\n      tag_298\n      jump\t// in\n    tag_448:\n        /* \"#utility.yul\":13176:13213   */\n      swap3\n      pop\n        /* \"#utility.yul\":13232:13336   */\n      tag_449\n        /* \"#utility.yul\":13269:13335   */\n      0xffffffffffffffffffffffffffffffffffffffffffffffffffffffffffffffff\n        /* \"#utility.yul\":13259:13267   */\n      dup5\n        /* \"#utility.yul\":13253:13257   */\n      dup5\n        /* \"#utility.yul\":13232:13336   */\n      tag_313\n      jump\t// in\n    tag_449:\n        /* \"#utility.yul\":13223:13336   */\n      swap1\n      pop\n        /* \"#utility.yul\":13062:13343   */\n      swap3\n      swap2\n      pop\n      pop\n      jump\t// out\n        /* \"#utility.yul\":13349:13759   */\n    tag_217:\n        /* \"#utility.yul\":13389:13396   */\n      0x00\n        /* \"#utility.yul\":13412:13432   */\n      tag_451\n        /* \"#utility.yul\":13430:13431   */\n      dup3\n        /* \"#utility.yul\":13412:13432   */\n      tag_292\n      jump\t// in\n    tag_451:\n        /* \"#utility.yul\":13407:13432   */\n      swap2\n      pop\n        /* \"#utility.yul\":13446:13466   */\n      tag_452\n        /* \"#utility.yul\":13464:13465   */\n      dup4\n        /* \"#utility.yul\":13446:13466   */\n      tag_292\n      jump\t// in\n    tag_452:\n        /* \"#utility.yul\":13441:13466   */\n      swap3\n      pop\n        /* \"#utility.yul\":13501:13502   */\n      dup3\n        /* \"#utility.yul\":13498:13499   */\n      dup3\n        /* \"#utility.yul\":13494:13503   */\n      mul\n        /* \"#utility.yul\":13523:13553   */\n      tag_453\n        /* \"#utility.yul\":13541:13552   */\n      dup2\n        /* \"#utility.yul\":13523:13553   */\n      tag_292\n      jump\t// in\n    tag_453:\n        /* \"#utility.yul\":13512:13553   */\n      swap2\n      pop\n        /* \"#utility.yul\":13702:13703   */\n      dup3\n        /* \"#utility.yul\":13693:13700   */\n      dup3\n        /* \"#utility.yul\":13689:13704   */\n      div\n        /* \"#utility.yul\":13686:13687   */\n      dup5\n        /* \"#utility.yul\":13683:13705   */\n      eq\n        /* \"#utility.yul\":13663:13664   */\n      dup4\n        /* \"#utility.yul\":13656:13665   */\n      iszero\n        /* \"#utility.yul\":13636:13719   */\n      or\n        /* \"#utility.yul\":13613:13752   */\n      tag_454\n      jumpi\n        /* \"#utility.yul\":13732:13750   */\n      tag_455\n      tag_310\n      jump\t// in\n    tag_455:\n        /* \"#utility.yul\":13613:13752   */\n    tag_454:\n        /* \"#utility.yul\":13397:13759   */\n      pop\n        /* \"#utility.yul\":13349:13759   */\n      swap3\n      swap2\n      pop\n      pop\n      jump\t// out\n        /* \"#utility.yul\":13765:14207   */\n    tag_230:\n        /* \"#utility.yul\":13914:13918   */\n      0x00\n        /* \"#utility.yul\":13952:13954   */\n      0x60\n        /* \"#utility.yul\":13941:13950   */\n      dup3\n        /* \"#utility.yul\":13937:13955   */\n      add\n        /* \"#utility.yul\":13929:13955   */\n      swap1\n      pop\n        /* \"#utility.yul\":13965:14036   */\n      tag_457\n        /* \"#utility.yul\":14033:14034   */\n      0x00\n        /* \"#utility.yul\":14022:14031   */\n      dup4\n        /* \"#utility.yul\":14018:14035   */\n      add\n        /* \"#utility.yul\":14009:14015   */\n      dup7\n        /* \"#utility.yul\":13965:14036   */\n      tag_300\n      jump\t// in\n    tag_457:\n        /* \"#utility.yul\":14046:14118   */\n      tag_458\n        /* \"#utility.yul\":14114:14116   */\n      0x20\n        /* \"#utility.yul\":14103:14112   */\n      dup4\n        /* \"#utility.yul\":14099:14117   */\n      add\n        /* \"#utility.yul\":14090:14096   */\n      dup6\n        /* \"#utility.yul\":14046:14118   */\n      tag_297\n      jump\t// in\n    tag_458:\n        /* \"#utility.yul\":14128:14200   */\n      tag_459\n        /* \"#utility.yul\":14196:14198   */\n      0x40\n        /* \"#utility.yul\":14185:14194   */\n      dup4\n        /* \"#utility.yul\":14181:14199   */\n      add\n        /* \"#utility.yul\":14172:14178   */\n      dup5\n        /* \"#utility.yul\":14128:14200   */\n      tag_297\n      jump\t// in\n    tag_459:\n        /* \"#utility.yul\":13765:14207   */\n      swap5\n      swap4\n      pop\n      pop\n      pop\n      pop\n      jump\t// out\n        /* \"#utility.yul\":14213:14330   */\n    tag_314:\n        /* \"#utility.yul\":14322:14323   */\n      0x00\n        /* \"#utility.yul\":14319:14320   */\n      0x00\n        /* \"#utility.yul\":14312:14324   */\n      revert\n        /* \"#utility.yul\":14336:14453   */\n    tag_315:\n        /* \"#utility.yul\":14445:14446   */\n      0x00\n        /* \"#utility.yul\":14442:14443   */\n      0x00\n        /* \"#utility.yul\":14435:14447   */\n      revert\n        /* \"#utility.yul\":14459:14928   */\n    tag_252:\n        /* \"#utility.yul\":14564:14573   */\n      0x00\n        /* \"#utility.yul\":14575:14584   */\n      0x00\n        /* \"#utility.yul\":14613:14621   */\n      dup6\n        /* \"#utility.yul\":14601:14611   */\n      dup6\n        /* \"#utility.yul\":14598:14622   */\n      gt\n        /* \"#utility.yul\":14595:14706   */\n      iszero\n      tag_463\n      jumpi\n        /* \"#utility.yul\":14625:14704   */\n      tag_464\n      tag_314\n      jump\t// in\n    tag_464:\n        /* \"#utility.yul\":14595:14706   */\n    tag_463:\n        /* \"#utility.yul\":14731:14737   */\n      dup4\n        /* \"#utility.yul\":14721:14729   */\n      dup7\n        /* \"#utility.yul\":14718:14738   */\n      gt\n        /* \"#utility.yul\":14715:14822   */\n      iszero\n      tag_465\n      jumpi\n        /* \"#utility.yul\":14741:14820   */\n      tag_466\n      tag_315\n      jump\t// in\n    tag_466:\n        /* \"#utility.yul\":14715:14822   */\n    tag_465:\n        /* \"#utility.yul\":14872:14873   */\n      0x01\n        /* \"#utility.yul\":14860:14870   */\n      dup6\n        /* \"#utility.yul\":14856:14874   */\n      mul\n        /* \"#utility.yul\":14848:14854   */\n      dup4\n        /* \"#utility.yul\":14844:14875   */\n      add\n        /* \"#utility.yul\":14831:14875   */\n      swap2\n      pop\n        /* \"#utility.yul\":14911:14921   */\n      dup5\n        /* \"#utility.yul\":14901:14909   */\n      dup7\n        /* \"#utility.yul\":14897:14922   */\n      sub\n        /* \"#utility.yul\":14884:14922   */\n      swap1\n      pop\n        /* \"#utility.yul\":14459:14928   */\n      swap5\n      pop\n      swap5\n      swap3\n      pop\n      pop\n      pop\n      jump\t// out\n        /* \"#utility.yul\":14934:15030   */\n    tag_316:\n        /* \"#utility.yul\":14992:14998   */\n      0x00\n        /* \"#utility.yul\":15020:15023   */\n      dup3\n        /* \"#utility.yul\":15010:15023   */\n      swap1\n      pop\n        /* \"#utility.yul\":14934:15030   */\n      swap3\n      swap2\n      pop\n      pop\n      jump\t// out\n        /* \"#utility.yul\":15128:15278   */\n    tag_318:\n        /* \"#utility.yul\":15165:15172   */\n      0x00\n        /* \"#utility.yul\":15205:15271   */\n      0xffffffffffffffffffffffffffffffffffffffff000000000000000000000000\n        /* \"#utility.yul\":15198:15203   */\n      dup3\n        /* \"#utility.yul\":15194:15272   */\n      and\n        /* \"#utility.yul\":15183:15272   */\n      swap1\n      pop\n        /* \"#utility.yul\":15128:15278   */\n      swap2\n      swap1\n      pop\n      jump\t// out\n        /* \"#utility.yul\":15284:15391   */\n    tag_319:\n        /* \"#utility.yul\":15328:15336   */\n      0x00\n        /* \"#utility.yul\":15378:15383   */\n      dup3\n        /* \"#utility.yul\":15372:15376   */\n      dup3\n        /* \"#utility.yul\":15368:15384   */\n      shl\n        /* \"#utility.yul\":15347:15384   */\n      swap1\n      pop\n        /* \"#utility.yul\":15284:15391   */\n      swap3\n      swap2\n      pop\n      pop\n      jump\t// out\n        /* \"#utility.yul\":15397:15949   */\n    tag_254:\n        /* \"#utility.yul\":15488:15493   */\n      0x00\n        /* \"#utility.yul\":15519:15564   */\n      tag_472\n        /* \"#utility.yul\":15560:15563   */\n      dup4\n        /* \"#utility.yul\":15553:15558   */\n      dup4\n        /* \"#utility.yul\":15519:15564   */\n      tag_316\n      jump\t// in\n    tag_472:\n        /* \"#utility.yul\":15589:15594   */\n      dup3\n        /* \"#utility.yul\":15613:15654   */\n      tag_473\n        /* \"#utility.yul\":15644:15652   */\n      dup2\n        /* \"#utility.yul\":15631:15653   */\n      calldataload\n        /* \"#utility.yul\":15613:15654   */\n      tag_318\n      jump\t// in\n    tag_473:\n        /* \"#utility.yul\":15604:15654   */\n      swap3\n      pop\n        /* \"#utility.yul\":15678:15680   */\n      0x14\n        /* \"#utility.yul\":15670:15676   */\n      dup3\n        /* \"#utility.yul\":15667:15681   */\n      lt\n        /* \"#utility.yul\":15664:15942   */\n      iszero\n      tag_474\n      jumpi\n        /* \"#utility.yul\":15749:15918   */\n      tag_475\n        /* \"#utility.yul\":15834:15900   */\n      0xffffffffffffffffffffffffffffffffffffffff000000000000000000000000\n        /* \"#utility.yul\":15804:15810   */\n      dup4\n        /* \"#utility.yul\":15800:15802   */\n      0x14\n        /* \"#utility.yul\":15796:15811   */\n      sub\n        /* \"#utility.yul\":15793:15794   */\n      0x08\n        /* \"#utility.yul\":15789:15812   */\n      mul\n        /* \"#utility.yul\":15749:15918   */\n      tag_319\n      jump\t// in\n    tag_475:\n        /* \"#utility.yul\":15726:15731   */\n      dup4\n        /* \"#utility.yul\":15705:15932   */\n      and\n        /* \"#utility.yul\":15696:15932   */\n      swap3\n      pop\n        /* \"#utility.yul\":15664:15942   */\n    tag_474:\n        /* \"#utility.yul\":15494:15949   */\n      pop\n      pop\n        /* \"#utility.yul\":15397:15949   */\n      swap3\n      swap2\n      pop\n      pop\n      jump\t// out\n        /* \"#utility.yul\":15955:16146   */\n    tag_268:\n        /* \"#utility.yul\":15995:15998   */\n      0x00\n        /* \"#utility.yul\":16014:16034   */\n      tag_477\n        /* \"#utility.yul\":16032:16033   */\n      dup3\n        /* \"#utility.yul\":16014:16034   */\n      tag_292\n      jump\t// in\n    tag_477:\n        /* \"#utility.yul\":16009:16034   */\n      swap2\n      pop\n        /* \"#utility.yul\":16048:16068   */\n      tag_478\n        /* \"#utility.yul\":16066:16067   */\n      dup4\n        /* \"#utility.yul\":16048:16068   */\n      tag_292\n      jump\t// in\n    tag_478:\n        /* \"#utility.yul\":16043:16068   */\n      swap3\n      pop\n        /* \"#utility.yul\":16091:16092   */\n      dup3\n        /* \"#utility.yul\":16088:16089   */\n      dup3\n        /* \"#utility.yul\":16084:16093   */\n      add\n        /* \"#utility.yul\":16077:16093   */\n      swap1\n      pop\n        /* \"#utility.yul\":16112:16115   */\n      dup1\n        /* \"#utility.yul\":16109:16110   */\n      dup3\n        /* \"#utility.yul\":16106:16116   */\n      gt\n        /* \"#utility.yul\":16103:16139   */\n      iszero\n      tag_479\n      jumpi\n        /* \"#utility.yul\":16119:16137   */\n      tag_480\n      tag_310\n      jump\t// in\n    tag_480:\n        /* \"#utility.yul\":16103:16139   */\n    tag_479:\n        /* \"#utility.yul\":15955:16146   */\n      swap3\n      swap2\n      pop\n      pop\n      jump\t// out\n\n    auxdata: 0xa2646970667358221220e834cd8953f28011b70689fde6d68d5d4a6760cd1cd1374299a278148d5eacfb64736f6c634300081e0033\n}\n",
				"bytecode": {
					"linkReferences": {},
					"object": "60c060405234801561000f575f5ffd5b506040516128473803806128478339818101604052810190610031919061061a565b81836040518060400160405280600e81526020017f526577617264203120546f6b656e0000000000000000000000000000000000008152506040518060400160405280600581526020017f525744203100000000000000000000000000000000000000000000000000000081525081600390816100ae919061089e565b5080600490816100be919061089e565b5050508073ffffffffffffffffffffffffffffffffffffffff1660808173ffffffffffffffffffffffffffffffffffffffff1681525050505f73ffffffffffffffffffffffffffffffffffffffff168173ffffffffffffffffffffffffffffffffffffffff1603610166575f6040517f1e4fbdf700000000000000000000000000000000000000000000000000000000815260040161015d919061097c565b60405180910390fd5b610175816101f860201b60201c565b505f6101856102bb60201b60201c565b600a6101919190610afd565b8261019c9190610b47565b90508373ffffffffffffffffffffffffffffffffffffffff1660a08173ffffffffffffffffffffffffffffffffffffffff16815250506101ef6101e36102c360201b60201c565b826102eb60201b60201c565b50505050610c18565b5f60055f9054906101000a900473ffffffffffffffffffffffffffffffffffffffff1690508160055f6101000a81548173ffffffffffffffffffffffffffffffffffffffff021916908373ffffffffffffffffffffffffffffffffffffffff1602179055508173ffffffffffffffffffffffffffffffffffffffff168173ffffffffffffffffffffffffffffffffffffffff167f8be0079c531659141344cd1fd0a4f28419497f9722a3daafe3b4186f6b6457e060405160405180910390a35050565b5f6012905090565b5f60055f9054906101000a900473ffffffffffffffffffffffffffffffffffffffff16905090565b5f73ffffffffffffffffffffffffffffffffffffffff168273ffffffffffffffffffffffffffffffffffffffff160361035b575f6040517fec442f05000000000000000000000000000000000000000000000000000000008152600401610352919061097c565b60405180910390fd5b61036c5f838361037060201b60201c565b5050565b5f73ffffffffffffffffffffffffffffffffffffffff168373ffffffffffffffffffffffffffffffffffffffff16036103c0578060025f8282546103b49190610b88565b9250508190555061048e565b5f5f5f8573ffffffffffffffffffffffffffffffffffffffff1673ffffffffffffffffffffffffffffffffffffffff1681526020019081526020015f2054905081811015610449578381836040517fe450d38c00000000000000000000000000000000000000000000000000000000815260040161044093929190610bca565b60405180910390fd5b8181035f5f8673ffffffffffffffffffffffffffffffffffffffff1673ffffffffffffffffffffffffffffffffffffffff1681526020019081526020015f2081905550505b5f73ffffffffffffffffffffffffffffffffffffffff168273ffffffffffffffffffffffffffffffffffffffff16036104d5578060025f828254039250508190555061051f565b805f5f8473ffffffffffffffffffffffffffffffffffffffff1673ffffffffffffffffffffffffffffffffffffffff1681526020019081526020015f205f82825401925050819055505b8173ffffffffffffffffffffffffffffffffffffffff168373ffffffffffffffffffffffffffffffffffffffff167fddf252ad1be2c89b69c2b068fc378daa952ba7f163c4a11628f55a4df523b3ef8360405161057c9190610bff565b60405180910390a3505050565b5f5ffd5b5f73ffffffffffffffffffffffffffffffffffffffff82169050919050565b5f6105b68261058d565b9050919050565b6105c6816105ac565b81146105d0575f5ffd5b50565b5f815190506105e1816105bd565b92915050565b5f819050919050565b6105f9816105e7565b8114610603575f5ffd5b50565b5f81519050610614816105f0565b92915050565b5f5f5f6060848603121561063157610630610589565b5b5f61063e868287016105d3565b935050602061064f868287016105d3565b925050604061066086828701610606565b9150509250925092565b5f81519050919050565b7f4e487b71000000000000000000000000000000000000000000000000000000005f52604160045260245ffd5b7f4e487b71000000000000000000000000000000000000000000000000000000005f52602260045260245ffd5b5f60028204905060018216806106e557607f821691505b6020821081036106f8576106f76106a1565b5b50919050565b5f819050815f5260205f209050919050565b5f6020601f8301049050919050565b5f82821b905092915050565b5f6008830261075a7fffffffffffffffffffffffffffffffffffffffffffffffffffffffffffffffff8261071f565b610764868361071f565b95508019841693508086168417925050509392505050565b5f819050919050565b5f61079f61079a610795846105e7565b61077c565b6105e7565b9050919050565b5f819050919050565b6107b883610785565b6107cc6107c4826107a6565b84845461072b565b825550505050565b5f5f905090565b6107e36107d4565b6107ee8184846107af565b505050565b5b81811015610811576108065f826107db565b6001810190506107f4565b5050565b601f82111561085657610827816106fe565b61083084610710565b8101602085101561083f578190505b61085361084b85610710565b8301826107f3565b50505b505050565b5f82821c905092915050565b5f6108765f198460080261085b565b1980831691505092915050565b5f61088e8383610867565b9150826002028217905092915050565b6108a78261066a565b67ffffffffffffffff8111156108c0576108bf610674565b5b6108ca82546106ce565b6108d5828285610815565b5f60209050601f831160018114610906575f84156108f4578287015190505b6108fe8582610883565b865550610965565b601f198416610914866106fe565b5f5b8281101561093b57848901518255600182019150602085019450602081019050610916565b868310156109585784890151610954601f891682610867565b8355505b6001600288020188555050505b505050505050565b610976816105ac565b82525050565b5f60208201905061098f5f83018461096d565b92915050565b7f4e487b71000000000000000000000000000000000000000000000000000000005f52601160045260245ffd5b5f8160011c9050919050565b5f5f8291508390505b6001851115610a17578086048111156109f3576109f2610995565b5b6001851615610a025780820291505b8081029050610a10856109c2565b94506109d7565b94509492505050565b5f82610a2f5760019050610aea565b81610a3c575f9050610aea565b8160018114610a525760028114610a5c57610a8b565b6001915050610aea565b60ff841115610a6e57610a6d610995565b5b8360020a915084821115610a8557610a84610995565b5b50610aea565b5060208310610133831016604e8410600b8410161715610ac05782820a905083811115610abb57610aba610995565b5b610aea565b610acd84848460016109ce565b92509050818404811115610ae457610ae3610995565b5b81810290505b9392505050565b5f60ff82169050919050565b5f610b07826105e7565b9150610b1283610af1565b9250610b3f7fffffffffffffffffffffffffffffffffffffffffffffffffffffffffffffffff8484610a20565b905092915050565b5f610b51826105e7565b9150610b5c836105e7565b9250828202610b6a816105e7565b91508282048414831517610b8157610b80610995565b5b5092915050565b5f610b92826105e7565b9150610b9d836105e7565b9250828201905080821115610bb557610bb4610995565b5b92915050565b610bc4816105e7565b82525050565b5f606082019050610bdd5f83018661096d565b610bea6020830185610bbb565b610bf76040830184610bbb565b949350505050565b5f602082019050610c125f830184610bbb565b92915050565b60805160a051611c11610c365f395f50505f6106e70152611c115ff3fe608060405234801561000f575f5ffd5b506004361061011f575f3560e01c8063715018a6116100ab578063ae169a501161006f578063ae169a5014610309578063b921e16314610325578063dd62ed3e14610341578063f2fde38b14610371578063ff010f5b1461038d5761011f565b8063715018a6146102755780637da0a8771461027f5780638da5cb5b1461029d57806395d89b41146102bb578063a9059cbb146102d95761011f565b806323b872dd116100f257806323b872dd146101ab578063301aecb9146101db578063313ce567146101f7578063572b6c051461021557806370a08231146102455761011f565b806306fdde0314610123578063095ea7b31461014157806318160ddd146101715780631bfdcd9d1461018f575b5f5ffd5b61012b6103a9565b60405161013891906113b2565b60405180910390f35b61015b60048036038101906101569190611463565b610439565b60405161016891906114bb565b60405180910390f35b61017961045b565b60405161018691906114e3565b60405180910390f35b6101a960048036038101906101a49190611463565b610464565b005b6101c560048036038101906101c091906114fc565b61053e565b6040516101d291906114bb565b60405180910390f35b6101f560048036038101906101f0919061154c565b61056c565b005b6101ff610673565b60405161020c9190611592565b60405180910390f35b61022f600480360381019061022a91906115ab565b61067b565b60405161023c91906114bb565b60405180910390f35b61025f600480360381019061025a91906115ab565b61068c565b60405161026c91906114e3565b60405180910390f35b61027d6106d1565b005b6102876106e4565b60405161029491906115e5565b60405180910390f35b6102a561070b565b6040516102b291906115e5565b60405180910390f35b6102c3610733565b6040516102d091906113b2565b60405180910390f35b6102f360048036038101906102ee9190611463565b6107c3565b60405161030091906114bb565b60405180910390f35b610323600480360381019061031e919061154c565b6107e5565b005b61033f600480360381019061033a919061154c565b6108ec565b005b61035b600480360381019061035691906115fe565b610915565b60405161036891906114e3565b60405180910390f35b61038b600480360381019061038691906115ab565b610997565b005b6103a760048036038101906103a29190611463565b610a1b565b005b6060600380546103b890611669565b80601f01602080910402602001604051908101604052809291908181526020018280546103e490611669565b801561042f5780601f106104065761010080835404028352916020019161042f565b820191905f5260205f20905b81548152906001019060200180831161041257829003601f168201915b5050505050905090565b5f5f610443610b04565b9050610450818585610b12565b600191505092915050565b5f600254905090565b5f73ffffffffffffffffffffffffffffffffffffffff168273ffffffffffffffffffffffffffffffffffffffff16036104d2576040517f08c379a00000000000000000000000000000000000000000000000000000000081526004016104c990611709565b60405180910390fd5b806104dc8361068c565b101561051d576040517f08c379a000000000000000000000000000000000000000000000000000000000815260040161051490611797565b60405180910390fd5b5f3390505f61052b83610b24565b9050610538848383610b4b565b50505050565b5f5f610548610b04565b9050610555858285610c3b565b610560858585610b4b565b60019150509392505050565b6105753361067b565b806105b9575061058361070b565b73ffffffffffffffffffffffffffffffffffffffff166105a1610b04565b73ffffffffffffffffffffffffffffffffffffffff16145b6105f8576040517f08c379a00000000000000000000000000000000000000000000000000000000081526004016105ef90611825565b60405180910390fd5b80610609610604610b04565b61068c565b101561064a576040517f08c379a000000000000000000000000000000000000000000000000000000000815260040161064190611797565b60405180910390fd5b5f61065482610b24565b905061066f610661610b04565b61066961070b565b83610b4b565b5050565b5f6012905090565b5f61068582610cce565b9050919050565b5f5f5f8373ffffffffffffffffffffffffffffffffffffffff1673ffffffffffffffffffffffffffffffffffffffff1681526020019081526020015f20549050919050565b6106d9610d0c565b6106e25f610d93565b565b5f7f0000000000000000000000000000000000000000000000000000000000000000905090565b5f60055f9054906101000a900473ffffffffffffffffffffffffffffffffffffffff16905090565b60606004805461074290611669565b80601f016020809104026020016040519081016040528092919081815260200182805461076e90611669565b80156107b95780601f10610790576101008083540402835291602001916107b9565b820191905f5260205f20905b81548152906001019060200180831161079c57829003601f168201915b5050505050905090565b5f5f6107cd610b04565b90506107da818585610b4b565b600191505092915050565b6107ee3361067b565b8061083257506107fc61070b565b73ffffffffffffffffffffffffffffffffffffffff1661081a610b04565b73ffffffffffffffffffffffffffffffffffffffff16145b610871576040517f08c379a000000000000000000000000000000000000000000000000000000000815260040161086890611825565b60405180910390fd5b8061088261087d61070b565b61068c565b10156108c3576040517f08c379a00000000000000000000000000000000000000000000000000000000081526004016108ba9061188d565b60405180910390fd5b5f6108cd82610b24565b90506108e86108da61070b565b6108e2610b04565b83610b4b565b5050565b6108f4610d0c565b5f6108fe82610b24565b905061091161090b61070b565b82610e56565b5050565b5f60015f8473ffffffffffffffffffffffffffffffffffffffff1673ffffffffffffffffffffffffffffffffffffffff1681526020019081526020015f205f8373ffffffffffffffffffffffffffffffffffffffff1673ffffffffffffffffffffffffffffffffffffffff1681526020019081526020015f2054905092915050565b61099f610d0c565b5f73ffffffffffffffffffffffffffffffffffffffff168173ffffffffffffffffffffffffffffffffffffffff1603610a0f575f6040517f1e4fbdf7000000000000000000000000000000000000000000000000000000008152600401610a0691906115e5565b60405180910390fd5b610a1881610d93565b50565b610a23610d0c565b5f73ffffffffffffffffffffffffffffffffffffffff168273ffffffffffffffffffffffffffffffffffffffff1603610a91576040517f08c379a0000000000000000000000000000000000000000000000000000000008152600401610a8890611709565b60405180910390fd5b80610aa2610a9d61070b565b61068c565b1015610ae3576040517f08c379a0000000000000000000000000000000000000000000000000000000008152600401610ada9061188d565b60405180910390fd5b5f3390505f610af183610b24565b9050610afe828583610b4b565b50505050565b5f610b0d610ed5565b905090565b610b1f8383836001610f3d565b505050565b5f610b2d610673565b600a610b399190611a07565b82610b449190611a51565b9050919050565b5f73ffffffffffffffffffffffffffffffffffffffff168373ffffffffffffffffffffffffffffffffffffffff1603610bbb575f6040517f96c6fd1e000000000000000000000000000000000000000000000000000000008152600401610bb291906115e5565b60405180910390fd5b5f73ffffffffffffffffffffffffffffffffffffffff168273ffffffffffffffffffffffffffffffffffffffff1603610c2b575f6040517fec442f05000000000000000000000000000000000000000000000000000000008152600401610c2291906115e5565b60405180910390fd5b610c3683838361110c565b505050565b5f610c468484610915565b90507fffffffffffffffffffffffffffffffffffffffffffffffffffffffffffffffff811015610cc85781811015610cb9578281836040517ffb8f41b2000000000000000000000000000000000000000000000000000000008152600401610cb093929190611a92565b60405180910390fd5b610cc784848484035f610f3d565b5b50505050565b5f610cd76106e4565b73ffffffffffffffffffffffffffffffffffffffff168273ffffffffffffffffffffffffffffffffffffffff16149050919050565b610d14610b04565b73ffffffffffffffffffffffffffffffffffffffff16610d3261070b565b73ffffffffffffffffffffffffffffffffffffffff1614610d9157610d55610b04565b6040517f118cdaa7000000000000000000000000000000000000000000000000000000008152600401610d8891906115e5565b60405180910390fd5b565b5f60055f9054906101000a900473ffffffffffffffffffffffffffffffffffffffff1690508160055f6101000a81548173ffffffffffffffffffffffffffffffffffffffff021916908373ffffffffffffffffffffffffffffffffffffffff1602179055508173ffffffffffffffffffffffffffffffffffffffff168173ffffffffffffffffffffffffffffffffffffffff167f8be0079c531659141344cd1fd0a4f28419497f9722a3daafe3b4186f6b6457e060405160405180910390a35050565b5f73ffffffffffffffffffffffffffffffffffffffff168273ffffffffffffffffffffffffffffffffffffffff1603610ec6575f6040517fec442f05000000000000000000000000000000000000000000000000000000008152600401610ebd91906115e5565b60405180910390fd5b610ed15f838361110c565b5050565b5f5f5f36905090505f610ee6611325565b9050808210158015610efd5750610efc3361067b565b5b15610f2d575f36828403908092610f1693929190611acf565b90610f219190611b4a565b60601c92505050610f3a565b610f35611333565b925050505b90565b5f73ffffffffffffffffffffffffffffffffffffffff168473ffffffffffffffffffffffffffffffffffffffff1603610fad575f6040517fe602df05000000000000000000000000000000000000000000000000000000008152600401610fa491906115e5565b60405180910390fd5b5f73ffffffffffffffffffffffffffffffffffffffff168373ffffffffffffffffffffffffffffffffffffffff160361101d575f6040517f94280d6200000000000000000000000000000000000000000000000000000000815260040161101491906115e5565b60405180910390fd5b8160015f8673ffffffffffffffffffffffffffffffffffffffff1673ffffffffffffffffffffffffffffffffffffffff1681526020019081526020015f205f8573ffffffffffffffffffffffffffffffffffffffff1673ffffffffffffffffffffffffffffffffffffffff1681526020019081526020015f20819055508015611106578273ffffffffffffffffffffffffffffffffffffffff168473ffffffffffffffffffffffffffffffffffffffff167f8c5be1e5ebec7d5bd14f71427d1e84f3dd0314c0f7b2291e5b200ac8c7c3b925846040516110fd91906114e3565b60405180910390a35b50505050565b5f73ffffffffffffffffffffffffffffffffffffffff168373ffffffffffffffffffffffffffffffffffffffff160361115c578060025f8282546111509190611ba8565b9250508190555061122a565b5f5f5f8573ffffffffffffffffffffffffffffffffffffffff1673ffffffffffffffffffffffffffffffffffffffff1681526020019081526020015f20549050818110156111e5578381836040517fe450d38c0000000000000000000000000000000000000000000000000000000081526004016111dc93929190611a92565b60405180910390fd5b8181035f5f8673ffffffffffffffffffffffffffffffffffffffff1673ffffffffffffffffffffffffffffffffffffffff1681526020019081526020015f2081905550505b5f73ffffffffffffffffffffffffffffffffffffffff168273ffffffffffffffffffffffffffffffffffffffff1603611271578060025f82825403925050819055506112bb565b805f5f8473ffffffffffffffffffffffffffffffffffffffff1673ffffffffffffffffffffffffffffffffffffffff1681526020019081526020015f205f82825401925050819055505b8173ffffffffffffffffffffffffffffffffffffffff168373ffffffffffffffffffffffffffffffffffffffff167fddf252ad1be2c89b69c2b068fc378daa952ba7f163c4a11628f55a4df523b3ef8360405161131891906114e3565b60405180910390a3505050565b5f61132e61133a565b905090565b5f33905090565b5f6014905090565b5f81519050919050565b5f82825260208201905092915050565b8281835e5f83830152505050565b5f601f19601f8301169050919050565b5f61138482611342565b61138e818561134c565b935061139e81856020860161135c565b6113a78161136a565b840191505092915050565b5f6020820190508181035f8301526113ca818461137a565b905092915050565b5f5ffd5b5f73ffffffffffffffffffffffffffffffffffffffff82169050919050565b5f6113ff826113d6565b9050919050565b61140f816113f5565b8114611419575f5ffd5b50565b5f8135905061142a81611406565b92915050565b5f819050919050565b61144281611430565b811461144c575f5ffd5b50565b5f8135905061145d81611439565b92915050565b5f5f60408385031215611479576114786113d2565b5b5f6114868582860161141c565b92505060206114978582860161144f565b9150509250929050565b5f8115159050919050565b6114b5816114a1565b82525050565b5f6020820190506114ce5f8301846114ac565b92915050565b6114dd81611430565b82525050565b5f6020820190506114f65f8301846114d4565b92915050565b5f5f5f60608486031215611513576115126113d2565b5b5f6115208682870161141c565b93505060206115318682870161141c565b92505060406115428682870161144f565b9150509250925092565b5f60208284031215611561576115606113d2565b5b5f61156e8482850161144f565b91505092915050565b5f60ff82169050919050565b61158c81611577565b82525050565b5f6020820190506115a55f830184611583565b92915050565b5f602082840312156115c0576115bf6113d2565b5b5f6115cd8482850161141c565b91505092915050565b6115df816113f5565b82525050565b5f6020820190506115f85f8301846115d6565b92915050565b5f5f60408385031215611614576116136113d2565b5b5f6116218582860161141c565b92505060206116328582860161141c565b9150509250929050565b7f4e487b71000000000000000000000000000000000000000000000000000000005f52602260045260245ffd5b5f600282049050600182168061168057607f821691505b6020821081036116935761169261163c565b5b50919050565b7f4e65772077616c6c65742063616e6e6f7420626520746865207a65726f2061645f8201527f6472657373000000000000000000000000000000000000000000000000000000602082015250565b5f6116f360258361134c565b91506116fe82611699565b604082019050919050565b5f6020820190508181035f830152611720816116e7565b9050919050565b7f557365722068617320696e73756666696369656e742062616c616e636520666f5f8201527f72207472616e736665722e000000000000000000000000000000000000000000602082015250565b5f611781602b8361134c565b915061178c82611727565b604082019050919050565b5f6020820190508181035f8301526117ae81611775565b9050919050565b7f526577617264546f6b656e3a204d7573742075736520612054727573746564205f8201527f466f72776172646572206f7220626520746865204f776e65722e000000000000602082015250565b5f61180f603a8361134c565b915061181a826117b5565b604082019050919050565b5f6020820190508181035f83015261183c81611803565b9050919050565b7f546f6b656e732072756e206f75740000000000000000000000000000000000005f82015250565b5f611877600e8361134c565b915061188282611843565b602082019050919050565b5f6020820190508181035f8301526118a48161186b565b9050919050565b7f4e487b71000000000000000000000000000000000000000000000000000000005f52601160045260245ffd5b5f8160011c9050919050565b5f5f8291508390505b600185111561192d57808604811115611909576119086118ab565b5b60018516156119185780820291505b8081029050611926856118d8565b94506118ed565b94509492505050565b5f826119455760019050611a00565b81611952575f9050611a00565b81600181146119685760028114611972576119a1565b6001915050611a00565b60ff841115611984576119836118ab565b5b8360020a91508482111561199b5761199a6118ab565b5b50611a00565b5060208310610133831016604e8410600b84101617156119d65782820a9050838111156119d1576119d06118ab565b5b611a00565b6119e384848460016118e4565b925090508184048111156119fa576119f96118ab565b5b81810290505b9392505050565b5f611a1182611430565b9150611a1c83611577565b9250611a497fffffffffffffffffffffffffffffffffffffffffffffffffffffffffffffffff8484611936565b905092915050565b5f611a5b82611430565b9150611a6683611430565b9250828202611a7481611430565b91508282048414831517611a8b57611a8a6118ab565b5b5092915050565b5f606082019050611aa55f8301866115d6565b611ab260208301856114d4565b611abf60408301846114d4565b949350505050565b5f5ffd5b5f5ffd5b5f5f85851115611ae257611ae1611ac7565b5b83861115611af357611af2611acb565b5b6001850283019150848603905094509492505050565b5f82905092915050565b5f7fffffffffffffffffffffffffffffffffffffffff00000000000000000000000082169050919050565b5f82821b905092915050565b5f611b558383611b09565b82611b608135611b13565b92506014821015611ba057611b9b7fffffffffffffffffffffffffffffffffffffffff00000000000000000000000083601403600802611b3e565b831692505b505092915050565b5f611bb282611430565b9150611bbd83611430565b9250828201905080821115611bd557611bd46118ab565b5b9291505056fea2646970667358221220e834cd8953f28011b70689fde6d68d5d4a6760cd1cd1374299a278148d5eacfb64736f6c634300081e0033",
					"opcodes": "PUSH1 0xC0 PUSH1 0x40 MSTORE CALLVALUE DUP1 ISZERO PUSH2 0xF JUMPI PUSH0 PUSH0 REVERT JUMPDEST POP PUSH1 0x40 MLOAD PUSH2 0x2847 CODESIZE SUB DUP1 PUSH2 0x2847 DUP4 CODECOPY DUP2 DUP2 ADD PUSH1 0x40 MSTORE DUP2 ADD SWAP1 PUSH2 0x31 SWAP2 SWAP1 PUSH2 0x61A JUMP JUMPDEST DUP2 DUP4 PUSH1 0x40 MLOAD DUP1 PUSH1 0x40 ADD PUSH1 0x40 MSTORE DUP1 PUSH1 0xE DUP2 MSTORE PUSH1 0x20 ADD PUSH32 0x526577617264203120546F6B656E000000000000000000000000000000000000 DUP2 MSTORE POP PUSH1 0x40 MLOAD DUP1 PUSH1 0x40 ADD PUSH1 0x40 MSTORE DUP1 PUSH1 0x5 DUP2 MSTORE PUSH1 0x20 ADD PUSH32 0x5257442031000000000000000000000000000000000000000000000000000000 DUP2 MSTORE POP DUP2 PUSH1 0x3 SWAP1 DUP2 PUSH2 0xAE SWAP2 SWAP1 PUSH2 0x89E JUMP JUMPDEST POP DUP1 PUSH1 0x4 SWAP1 DUP2 PUSH2 0xBE SWAP2 SWAP1 PUSH2 0x89E JUMP JUMPDEST POP POP POP DUP1 PUSH20 0xFFFFFFFFFFFFFFFFFFFFFFFFFFFFFFFFFFFFFFFF AND PUSH1 0x80 DUP2 PUSH20 0xFFFFFFFFFFFFFFFFFFFFFFFFFFFFFFFFFFFFFFFF AND DUP2 MSTORE POP POP POP PUSH0 PUSH20 0xFFFFFFFFFFFFFFFFFFFFFFFFFFFFFFFFFFFFFFFF AND DUP2 PUSH20 0xFFFFFFFFFFFFFFFFFFFFFFFFFFFFFFFFFFFFFFFF AND SUB PUSH2 0x166 JUMPI PUSH0 PUSH1 0x40 MLOAD PUSH32 0x1E4FBDF700000000000000000000000000000000000000000000000000000000 DUP2 MSTORE PUSH1 0x4 ADD PUSH2 0x15D SWAP2 SWAP1 PUSH2 0x97C JUMP JUMPDEST PUSH1 0x40 MLOAD DUP1 SWAP2 SUB SWAP1 REVERT JUMPDEST PUSH2 0x175 DUP2 PUSH2 0x1F8 PUSH1 0x20 SHL PUSH1 0x20 SHR JUMP JUMPDEST POP PUSH0 PUSH2 0x185 PUSH2 0x2BB PUSH1 0x20 SHL PUSH1 0x20 SHR JUMP JUMPDEST PUSH1 0xA PUSH2 0x191 SWAP2 SWAP1 PUSH2 0xAFD JUMP JUMPDEST DUP3 PUSH2 0x19C SWAP2 SWAP1 PUSH2 0xB47 JUMP JUMPDEST SWAP1 POP DUP4 PUSH20 0xFFFFFFFFFFFFFFFFFFFFFFFFFFFFFFFFFFFFFFFF AND PUSH1 0xA0 DUP2 PUSH20 0xFFFFFFFFFFFFFFFFFFFFFFFFFFFFFFFFFFFFFFFF AND DUP2 MSTORE POP POP PUSH2 0x1EF PUSH2 0x1E3 PUSH2 0x2C3 PUSH1 0x20 SHL PUSH1 0x20 SHR JUMP JUMPDEST DUP3 PUSH2 0x2EB PUSH1 0x20 SHL PUSH1 0x20 SHR JUMP JUMPDEST POP POP POP POP PUSH2 0xC18 JUMP JUMPDEST PUSH0 PUSH1 0x5 PUSH0 SWAP1 SLOAD SWAP1 PUSH2 0x100 EXP SWAP1 DIV PUSH20 0xFFFFFFFFFFFFFFFFFFFFFFFFFFFFFFFFFFFFFFFF AND SWAP1 POP DUP2 PUSH1 0x5 PUSH0 PUSH2 0x100 EXP DUP2 SLOAD DUP2 PUSH20 0xFFFFFFFFFFFFFFFFFFFFFFFFFFFFFFFFFFFFFFFF MUL NOT AND SWAP1 DUP4 PUSH20 0xFFFFFFFFFFFFFFFFFFFFFFFFFFFFFFFFFFFFFFFF AND MUL OR SWAP1 SSTORE POP DUP2 PUSH20 0xFFFFFFFFFFFFFFFFFFFFFFFFFFFFFFFFFFFFFFFF AND DUP2 PUSH20 0xFFFFFFFFFFFFFFFFFFFFFFFFFFFFFFFFFFFFFFFF AND PUSH32 0x8BE0079C531659141344CD1FD0A4F28419497F9722A3DAAFE3B4186F6B6457E0 PUSH1 0x40 MLOAD PUSH1 0x40 MLOAD DUP1 SWAP2 SUB SWAP1 LOG3 POP POP JUMP JUMPDEST PUSH0 PUSH1 0x12 SWAP1 POP SWAP1 JUMP JUMPDEST PUSH0 PUSH1 0x5 PUSH0 SWAP1 SLOAD SWAP1 PUSH2 0x100 EXP SWAP1 DIV PUSH20 0xFFFFFFFFFFFFFFFFFFFFFFFFFFFFFFFFFFFFFFFF AND SWAP1 POP SWAP1 JUMP JUMPDEST PUSH0 PUSH20 0xFFFFFFFFFFFFFFFFFFFFFFFFFFFFFFFFFFFFFFFF AND DUP3 PUSH20 0xFFFFFFFFFFFFFFFFFFFFFFFFFFFFFFFFFFFFFFFF AND SUB PUSH2 0x35B JUMPI PUSH0 PUSH1 0x40 MLOAD PUSH32 0xEC442F0500000000000000000000000000000000000000000000000000000000 DUP2 MSTORE PUSH1 0x4 ADD PUSH2 0x352 SWAP2 SWAP1 PUSH2 0x97C JUMP JUMPDEST PUSH1 0x40 MLOAD DUP1 SWAP2 SUB SWAP1 REVERT JUMPDEST PUSH2 0x36C PUSH0 DUP4 DUP4 PUSH2 0x370 PUSH1 0x20 SHL PUSH1 0x20 SHR JUMP JUMPDEST POP POP JUMP JUMPDEST PUSH0 PUSH20 0xFFFFFFFFFFFFFFFFFFFFFFFFFFFFFFFFFFFFFFFF AND DUP4 PUSH20 0xFFFFFFFFFFFFFFFFFFFFFFFFFFFFFFFFFFFFFFFF AND SUB PUSH2 0x3C0 JUMPI DUP1 PUSH1 0x2 PUSH0 DUP3 DUP3 SLOAD PUSH2 0x3B4 SWAP2 SWAP1 PUSH2 0xB88 JUMP JUMPDEST SWAP3 POP POP DUP2 SWAP1 SSTORE POP PUSH2 0x48E JUMP JUMPDEST PUSH0 PUSH0 PUSH0 DUP6 PUSH20 0xFFFFFFFFFFFFFFFFFFFFFFFFFFFFFFFFFFFFFFFF AND PUSH20 0xFFFFFFFFFFFFFFFFFFFFFFFFFFFFFFFFFFFFFFFF AND DUP2 MSTORE PUSH1 0x20 ADD SWAP1 DUP2 MSTORE PUSH1 0x20 ADD PUSH0 KECCAK256 SLOAD SWAP1 POP DUP2 DUP2 LT ISZERO PUSH2 0x449 JUMPI DUP4 DUP2 DUP4 PUSH1 0x40 MLOAD PUSH32 0xE450D38C00000000000000000000000000000000000000000000000000000000 DUP2 MSTORE PUSH1 0x4 ADD PUSH2 0x440 SWAP4 SWAP3 SWAP2 SWAP1 PUSH2 0xBCA JUMP JUMPDEST PUSH1 0x40 MLOAD DUP1 SWAP2 SUB SWAP1 REVERT JUMPDEST DUP2 DUP2 SUB PUSH0 PUSH0 DUP7 PUSH20 0xFFFFFFFFFFFFFFFFFFFFFFFFFFFFFFFFFFFFFFFF AND PUSH20 0xFFFFFFFFFFFFFFFFFFFFFFFFFFFFFFFFFFFFFFFF AND DUP2 MSTORE PUSH1 0x20 ADD SWAP1 DUP2 MSTORE PUSH1 0x20 ADD PUSH0 KECCAK256 DUP2 SWAP1 SSTORE POP POP JUMPDEST PUSH0 PUSH20 0xFFFFFFFFFFFFFFFFFFFFFFFFFFFFFFFFFFFFFFFF AND DUP3 PUSH20 0xFFFFFFFFFFFFFFFFFFFFFFFFFFFFFFFFFFFFFFFF AND SUB PUSH2 0x4D5 JUMPI DUP1 PUSH1 0x2 PUSH0 DUP3 DUP3 SLOAD SUB SWAP3 POP POP DUP2 SWAP1 SSTORE POP PUSH2 0x51F JUMP JUMPDEST DUP1 PUSH0 PUSH0 DUP5 PUSH20 0xFFFFFFFFFFFFFFFFFFFFFFFFFFFFFFFFFFFFFFFF AND PUSH20 0xFFFFFFFFFFFFFFFFFFFFFFFFFFFFFFFFFFFFFFFF AND DUP2 MSTORE PUSH1 0x20 ADD SWAP1 DUP2 MSTORE PUSH1 0x20 ADD PUSH0 KECCAK256 PUSH0 DUP3 DUP3 SLOAD ADD SWAP3 POP POP DUP2 SWAP1 SSTORE POP JUMPDEST DUP2 PUSH20 0xFFFFFFFFFFFFFFFFFFFFFFFFFFFFFFFFFFFFFFFF AND DUP4 PUSH20 0xFFFFFFFFFFFFFFFFFFFFFFFFFFFFFFFFFFFFFFFF AND PUSH32 0xDDF252AD1BE2C89B69C2B068FC378DAA952BA7F163C4A11628F55A4DF523B3EF DUP4 PUSH1 0x40 MLOAD PUSH2 0x57C SWAP2 SWAP1 PUSH2 0xBFF JUMP JUMPDEST PUSH1 0x40 MLOAD DUP1 SWAP2 SUB SWAP1 LOG3 POP POP POP JUMP JUMPDEST PUSH0 PUSH0 REVERT JUMPDEST PUSH0 PUSH20 0xFFFFFFFFFFFFFFFFFFFFFFFFFFFFFFFFFFFFFFFF DUP3 AND SWAP1 POP SWAP2 SWAP1 POP JUMP JUMPDEST PUSH0 PUSH2 0x5B6 DUP3 PUSH2 0x58D JUMP JUMPDEST SWAP1 POP SWAP2 SWAP1 POP JUMP JUMPDEST PUSH2 0x5C6 DUP2 PUSH2 0x5AC JUMP JUMPDEST DUP2 EQ PUSH2 0x5D0 JUMPI PUSH0 PUSH0 REVERT JUMPDEST POP JUMP JUMPDEST PUSH0 DUP2 MLOAD SWAP1 POP PUSH2 0x5E1 DUP2 PUSH2 0x5BD JUMP JUMPDEST SWAP3 SWAP2 POP POP JUMP JUMPDEST PUSH0 DUP2 SWAP1 POP SWAP2 SWAP1 POP JUMP JUMPDEST PUSH2 0x5F9 DUP2 PUSH2 0x5E7 JUMP JUMPDEST DUP2 EQ PUSH2 0x603 JUMPI PUSH0 PUSH0 REVERT JUMPDEST POP JUMP JUMPDEST PUSH0 DUP2 MLOAD SWAP1 POP PUSH2 0x614 DUP2 PUSH2 0x5F0 JUMP JUMPDEST SWAP3 SWAP2 POP POP JUMP JUMPDEST PUSH0 PUSH0 PUSH0 PUSH1 0x60 DUP5 DUP7 SUB SLT ISZERO PUSH2 0x631 JUMPI PUSH2 0x630 PUSH2 0x589 JUMP JUMPDEST JUMPDEST PUSH0 PUSH2 0x63E DUP7 DUP3 DUP8 ADD PUSH2 0x5D3 JUMP JUMPDEST SWAP4 POP POP PUSH1 0x20 PUSH2 0x64F DUP7 DUP3 DUP8 ADD PUSH2 0x5D3 JUMP JUMPDEST SWAP3 POP POP PUSH1 0x40 PUSH2 0x660 DUP7 DUP3 DUP8 ADD PUSH2 0x606 JUMP JUMPDEST SWAP2 POP POP SWAP3 POP SWAP3 POP SWAP3 JUMP JUMPDEST PUSH0 DUP2 MLOAD SWAP1 POP SWAP2 SWAP1 POP JUMP JUMPDEST PUSH32 0x4E487B7100000000000000000000000000000000000000000000000000000000 PUSH0 MSTORE PUSH1 0x41 PUSH1 0x4 MSTORE PUSH1 0x24 PUSH0 REVERT JUMPDEST PUSH32 0x4E487B7100000000000000000000000000000000000000000000000000000000 PUSH0 MSTORE PUSH1 0x22 PUSH1 0x4 MSTORE PUSH1 0x24 PUSH0 REVERT JUMPDEST PUSH0 PUSH1 0x2 DUP3 DIV SWAP1 POP PUSH1 0x1 DUP3 AND DUP1 PUSH2 0x6E5 JUMPI PUSH1 0x7F DUP3 AND SWAP2 POP JUMPDEST PUSH1 0x20 DUP3 LT DUP2 SUB PUSH2 0x6F8 JUMPI PUSH2 0x6F7 PUSH2 0x6A1 JUMP JUMPDEST JUMPDEST POP SWAP2 SWAP1 POP JUMP JUMPDEST PUSH0 DUP2 SWAP1 POP DUP2 PUSH0 MSTORE PUSH1 0x20 PUSH0 KECCAK256 SWAP1 POP SWAP2 SWAP1 POP JUMP JUMPDEST PUSH0 PUSH1 0x20 PUSH1 0x1F DUP4 ADD DIV SWAP1 POP SWAP2 SWAP1 POP JUMP JUMPDEST PUSH0 DUP3 DUP3 SHL SWAP1 POP SWAP3 SWAP2 POP POP JUMP JUMPDEST PUSH0 PUSH1 0x8 DUP4 MUL PUSH2 0x75A PUSH32 0xFFFFFFFFFFFFFFFFFFFFFFFFFFFFFFFFFFFFFFFFFFFFFFFFFFFFFFFFFFFFFFFF DUP3 PUSH2 0x71F JUMP JUMPDEST PUSH2 0x764 DUP7 DUP4 PUSH2 0x71F JUMP JUMPDEST SWAP6 POP DUP1 NOT DUP5 AND SWAP4 POP DUP1 DUP7 AND DUP5 OR SWAP3 POP POP POP SWAP4 SWAP3 POP POP POP JUMP JUMPDEST PUSH0 DUP2 SWAP1 POP SWAP2 SWAP1 POP JUMP JUMPDEST PUSH0 PUSH2 0x79F PUSH2 0x79A PUSH2 0x795 DUP5 PUSH2 0x5E7 JUMP JUMPDEST PUSH2 0x77C JUMP JUMPDEST PUSH2 0x5E7 JUMP JUMPDEST SWAP1 POP SWAP2 SWAP1 POP JUMP JUMPDEST PUSH0 DUP2 SWAP1 POP SWAP2 SWAP1 POP JUMP JUMPDEST PUSH2 0x7B8 DUP4 PUSH2 0x785 JUMP JUMPDEST PUSH2 0x7CC PUSH2 0x7C4 DUP3 PUSH2 0x7A6 JUMP JUMPDEST DUP5 DUP5 SLOAD PUSH2 0x72B JUMP JUMPDEST DUP3 SSTORE POP POP POP POP JUMP JUMPDEST PUSH0 PUSH0 SWAP1 POP SWAP1 JUMP JUMPDEST PUSH2 0x7E3 PUSH2 0x7D4 JUMP JUMPDEST PUSH2 0x7EE DUP2 DUP5 DUP5 PUSH2 0x7AF JUMP JUMPDEST POP POP POP JUMP JUMPDEST JUMPDEST DUP2 DUP2 LT ISZERO PUSH2 0x811 JUMPI PUSH2 0x806 PUSH0 DUP3 PUSH2 0x7DB JUMP JUMPDEST PUSH1 0x1 DUP2 ADD SWAP1 POP PUSH2 0x7F4 JUMP JUMPDEST POP POP JUMP JUMPDEST PUSH1 0x1F DUP3 GT ISZERO PUSH2 0x856 JUMPI PUSH2 0x827 DUP2 PUSH2 0x6FE JUMP JUMPDEST PUSH2 0x830 DUP5 PUSH2 0x710 JUMP JUMPDEST DUP2 ADD PUSH1 0x20 DUP6 LT ISZERO PUSH2 0x83F JUMPI DUP2 SWAP1 POP JUMPDEST PUSH2 0x853 PUSH2 0x84B DUP6 PUSH2 0x710 JUMP JUMPDEST DUP4 ADD DUP3 PUSH2 0x7F3 JUMP JUMPDEST POP POP JUMPDEST POP POP POP JUMP JUMPDEST PUSH0 DUP3 DUP3 SHR SWAP1 POP SWAP3 SWAP2 POP POP JUMP JUMPDEST PUSH0 PUSH2 0x876 PUSH0 NOT DUP5 PUSH1 0x8 MUL PUSH2 0x85B JUMP JUMPDEST NOT DUP1 DUP4 AND SWAP2 POP POP SWAP3 SWAP2 POP POP JUMP JUMPDEST PUSH0 PUSH2 0x88E DUP4 DUP4 PUSH2 0x867 JUMP JUMPDEST SWAP2 POP DUP3 PUSH1 0x2 MUL DUP3 OR SWAP1 POP SWAP3 SWAP2 POP POP JUMP JUMPDEST PUSH2 0x8A7 DUP3 PUSH2 0x66A JUMP JUMPDEST PUSH8 0xFFFFFFFFFFFFFFFF DUP2 GT ISZERO PUSH2 0x8C0 JUMPI PUSH2 0x8BF PUSH2 0x674 JUMP JUMPDEST JUMPDEST PUSH2 0x8CA DUP3 SLOAD PUSH2 0x6CE JUMP JUMPDEST PUSH2 0x8D5 DUP3 DUP3 DUP6 PUSH2 0x815 JUMP JUMPDEST PUSH0 PUSH1 0x20 SWAP1 POP PUSH1 0x1F DUP4 GT PUSH1 0x1 DUP2 EQ PUSH2 0x906 JUMPI PUSH0 DUP5 ISZERO PUSH2 0x8F4 JUMPI DUP3 DUP8 ADD MLOAD SWAP1 POP JUMPDEST PUSH2 0x8FE DUP6 DUP3 PUSH2 0x883 JUMP JUMPDEST DUP7 SSTORE POP PUSH2 0x965 JUMP JUMPDEST PUSH1 0x1F NOT DUP5 AND PUSH2 0x914 DUP7 PUSH2 0x6FE JUMP JUMPDEST PUSH0 JUMPDEST DUP3 DUP2 LT ISZERO PUSH2 0x93B JUMPI DUP5 DUP10 ADD MLOAD DUP3 SSTORE PUSH1 0x1 DUP3 ADD SWAP2 POP PUSH1 0x20 DUP6 ADD SWAP5 POP PUSH1 0x20 DUP2 ADD SWAP1 POP PUSH2 0x916 JUMP JUMPDEST DUP7 DUP4 LT ISZERO PUSH2 0x958 JUMPI DUP5 DUP10 ADD MLOAD PUSH2 0x954 PUSH1 0x1F DUP10 AND DUP3 PUSH2 0x867 JUMP JUMPDEST DUP4 SSTORE POP JUMPDEST PUSH1 0x1 PUSH1 0x2 DUP9 MUL ADD DUP9 SSTORE POP POP POP JUMPDEST POP POP POP POP POP POP JUMP JUMPDEST PUSH2 0x976 DUP2 PUSH2 0x5AC JUMP JUMPDEST DUP3 MSTORE POP POP JUMP JUMPDEST PUSH0 PUSH1 0x20 DUP3 ADD SWAP1 POP PUSH2 0x98F PUSH0 DUP4 ADD DUP5 PUSH2 0x96D JUMP JUMPDEST SWAP3 SWAP2 POP POP JUMP JUMPDEST PUSH32 0x4E487B7100000000000000000000000000000000000000000000000000000000 PUSH0 MSTORE PUSH1 0x11 PUSH1 0x4 MSTORE PUSH1 0x24 PUSH0 REVERT JUMPDEST PUSH0 DUP2 PUSH1 0x1 SHR SWAP1 POP SWAP2 SWAP1 POP JUMP JUMPDEST PUSH0 PUSH0 DUP3 SWAP2 POP DUP4 SWAP1 POP JUMPDEST PUSH1 0x1 DUP6 GT ISZERO PUSH2 0xA17 JUMPI DUP1 DUP7 DIV DUP2 GT ISZERO PUSH2 0x9F3 JUMPI PUSH2 0x9F2 PUSH2 0x995 JUMP JUMPDEST JUMPDEST PUSH1 0x1 DUP6 AND ISZERO PUSH2 0xA02 JUMPI DUP1 DUP3 MUL SWAP2 POP JUMPDEST DUP1 DUP2 MUL SWAP1 POP PUSH2 0xA10 DUP6 PUSH2 0x9C2 JUMP JUMPDEST SWAP5 POP PUSH2 0x9D7 JUMP JUMPDEST SWAP5 POP SWAP5 SWAP3 POP POP POP JUMP JUMPDEST PUSH0 DUP3 PUSH2 0xA2F JUMPI PUSH1 0x1 SWAP1 POP PUSH2 0xAEA JUMP JUMPDEST DUP2 PUSH2 0xA3C JUMPI PUSH0 SWAP1 POP PUSH2 0xAEA JUMP JUMPDEST DUP2 PUSH1 0x1 DUP2 EQ PUSH2 0xA52 JUMPI PUSH1 0x2 DUP2 EQ PUSH2 0xA5C JUMPI PUSH2 0xA8B JUMP JUMPDEST PUSH1 0x1 SWAP2 POP POP PUSH2 0xAEA JUMP JUMPDEST PUSH1 0xFF DUP5 GT ISZERO PUSH2 0xA6E JUMPI PUSH2 0xA6D PUSH2 0x995 JUMP JUMPDEST JUMPDEST DUP4 PUSH1 0x2 EXP SWAP2 POP DUP5 DUP3 GT ISZERO PUSH2 0xA85 JUMPI PUSH2 0xA84 PUSH2 0x995 JUMP JUMPDEST JUMPDEST POP PUSH2 0xAEA JUMP JUMPDEST POP PUSH1 0x20 DUP4 LT PUSH2 0x133 DUP4 LT AND PUSH1 0x4E DUP5 LT PUSH1 0xB DUP5 LT AND OR ISZERO PUSH2 0xAC0 JUMPI DUP3 DUP3 EXP SWAP1 POP DUP4 DUP2 GT ISZERO PUSH2 0xABB JUMPI PUSH2 0xABA PUSH2 0x995 JUMP JUMPDEST JUMPDEST PUSH2 0xAEA JUMP JUMPDEST PUSH2 0xACD DUP5 DUP5 DUP5 PUSH1 0x1 PUSH2 0x9CE JUMP JUMPDEST SWAP3 POP SWAP1 POP DUP2 DUP5 DIV DUP2 GT ISZERO PUSH2 0xAE4 JUMPI PUSH2 0xAE3 PUSH2 0x995 JUMP JUMPDEST JUMPDEST DUP2 DUP2 MUL SWAP1 POP JUMPDEST SWAP4 SWAP3 POP POP POP JUMP JUMPDEST PUSH0 PUSH1 0xFF DUP3 AND SWAP1 POP SWAP2 SWAP1 POP JUMP JUMPDEST PUSH0 PUSH2 0xB07 DUP3 PUSH2 0x5E7 JUMP JUMPDEST SWAP2 POP PUSH2 0xB12 DUP4 PUSH2 0xAF1 JUMP JUMPDEST SWAP3 POP PUSH2 0xB3F PUSH32 0xFFFFFFFFFFFFFFFFFFFFFFFFFFFFFFFFFFFFFFFFFFFFFFFFFFFFFFFFFFFFFFFF DUP5 DUP5 PUSH2 0xA20 JUMP JUMPDEST SWAP1 POP SWAP3 SWAP2 POP POP JUMP JUMPDEST PUSH0 PUSH2 0xB51 DUP3 PUSH2 0x5E7 JUMP JUMPDEST SWAP2 POP PUSH2 0xB5C DUP4 PUSH2 0x5E7 JUMP JUMPDEST SWAP3 POP DUP3 DUP3 MUL PUSH2 0xB6A DUP2 PUSH2 0x5E7 JUMP JUMPDEST SWAP2 POP DUP3 DUP3 DIV DUP5 EQ DUP4 ISZERO OR PUSH2 0xB81 JUMPI PUSH2 0xB80 PUSH2 0x995 JUMP JUMPDEST JUMPDEST POP SWAP3 SWAP2 POP POP JUMP JUMPDEST PUSH0 PUSH2 0xB92 DUP3 PUSH2 0x5E7 JUMP JUMPDEST SWAP2 POP PUSH2 0xB9D DUP4 PUSH2 0x5E7 JUMP JUMPDEST SWAP3 POP DUP3 DUP3 ADD SWAP1 POP DUP1 DUP3 GT ISZERO PUSH2 0xBB5 JUMPI PUSH2 0xBB4 PUSH2 0x995 JUMP JUMPDEST JUMPDEST SWAP3 SWAP2 POP POP JUMP JUMPDEST PUSH2 0xBC4 DUP2 PUSH2 0x5E7 JUMP JUMPDEST DUP3 MSTORE POP POP JUMP JUMPDEST PUSH0 PUSH1 0x60 DUP3 ADD SWAP1 POP PUSH2 0xBDD PUSH0 DUP4 ADD DUP7 PUSH2 0x96D JUMP JUMPDEST PUSH2 0xBEA PUSH1 0x20 DUP4 ADD DUP6 PUSH2 0xBBB JUMP JUMPDEST PUSH2 0xBF7 PUSH1 0x40 DUP4 ADD DUP5 PUSH2 0xBBB JUMP JUMPDEST SWAP5 SWAP4 POP POP POP POP JUMP JUMPDEST PUSH0 PUSH1 0x20 DUP3 ADD SWAP1 POP PUSH2 0xC12 PUSH0 DUP4 ADD DUP5 PUSH2 0xBBB JUMP JUMPDEST SWAP3 SWAP2 POP POP JUMP JUMPDEST PUSH1 0x80 MLOAD PUSH1 0xA0 MLOAD PUSH2 0x1C11 PUSH2 0xC36 PUSH0 CODECOPY PUSH0 POP POP PUSH0 PUSH2 0x6E7 ADD MSTORE PUSH2 0x1C11 PUSH0 RETURN INVALID PUSH1 0x80 PUSH1 0x40 MSTORE CALLVALUE DUP1 ISZERO PUSH2 0xF JUMPI PUSH0 PUSH0 REVERT JUMPDEST POP PUSH1 0x4 CALLDATASIZE LT PUSH2 0x11F JUMPI PUSH0 CALLDATALOAD PUSH1 0xE0 SHR DUP1 PUSH4 0x715018A6 GT PUSH2 0xAB JUMPI DUP1 PUSH4 0xAE169A50 GT PUSH2 0x6F JUMPI DUP1 PUSH4 0xAE169A50 EQ PUSH2 0x309 JUMPI DUP1 PUSH4 0xB921E163 EQ PUSH2 0x325 JUMPI DUP1 PUSH4 0xDD62ED3E EQ PUSH2 0x341 JUMPI DUP1 PUSH4 0xF2FDE38B EQ PUSH2 0x371 JUMPI DUP1 PUSH4 0xFF010F5B EQ PUSH2 0x38D JUMPI PUSH2 0x11F JUMP JUMPDEST DUP1 PUSH4 0x715018A6 EQ PUSH2 0x275 JUMPI DUP1 PUSH4 0x7DA0A877 EQ PUSH2 0x27F JUMPI DUP1 PUSH4 0x8DA5CB5B EQ PUSH2 0x29D JUMPI DUP1 PUSH4 0x95D89B41 EQ PUSH2 0x2BB JUMPI DUP1 PUSH4 0xA9059CBB EQ PUSH2 0x2D9 JUMPI PUSH2 0x11F JUMP JUMPDEST DUP1 PUSH4 0x23B872DD GT PUSH2 0xF2 JUMPI DUP1 PUSH4 0x23B872DD EQ PUSH2 0x1AB JUMPI DUP1 PUSH4 0x301AECB9 EQ PUSH2 0x1DB JUMPI DUP1 PUSH4 0x313CE567 EQ PUSH2 0x1F7 JUMPI DUP1 PUSH4 0x572B6C05 EQ PUSH2 0x215 JUMPI DUP1 PUSH4 0x70A08231 EQ PUSH2 0x245 JUMPI PUSH2 0x11F JUMP JUMPDEST DUP1 PUSH4 0x6FDDE03 EQ PUSH2 0x123 JUMPI DUP1 PUSH4 0x95EA7B3 EQ PUSH2 0x141 JUMPI DUP1 PUSH4 0x18160DDD EQ PUSH2 0x171 JUMPI DUP1 PUSH4 0x1BFDCD9D EQ PUSH2 0x18F JUMPI JUMPDEST PUSH0 PUSH0 REVERT JUMPDEST PUSH2 0x12B PUSH2 0x3A9 JUMP JUMPDEST PUSH1 0x40 MLOAD PUSH2 0x138 SWAP2 SWAP1 PUSH2 0x13B2 JUMP JUMPDEST PUSH1 0x40 MLOAD DUP1 SWAP2 SUB SWAP1 RETURN JUMPDEST PUSH2 0x15B PUSH1 0x4 DUP1 CALLDATASIZE SUB DUP2 ADD SWAP1 PUSH2 0x156 SWAP2 SWAP1 PUSH2 0x1463 JUMP JUMPDEST PUSH2 0x439 JUMP JUMPDEST PUSH1 0x40 MLOAD PUSH2 0x168 SWAP2 SWAP1 PUSH2 0x14BB JUMP JUMPDEST PUSH1 0x40 MLOAD DUP1 SWAP2 SUB SWAP1 RETURN JUMPDEST PUSH2 0x179 PUSH2 0x45B JUMP JUMPDEST PUSH1 0x40 MLOAD PUSH2 0x186 SWAP2 SWAP1 PUSH2 0x14E3 JUMP JUMPDEST PUSH1 0x40 MLOAD DUP1 SWAP2 SUB SWAP1 RETURN JUMPDEST PUSH2 0x1A9 PUSH1 0x4 DUP1 CALLDATASIZE SUB DUP2 ADD SWAP1 PUSH2 0x1A4 SWAP2 SWAP1 PUSH2 0x1463 JUMP JUMPDEST PUSH2 0x464 JUMP JUMPDEST STOP JUMPDEST PUSH2 0x1C5 PUSH1 0x4 DUP1 CALLDATASIZE SUB DUP2 ADD SWAP1 PUSH2 0x1C0 SWAP2 SWAP1 PUSH2 0x14FC JUMP JUMPDEST PUSH2 0x53E JUMP JUMPDEST PUSH1 0x40 MLOAD PUSH2 0x1D2 SWAP2 SWAP1 PUSH2 0x14BB JUMP JUMPDEST PUSH1 0x40 MLOAD DUP1 SWAP2 SUB SWAP1 RETURN JUMPDEST PUSH2 0x1F5 PUSH1 0x4 DUP1 CALLDATASIZE SUB DUP2 ADD SWAP1 PUSH2 0x1F0 SWAP2 SWAP1 PUSH2 0x154C JUMP JUMPDEST PUSH2 0x56C JUMP JUMPDEST STOP JUMPDEST PUSH2 0x1FF PUSH2 0x673 JUMP JUMPDEST PUSH1 0x40 MLOAD PUSH2 0x20C SWAP2 SWAP1 PUSH2 0x1592 JUMP JUMPDEST PUSH1 0x40 MLOAD DUP1 SWAP2 SUB SWAP1 RETURN JUMPDEST PUSH2 0x22F PUSH1 0x4 DUP1 CALLDATASIZE SUB DUP2 ADD SWAP1 PUSH2 0x22A SWAP2 SWAP1 PUSH2 0x15AB JUMP JUMPDEST PUSH2 0x67B JUMP JUMPDEST PUSH1 0x40 MLOAD PUSH2 0x23C SWAP2 SWAP1 PUSH2 0x14BB JUMP JUMPDEST PUSH1 0x40 MLOAD DUP1 SWAP2 SUB SWAP1 RETURN JUMPDEST PUSH2 0x25F PUSH1 0x4 DUP1 CALLDATASIZE SUB DUP2 ADD SWAP1 PUSH2 0x25A SWAP2 SWAP1 PUSH2 0x15AB JUMP JUMPDEST PUSH2 0x68C JUMP JUMPDEST PUSH1 0x40 MLOAD PUSH2 0x26C SWAP2 SWAP1 PUSH2 0x14E3 JUMP JUMPDEST PUSH1 0x40 MLOAD DUP1 SWAP2 SUB SWAP1 RETURN JUMPDEST PUSH2 0x27D PUSH2 0x6D1 JUMP JUMPDEST STOP JUMPDEST PUSH2 0x287 PUSH2 0x6E4 JUMP JUMPDEST PUSH1 0x40 MLOAD PUSH2 0x294 SWAP2 SWAP1 PUSH2 0x15E5 JUMP JUMPDEST PUSH1 0x40 MLOAD DUP1 SWAP2 SUB SWAP1 RETURN JUMPDEST PUSH2 0x2A5 PUSH2 0x70B JUMP JUMPDEST PUSH1 0x40 MLOAD PUSH2 0x2B2 SWAP2 SWAP1 PUSH2 0x15E5 JUMP JUMPDEST PUSH1 0x40 MLOAD DUP1 SWAP2 SUB SWAP1 RETURN JUMPDEST PUSH2 0x2C3 PUSH2 0x733 JUMP JUMPDEST PUSH1 0x40 MLOAD PUSH2 0x2D0 SWAP2 SWAP1 PUSH2 0x13B2 JUMP JUMPDEST PUSH1 0x40 MLOAD DUP1 SWAP2 SUB SWAP1 RETURN JUMPDEST PUSH2 0x2F3 PUSH1 0x4 DUP1 CALLDATASIZE SUB DUP2 ADD SWAP1 PUSH2 0x2EE SWAP2 SWAP1 PUSH2 0x1463 JUMP JUMPDEST PUSH2 0x7C3 JUMP JUMPDEST PUSH1 0x40 MLOAD PUSH2 0x300 SWAP2 SWAP1 PUSH2 0x14BB JUMP JUMPDEST PUSH1 0x40 MLOAD DUP1 SWAP2 SUB SWAP1 RETURN JUMPDEST PUSH2 0x323 PUSH1 0x4 DUP1 CALLDATASIZE SUB DUP2 ADD SWAP1 PUSH2 0x31E SWAP2 SWAP1 PUSH2 0x154C JUMP JUMPDEST PUSH2 0x7E5 JUMP JUMPDEST STOP JUMPDEST PUSH2 0x33F PUSH1 0x4 DUP1 CALLDATASIZE SUB DUP2 ADD SWAP1 PUSH2 0x33A SWAP2 SWAP1 PUSH2 0x154C JUMP JUMPDEST PUSH2 0x8EC JUMP JUMPDEST STOP JUMPDEST PUSH2 0x35B PUSH1 0x4 DUP1 CALLDATASIZE SUB DUP2 ADD SWAP1 PUSH2 0x356 SWAP2 SWAP1 PUSH2 0x15FE JUMP JUMPDEST PUSH2 0x915 JUMP JUMPDEST PUSH1 0x40 MLOAD PUSH2 0x368 SWAP2 SWAP1 PUSH2 0x14E3 JUMP JUMPDEST PUSH1 0x40 MLOAD DUP1 SWAP2 SUB SWAP1 RETURN JUMPDEST PUSH2 0x38B PUSH1 0x4 DUP1 CALLDATASIZE SUB DUP2 ADD SWAP1 PUSH2 0x386 SWAP2 SWAP1 PUSH2 0x15AB JUMP JUMPDEST PUSH2 0x997 JUMP JUMPDEST STOP JUMPDEST PUSH2 0x3A7 PUSH1 0x4 DUP1 CALLDATASIZE SUB DUP2 ADD SWAP1 PUSH2 0x3A2 SWAP2 SWAP1 PUSH2 0x1463 JUMP JUMPDEST PUSH2 0xA1B JUMP JUMPDEST STOP JUMPDEST PUSH1 0x60 PUSH1 0x3 DUP1 SLOAD PUSH2 0x3B8 SWAP1 PUSH2 0x1669 JUMP JUMPDEST DUP1 PUSH1 0x1F ADD PUSH1 0x20 DUP1 SWAP2 DIV MUL PUSH1 0x20 ADD PUSH1 0x40 MLOAD SWAP1 DUP2 ADD PUSH1 0x40 MSTORE DUP1 SWAP3 SWAP2 SWAP1 DUP2 DUP2 MSTORE PUSH1 0x20 ADD DUP3 DUP1 SLOAD PUSH2 0x3E4 SWAP1 PUSH2 0x1669 JUMP JUMPDEST DUP1 ISZERO PUSH2 0x42F JUMPI DUP1 PUSH1 0x1F LT PUSH2 0x406 JUMPI PUSH2 0x100 DUP1 DUP4 SLOAD DIV MUL DUP4 MSTORE SWAP2 PUSH1 0x20 ADD SWAP2 PUSH2 0x42F JUMP JUMPDEST DUP3 ADD SWAP2 SWAP1 PUSH0 MSTORE PUSH1 0x20 PUSH0 KECCAK256 SWAP1 JUMPDEST DUP2 SLOAD DUP2 MSTORE SWAP1 PUSH1 0x1 ADD SWAP1 PUSH1 0x20 ADD DUP1 DUP4 GT PUSH2 0x412 JUMPI DUP3 SWAP1 SUB PUSH1 0x1F AND DUP3 ADD SWAP2 JUMPDEST POP POP POP POP POP SWAP1 POP SWAP1 JUMP JUMPDEST PUSH0 PUSH0 PUSH2 0x443 PUSH2 0xB04 JUMP JUMPDEST SWAP1 POP PUSH2 0x450 DUP2 DUP6 DUP6 PUSH2 0xB12 JUMP JUMPDEST PUSH1 0x1 SWAP2 POP POP SWAP3 SWAP2 POP POP JUMP JUMPDEST PUSH0 PUSH1 0x2 SLOAD SWAP1 POP SWAP1 JUMP JUMPDEST PUSH0 PUSH20 0xFFFFFFFFFFFFFFFFFFFFFFFFFFFFFFFFFFFFFFFF AND DUP3 PUSH20 0xFFFFFFFFFFFFFFFFFFFFFFFFFFFFFFFFFFFFFFFF AND SUB PUSH2 0x4D2 JUMPI PUSH1 0x40 MLOAD PUSH32 0x8C379A000000000000000000000000000000000000000000000000000000000 DUP2 MSTORE PUSH1 0x4 ADD PUSH2 0x4C9 SWAP1 PUSH2 0x1709 JUMP JUMPDEST PUSH1 0x40 MLOAD DUP1 SWAP2 SUB SWAP1 REVERT JUMPDEST DUP1 PUSH2 0x4DC DUP4 PUSH2 0x68C JUMP JUMPDEST LT ISZERO PUSH2 0x51D JUMPI PUSH1 0x40 MLOAD PUSH32 0x8C379A000000000000000000000000000000000000000000000000000000000 DUP2 MSTORE PUSH1 0x4 ADD PUSH2 0x514 SWAP1 PUSH2 0x1797 JUMP JUMPDEST PUSH1 0x40 MLOAD DUP1 SWAP2 SUB SWAP1 REVERT JUMPDEST PUSH0 CALLER SWAP1 POP PUSH0 PUSH2 0x52B DUP4 PUSH2 0xB24 JUMP JUMPDEST SWAP1 POP PUSH2 0x538 DUP5 DUP4 DUP4 PUSH2 0xB4B JUMP JUMPDEST POP POP POP POP JUMP JUMPDEST PUSH0 PUSH0 PUSH2 0x548 PUSH2 0xB04 JUMP JUMPDEST SWAP1 POP PUSH2 0x555 DUP6 DUP3 DUP6 PUSH2 0xC3B JUMP JUMPDEST PUSH2 0x560 DUP6 DUP6 DUP6 PUSH2 0xB4B JUMP JUMPDEST PUSH1 0x1 SWAP2 POP POP SWAP4 SWAP3 POP POP POP JUMP JUMPDEST PUSH2 0x575 CALLER PUSH2 0x67B JUMP JUMPDEST DUP1 PUSH2 0x5B9 JUMPI POP PUSH2 0x583 PUSH2 0x70B JUMP JUMPDEST PUSH20 0xFFFFFFFFFFFFFFFFFFFFFFFFFFFFFFFFFFFFFFFF AND PUSH2 0x5A1 PUSH2 0xB04 JUMP JUMPDEST PUSH20 0xFFFFFFFFFFFFFFFFFFFFFFFFFFFFFFFFFFFFFFFF AND EQ JUMPDEST PUSH2 0x5F8 JUMPI PUSH1 0x40 MLOAD PUSH32 0x8C379A000000000000000000000000000000000000000000000000000000000 DUP2 MSTORE PUSH1 0x4 ADD PUSH2 0x5EF SWAP1 PUSH2 0x1825 JUMP JUMPDEST PUSH1 0x40 MLOAD DUP1 SWAP2 SUB SWAP1 REVERT JUMPDEST DUP1 PUSH2 0x609 PUSH2 0x604 PUSH2 0xB04 JUMP JUMPDEST PUSH2 0x68C JUMP JUMPDEST LT ISZERO PUSH2 0x64A JUMPI PUSH1 0x40 MLOAD PUSH32 0x8C379A000000000000000000000000000000000000000000000000000000000 DUP2 MSTORE PUSH1 0x4 ADD PUSH2 0x641 SWAP1 PUSH2 0x1797 JUMP JUMPDEST PUSH1 0x40 MLOAD DUP1 SWAP2 SUB SWAP1 REVERT JUMPDEST PUSH0 PUSH2 0x654 DUP3 PUSH2 0xB24 JUMP JUMPDEST SWAP1 POP PUSH2 0x66F PUSH2 0x661 PUSH2 0xB04 JUMP JUMPDEST PUSH2 0x669 PUSH2 0x70B JUMP JUMPDEST DUP4 PUSH2 0xB4B JUMP JUMPDEST POP POP JUMP JUMPDEST PUSH0 PUSH1 0x12 SWAP1 POP SWAP1 JUMP JUMPDEST PUSH0 PUSH2 0x685 DUP3 PUSH2 0xCCE JUMP JUMPDEST SWAP1 POP SWAP2 SWAP1 POP JUMP JUMPDEST PUSH0 PUSH0 PUSH0 DUP4 PUSH20 0xFFFFFFFFFFFFFFFFFFFFFFFFFFFFFFFFFFFFFFFF AND PUSH20 0xFFFFFFFFFFFFFFFFFFFFFFFFFFFFFFFFFFFFFFFF AND DUP2 MSTORE PUSH1 0x20 ADD SWAP1 DUP2 MSTORE PUSH1 0x20 ADD PUSH0 KECCAK256 SLOAD SWAP1 POP SWAP2 SWAP1 POP JUMP JUMPDEST PUSH2 0x6D9 PUSH2 0xD0C JUMP JUMPDEST PUSH2 0x6E2 PUSH0 PUSH2 0xD93 JUMP JUMPDEST JUMP JUMPDEST PUSH0 PUSH32 0x0 SWAP1 POP SWAP1 JUMP JUMPDEST PUSH0 PUSH1 0x5 PUSH0 SWAP1 SLOAD SWAP1 PUSH2 0x100 EXP SWAP1 DIV PUSH20 0xFFFFFFFFFFFFFFFFFFFFFFFFFFFFFFFFFFFFFFFF AND SWAP1 POP SWAP1 JUMP JUMPDEST PUSH1 0x60 PUSH1 0x4 DUP1 SLOAD PUSH2 0x742 SWAP1 PUSH2 0x1669 JUMP JUMPDEST DUP1 PUSH1 0x1F ADD PUSH1 0x20 DUP1 SWAP2 DIV MUL PUSH1 0x20 ADD PUSH1 0x40 MLOAD SWAP1 DUP2 ADD PUSH1 0x40 MSTORE DUP1 SWAP3 SWAP2 SWAP1 DUP2 DUP2 MSTORE PUSH1 0x20 ADD DUP3 DUP1 SLOAD PUSH2 0x76E SWAP1 PUSH2 0x1669 JUMP JUMPDEST DUP1 ISZERO PUSH2 0x7B9 JUMPI DUP1 PUSH1 0x1F LT PUSH2 0x790 JUMPI PUSH2 0x100 DUP1 DUP4 SLOAD DIV MUL DUP4 MSTORE SWAP2 PUSH1 0x20 ADD SWAP2 PUSH2 0x7B9 JUMP JUMPDEST DUP3 ADD SWAP2 SWAP1 PUSH0 MSTORE PUSH1 0x20 PUSH0 KECCAK256 SWAP1 JUMPDEST DUP2 SLOAD DUP2 MSTORE SWAP1 PUSH1 0x1 ADD SWAP1 PUSH1 0x20 ADD DUP1 DUP4 GT PUSH2 0x79C JUMPI DUP3 SWAP1 SUB PUSH1 0x1F AND DUP3 ADD SWAP2 JUMPDEST POP POP POP POP POP SWAP1 POP SWAP1 JUMP JUMPDEST PUSH0 PUSH0 PUSH2 0x7CD PUSH2 0xB04 JUMP JUMPDEST SWAP1 POP PUSH2 0x7DA DUP2 DUP6 DUP6 PUSH2 0xB4B JUMP JUMPDEST PUSH1 0x1 SWAP2 POP POP SWAP3 SWAP2 POP POP JUMP JUMPDEST PUSH2 0x7EE CALLER PUSH2 0x67B JUMP JUMPDEST DUP1 PUSH2 0x832 JUMPI POP PUSH2 0x7FC PUSH2 0x70B JUMP JUMPDEST PUSH20 0xFFFFFFFFFFFFFFFFFFFFFFFFFFFFFFFFFFFFFFFF AND PUSH2 0x81A PUSH2 0xB04 JUMP JUMPDEST PUSH20 0xFFFFFFFFFFFFFFFFFFFFFFFFFFFFFFFFFFFFFFFF AND EQ JUMPDEST PUSH2 0x871 JUMPI PUSH1 0x40 MLOAD PUSH32 0x8C379A000000000000000000000000000000000000000000000000000000000 DUP2 MSTORE PUSH1 0x4 ADD PUSH2 0x868 SWAP1 PUSH2 0x1825 JUMP JUMPDEST PUSH1 0x40 MLOAD DUP1 SWAP2 SUB SWAP1 REVERT JUMPDEST DUP1 PUSH2 0x882 PUSH2 0x87D PUSH2 0x70B JUMP JUMPDEST PUSH2 0x68C JUMP JUMPDEST LT ISZERO PUSH2 0x8C3 JUMPI PUSH1 0x40 MLOAD PUSH32 0x8C379A000000000000000000000000000000000000000000000000000000000 DUP2 MSTORE PUSH1 0x4 ADD PUSH2 0x8BA SWAP1 PUSH2 0x188D JUMP JUMPDEST PUSH1 0x40 MLOAD DUP1 SWAP2 SUB SWAP1 REVERT JUMPDEST PUSH0 PUSH2 0x8CD DUP3 PUSH2 0xB24 JUMP JUMPDEST SWAP1 POP PUSH2 0x8E8 PUSH2 0x8DA PUSH2 0x70B JUMP JUMPDEST PUSH2 0x8E2 PUSH2 0xB04 JUMP JUMPDEST DUP4 PUSH2 0xB4B JUMP JUMPDEST POP POP JUMP JUMPDEST PUSH2 0x8F4 PUSH2 0xD0C JUMP JUMPDEST PUSH0 PUSH2 0x8FE DUP3 PUSH2 0xB24 JUMP JUMPDEST SWAP1 POP PUSH2 0x911 PUSH2 0x90B PUSH2 0x70B JUMP JUMPDEST DUP3 PUSH2 0xE56 JUMP JUMPDEST POP POP JUMP JUMPDEST PUSH0 PUSH1 0x1 PUSH0 DUP5 PUSH20 0xFFFFFFFFFFFFFFFFFFFFFFFFFFFFFFFFFFFFFFFF AND PUSH20 0xFFFFFFFFFFFFFFFFFFFFFFFFFFFFFFFFFFFFFFFF AND DUP2 MSTORE PUSH1 0x20 ADD SWAP1 DUP2 MSTORE PUSH1 0x20 ADD PUSH0 KECCAK256 PUSH0 DUP4 PUSH20 0xFFFFFFFFFFFFFFFFFFFFFFFFFFFFFFFFFFFFFFFF AND PUSH20 0xFFFFFFFFFFFFFFFFFFFFFFFFFFFFFFFFFFFFFFFF AND DUP2 MSTORE PUSH1 0x20 ADD SWAP1 DUP2 MSTORE PUSH1 0x20 ADD PUSH0 KECCAK256 SLOAD SWAP1 POP SWAP3 SWAP2 POP POP JUMP JUMPDEST PUSH2 0x99F PUSH2 0xD0C JUMP JUMPDEST PUSH0 PUSH20 0xFFFFFFFFFFFFFFFFFFFFFFFFFFFFFFFFFFFFFFFF AND DUP2 PUSH20 0xFFFFFFFFFFFFFFFFFFFFFFFFFFFFFFFFFFFFFFFF AND SUB PUSH2 0xA0F JUMPI PUSH0 PUSH1 0x40 MLOAD PUSH32 0x1E4FBDF700000000000000000000000000000000000000000000000000000000 DUP2 MSTORE PUSH1 0x4 ADD PUSH2 0xA06 SWAP2 SWAP1 PUSH2 0x15E5 JUMP JUMPDEST PUSH1 0x40 MLOAD DUP1 SWAP2 SUB SWAP1 REVERT JUMPDEST PUSH2 0xA18 DUP2 PUSH2 0xD93 JUMP JUMPDEST POP JUMP JUMPDEST PUSH2 0xA23 PUSH2 0xD0C JUMP JUMPDEST PUSH0 PUSH20 0xFFFFFFFFFFFFFFFFFFFFFFFFFFFFFFFFFFFFFFFF AND DUP3 PUSH20 0xFFFFFFFFFFFFFFFFFFFFFFFFFFFFFFFFFFFFFFFF AND SUB PUSH2 0xA91 JUMPI PUSH1 0x40 MLOAD PUSH32 0x8C379A000000000000000000000000000000000000000000000000000000000 DUP2 MSTORE PUSH1 0x4 ADD PUSH2 0xA88 SWAP1 PUSH2 0x1709 JUMP JUMPDEST PUSH1 0x40 MLOAD DUP1 SWAP2 SUB SWAP1 REVERT JUMPDEST DUP1 PUSH2 0xAA2 PUSH2 0xA9D PUSH2 0x70B JUMP JUMPDEST PUSH2 0x68C JUMP JUMPDEST LT ISZERO PUSH2 0xAE3 JUMPI PUSH1 0x40 MLOAD PUSH32 0x8C379A000000000000000000000000000000000000000000000000000000000 DUP2 MSTORE PUSH1 0x4 ADD PUSH2 0xADA SWAP1 PUSH2 0x188D JUMP JUMPDEST PUSH1 0x40 MLOAD DUP1 SWAP2 SUB SWAP1 REVERT JUMPDEST PUSH0 CALLER SWAP1 POP PUSH0 PUSH2 0xAF1 DUP4 PUSH2 0xB24 JUMP JUMPDEST SWAP1 POP PUSH2 0xAFE DUP3 DUP6 DUP4 PUSH2 0xB4B JUMP JUMPDEST POP POP POP POP JUMP JUMPDEST PUSH0 PUSH2 0xB0D PUSH2 0xED5 JUMP JUMPDEST SWAP1 POP SWAP1 JUMP JUMPDEST PUSH2 0xB1F DUP4 DUP4 DUP4 PUSH1 0x1 PUSH2 0xF3D JUMP JUMPDEST POP POP POP JUMP JUMPDEST PUSH0 PUSH2 0xB2D PUSH2 0x673 JUMP JUMPDEST PUSH1 0xA PUSH2 0xB39 SWAP2 SWAP1 PUSH2 0x1A07 JUMP JUMPDEST DUP3 PUSH2 0xB44 SWAP2 SWAP1 PUSH2 0x1A51 JUMP JUMPDEST SWAP1 POP SWAP2 SWAP1 POP JUMP JUMPDEST PUSH0 PUSH20 0xFFFFFFFFFFFFFFFFFFFFFFFFFFFFFFFFFFFFFFFF AND DUP4 PUSH20 0xFFFFFFFFFFFFFFFFFFFFFFFFFFFFFFFFFFFFFFFF AND SUB PUSH2 0xBBB JUMPI PUSH0 PUSH1 0x40 MLOAD PUSH32 0x96C6FD1E00000000000000000000000000000000000000000000000000000000 DUP2 MSTORE PUSH1 0x4 ADD PUSH2 0xBB2 SWAP2 SWAP1 PUSH2 0x15E5 JUMP JUMPDEST PUSH1 0x40 MLOAD DUP1 SWAP2 SUB SWAP1 REVERT JUMPDEST PUSH0 PUSH20 0xFFFFFFFFFFFFFFFFFFFFFFFFFFFFFFFFFFFFFFFF AND DUP3 PUSH20 0xFFFFFFFFFFFFFFFFFFFFFFFFFFFFFFFFFFFFFFFF AND SUB PUSH2 0xC2B JUMPI PUSH0 PUSH1 0x40 MLOAD PUSH32 0xEC442F0500000000000000000000000000000000000000000000000000000000 DUP2 MSTORE PUSH1 0x4 ADD PUSH2 0xC22 SWAP2 SWAP1 PUSH2 0x15E5 JUMP JUMPDEST PUSH1 0x40 MLOAD DUP1 SWAP2 SUB SWAP1 REVERT JUMPDEST PUSH2 0xC36 DUP4 DUP4 DUP4 PUSH2 0x110C JUMP JUMPDEST POP POP POP JUMP JUMPDEST PUSH0 PUSH2 0xC46 DUP5 DUP5 PUSH2 0x915 JUMP JUMPDEST SWAP1 POP PUSH32 0xFFFFFFFFFFFFFFFFFFFFFFFFFFFFFFFFFFFFFFFFFFFFFFFFFFFFFFFFFFFFFFFF DUP2 LT ISZERO PUSH2 0xCC8 JUMPI DUP2 DUP2 LT ISZERO PUSH2 0xCB9 JUMPI DUP3 DUP2 DUP4 PUSH1 0x40 MLOAD PUSH32 0xFB8F41B200000000000000000000000000000000000000000000000000000000 DUP2 MSTORE PUSH1 0x4 ADD PUSH2 0xCB0 SWAP4 SWAP3 SWAP2 SWAP1 PUSH2 0x1A92 JUMP JUMPDEST PUSH1 0x40 MLOAD DUP1 SWAP2 SUB SWAP1 REVERT JUMPDEST PUSH2 0xCC7 DUP5 DUP5 DUP5 DUP5 SUB PUSH0 PUSH2 0xF3D JUMP JUMPDEST JUMPDEST POP POP POP POP JUMP JUMPDEST PUSH0 PUSH2 0xCD7 PUSH2 0x6E4 JUMP JUMPDEST PUSH20 0xFFFFFFFFFFFFFFFFFFFFFFFFFFFFFFFFFFFFFFFF AND DUP3 PUSH20 0xFFFFFFFFFFFFFFFFFFFFFFFFFFFFFFFFFFFFFFFF AND EQ SWAP1 POP SWAP2 SWAP1 POP JUMP JUMPDEST PUSH2 0xD14 PUSH2 0xB04 JUMP JUMPDEST PUSH20 0xFFFFFFFFFFFFFFFFFFFFFFFFFFFFFFFFFFFFFFFF AND PUSH2 0xD32 PUSH2 0x70B JUMP JUMPDEST PUSH20 0xFFFFFFFFFFFFFFFFFFFFFFFFFFFFFFFFFFFFFFFF AND EQ PUSH2 0xD91 JUMPI PUSH2 0xD55 PUSH2 0xB04 JUMP JUMPDEST PUSH1 0x40 MLOAD PUSH32 0x118CDAA700000000000000000000000000000000000000000000000000000000 DUP2 MSTORE PUSH1 0x4 ADD PUSH2 0xD88 SWAP2 SWAP1 PUSH2 0x15E5 JUMP JUMPDEST PUSH1 0x40 MLOAD DUP1 SWAP2 SUB SWAP1 REVERT JUMPDEST JUMP JUMPDEST PUSH0 PUSH1 0x5 PUSH0 SWAP1 SLOAD SWAP1 PUSH2 0x100 EXP SWAP1 DIV PUSH20 0xFFFFFFFFFFFFFFFFFFFFFFFFFFFFFFFFFFFFFFFF AND SWAP1 POP DUP2 PUSH1 0x5 PUSH0 PUSH2 0x100 EXP DUP2 SLOAD DUP2 PUSH20 0xFFFFFFFFFFFFFFFFFFFFFFFFFFFFFFFFFFFFFFFF MUL NOT AND SWAP1 DUP4 PUSH20 0xFFFFFFFFFFFFFFFFFFFFFFFFFFFFFFFFFFFFFFFF AND MUL OR SWAP1 SSTORE POP DUP2 PUSH20 0xFFFFFFFFFFFFFFFFFFFFFFFFFFFFFFFFFFFFFFFF AND DUP2 PUSH20 0xFFFFFFFFFFFFFFFFFFFFFFFFFFFFFFFFFFFFFFFF AND PUSH32 0x8BE0079C531659141344CD1FD0A4F28419497F9722A3DAAFE3B4186F6B6457E0 PUSH1 0x40 MLOAD PUSH1 0x40 MLOAD DUP1 SWAP2 SUB SWAP1 LOG3 POP POP JUMP JUMPDEST PUSH0 PUSH20 0xFFFFFFFFFFFFFFFFFFFFFFFFFFFFFFFFFFFFFFFF AND DUP3 PUSH20 0xFFFFFFFFFFFFFFFFFFFFFFFFFFFFFFFFFFFFFFFF AND SUB PUSH2 0xEC6 JUMPI PUSH0 PUSH1 0x40 MLOAD PUSH32 0xEC442F0500000000000000000000000000000000000000000000000000000000 DUP2 MSTORE PUSH1 0x4 ADD PUSH2 0xEBD SWAP2 SWAP1 PUSH2 0x15E5 JUMP JUMPDEST PUSH1 0x40 MLOAD DUP1 SWAP2 SUB SWAP1 REVERT JUMPDEST PUSH2 0xED1 PUSH0 DUP4 DUP4 PUSH2 0x110C JUMP JUMPDEST POP POP JUMP JUMPDEST PUSH0 PUSH0 PUSH0 CALLDATASIZE SWAP1 POP SWAP1 POP PUSH0 PUSH2 0xEE6 PUSH2 0x1325 JUMP JUMPDEST SWAP1 POP DUP1 DUP3 LT ISZERO DUP1 ISZERO PUSH2 0xEFD JUMPI POP PUSH2 0xEFC CALLER PUSH2 0x67B JUMP JUMPDEST JUMPDEST ISZERO PUSH2 0xF2D JUMPI PUSH0 CALLDATASIZE DUP3 DUP5 SUB SWAP1 DUP1 SWAP3 PUSH2 0xF16 SWAP4 SWAP3 SWAP2 SWAP1 PUSH2 0x1ACF JUMP JUMPDEST SWAP1 PUSH2 0xF21 SWAP2 SWAP1 PUSH2 0x1B4A JUMP JUMPDEST PUSH1 0x60 SHR SWAP3 POP POP POP PUSH2 0xF3A JUMP JUMPDEST PUSH2 0xF35 PUSH2 0x1333 JUMP JUMPDEST SWAP3 POP POP POP JUMPDEST SWAP1 JUMP JUMPDEST PUSH0 PUSH20 0xFFFFFFFFFFFFFFFFFFFFFFFFFFFFFFFFFFFFFFFF AND DUP5 PUSH20 0xFFFFFFFFFFFFFFFFFFFFFFFFFFFFFFFFFFFFFFFF AND SUB PUSH2 0xFAD JUMPI PUSH0 PUSH1 0x40 MLOAD PUSH32 0xE602DF0500000000000000000000000000000000000000000000000000000000 DUP2 MSTORE PUSH1 0x4 ADD PUSH2 0xFA4 SWAP2 SWAP1 PUSH2 0x15E5 JUMP JUMPDEST PUSH1 0x40 MLOAD DUP1 SWAP2 SUB SWAP1 REVERT JUMPDEST PUSH0 PUSH20 0xFFFFFFFFFFFFFFFFFFFFFFFFFFFFFFFFFFFFFFFF AND DUP4 PUSH20 0xFFFFFFFFFFFFFFFFFFFFFFFFFFFFFFFFFFFFFFFF AND SUB PUSH2 0x101D JUMPI PUSH0 PUSH1 0x40 MLOAD PUSH32 0x94280D6200000000000000000000000000000000000000000000000000000000 DUP2 MSTORE PUSH1 0x4 ADD PUSH2 0x1014 SWAP2 SWAP1 PUSH2 0x15E5 JUMP JUMPDEST PUSH1 0x40 MLOAD DUP1 SWAP2 SUB SWAP1 REVERT JUMPDEST DUP2 PUSH1 0x1 PUSH0 DUP7 PUSH20 0xFFFFFFFFFFFFFFFFFFFFFFFFFFFFFFFFFFFFFFFF AND PUSH20 0xFFFFFFFFFFFFFFFFFFFFFFFFFFFFFFFFFFFFFFFF AND DUP2 MSTORE PUSH1 0x20 ADD SWAP1 DUP2 MSTORE PUSH1 0x20 ADD PUSH0 KECCAK256 PUSH0 DUP6 PUSH20 0xFFFFFFFFFFFFFFFFFFFFFFFFFFFFFFFFFFFFFFFF AND PUSH20 0xFFFFFFFFFFFFFFFFFFFFFFFFFFFFFFFFFFFFFFFF AND DUP2 MSTORE PUSH1 0x20 ADD SWAP1 DUP2 MSTORE PUSH1 0x20 ADD PUSH0 KECCAK256 DUP2 SWAP1 SSTORE POP DUP1 ISZERO PUSH2 0x1106 JUMPI DUP3 PUSH20 0xFFFFFFFFFFFFFFFFFFFFFFFFFFFFFFFFFFFFFFFF AND DUP5 PUSH20 0xFFFFFFFFFFFFFFFFFFFFFFFFFFFFFFFFFFFFFFFF AND PUSH32 0x8C5BE1E5EBEC7D5BD14F71427D1E84F3DD0314C0F7B2291E5B200AC8C7C3B925 DUP5 PUSH1 0x40 MLOAD PUSH2 0x10FD SWAP2 SWAP1 PUSH2 0x14E3 JUMP JUMPDEST PUSH1 0x40 MLOAD DUP1 SWAP2 SUB SWAP1 LOG3 JUMPDEST POP POP POP POP JUMP JUMPDEST PUSH0 PUSH20 0xFFFFFFFFFFFFFFFFFFFFFFFFFFFFFFFFFFFFFFFF AND DUP4 PUSH20 0xFFFFFFFFFFFFFFFFFFFFFFFFFFFFFFFFFFFFFFFF AND SUB PUSH2 0x115C JUMPI DUP1 PUSH1 0x2 PUSH0 DUP3 DUP3 SLOAD PUSH2 0x1150 SWAP2 SWAP1 PUSH2 0x1BA8 JUMP JUMPDEST SWAP3 POP POP DUP2 SWAP1 SSTORE POP PUSH2 0x122A JUMP JUMPDEST PUSH0 PUSH0 PUSH0 DUP6 PUSH20 0xFFFFFFFFFFFFFFFFFFFFFFFFFFFFFFFFFFFFFFFF AND PUSH20 0xFFFFFFFFFFFFFFFFFFFFFFFFFFFFFFFFFFFFFFFF AND DUP2 MSTORE PUSH1 0x20 ADD SWAP1 DUP2 MSTORE PUSH1 0x20 ADD PUSH0 KECCAK256 SLOAD SWAP1 POP DUP2 DUP2 LT ISZERO PUSH2 0x11E5 JUMPI DUP4 DUP2 DUP4 PUSH1 0x40 MLOAD PUSH32 0xE450D38C00000000000000000000000000000000000000000000000000000000 DUP2 MSTORE PUSH1 0x4 ADD PUSH2 0x11DC SWAP4 SWAP3 SWAP2 SWAP1 PUSH2 0x1A92 JUMP JUMPDEST PUSH1 0x40 MLOAD DUP1 SWAP2 SUB SWAP1 REVERT JUMPDEST DUP2 DUP2 SUB PUSH0 PUSH0 DUP7 PUSH20 0xFFFFFFFFFFFFFFFFFFFFFFFFFFFFFFFFFFFFFFFF AND PUSH20 0xFFFFFFFFFFFFFFFFFFFFFFFFFFFFFFFFFFFFFFFF AND DUP2 MSTORE PUSH1 0x20 ADD SWAP1 DUP2 MSTORE PUSH1 0x20 ADD PUSH0 KECCAK256 DUP2 SWAP1 SSTORE POP POP JUMPDEST PUSH0 PUSH20 0xFFFFFFFFFFFFFFFFFFFFFFFFFFFFFFFFFFFFFFFF AND DUP3 PUSH20 0xFFFFFFFFFFFFFFFFFFFFFFFFFFFFFFFFFFFFFFFF AND SUB PUSH2 0x1271 JUMPI DUP1 PUSH1 0x2 PUSH0 DUP3 DUP3 SLOAD SUB SWAP3 POP POP DUP2 SWAP1 SSTORE POP PUSH2 0x12BB JUMP JUMPDEST DUP1 PUSH0 PUSH0 DUP5 PUSH20 0xFFFFFFFFFFFFFFFFFFFFFFFFFFFFFFFFFFFFFFFF AND PUSH20 0xFFFFFFFFFFFFFFFFFFFFFFFFFFFFFFFFFFFFFFFF AND DUP2 MSTORE PUSH1 0x20 ADD SWAP1 DUP2 MSTORE PUSH1 0x20 ADD PUSH0 KECCAK256 PUSH0 DUP3 DUP3 SLOAD ADD SWAP3 POP POP DUP2 SWAP1 SSTORE POP JUMPDEST DUP2 PUSH20 0xFFFFFFFFFFFFFFFFFFFFFFFFFFFFFFFFFFFFFFFF AND DUP4 PUSH20 0xFFFFFFFFFFFFFFFFFFFFFFFFFFFFFFFFFFFFFFFF AND PUSH32 0xDDF252AD1BE2C89B69C2B068FC378DAA952BA7F163C4A11628F55A4DF523B3EF DUP4 PUSH1 0x40 MLOAD PUSH2 0x1318 SWAP2 SWAP1 PUSH2 0x14E3 JUMP JUMPDEST PUSH1 0x40 MLOAD DUP1 SWAP2 SUB SWAP1 LOG3 POP POP POP JUMP JUMPDEST PUSH0 PUSH2 0x132E PUSH2 0x133A JUMP JUMPDEST SWAP1 POP SWAP1 JUMP JUMPDEST PUSH0 CALLER SWAP1 POP SWAP1 JUMP JUMPDEST PUSH0 PUSH1 0x14 SWAP1 POP SWAP1 JUMP JUMPDEST PUSH0 DUP2 MLOAD SWAP1 POP SWAP2 SWAP1 POP JUMP JUMPDEST PUSH0 DUP3 DUP3 MSTORE PUSH1 0x20 DUP3 ADD SWAP1 POP SWAP3 SWAP2 POP POP JUMP JUMPDEST DUP3 DUP2 DUP4 MCOPY PUSH0 DUP4 DUP4 ADD MSTORE POP POP POP JUMP JUMPDEST PUSH0 PUSH1 0x1F NOT PUSH1 0x1F DUP4 ADD AND SWAP1 POP SWAP2 SWAP1 POP JUMP JUMPDEST PUSH0 PUSH2 0x1384 DUP3 PUSH2 0x1342 JUMP JUMPDEST PUSH2 0x138E DUP2 DUP6 PUSH2 0x134C JUMP JUMPDEST SWAP4 POP PUSH2 0x139E DUP2 DUP6 PUSH1 0x20 DUP7 ADD PUSH2 0x135C JUMP JUMPDEST PUSH2 0x13A7 DUP2 PUSH2 0x136A JUMP JUMPDEST DUP5 ADD SWAP2 POP POP SWAP3 SWAP2 POP POP JUMP JUMPDEST PUSH0 PUSH1 0x20 DUP3 ADD SWAP1 POP DUP2 DUP2 SUB PUSH0 DUP4 ADD MSTORE PUSH2 0x13CA DUP2 DUP5 PUSH2 0x137A JUMP JUMPDEST SWAP1 POP SWAP3 SWAP2 POP POP JUMP JUMPDEST PUSH0 PUSH0 REVERT JUMPDEST PUSH0 PUSH20 0xFFFFFFFFFFFFFFFFFFFFFFFFFFFFFFFFFFFFFFFF DUP3 AND SWAP1 POP SWAP2 SWAP1 POP JUMP JUMPDEST PUSH0 PUSH2 0x13FF DUP3 PUSH2 0x13D6 JUMP JUMPDEST SWAP1 POP SWAP2 SWAP1 POP JUMP JUMPDEST PUSH2 0x140F DUP2 PUSH2 0x13F5 JUMP JUMPDEST DUP2 EQ PUSH2 0x1419 JUMPI PUSH0 PUSH0 REVERT JUMPDEST POP JUMP JUMPDEST PUSH0 DUP2 CALLDATALOAD SWAP1 POP PUSH2 0x142A DUP2 PUSH2 0x1406 JUMP JUMPDEST SWAP3 SWAP2 POP POP JUMP JUMPDEST PUSH0 DUP2 SWAP1 POP SWAP2 SWAP1 POP JUMP JUMPDEST PUSH2 0x1442 DUP2 PUSH2 0x1430 JUMP JUMPDEST DUP2 EQ PUSH2 0x144C JUMPI PUSH0 PUSH0 REVERT JUMPDEST POP JUMP JUMPDEST PUSH0 DUP2 CALLDATALOAD SWAP1 POP PUSH2 0x145D DUP2 PUSH2 0x1439 JUMP JUMPDEST SWAP3 SWAP2 POP POP JUMP JUMPDEST PUSH0 PUSH0 PUSH1 0x40 DUP4 DUP6 SUB SLT ISZERO PUSH2 0x1479 JUMPI PUSH2 0x1478 PUSH2 0x13D2 JUMP JUMPDEST JUMPDEST PUSH0 PUSH2 0x1486 DUP6 DUP3 DUP7 ADD PUSH2 0x141C JUMP JUMPDEST SWAP3 POP POP PUSH1 0x20 PUSH2 0x1497 DUP6 DUP3 DUP7 ADD PUSH2 0x144F JUMP JUMPDEST SWAP2 POP POP SWAP3 POP SWAP3 SWAP1 POP JUMP JUMPDEST PUSH0 DUP2 ISZERO ISZERO SWAP1 POP SWAP2 SWAP1 POP JUMP JUMPDEST PUSH2 0x14B5 DUP2 PUSH2 0x14A1 JUMP JUMPDEST DUP3 MSTORE POP POP JUMP JUMPDEST PUSH0 PUSH1 0x20 DUP3 ADD SWAP1 POP PUSH2 0x14CE PUSH0 DUP4 ADD DUP5 PUSH2 0x14AC JUMP JUMPDEST SWAP3 SWAP2 POP POP JUMP JUMPDEST PUSH2 0x14DD DUP2 PUSH2 0x1430 JUMP JUMPDEST DUP3 MSTORE POP POP JUMP JUMPDEST PUSH0 PUSH1 0x20 DUP3 ADD SWAP1 POP PUSH2 0x14F6 PUSH0 DUP4 ADD DUP5 PUSH2 0x14D4 JUMP JUMPDEST SWAP3 SWAP2 POP POP JUMP JUMPDEST PUSH0 PUSH0 PUSH0 PUSH1 0x60 DUP5 DUP7 SUB SLT ISZERO PUSH2 0x1513 JUMPI PUSH2 0x1512 PUSH2 0x13D2 JUMP JUMPDEST JUMPDEST PUSH0 PUSH2 0x1520 DUP7 DUP3 DUP8 ADD PUSH2 0x141C JUMP JUMPDEST SWAP4 POP POP PUSH1 0x20 PUSH2 0x1531 DUP7 DUP3 DUP8 ADD PUSH2 0x141C JUMP JUMPDEST SWAP3 POP POP PUSH1 0x40 PUSH2 0x1542 DUP7 DUP3 DUP8 ADD PUSH2 0x144F JUMP JUMPDEST SWAP2 POP POP SWAP3 POP SWAP3 POP SWAP3 JUMP JUMPDEST PUSH0 PUSH1 0x20 DUP3 DUP5 SUB SLT ISZERO PUSH2 0x1561 JUMPI PUSH2 0x1560 PUSH2 0x13D2 JUMP JUMPDEST JUMPDEST PUSH0 PUSH2 0x156E DUP5 DUP3 DUP6 ADD PUSH2 0x144F JUMP JUMPDEST SWAP2 POP POP SWAP3 SWAP2 POP POP JUMP JUMPDEST PUSH0 PUSH1 0xFF DUP3 AND SWAP1 POP SWAP2 SWAP1 POP JUMP JUMPDEST PUSH2 0x158C DUP2 PUSH2 0x1577 JUMP JUMPDEST DUP3 MSTORE POP POP JUMP JUMPDEST PUSH0 PUSH1 0x20 DUP3 ADD SWAP1 POP PUSH2 0x15A5 PUSH0 DUP4 ADD DUP5 PUSH2 0x1583 JUMP JUMPDEST SWAP3 SWAP2 POP POP JUMP JUMPDEST PUSH0 PUSH1 0x20 DUP3 DUP5 SUB SLT ISZERO PUSH2 0x15C0 JUMPI PUSH2 0x15BF PUSH2 0x13D2 JUMP JUMPDEST JUMPDEST PUSH0 PUSH2 0x15CD DUP5 DUP3 DUP6 ADD PUSH2 0x141C JUMP JUMPDEST SWAP2 POP POP SWAP3 SWAP2 POP POP JUMP JUMPDEST PUSH2 0x15DF DUP2 PUSH2 0x13F5 JUMP JUMPDEST DUP3 MSTORE POP POP JUMP JUMPDEST PUSH0 PUSH1 0x20 DUP3 ADD SWAP1 POP PUSH2 0x15F8 PUSH0 DUP4 ADD DUP5 PUSH2 0x15D6 JUMP JUMPDEST SWAP3 SWAP2 POP POP JUMP JUMPDEST PUSH0 PUSH0 PUSH1 0x40 DUP4 DUP6 SUB SLT ISZERO PUSH2 0x1614 JUMPI PUSH2 0x1613 PUSH2 0x13D2 JUMP JUMPDEST JUMPDEST PUSH0 PUSH2 0x1621 DUP6 DUP3 DUP7 ADD PUSH2 0x141C JUMP JUMPDEST SWAP3 POP POP PUSH1 0x20 PUSH2 0x1632 DUP6 DUP3 DUP7 ADD PUSH2 0x141C JUMP JUMPDEST SWAP2 POP POP SWAP3 POP SWAP3 SWAP1 POP JUMP JUMPDEST PUSH32 0x4E487B7100000000000000000000000000000000000000000000000000000000 PUSH0 MSTORE PUSH1 0x22 PUSH1 0x4 MSTORE PUSH1 0x24 PUSH0 REVERT JUMPDEST PUSH0 PUSH1 0x2 DUP3 DIV SWAP1 POP PUSH1 0x1 DUP3 AND DUP1 PUSH2 0x1680 JUMPI PUSH1 0x7F DUP3 AND SWAP2 POP JUMPDEST PUSH1 0x20 DUP3 LT DUP2 SUB PUSH2 0x1693 JUMPI PUSH2 0x1692 PUSH2 0x163C JUMP JUMPDEST JUMPDEST POP SWAP2 SWAP1 POP JUMP JUMPDEST PUSH32 0x4E65772077616C6C65742063616E6E6F7420626520746865207A65726F206164 PUSH0 DUP3 ADD MSTORE PUSH32 0x6472657373000000000000000000000000000000000000000000000000000000 PUSH1 0x20 DUP3 ADD MSTORE POP JUMP JUMPDEST PUSH0 PUSH2 0x16F3 PUSH1 0x25 DUP4 PUSH2 0x134C JUMP JUMPDEST SWAP2 POP PUSH2 0x16FE DUP3 PUSH2 0x1699 JUMP JUMPDEST PUSH1 0x40 DUP3 ADD SWAP1 POP SWAP2 SWAP1 POP JUMP JUMPDEST PUSH0 PUSH1 0x20 DUP3 ADD SWAP1 POP DUP2 DUP2 SUB PUSH0 DUP4 ADD MSTORE PUSH2 0x1720 DUP2 PUSH2 0x16E7 JUMP JUMPDEST SWAP1 POP SWAP2 SWAP1 POP JUMP JUMPDEST PUSH32 0x557365722068617320696E73756666696369656E742062616C616E636520666F PUSH0 DUP3 ADD MSTORE PUSH32 0x72207472616E736665722E000000000000000000000000000000000000000000 PUSH1 0x20 DUP3 ADD MSTORE POP JUMP JUMPDEST PUSH0 PUSH2 0x1781 PUSH1 0x2B DUP4 PUSH2 0x134C JUMP JUMPDEST SWAP2 POP PUSH2 0x178C DUP3 PUSH2 0x1727 JUMP JUMPDEST PUSH1 0x40 DUP3 ADD SWAP1 POP SWAP2 SWAP1 POP JUMP JUMPDEST PUSH0 PUSH1 0x20 DUP3 ADD SWAP1 POP DUP2 DUP2 SUB PUSH0 DUP4 ADD MSTORE PUSH2 0x17AE DUP2 PUSH2 0x1775 JUMP JUMPDEST SWAP1 POP SWAP2 SWAP1 POP JUMP JUMPDEST PUSH32 0x526577617264546F6B656E3A204D757374207573652061205472757374656420 PUSH0 DUP3 ADD MSTORE PUSH32 0x466F72776172646572206F7220626520746865204F776E65722E000000000000 PUSH1 0x20 DUP3 ADD MSTORE POP JUMP JUMPDEST PUSH0 PUSH2 0x180F PUSH1 0x3A DUP4 PUSH2 0x134C JUMP JUMPDEST SWAP2 POP PUSH2 0x181A DUP3 PUSH2 0x17B5 JUMP JUMPDEST PUSH1 0x40 DUP3 ADD SWAP1 POP SWAP2 SWAP1 POP JUMP JUMPDEST PUSH0 PUSH1 0x20 DUP3 ADD SWAP1 POP DUP2 DUP2 SUB PUSH0 DUP4 ADD MSTORE PUSH2 0x183C DUP2 PUSH2 0x1803 JUMP JUMPDEST SWAP1 POP SWAP2 SWAP1 POP JUMP JUMPDEST PUSH32 0x546F6B656E732072756E206F7574000000000000000000000000000000000000 PUSH0 DUP3 ADD MSTORE POP JUMP JUMPDEST PUSH0 PUSH2 0x1877 PUSH1 0xE DUP4 PUSH2 0x134C JUMP JUMPDEST SWAP2 POP PUSH2 0x1882 DUP3 PUSH2 0x1843 JUMP JUMPDEST PUSH1 0x20 DUP3 ADD SWAP1 POP SWAP2 SWAP1 POP JUMP JUMPDEST PUSH0 PUSH1 0x20 DUP3 ADD SWAP1 POP DUP2 DUP2 SUB PUSH0 DUP4 ADD MSTORE PUSH2 0x18A4 DUP2 PUSH2 0x186B JUMP JUMPDEST SWAP1 POP SWAP2 SWAP1 POP JUMP JUMPDEST PUSH32 0x4E487B7100000000000000000000000000000000000000000000000000000000 PUSH0 MSTORE PUSH1 0x11 PUSH1 0x4 MSTORE PUSH1 0x24 PUSH0 REVERT JUMPDEST PUSH0 DUP2 PUSH1 0x1 SHR SWAP1 POP SWAP2 SWAP1 POP JUMP JUMPDEST PUSH0 PUSH0 DUP3 SWAP2 POP DUP4 SWAP1 POP JUMPDEST PUSH1 0x1 DUP6 GT ISZERO PUSH2 0x192D JUMPI DUP1 DUP7 DIV DUP2 GT ISZERO PUSH2 0x1909 JUMPI PUSH2 0x1908 PUSH2 0x18AB JUMP JUMPDEST JUMPDEST PUSH1 0x1 DUP6 AND ISZERO PUSH2 0x1918 JUMPI DUP1 DUP3 MUL SWAP2 POP JUMPDEST DUP1 DUP2 MUL SWAP1 POP PUSH2 0x1926 DUP6 PUSH2 0x18D8 JUMP JUMPDEST SWAP5 POP PUSH2 0x18ED JUMP JUMPDEST SWAP5 POP SWAP5 SWAP3 POP POP POP JUMP JUMPDEST PUSH0 DUP3 PUSH2 0x1945 JUMPI PUSH1 0x1 SWAP1 POP PUSH2 0x1A00 JUMP JUMPDEST DUP2 PUSH2 0x1952 JUMPI PUSH0 SWAP1 POP PUSH2 0x1A00 JUMP JUMPDEST DUP2 PUSH1 0x1 DUP2 EQ PUSH2 0x1968 JUMPI PUSH1 0x2 DUP2 EQ PUSH2 0x1972 JUMPI PUSH2 0x19A1 JUMP JUMPDEST PUSH1 0x1 SWAP2 POP POP PUSH2 0x1A00 JUMP JUMPDEST PUSH1 0xFF DUP5 GT ISZERO PUSH2 0x1984 JUMPI PUSH2 0x1983 PUSH2 0x18AB JUMP JUMPDEST JUMPDEST DUP4 PUSH1 0x2 EXP SWAP2 POP DUP5 DUP3 GT ISZERO PUSH2 0x199B JUMPI PUSH2 0x199A PUSH2 0x18AB JUMP JUMPDEST JUMPDEST POP PUSH2 0x1A00 JUMP JUMPDEST POP PUSH1 0x20 DUP4 LT PUSH2 0x133 DUP4 LT AND PUSH1 0x4E DUP5 LT PUSH1 0xB DUP5 LT AND OR ISZERO PUSH2 0x19D6 JUMPI DUP3 DUP3 EXP SWAP1 POP DUP4 DUP2 GT ISZERO PUSH2 0x19D1 JUMPI PUSH2 0x19D0 PUSH2 0x18AB JUMP JUMPDEST JUMPDEST PUSH2 0x1A00 JUMP JUMPDEST PUSH2 0x19E3 DUP5 DUP5 DUP5 PUSH1 0x1 PUSH2 0x18E4 JUMP JUMPDEST SWAP3 POP SWAP1 POP DUP2 DUP5 DIV DUP2 GT ISZERO PUSH2 0x19FA JUMPI PUSH2 0x19F9 PUSH2 0x18AB JUMP JUMPDEST JUMPDEST DUP2 DUP2 MUL SWAP1 POP JUMPDEST SWAP4 SWAP3 POP POP POP JUMP JUMPDEST PUSH0 PUSH2 0x1A11 DUP3 PUSH2 0x1430 JUMP JUMPDEST SWAP2 POP PUSH2 0x1A1C DUP4 PUSH2 0x1577 JUMP JUMPDEST SWAP3 POP PUSH2 0x1A49 PUSH32 0xFFFFFFFFFFFFFFFFFFFFFFFFFFFFFFFFFFFFFFFFFFFFFFFFFFFFFFFFFFFFFFFF DUP5 DUP5 PUSH2 0x1936 JUMP JUMPDEST SWAP1 POP SWAP3 SWAP2 POP POP JUMP JUMPDEST PUSH0 PUSH2 0x1A5B DUP3 PUSH2 0x1430 JUMP JUMPDEST SWAP2 POP PUSH2 0x1A66 DUP4 PUSH2 0x1430 JUMP JUMPDEST SWAP3 POP DUP3 DUP3 MUL PUSH2 0x1A74 DUP2 PUSH2 0x1430 JUMP JUMPDEST SWAP2 POP DUP3 DUP3 DIV DUP5 EQ DUP4 ISZERO OR PUSH2 0x1A8B JUMPI PUSH2 0x1A8A PUSH2 0x18AB JUMP JUMPDEST JUMPDEST POP SWAP3 SWAP2 POP POP JUMP JUMPDEST PUSH0 PUSH1 0x60 DUP3 ADD SWAP1 POP PUSH2 0x1AA5 PUSH0 DUP4 ADD DUP7 PUSH2 0x15D6 JUMP JUMPDEST PUSH2 0x1AB2 PUSH1 0x20 DUP4 ADD DUP6 PUSH2 0x14D4 JUMP JUMPDEST PUSH2 0x1ABF PUSH1 0x40 DUP4 ADD DUP5 PUSH2 0x14D4 JUMP JUMPDEST SWAP5 SWAP4 POP POP POP POP JUMP JUMPDEST PUSH0 PUSH0 REVERT JUMPDEST PUSH0 PUSH0 REVERT JUMPDEST PUSH0 PUSH0 DUP6 DUP6 GT ISZERO PUSH2 0x1AE2 JUMPI PUSH2 0x1AE1 PUSH2 0x1AC7 JUMP JUMPDEST JUMPDEST DUP4 DUP7 GT ISZERO PUSH2 0x1AF3 JUMPI PUSH2 0x1AF2 PUSH2 0x1ACB JUMP JUMPDEST JUMPDEST PUSH1 0x1 DUP6 MUL DUP4 ADD SWAP2 POP DUP5 DUP7 SUB SWAP1 POP SWAP5 POP SWAP5 SWAP3 POP POP POP JUMP JUMPDEST PUSH0 DUP3 SWAP1 POP SWAP3 SWAP2 POP POP JUMP JUMPDEST PUSH0 PUSH32 0xFFFFFFFFFFFFFFFFFFFFFFFFFFFFFFFFFFFFFFFF000000000000000000000000 DUP3 AND SWAP1 POP SWAP2 SWAP1 POP JUMP JUMPDEST PUSH0 DUP3 DUP3 SHL SWAP1 POP SWAP3 SWAP2 POP POP JUMP JUMPDEST PUSH0 PUSH2 0x1B55 DUP4 DUP4 PUSH2 0x1B09 JUMP JUMPDEST DUP3 PUSH2 0x1B60 DUP2 CALLDATALOAD PUSH2 0x1B13 JUMP JUMPDEST SWAP3 POP PUSH1 0x14 DUP3 LT ISZERO PUSH2 0x1BA0 JUMPI PUSH2 0x1B9B PUSH32 0xFFFFFFFFFFFFFFFFFFFFFFFFFFFFFFFFFFFFFFFF000000000000000000000000 DUP4 PUSH1 0x14 SUB PUSH1 0x8 MUL PUSH2 0x1B3E JUMP JUMPDEST DUP4 AND SWAP3 POP JUMPDEST POP POP SWAP3 SWAP2 POP POP JUMP JUMPDEST PUSH0 PUSH2 0x1BB2 DUP3 PUSH2 0x1430 JUMP JUMPDEST SWAP2 POP PUSH2 0x1BBD DUP4 PUSH2 0x1430 JUMP JUMPDEST SWAP3 POP DUP3 DUP3 ADD SWAP1 POP DUP1 DUP3 GT ISZERO PUSH2 0x1BD5 JUMPI PUSH2 0x1BD4 PUSH2 0x18AB JUMP JUMPDEST JUMPDEST SWAP3 SWAP2 POP POP JUMP INVALID LOG2 PUSH5 0x6970667358 0x22 SLT KECCAK256 0xE8 CALLVALUE 0xCD DUP10 MSTORE8 CALLCODE DUP1 GT 0xB7 MOD DUP10 REVERT DUPN 0xD6 DUP14 TSTORE BLOBBASEFEE PUSH8 0x60CD1CD1374299A2 PUSH25 0x148D5EACFB64736F6C634300081E0033000000000000000000 "
				},
				"gasEstimates": {
					"creation": {
						"codeDepositCost": "1437000",
						"executionCost": "infinite",
						"totalCost": "infinite"
					},
					"external": {
						"allowance(address,address)": "infinite",
						"approve(address,uint256)": "infinite",
						"balanceOf(address)": "2939",
						"claimReward(uint256)": "infinite",
						"claimRewardPublic(address,uint256)": "infinite",
						"decimals()": "405",
						"decreaseMyToken(uint256)": "infinite",
						"decreaseMyTokenPublic(address,uint256)": "infinite",
						"increaseSupply(uint256)": "infinite",
						"isTrustedForwarder(address)": "infinite",
						"name()": "infinite",
						"owner()": "2582",
						"renounceOwnership()": "infinite",
						"symbol()": "infinite",
						"totalSupply()": "2500",
						"transfer(address,uint256)": "infinite",
						"transferFrom(address,address,uint256)": "infinite",
						"transferOwnership(address)": "infinite",
						"trustedForwarder()": "infinite"
					},
					"internal": {
						"_contextSuffixLength()": "56",
						"_msgData()": "infinite",
						"_msgSender()": "infinite",
						"convertAmount(uint256)": "infinite"
					}
				},
				"methodIdentifiers": {
					"allowance(address,address)": "dd62ed3e",
					"approve(address,uint256)": "095ea7b3",
					"balanceOf(address)": "70a08231",
					"claimReward(uint256)": "ae169a50",
					"claimRewardPublic(address,uint256)": "ff010f5b",
					"decimals()": "313ce567",
					"decreaseMyToken(uint256)": "301aecb9",
					"decreaseMyTokenPublic(address,uint256)": "1bfdcd9d",
					"increaseSupply(uint256)": "b921e163",
					"isTrustedForwarder(address)": "572b6c05",
					"name()": "06fdde03",
					"owner()": "8da5cb5b",
					"renounceOwnership()": "715018a6",
					"symbol()": "95d89b41",
					"totalSupply()": "18160ddd",
					"transfer(address,uint256)": "a9059cbb",
					"transferFrom(address,address,uint256)": "23b872dd",
					"transferOwnership(address)": "f2fde38b",
					"trustedForwarder()": "7da0a877"
				}
			},
			"storageLayout": {
				"storage": [
					{
						"astId": 452,
						"contract": "contracts/reward.sol:RewardToken",
						"label": "_balances",
						"offset": 0,
						"slot": "0",
						"type": "t_mapping(t_address,t_uint256)"
					},
					{
						"astId": 458,
						"contract": "contracts/reward.sol:RewardToken",
						"label": "_allowances",
						"offset": 0,
						"slot": "1",
						"type": "t_mapping(t_address,t_mapping(t_address,t_uint256))"
					},
					{
						"astId": 460,
						"contract": "contracts/reward.sol:RewardToken",
						"label": "_totalSupply",
						"offset": 0,
						"slot": "2",
						"type": "t_uint256"
					},
					{
						"astId": 462,
						"contract": "contracts/reward.sol:RewardToken",
						"label": "_name",
						"offset": 0,
						"slot": "3",
						"type": "t_string_storage"
					},
					{
						"astId": 464,
						"contract": "contracts/reward.sol:RewardToken",
						"label": "_symbol",
						"offset": 0,
						"slot": "4",
						"type": "t_string_storage"
					},
					{
						"astId": 8,
						"contract": "contracts/reward.sol:RewardToken",
						"label": "_owner",
						"offset": 0,
						"slot": "5",
						"type": "t_address"
					}
				],
				"types": {
					"t_address": {
						"encoding": "inplace",
						"label": "address",
						"numberOfBytes": "20"
					},
					"t_mapping(t_address,t_mapping(t_address,t_uint256))": {
						"encoding": "mapping",
						"key": "t_address",
						"label": "mapping(address => mapping(address => uint256))",
						"numberOfBytes": "32",
						"value": "t_mapping(t_address,t_uint256)"
					},
					"t_mapping(t_address,t_uint256)": {
						"encoding": "mapping",
						"key": "t_address",
						"label": "mapping(address => uint256)",
						"numberOfBytes": "32",
						"value": "t_uint256"
					},
					"t_string_storage": {
						"encoding": "bytes",
						"label": "string",
						"numberOfBytes": "32"
					},
					"t_uint256": {
						"encoding": "inplace",
						"label": "uint256",
						"numberOfBytes": "32"
					}
				}
			},
			"userdoc": {
				"kind": "user",
				"methods": {},
				"version": 1
			}
		}
	}
}